{
	"src/CrossChainStaking.sol": {
		"CrossChainStaking": {
			"abi": [
				{
					"inputs": [
						{
							"internalType": "address",
							"name": "_rewardToken",
							"type": "address"
						},
						{
							"internalType": "uint256",
							"name": "_rewardRate",
							"type": "uint256"
						}
					],
					"stateMutability": "nonpayable",
					"type": "constructor"
				},
				{
					"anonymous": false,
					"inputs": [
						{
							"indexed": true,
							"internalType": "address",
							"name": "user",
							"type": "address"
						},
						{
							"indexed": false,
							"internalType": "uint256",
							"name": "amount",
							"type": "uint256"
						}
					],
					"name": "RewardClaimed",
					"type": "event"
				},
				{
					"anonymous": false,
					"inputs": [
						{
							"indexed": true,
							"internalType": "address",
							"name": "user",
							"type": "address"
						},
						{
							"indexed": false,
							"internalType": "uint256",
							"name": "amount",
							"type": "uint256"
						}
					],
					"name": "Staked",
					"type": "event"
				},
				{
					"inputs": [],
					"name": "claimRewards",
					"outputs": [],
					"stateMutability": "nonpayable",
					"type": "function"
				},
				{
					"inputs": [],
					"name": "rewardRate",
					"outputs": [
						{
							"internalType": "uint256",
							"name": "",
							"type": "uint256"
						}
					],
					"stateMutability": "view",
					"type": "function"
				},
				{
					"inputs": [],
					"name": "rewardToken",
					"outputs": [
						{
							"internalType": "address",
							"name": "",
							"type": "address"
						}
					],
					"stateMutability": "view",
					"type": "function"
				},
				{
					"inputs": [
						{
							"internalType": "address",
							"name": "token",
							"type": "address"
						},
						{
							"internalType": "uint256",
							"name": "amount",
							"type": "uint256"
						}
					],
					"name": "stake",
					"outputs": [],
					"stateMutability": "nonpayable",
					"type": "function"
				},
				{
					"inputs": [
						{
							"internalType": "address",
							"name": "",
							"type": "address"
						}
					],
					"name": "stakes",
					"outputs": [
						{
							"internalType": "uint256",
							"name": "amount",
							"type": "uint256"
						},
						{
							"internalType": "uint256",
							"name": "timestamp",
							"type": "uint256"
						}
					],
					"stateMutability": "view",
					"type": "function"
				}
			],
			"devdoc": {
				"kind": "dev",
				"methods": {},
				"version": 1
			},
			"evm": {
				"assembly": "    /* \"src/CrossChainStaking.sol\":120:1222  contract CrossChainStaking {... */\n  mstore(0x40, 0x80)\n    /* \"src/CrossChainStaking.sol\":480:615  constructor(address _rewardToken, uint256 _rewardRate) {... */\n  callvalue\n  dup1\n  iszero\n  tag_1\n  jumpi\n  0x00\n  dup1\n  revert\ntag_1:\n  pop\n  mload(0x40)\n  sub(codesize, bytecodeSize)\n  dup1\n  bytecodeSize\n  dup4\n  codecopy\n  dup2\n  dup2\n  add\n  0x40\n  mstore\n  dup2\n  add\n  swap1\n  tag_2\n  swap2\n  swap1\n  tag_3\n  jump\t// in\ntag_2:\n    /* \"src/CrossChainStaking.sol\":560:572  _rewardToken */\n  dup2\n    /* \"src/CrossChainStaking.sol\":546:557  rewardToken */\n  0x01\n  0x00\n    /* \"src/CrossChainStaking.sol\":546:572  rewardToken = _rewardToken */\n  0x0100\n  exp\n  dup2\n  sload\n  dup2\n  0xffffffffffffffffffffffffffffffffffffffff\n  mul\n  not\n  and\n  swap1\n  dup4\n  0xffffffffffffffffffffffffffffffffffffffff\n  and\n  mul\n  or\n  swap1\n  sstore\n  pop\n    /* \"src/CrossChainStaking.sol\":596:607  _rewardRate */\n  dup1\n    /* \"src/CrossChainStaking.sol\":583:593  rewardRate */\n  0x02\n    /* \"src/CrossChainStaking.sol\":583:607  rewardRate = _rewardRate */\n  dup2\n  swap1\n  sstore\n  pop\n    /* \"src/CrossChainStaking.sol\":480:615  constructor(address _rewardToken, uint256 _rewardRate) {... */\n  pop\n  pop\n    /* \"src/CrossChainStaking.sol\":120:1222  contract CrossChainStaking {... */\n  jump(tag_6)\n    /* \"#utility.yul\":88:205   */\ntag_8:\n    /* \"#utility.yul\":197:198   */\n  0x00\n    /* \"#utility.yul\":194:195   */\n  dup1\n    /* \"#utility.yul\":187:199   */\n  revert\n    /* \"#utility.yul\":334:460   */\ntag_10:\n    /* \"#utility.yul\":371:378   */\n  0x00\n    /* \"#utility.yul\":411:453   */\n  0xffffffffffffffffffffffffffffffffffffffff\n    /* \"#utility.yul\":404:409   */\n  dup3\n    /* \"#utility.yul\":400:454   */\n  and\n    /* \"#utility.yul\":389:454   */\n  swap1\n  pop\n    /* \"#utility.yul\":334:460   */\n  swap2\n  swap1\n  pop\n  jump\t// out\n    /* \"#utility.yul\":466:562   */\ntag_11:\n    /* \"#utility.yul\":503:510   */\n  0x00\n    /* \"#utility.yul\":532:556   */\n  tag_23\n    /* \"#utility.yul\":550:555   */\n  dup3\n    /* \"#utility.yul\":532:556   */\n  tag_10\n  jump\t// in\ntag_23:\n    /* \"#utility.yul\":521:556   */\n  swap1\n  pop\n    /* \"#utility.yul\":466:562   */\n  swap2\n  swap1\n  pop\n  jump\t// out\n    /* \"#utility.yul\":568:690   */\ntag_12:\n    /* \"#utility.yul\":641:665   */\n  tag_25\n    /* \"#utility.yul\":659:664   */\n  dup2\n    /* \"#utility.yul\":641:665   */\n  tag_11\n  jump\t// in\ntag_25:\n    /* \"#utility.yul\":634:639   */\n  dup2\n    /* \"#utility.yul\":631:666   */\n  eq\n    /* \"#utility.yul\":621:684   */\n  tag_26\n  jumpi\n    /* \"#utility.yul\":680:681   */\n  0x00\n    /* \"#utility.yul\":677:678   */\n  dup1\n    /* \"#utility.yul\":670:682   */\n  revert\n    /* \"#utility.yul\":621:684   */\ntag_26:\n    /* \"#utility.yul\":568:690   */\n  pop\n  jump\t// out\n    /* \"#utility.yul\":696:839   */\ntag_13:\n    /* \"#utility.yul\":753:758   */\n  0x00\n    /* \"#utility.yul\":784:790   */\n  dup2\n    /* \"#utility.yul\":778:791   */\n  mload\n    /* \"#utility.yul\":769:791   */\n  swap1\n  pop\n    /* \"#utility.yul\":800:833   */\n  tag_28\n    /* \"#utility.yul\":827:832   */\n  dup2\n    /* \"#utility.yul\":800:833   */\n  tag_12\n  jump\t// in\ntag_28:\n    /* \"#utility.yul\":696:839   */\n  swap3\n  swap2\n  pop\n  pop\n  jump\t// out\n    /* \"#utility.yul\":845:922   */\ntag_14:\n    /* \"#utility.yul\":882:889   */\n  0x00\n    /* \"#utility.yul\":911:916   */\n  dup2\n    /* \"#utility.yul\":900:916   */\n  swap1\n  pop\n    /* \"#utility.yul\":845:922   */\n  swap2\n  swap1\n  pop\n  jump\t// out\n    /* \"#utility.yul\":928:1050   */\ntag_15:\n    /* \"#utility.yul\":1001:1025   */\n  tag_31\n    /* \"#utility.yul\":1019:1024   */\n  dup2\n    /* \"#utility.yul\":1001:1025   */\n  tag_14\n  jump\t// in\ntag_31:\n    /* \"#utility.yul\":994:999   */\n  dup2\n    /* \"#utility.yul\":991:1026   */\n  eq\n    /* \"#utility.yul\":981:1044   */\n  tag_32\n  jumpi\n    /* \"#utility.yul\":1040:1041   */\n  0x00\n    /* \"#utility.yul\":1037:1038   */\n  dup1\n    /* \"#utility.yul\":1030:1042   */\n  revert\n    /* \"#utility.yul\":981:1044   */\ntag_32:\n    /* \"#utility.yul\":928:1050   */\n  pop\n  jump\t// out\n    /* \"#utility.yul\":1056:1199   */\ntag_16:\n    /* \"#utility.yul\":1113:1118   */\n  0x00\n    /* \"#utility.yul\":1144:1150   */\n  dup2\n    /* \"#utility.yul\":1138:1151   */\n  mload\n    /* \"#utility.yul\":1129:1151   */\n  swap1\n  pop\n    /* \"#utility.yul\":1160:1193   */\n  tag_34\n    /* \"#utility.yul\":1187:1192   */\n  dup2\n    /* \"#utility.yul\":1160:1193   */\n  tag_15\n  jump\t// in\ntag_34:\n    /* \"#utility.yul\":1056:1199   */\n  swap3\n  swap2\n  pop\n  pop\n  jump\t// out\n    /* \"#utility.yul\":1205:1712   */\ntag_3:\n    /* \"#utility.yul\":1284:1290   */\n  0x00\n    /* \"#utility.yul\":1292:1298   */\n  dup1\n    /* \"#utility.yul\":1341:1343   */\n  0x40\n    /* \"#utility.yul\":1329:1338   */\n  dup4\n    /* \"#utility.yul\":1320:1327   */\n  dup6\n    /* \"#utility.yul\":1316:1339   */\n  sub\n    /* \"#utility.yul\":1312:1344   */\n  slt\n    /* \"#utility.yul\":1309:1428   */\n  iszero\n  tag_36\n  jumpi\n    /* \"#utility.yul\":1347:1426   */\n  tag_37\n  tag_8\n  jump\t// in\ntag_37:\n    /* \"#utility.yul\":1309:1428   */\ntag_36:\n    /* \"#utility.yul\":1467:1468   */\n  0x00\n    /* \"#utility.yul\":1492:1556   */\n  tag_38\n    /* \"#utility.yul\":1548:1555   */\n  dup6\n    /* \"#utility.yul\":1539:1545   */\n  dup3\n    /* \"#utility.yul\":1528:1537   */\n  dup7\n    /* \"#utility.yul\":1524:1546   */\n  add\n    /* \"#utility.yul\":1492:1556   */\n  tag_13\n  jump\t// in\ntag_38:\n    /* \"#utility.yul\":1482:1556   */\n  swap3\n  pop\n    /* \"#utility.yul\":1438:1566   */\n  pop\n    /* \"#utility.yul\":1605:1607   */\n  0x20\n    /* \"#utility.yul\":1631:1695   */\n  tag_39\n    /* \"#utility.yul\":1687:1694   */\n  dup6\n    /* \"#utility.yul\":1678:1684   */\n  dup3\n    /* \"#utility.yul\":1667:1676   */\n  dup7\n    /* \"#utility.yul\":1663:1685   */\n  add\n    /* \"#utility.yul\":1631:1695   */\n  tag_16\n  jump\t// in\ntag_39:\n    /* \"#utility.yul\":1621:1695   */\n  swap2\n  pop\n    /* \"#utility.yul\":1576:1705   */\n  pop\n    /* \"#utility.yul\":1205:1712   */\n  swap3\n  pop\n  swap3\n  swap1\n  pop\n  jump\t// out\n    /* \"src/CrossChainStaking.sol\":120:1222  contract CrossChainStaking {... */\ntag_6:\n  dataSize(sub_0)\n  dup1\n  dataOffset(sub_0)\n  0x00\n  codecopy\n  0x00\n  return\nstop\n\nsub_0: assembly {\n        /* \"src/CrossChainStaking.sol\":120:1222  contract CrossChainStaking {... */\n      mstore(0x40, 0x80)\n      callvalue\n      dup1\n      iszero\n      tag_1\n      jumpi\n      0x00\n      dup1\n      revert\n    tag_1:\n      pop\n      jumpi(tag_2, lt(calldatasize, 0x04))\n      shr(0xe0, calldataload(0x00))\n      dup1\n      0x16934fc4\n      eq\n      tag_3\n      jumpi\n      dup1\n      0x372500ab\n      eq\n      tag_4\n      jumpi\n      dup1\n      0x7b0a47ee\n      eq\n      tag_5\n      jumpi\n      dup1\n      0xadc9772e\n      eq\n      tag_6\n      jumpi\n      dup1\n      0xf7c618c1\n      eq\n      tag_7\n      jumpi\n    tag_2:\n      0x00\n      dup1\n      revert\n        /* \"src/CrossChainStaking.sol\":240:283  mapping(address => StakeInfo) public stakes */\n    tag_3:\n      tag_8\n      0x04\n      dup1\n      calldatasize\n      sub\n      dup2\n      add\n      swap1\n      tag_9\n      swap2\n      swap1\n      tag_10\n      jump\t// in\n    tag_9:\n      tag_11\n      jump\t// in\n    tag_8:\n      mload(0x40)\n      tag_12\n      swap3\n      swap2\n      swap1\n      tag_13\n      jump\t// in\n    tag_12:\n      mload(0x40)\n      dup1\n      swap2\n      sub\n      swap1\n      return\n        /* \"src/CrossChainStaking.sol\":874:1219  function claimRewards() external {... */\n    tag_4:\n      tag_14\n      tag_15\n      jump\t// in\n    tag_14:\n      stop\n        /* \"src/CrossChainStaking.sol\":323:348  uint256 public rewardRate */\n    tag_5:\n      tag_16\n      tag_17\n      jump\t// in\n    tag_16:\n      mload(0x40)\n      tag_18\n      swap2\n      swap1\n      tag_19\n      jump\t// in\n    tag_18:\n      mload(0x40)\n      dup1\n      swap2\n      sub\n      swap1\n      return\n        /* \"src/CrossChainStaking.sol\":623:866  function stake(address token, uint256 amount) external {... */\n    tag_6:\n      tag_20\n      0x04\n      dup1\n      calldatasize\n      sub\n      dup2\n      add\n      swap1\n      tag_21\n      swap2\n      swap1\n      tag_22\n      jump\t// in\n    tag_21:\n      tag_23\n      jump\t// in\n    tag_20:\n      stop\n        /* \"src/CrossChainStaking.sol\":290:316  address public rewardToken */\n    tag_7:\n      tag_24\n      tag_25\n      jump\t// in\n    tag_24:\n      mload(0x40)\n      tag_26\n      swap2\n      swap1\n      tag_27\n      jump\t// in\n    tag_26:\n      mload(0x40)\n      dup1\n      swap2\n      sub\n      swap1\n      return\n        /* \"src/CrossChainStaking.sol\":240:283  mapping(address => StakeInfo) public stakes */\n    tag_11:\n      mstore(0x20, 0x00)\n      dup1\n      0x00\n      mstore\n      keccak256(0x00, 0x40)\n      0x00\n      swap2\n      pop\n      swap1\n      pop\n      dup1\n      0x00\n      add\n      sload\n      swap1\n      dup1\n      0x01\n      add\n      sload\n      swap1\n      pop\n      dup3\n      jump\t// out\n        /* \"src/CrossChainStaking.sol\":874:1219  function claimRewards() external {... */\n    tag_15:\n        /* \"src/CrossChainStaking.sol\":918:944  StakeInfo memory stakeInfo */\n      0x00\n        /* \"src/CrossChainStaking.sol\":947:953  stakes */\n      dup1\n        /* \"src/CrossChainStaking.sol\":947:965  stakes[msg.sender] */\n      0x00\n        /* \"src/CrossChainStaking.sol\":954:964  msg.sender */\n      caller\n        /* \"src/CrossChainStaking.sol\":947:965  stakes[msg.sender] */\n      0xffffffffffffffffffffffffffffffffffffffff\n      and\n      0xffffffffffffffffffffffffffffffffffffffff\n      and\n      dup2\n      mstore\n      0x20\n      add\n      swap1\n      dup2\n      mstore\n      0x20\n      add\n      0x00\n      keccak256\n        /* \"src/CrossChainStaking.sol\":918:965  StakeInfo memory stakeInfo = stakes[msg.sender] */\n      mload(0x40)\n      dup1\n      0x40\n      add\n      0x40\n      mstore\n      swap1\n      dup2\n      0x00\n      dup3\n      add\n      sload\n      dup2\n      mstore\n      0x20\n      add\n      0x01\n      dup3\n      add\n      sload\n      dup2\n      mstore\n      pop\n      pop\n      swap1\n      pop\n        /* \"src/CrossChainStaking.sol\":1003:1004  0 */\n      0x00\n        /* \"src/CrossChainStaking.sol\":984:993  stakeInfo */\n      dup2\n        /* \"src/CrossChainStaking.sol\":984:1000  stakeInfo.amount */\n      0x00\n      add\n      mload\n        /* \"src/CrossChainStaking.sol\":984:1004  stakeInfo.amount > 0 */\n      gt\n        /* \"src/CrossChainStaking.sol\":976:1023  require(stakeInfo.amount > 0, \"No stake found\") */\n      tag_29\n      jumpi\n      mload(0x40)\n      0x08c379a000000000000000000000000000000000000000000000000000000000\n      dup2\n      mstore\n      0x04\n      add\n      tag_30\n      swap1\n      tag_31\n      jump\t// in\n    tag_30:\n      mload(0x40)\n      dup1\n      swap2\n      sub\n      swap1\n      revert\n    tag_29:\n        /* \"src/CrossChainStaking.sol\":1034:1048  uint256 reward */\n      0x00\n        /* \"src/CrossChainStaking.sol\":1093:1103  rewardRate */\n      sload(0x02)\n        /* \"src/CrossChainStaking.sol\":1070:1079  stakeInfo */\n      dup3\n        /* \"src/CrossChainStaking.sol\":1070:1089  stakeInfo.timestamp */\n      0x20\n      add\n      mload\n        /* \"src/CrossChainStaking.sol\":1052:1067  block.timestamp */\n      timestamp\n        /* \"src/CrossChainStaking.sol\":1052:1089  block.timestamp - stakeInfo.timestamp */\n      tag_32\n      swap2\n      swap1\n      tag_33\n      jump\t// in\n    tag_32:\n        /* \"src/CrossChainStaking.sol\":1051:1103  (block.timestamp - stakeInfo.timestamp) * rewardRate */\n      tag_34\n      swap2\n      swap1\n      tag_35\n      jump\t// in\n    tag_34:\n        /* \"src/CrossChainStaking.sol\":1034:1103  uint256 reward = (block.timestamp - stakeInfo.timestamp) * rewardRate */\n      swap1\n      pop\n        /* \"src/CrossChainStaking.sol\":1121:1132  rewardToken */\n      0x01\n      0x00\n      swap1\n      sload\n      swap1\n      0x0100\n      exp\n      swap1\n      div\n      0xffffffffffffffffffffffffffffffffffffffff\n      and\n        /* \"src/CrossChainStaking.sol\":1114:1142  IERC20(rewardToken).transfer */\n      0xffffffffffffffffffffffffffffffffffffffff\n      and\n      0xa9059cbb\n        /* \"src/CrossChainStaking.sol\":1143:1153  msg.sender */\n      caller\n        /* \"src/CrossChainStaking.sol\":1155:1161  reward */\n      dup4\n        /* \"src/CrossChainStaking.sol\":1114:1162  IERC20(rewardToken).transfer(msg.sender, reward) */\n      mload(0x40)\n      dup4\n      0xffffffff\n      and\n      0xe0\n      shl\n      dup2\n      mstore\n      0x04\n      add\n      tag_36\n      swap3\n      swap2\n      swap1\n      tag_37\n      jump\t// in\n    tag_36:\n      0x20\n      mload(0x40)\n      dup1\n      dup4\n      sub\n      dup2\n      0x00\n      dup8\n      gas\n      call\n      iszero\n      dup1\n      iszero\n      tag_39\n      jumpi\n      returndatasize\n      0x00\n      dup1\n      returndatacopy\n      revert(0x00, returndatasize)\n    tag_39:\n      pop\n      pop\n      pop\n      pop\n      mload(0x40)\n      returndatasize\n      not(0x1f)\n      0x1f\n      dup3\n      add\n      and\n      dup3\n      add\n      dup1\n      0x40\n      mstore\n      pop\n      dup2\n      add\n      swap1\n      tag_40\n      swap2\n      swap1\n      tag_41\n      jump\t// in\n    tag_40:\n      pop\n        /* \"src/CrossChainStaking.sol\":1192:1202  msg.sender */\n      caller\n        /* \"src/CrossChainStaking.sol\":1178:1211  RewardClaimed(msg.sender, reward) */\n      0xffffffffffffffffffffffffffffffffffffffff\n      and\n      0x106f923f993c2149d49b4255ff723acafa1f2d94393f561d3eda32ae348f7241\n        /* \"src/CrossChainStaking.sol\":1204:1210  reward */\n      dup3\n        /* \"src/CrossChainStaking.sol\":1178:1211  RewardClaimed(msg.sender, reward) */\n      mload(0x40)\n      tag_42\n      swap2\n      swap1\n      tag_19\n      jump\t// in\n    tag_42:\n      mload(0x40)\n      dup1\n      swap2\n      sub\n      swap1\n      log2\n        /* \"src/CrossChainStaking.sol\":907:1219  {... */\n      pop\n      pop\n        /* \"src/CrossChainStaking.sol\":874:1219  function claimRewards() external {... */\n      jump\t// out\n        /* \"src/CrossChainStaking.sol\":323:348  uint256 public rewardRate */\n    tag_17:\n      sload(0x02)\n      dup2\n      jump\t// out\n        /* \"src/CrossChainStaking.sol\":623:866  function stake(address token, uint256 amount) external {... */\n    tag_23:\n        /* \"src/CrossChainStaking.sol\":696:701  token */\n      dup2\n        /* \"src/CrossChainStaking.sol\":689:715  IERC20(token).transferFrom */\n      0xffffffffffffffffffffffffffffffffffffffff\n      and\n      0x23b872dd\n        /* \"src/CrossChainStaking.sol\":716:726  msg.sender */\n      caller\n        /* \"src/CrossChainStaking.sol\":736:740  this */\n      address\n        /* \"src/CrossChainStaking.sol\":743:749  amount */\n      dup5\n        /* \"src/CrossChainStaking.sol\":689:750  IERC20(token).transferFrom(msg.sender, address(this), amount) */\n      mload(0x40)\n      dup5\n      0xffffffff\n      and\n      0xe0\n      shl\n      dup2\n      mstore\n      0x04\n      add\n      tag_44\n      swap4\n      swap3\n      swap2\n      swap1\n      tag_45\n      jump\t// in\n    tag_44:\n      0x20\n      mload(0x40)\n      dup1\n      dup4\n      sub\n      dup2\n      0x00\n      dup8\n      gas\n      call\n      iszero\n      dup1\n      iszero\n      tag_47\n      jumpi\n      returndatasize\n      0x00\n      dup1\n      returndatacopy\n      revert(0x00, returndatasize)\n    tag_47:\n      pop\n      pop\n      pop\n      pop\n      mload(0x40)\n      returndatasize\n      not(0x1f)\n      0x1f\n      dup3\n      add\n      and\n      dup3\n      add\n      dup1\n      0x40\n      mstore\n      pop\n      dup2\n      add\n      swap1\n      tag_48\n      swap2\n      swap1\n      tag_41\n      jump\t// in\n    tag_48:\n      pop\n        /* \"src/CrossChainStaking.sol\":782:816  StakeInfo(amount, block.timestamp) */\n      mload(0x40)\n      dup1\n      0x40\n      add\n      0x40\n      mstore\n      dup1\n        /* \"src/CrossChainStaking.sol\":792:798  amount */\n      dup3\n        /* \"src/CrossChainStaking.sol\":782:816  StakeInfo(amount, block.timestamp) */\n      dup2\n      mstore\n      0x20\n      add\n        /* \"src/CrossChainStaking.sol\":800:815  block.timestamp */\n      timestamp\n        /* \"src/CrossChainStaking.sol\":782:816  StakeInfo(amount, block.timestamp) */\n      dup2\n      mstore\n      pop\n        /* \"src/CrossChainStaking.sol\":761:767  stakes */\n      0x00\n        /* \"src/CrossChainStaking.sol\":761:779  stakes[msg.sender] */\n      dup1\n        /* \"src/CrossChainStaking.sol\":768:778  msg.sender */\n      caller\n        /* \"src/CrossChainStaking.sol\":761:779  stakes[msg.sender] */\n      0xffffffffffffffffffffffffffffffffffffffff\n      and\n      0xffffffffffffffffffffffffffffffffffffffff\n      and\n      dup2\n      mstore\n      0x20\n      add\n      swap1\n      dup2\n      mstore\n      0x20\n      add\n      0x00\n      keccak256\n        /* \"src/CrossChainStaking.sol\":761:816  stakes[msg.sender] = StakeInfo(amount, block.timestamp) */\n      0x00\n      dup3\n      add\n      mload\n      dup2\n      0x00\n      add\n      sstore\n      0x20\n      dup3\n      add\n      mload\n      dup2\n      0x01\n      add\n      sstore\n      swap1\n      pop\n      pop\n        /* \"src/CrossChainStaking.sol\":839:849  msg.sender */\n      caller\n        /* \"src/CrossChainStaking.sol\":832:858  Staked(msg.sender, amount) */\n      0xffffffffffffffffffffffffffffffffffffffff\n      and\n      0x9e71bc8eea02a63969f509818f2dafb9254532904319f9dbda79b67bd34a5f3d\n        /* \"src/CrossChainStaking.sol\":851:857  amount */\n      dup3\n        /* \"src/CrossChainStaking.sol\":832:858  Staked(msg.sender, amount) */\n      mload(0x40)\n      tag_49\n      swap2\n      swap1\n      tag_19\n      jump\t// in\n    tag_49:\n      mload(0x40)\n      dup1\n      swap2\n      sub\n      swap1\n      log2\n        /* \"src/CrossChainStaking.sol\":623:866  function stake(address token, uint256 amount) external {... */\n      pop\n      pop\n      jump\t// out\n        /* \"src/CrossChainStaking.sol\":290:316  address public rewardToken */\n    tag_25:\n      0x01\n      0x00\n      swap1\n      sload\n      swap1\n      0x0100\n      exp\n      swap1\n      div\n      0xffffffffffffffffffffffffffffffffffffffff\n      and\n      dup2\n      jump\t// out\n        /* \"#utility.yul\":88:205   */\n    tag_51:\n        /* \"#utility.yul\":197:198   */\n      0x00\n        /* \"#utility.yul\":194:195   */\n      dup1\n        /* \"#utility.yul\":187:199   */\n      revert\n        /* \"#utility.yul\":334:460   */\n    tag_53:\n        /* \"#utility.yul\":371:378   */\n      0x00\n        /* \"#utility.yul\":411:453   */\n      0xffffffffffffffffffffffffffffffffffffffff\n        /* \"#utility.yul\":404:409   */\n      dup3\n        /* \"#utility.yul\":400:454   */\n      and\n        /* \"#utility.yul\":389:454   */\n      swap1\n      pop\n        /* \"#utility.yul\":334:460   */\n      swap2\n      swap1\n      pop\n      jump\t// out\n        /* \"#utility.yul\":466:562   */\n    tag_54:\n        /* \"#utility.yul\":503:510   */\n      0x00\n        /* \"#utility.yul\":532:556   */\n      tag_75\n        /* \"#utility.yul\":550:555   */\n      dup3\n        /* \"#utility.yul\":532:556   */\n      tag_53\n      jump\t// in\n    tag_75:\n        /* \"#utility.yul\":521:556   */\n      swap1\n      pop\n        /* \"#utility.yul\":466:562   */\n      swap2\n      swap1\n      pop\n      jump\t// out\n        /* \"#utility.yul\":568:690   */\n    tag_55:\n        /* \"#utility.yul\":641:665   */\n      tag_77\n        /* \"#utility.yul\":659:664   */\n      dup2\n        /* \"#utility.yul\":641:665   */\n      tag_54\n      jump\t// in\n    tag_77:\n        /* \"#utility.yul\":634:639   */\n      dup2\n        /* \"#utility.yul\":631:666   */\n      eq\n        /* \"#utility.yul\":621:684   */\n      tag_78\n      jumpi\n        /* \"#utility.yul\":680:681   */\n      0x00\n        /* \"#utility.yul\":677:678   */\n      dup1\n        /* \"#utility.yul\":670:682   */\n      revert\n        /* \"#utility.yul\":621:684   */\n    tag_78:\n        /* \"#utility.yul\":568:690   */\n      pop\n      jump\t// out\n        /* \"#utility.yul\":696:835   */\n    tag_56:\n        /* \"#utility.yul\":742:747   */\n      0x00\n        /* \"#utility.yul\":780:786   */\n      dup2\n        /* \"#utility.yul\":767:787   */\n      calldataload\n        /* \"#utility.yul\":758:787   */\n      swap1\n      pop\n        /* \"#utility.yul\":796:829   */\n      tag_80\n        /* \"#utility.yul\":823:828   */\n      dup2\n        /* \"#utility.yul\":796:829   */\n      tag_55\n      jump\t// in\n    tag_80:\n        /* \"#utility.yul\":696:835   */\n      swap3\n      swap2\n      pop\n      pop\n      jump\t// out\n        /* \"#utility.yul\":841:1170   */\n    tag_10:\n        /* \"#utility.yul\":900:906   */\n      0x00\n        /* \"#utility.yul\":949:951   */\n      0x20\n        /* \"#utility.yul\":937:946   */\n      dup3\n        /* \"#utility.yul\":928:935   */\n      dup5\n        /* \"#utility.yul\":924:947   */\n      sub\n        /* \"#utility.yul\":920:952   */\n      slt\n        /* \"#utility.yul\":917:1036   */\n      iszero\n      tag_82\n      jumpi\n        /* \"#utility.yul\":955:1034   */\n      tag_83\n      tag_51\n      jump\t// in\n    tag_83:\n        /* \"#utility.yul\":917:1036   */\n    tag_82:\n        /* \"#utility.yul\":1075:1076   */\n      0x00\n        /* \"#utility.yul\":1100:1153   */\n      tag_84\n        /* \"#utility.yul\":1145:1152   */\n      dup5\n        /* \"#utility.yul\":1136:1142   */\n      dup3\n        /* \"#utility.yul\":1125:1134   */\n      dup6\n        /* \"#utility.yul\":1121:1143   */\n      add\n        /* \"#utility.yul\":1100:1153   */\n      tag_56\n      jump\t// in\n    tag_84:\n        /* \"#utility.yul\":1090:1153   */\n      swap2\n      pop\n        /* \"#utility.yul\":1046:1163   */\n      pop\n        /* \"#utility.yul\":841:1170   */\n      swap3\n      swap2\n      pop\n      pop\n      jump\t// out\n        /* \"#utility.yul\":1176:1253   */\n    tag_57:\n        /* \"#utility.yul\":1213:1220   */\n      0x00\n        /* \"#utility.yul\":1242:1247   */\n      dup2\n        /* \"#utility.yul\":1231:1247   */\n      swap1\n      pop\n        /* \"#utility.yul\":1176:1253   */\n      swap2\n      swap1\n      pop\n      jump\t// out\n        /* \"#utility.yul\":1259:1377   */\n    tag_58:\n        /* \"#utility.yul\":1346:1370   */\n      tag_87\n        /* \"#utility.yul\":1364:1369   */\n      dup2\n        /* \"#utility.yul\":1346:1370   */\n      tag_57\n      jump\t// in\n    tag_87:\n        /* \"#utility.yul\":1341:1344   */\n      dup3\n        /* \"#utility.yul\":1334:1371   */\n      mstore\n        /* \"#utility.yul\":1259:1377   */\n      pop\n      pop\n      jump\t// out\n        /* \"#utility.yul\":1383:1715   */\n    tag_13:\n        /* \"#utility.yul\":1504:1508   */\n      0x00\n        /* \"#utility.yul\":1542:1544   */\n      0x40\n        /* \"#utility.yul\":1531:1540   */\n      dup3\n        /* \"#utility.yul\":1527:1545   */\n      add\n        /* \"#utility.yul\":1519:1545   */\n      swap1\n      pop\n        /* \"#utility.yul\":1555:1626   */\n      tag_89\n        /* \"#utility.yul\":1623:1624   */\n      0x00\n        /* \"#utility.yul\":1612:1621   */\n      dup4\n        /* \"#utility.yul\":1608:1625   */\n      add\n        /* \"#utility.yul\":1599:1605   */\n      dup6\n        /* \"#utility.yul\":1555:1626   */\n      tag_58\n      jump\t// in\n    tag_89:\n        /* \"#utility.yul\":1636:1708   */\n      tag_90\n        /* \"#utility.yul\":1704:1706   */\n      0x20\n        /* \"#utility.yul\":1693:1702   */\n      dup4\n        /* \"#utility.yul\":1689:1707   */\n      add\n        /* \"#utility.yul\":1680:1686   */\n      dup5\n        /* \"#utility.yul\":1636:1708   */\n      tag_58\n      jump\t// in\n    tag_90:\n        /* \"#utility.yul\":1383:1715   */\n      swap4\n      swap3\n      pop\n      pop\n      pop\n      jump\t// out\n        /* \"#utility.yul\":1721:1943   */\n    tag_19:\n        /* \"#utility.yul\":1814:1818   */\n      0x00\n        /* \"#utility.yul\":1852:1854   */\n      0x20\n        /* \"#utility.yul\":1841:1850   */\n      dup3\n        /* \"#utility.yul\":1837:1855   */\n      add\n        /* \"#utility.yul\":1829:1855   */\n      swap1\n      pop\n        /* \"#utility.yul\":1865:1936   */\n      tag_92\n        /* \"#utility.yul\":1933:1934   */\n      0x00\n        /* \"#utility.yul\":1922:1931   */\n      dup4\n        /* \"#utility.yul\":1918:1935   */\n      add\n        /* \"#utility.yul\":1909:1915   */\n      dup5\n        /* \"#utility.yul\":1865:1936   */\n      tag_58\n      jump\t// in\n    tag_92:\n        /* \"#utility.yul\":1721:1943   */\n      swap3\n      swap2\n      pop\n      pop\n      jump\t// out\n        /* \"#utility.yul\":1949:2071   */\n    tag_59:\n        /* \"#utility.yul\":2022:2046   */\n      tag_94\n        /* \"#utility.yul\":2040:2045   */\n      dup2\n        /* \"#utility.yul\":2022:2046   */\n      tag_57\n      jump\t// in\n    tag_94:\n        /* \"#utility.yul\":2015:2020   */\n      dup2\n        /* \"#utility.yul\":2012:2047   */\n      eq\n        /* \"#utility.yul\":2002:2065   */\n      tag_95\n      jumpi\n        /* \"#utility.yul\":2061:2062   */\n      0x00\n        /* \"#utility.yul\":2058:2059   */\n      dup1\n        /* \"#utility.yul\":2051:2063   */\n      revert\n        /* \"#utility.yul\":2002:2065   */\n    tag_95:\n        /* \"#utility.yul\":1949:2071   */\n      pop\n      jump\t// out\n        /* \"#utility.yul\":2077:2216   */\n    tag_60:\n        /* \"#utility.yul\":2123:2128   */\n      0x00\n        /* \"#utility.yul\":2161:2167   */\n      dup2\n        /* \"#utility.yul\":2148:2168   */\n      calldataload\n        /* \"#utility.yul\":2139:2168   */\n      swap1\n      pop\n        /* \"#utility.yul\":2177:2210   */\n      tag_97\n        /* \"#utility.yul\":2204:2209   */\n      dup2\n        /* \"#utility.yul\":2177:2210   */\n      tag_59\n      jump\t// in\n    tag_97:\n        /* \"#utility.yul\":2077:2216   */\n      swap3\n      swap2\n      pop\n      pop\n      jump\t// out\n        /* \"#utility.yul\":2222:2696   */\n    tag_22:\n        /* \"#utility.yul\":2290:2296   */\n      0x00\n        /* \"#utility.yul\":2298:2304   */\n      dup1\n        /* \"#utility.yul\":2347:2349   */\n      0x40\n        /* \"#utility.yul\":2335:2344   */\n      dup4\n        /* \"#utility.yul\":2326:2333   */\n      dup6\n        /* \"#utility.yul\":2322:2345   */\n      sub\n        /* \"#utility.yul\":2318:2350   */\n      slt\n        /* \"#utility.yul\":2315:2434   */\n      iszero\n      tag_99\n      jumpi\n        /* \"#utility.yul\":2353:2432   */\n      tag_100\n      tag_51\n      jump\t// in\n    tag_100:\n        /* \"#utility.yul\":2315:2434   */\n    tag_99:\n        /* \"#utility.yul\":2473:2474   */\n      0x00\n        /* \"#utility.yul\":2498:2551   */\n      tag_101\n        /* \"#utility.yul\":2543:2550   */\n      dup6\n        /* \"#utility.yul\":2534:2540   */\n      dup3\n        /* \"#utility.yul\":2523:2532   */\n      dup7\n        /* \"#utility.yul\":2519:2541   */\n      add\n        /* \"#utility.yul\":2498:2551   */\n      tag_56\n      jump\t// in\n    tag_101:\n        /* \"#utility.yul\":2488:2551   */\n      swap3\n      pop\n        /* \"#utility.yul\":2444:2561   */\n      pop\n        /* \"#utility.yul\":2600:2602   */\n      0x20\n        /* \"#utility.yul\":2626:2679   */\n      tag_102\n        /* \"#utility.yul\":2671:2678   */\n      dup6\n        /* \"#utility.yul\":2662:2668   */\n      dup3\n        /* \"#utility.yul\":2651:2660   */\n      dup7\n        /* \"#utility.yul\":2647:2669   */\n      add\n        /* \"#utility.yul\":2626:2679   */\n      tag_60\n      jump\t// in\n    tag_102:\n        /* \"#utility.yul\":2616:2679   */\n      swap2\n      pop\n        /* \"#utility.yul\":2571:2689   */\n      pop\n        /* \"#utility.yul\":2222:2696   */\n      swap3\n      pop\n      swap3\n      swap1\n      pop\n      jump\t// out\n        /* \"#utility.yul\":2702:2820   */\n    tag_61:\n        /* \"#utility.yul\":2789:2813   */\n      tag_104\n        /* \"#utility.yul\":2807:2812   */\n      dup2\n        /* \"#utility.yul\":2789:2813   */\n      tag_54\n      jump\t// in\n    tag_104:\n        /* \"#utility.yul\":2784:2787   */\n      dup3\n        /* \"#utility.yul\":2777:2814   */\n      mstore\n        /* \"#utility.yul\":2702:2820   */\n      pop\n      pop\n      jump\t// out\n        /* \"#utility.yul\":2826:3048   */\n    tag_27:\n        /* \"#utility.yul\":2919:2923   */\n      0x00\n        /* \"#utility.yul\":2957:2959   */\n      0x20\n        /* \"#utility.yul\":2946:2955   */\n      dup3\n        /* \"#utility.yul\":2942:2960   */\n      add\n        /* \"#utility.yul\":2934:2960   */\n      swap1\n      pop\n        /* \"#utility.yul\":2970:3041   */\n      tag_106\n        /* \"#utility.yul\":3038:3039   */\n      0x00\n        /* \"#utility.yul\":3027:3036   */\n      dup4\n        /* \"#utility.yul\":3023:3040   */\n      add\n        /* \"#utility.yul\":3014:3020   */\n      dup5\n        /* \"#utility.yul\":2970:3041   */\n      tag_61\n      jump\t// in\n    tag_106:\n        /* \"#utility.yul\":2826:3048   */\n      swap3\n      swap2\n      pop\n      pop\n      jump\t// out\n        /* \"#utility.yul\":3054:3223   */\n    tag_62:\n        /* \"#utility.yul\":3138:3149   */\n      0x00\n        /* \"#utility.yul\":3172:3178   */\n      dup3\n        /* \"#utility.yul\":3167:3170   */\n      dup3\n        /* \"#utility.yul\":3160:3179   */\n      mstore\n        /* \"#utility.yul\":3212:3216   */\n      0x20\n        /* \"#utility.yul\":3207:3210   */\n      dup3\n        /* \"#utility.yul\":3203:3217   */\n      add\n        /* \"#utility.yul\":3188:3217   */\n      swap1\n      pop\n        /* \"#utility.yul\":3054:3223   */\n      swap3\n      swap2\n      pop\n      pop\n      jump\t// out\n        /* \"#utility.yul\":3229:3393   */\n    tag_63:\n        /* \"#utility.yul\":3369:3385   */\n      0x4e6f207374616b6520666f756e64000000000000000000000000000000000000\n        /* \"#utility.yul\":3365:3366   */\n      0x00\n        /* \"#utility.yul\":3357:3363   */\n      dup3\n        /* \"#utility.yul\":3353:3367   */\n      add\n        /* \"#utility.yul\":3346:3386   */\n      mstore\n        /* \"#utility.yul\":3229:3393   */\n      pop\n      jump\t// out\n        /* \"#utility.yul\":3399:3765   */\n    tag_64:\n        /* \"#utility.yul\":3541:3544   */\n      0x00\n        /* \"#utility.yul\":3562:3629   */\n      tag_110\n        /* \"#utility.yul\":3626:3628   */\n      0x0e\n        /* \"#utility.yul\":3621:3624   */\n      dup4\n        /* \"#utility.yul\":3562:3629   */\n      tag_62\n      jump\t// in\n    tag_110:\n        /* \"#utility.yul\":3555:3629   */\n      swap2\n      pop\n        /* \"#utility.yul\":3638:3731   */\n      tag_111\n        /* \"#utility.yul\":3727:3730   */\n      dup3\n        /* \"#utility.yul\":3638:3731   */\n      tag_63\n      jump\t// in\n    tag_111:\n        /* \"#utility.yul\":3756:3758   */\n      0x20\n        /* \"#utility.yul\":3751:3754   */\n      dup3\n        /* \"#utility.yul\":3747:3759   */\n      add\n        /* \"#utility.yul\":3740:3759   */\n      swap1\n      pop\n        /* \"#utility.yul\":3399:3765   */\n      swap2\n      swap1\n      pop\n      jump\t// out\n        /* \"#utility.yul\":3771:4190   */\n    tag_31:\n        /* \"#utility.yul\":3937:3941   */\n      0x00\n        /* \"#utility.yul\":3975:3977   */\n      0x20\n        /* \"#utility.yul\":3964:3973   */\n      dup3\n        /* \"#utility.yul\":3960:3978   */\n      add\n        /* \"#utility.yul\":3952:3978   */\n      swap1\n      pop\n        /* \"#utility.yul\":4024:4033   */\n      dup2\n        /* \"#utility.yul\":4018:4022   */\n      dup2\n        /* \"#utility.yul\":4014:4034   */\n      sub\n        /* \"#utility.yul\":4010:4011   */\n      0x00\n        /* \"#utility.yul\":3999:4008   */\n      dup4\n        /* \"#utility.yul\":3995:4012   */\n      add\n        /* \"#utility.yul\":3988:4035   */\n      mstore\n        /* \"#utility.yul\":4052:4183   */\n      tag_113\n        /* \"#utility.yul\":4178:4182   */\n      dup2\n        /* \"#utility.yul\":4052:4183   */\n      tag_64\n      jump\t// in\n    tag_113:\n        /* \"#utility.yul\":4044:4183   */\n      swap1\n      pop\n        /* \"#utility.yul\":3771:4190   */\n      swap2\n      swap1\n      pop\n      jump\t// out\n        /* \"#utility.yul\":4196:4376   */\n    tag_65:\n        /* \"#utility.yul\":4244:4321   */\n      0x4e487b7100000000000000000000000000000000000000000000000000000000\n        /* \"#utility.yul\":4241:4242   */\n      0x00\n        /* \"#utility.yul\":4234:4322   */\n      mstore\n        /* \"#utility.yul\":4341:4345   */\n      0x11\n        /* \"#utility.yul\":4338:4339   */\n      0x04\n        /* \"#utility.yul\":4331:4346   */\n      mstore\n        /* \"#utility.yul\":4365:4369   */\n      0x24\n        /* \"#utility.yul\":4362:4363   */\n      0x00\n        /* \"#utility.yul\":4355:4370   */\n      revert\n        /* \"#utility.yul\":4382:4576   */\n    tag_33:\n        /* \"#utility.yul\":4422:4426   */\n      0x00\n        /* \"#utility.yul\":4442:4462   */\n      tag_116\n        /* \"#utility.yul\":4460:4461   */\n      dup3\n        /* \"#utility.yul\":4442:4462   */\n      tag_57\n      jump\t// in\n    tag_116:\n        /* \"#utility.yul\":4437:4462   */\n      swap2\n      pop\n        /* \"#utility.yul\":4476:4496   */\n      tag_117\n        /* \"#utility.yul\":4494:4495   */\n      dup4\n        /* \"#utility.yul\":4476:4496   */\n      tag_57\n      jump\t// in\n    tag_117:\n        /* \"#utility.yul\":4471:4496   */\n      swap3\n      pop\n        /* \"#utility.yul\":4520:4521   */\n      dup3\n        /* \"#utility.yul\":4517:4518   */\n      dup3\n        /* \"#utility.yul\":4513:4522   */\n      sub\n        /* \"#utility.yul\":4505:4522   */\n      swap1\n      pop\n        /* \"#utility.yul\":4544:4545   */\n      dup2\n        /* \"#utility.yul\":4538:4542   */\n      dup2\n        /* \"#utility.yul\":4535:4546   */\n      gt\n        /* \"#utility.yul\":4532:4569   */\n      iszero\n      tag_118\n      jumpi\n        /* \"#utility.yul\":4549:4567   */\n      tag_119\n      tag_65\n      jump\t// in\n    tag_119:\n        /* \"#utility.yul\":4532:4569   */\n    tag_118:\n        /* \"#utility.yul\":4382:4576   */\n      swap3\n      swap2\n      pop\n      pop\n      jump\t// out\n        /* \"#utility.yul\":4582:4992   */\n    tag_35:\n        /* \"#utility.yul\":4622:4629   */\n      0x00\n        /* \"#utility.yul\":4645:4665   */\n      tag_121\n        /* \"#utility.yul\":4663:4664   */\n      dup3\n        /* \"#utility.yul\":4645:4665   */\n      tag_57\n      jump\t// in\n    tag_121:\n        /* \"#utility.yul\":4640:4665   */\n      swap2\n      pop\n        /* \"#utility.yul\":4679:4699   */\n      tag_122\n        /* \"#utility.yul\":4697:4698   */\n      dup4\n        /* \"#utility.yul\":4679:4699   */\n      tag_57\n      jump\t// in\n    tag_122:\n        /* \"#utility.yul\":4674:4699   */\n      swap3\n      pop\n        /* \"#utility.yul\":4734:4735   */\n      dup3\n        /* \"#utility.yul\":4731:4732   */\n      dup3\n        /* \"#utility.yul\":4727:4736   */\n      mul\n        /* \"#utility.yul\":4756:4786   */\n      tag_123\n        /* \"#utility.yul\":4774:4785   */\n      dup2\n        /* \"#utility.yul\":4756:4786   */\n      tag_57\n      jump\t// in\n    tag_123:\n        /* \"#utility.yul\":4745:4786   */\n      swap2\n      pop\n        /* \"#utility.yul\":4935:4936   */\n      dup3\n        /* \"#utility.yul\":4926:4933   */\n      dup3\n        /* \"#utility.yul\":4922:4937   */\n      div\n        /* \"#utility.yul\":4919:4920   */\n      dup5\n        /* \"#utility.yul\":4916:4938   */\n      eq\n        /* \"#utility.yul\":4896:4897   */\n      dup4\n        /* \"#utility.yul\":4889:4898   */\n      iszero\n        /* \"#utility.yul\":4869:4952   */\n      or\n        /* \"#utility.yul\":4846:4985   */\n      tag_124\n      jumpi\n        /* \"#utility.yul\":4965:4983   */\n      tag_125\n      tag_65\n      jump\t// in\n    tag_125:\n        /* \"#utility.yul\":4846:4985   */\n    tag_124:\n        /* \"#utility.yul\":4630:4992   */\n      pop\n        /* \"#utility.yul\":4582:4992   */\n      swap3\n      swap2\n      pop\n      pop\n      jump\t// out\n        /* \"#utility.yul\":4998:5330   */\n    tag_37:\n        /* \"#utility.yul\":5119:5123   */\n      0x00\n        /* \"#utility.yul\":5157:5159   */\n      0x40\n        /* \"#utility.yul\":5146:5155   */\n      dup3\n        /* \"#utility.yul\":5142:5160   */\n      add\n        /* \"#utility.yul\":5134:5160   */\n      swap1\n      pop\n        /* \"#utility.yul\":5170:5241   */\n      tag_127\n        /* \"#utility.yul\":5238:5239   */\n      0x00\n        /* \"#utility.yul\":5227:5236   */\n      dup4\n        /* \"#utility.yul\":5223:5240   */\n      add\n        /* \"#utility.yul\":5214:5220   */\n      dup6\n        /* \"#utility.yul\":5170:5241   */\n      tag_61\n      jump\t// in\n    tag_127:\n        /* \"#utility.yul\":5251:5323   */\n      tag_128\n        /* \"#utility.yul\":5319:5321   */\n      0x20\n        /* \"#utility.yul\":5308:5317   */\n      dup4\n        /* \"#utility.yul\":5304:5322   */\n      add\n        /* \"#utility.yul\":5295:5301   */\n      dup5\n        /* \"#utility.yul\":5251:5323   */\n      tag_58\n      jump\t// in\n    tag_128:\n        /* \"#utility.yul\":4998:5330   */\n      swap4\n      swap3\n      pop\n      pop\n      pop\n      jump\t// out\n        /* \"#utility.yul\":5336:5426   */\n    tag_66:\n        /* \"#utility.yul\":5370:5377   */\n      0x00\n        /* \"#utility.yul\":5413:5418   */\n      dup2\n        /* \"#utility.yul\":5406:5419   */\n      iszero\n        /* \"#utility.yul\":5399:5420   */\n      iszero\n        /* \"#utility.yul\":5388:5420   */\n      swap1\n      pop\n        /* \"#utility.yul\":5336:5426   */\n      swap2\n      swap1\n      pop\n      jump\t// out\n        /* \"#utility.yul\":5432:5548   */\n    tag_67:\n        /* \"#utility.yul\":5502:5523   */\n      tag_131\n        /* \"#utility.yul\":5517:5522   */\n      dup2\n        /* \"#utility.yul\":5502:5523   */\n      tag_66\n      jump\t// in\n    tag_131:\n        /* \"#utility.yul\":5495:5500   */\n      dup2\n        /* \"#utility.yul\":5492:5524   */\n      eq\n        /* \"#utility.yul\":5482:5542   */\n      tag_132\n      jumpi\n        /* \"#utility.yul\":5538:5539   */\n      0x00\n        /* \"#utility.yul\":5535:5536   */\n      dup1\n        /* \"#utility.yul\":5528:5540   */\n      revert\n        /* \"#utility.yul\":5482:5542   */\n    tag_132:\n        /* \"#utility.yul\":5432:5548   */\n      pop\n      jump\t// out\n        /* \"#utility.yul\":5554:5691   */\n    tag_68:\n        /* \"#utility.yul\":5608:5613   */\n      0x00\n        /* \"#utility.yul\":5639:5645   */\n      dup2\n        /* \"#utility.yul\":5633:5646   */\n      mload\n        /* \"#utility.yul\":5624:5646   */\n      swap1\n      pop\n        /* \"#utility.yul\":5655:5685   */\n      tag_134\n        /* \"#utility.yul\":5679:5684   */\n      dup2\n        /* \"#utility.yul\":5655:5685   */\n      tag_67\n      jump\t// in\n    tag_134:\n        /* \"#utility.yul\":5554:5691   */\n      swap3\n      swap2\n      pop\n      pop\n      jump\t// out\n        /* \"#utility.yul\":5697:6042   */\n    tag_41:\n        /* \"#utility.yul\":5764:5770   */\n      0x00\n        /* \"#utility.yul\":5813:5815   */\n      0x20\n        /* \"#utility.yul\":5801:5810   */\n      dup3\n        /* \"#utility.yul\":5792:5799   */\n      dup5\n        /* \"#utility.yul\":5788:5811   */\n      sub\n        /* \"#utility.yul\":5784:5816   */\n      slt\n        /* \"#utility.yul\":5781:5900   */\n      iszero\n      tag_136\n      jumpi\n        /* \"#utility.yul\":5819:5898   */\n      tag_137\n      tag_51\n      jump\t// in\n    tag_137:\n        /* \"#utility.yul\":5781:5900   */\n    tag_136:\n        /* \"#utility.yul\":5939:5940   */\n      0x00\n        /* \"#utility.yul\":5964:6025   */\n      tag_138\n        /* \"#utility.yul\":6017:6024   */\n      dup5\n        /* \"#utility.yul\":6008:6014   */\n      dup3\n        /* \"#utility.yul\":5997:6006   */\n      dup6\n        /* \"#utility.yul\":5993:6015   */\n      add\n        /* \"#utility.yul\":5964:6025   */\n      tag_68\n      jump\t// in\n    tag_138:\n        /* \"#utility.yul\":5954:6025   */\n      swap2\n      pop\n        /* \"#utility.yul\":5910:6035   */\n      pop\n        /* \"#utility.yul\":5697:6042   */\n      swap3\n      swap2\n      pop\n      pop\n      jump\t// out\n        /* \"#utility.yul\":6048:6490   */\n    tag_45:\n        /* \"#utility.yul\":6197:6201   */\n      0x00\n        /* \"#utility.yul\":6235:6237   */\n      0x60\n        /* \"#utility.yul\":6224:6233   */\n      dup3\n        /* \"#utility.yul\":6220:6238   */\n      add\n        /* \"#utility.yul\":6212:6238   */\n      swap1\n      pop\n        /* \"#utility.yul\":6248:6319   */\n      tag_140\n        /* \"#utility.yul\":6316:6317   */\n      0x00\n        /* \"#utility.yul\":6305:6314   */\n      dup4\n        /* \"#utility.yul\":6301:6318   */\n      add\n        /* \"#utility.yul\":6292:6298   */\n      dup7\n        /* \"#utility.yul\":6248:6319   */\n      tag_61\n      jump\t// in\n    tag_140:\n        /* \"#utility.yul\":6329:6401   */\n      tag_141\n        /* \"#utility.yul\":6397:6399   */\n      0x20\n        /* \"#utility.yul\":6386:6395   */\n      dup4\n        /* \"#utility.yul\":6382:6400   */\n      add\n        /* \"#utility.yul\":6373:6379   */\n      dup6\n        /* \"#utility.yul\":6329:6401   */\n      tag_61\n      jump\t// in\n    tag_141:\n        /* \"#utility.yul\":6411:6483   */\n      tag_142\n        /* \"#utility.yul\":6479:6481   */\n      0x40\n        /* \"#utility.yul\":6468:6477   */\n      dup4\n        /* \"#utility.yul\":6464:6482   */\n      add\n        /* \"#utility.yul\":6455:6461   */\n      dup5\n        /* \"#utility.yul\":6411:6483   */\n      tag_58\n      jump\t// in\n    tag_142:\n        /* \"#utility.yul\":6048:6490   */\n      swap5\n      swap4\n      pop\n      pop\n      pop\n      pop\n      jump\t// out\n\n    auxdata: 0xa26469706673582212202c035b872311c08687234204f5d9a42847867bb60a50734a06852b2a5fd5483164736f6c634300081a0033\n}\n",
				"bytecode": {
					"linkReferences": {},
					"object": "608060405234801561000f575f80fd5b506040516108f43803806108f483398181016040528101906100319190610110565b8160015f6101000a81548173ffffffffffffffffffffffffffffffffffffffff021916908373ffffffffffffffffffffffffffffffffffffffff16021790555080600281905550505061014e565b5f80fd5b5f73ffffffffffffffffffffffffffffffffffffffff82169050919050565b5f6100ac82610083565b9050919050565b6100bc816100a2565b81146100c6575f80fd5b50565b5f815190506100d7816100b3565b92915050565b5f819050919050565b6100ef816100dd565b81146100f9575f80fd5b50565b5f8151905061010a816100e6565b92915050565b5f80604083850312156101265761012561007f565b5b5f610133858286016100c9565b9250506020610144858286016100fc565b9150509250929050565b6107998061015b5f395ff3fe608060405234801561000f575f80fd5b5060043610610055575f3560e01c806316934fc414610059578063372500ab1461008a5780637b0a47ee14610094578063adc9772e146100b2578063f7c618c1146100ce575b5f80fd5b610073600480360381019061006e919061047b565b6100ec565b6040516100819291906104be565b60405180910390f35b61009261010b565b005b61009c6102bc565b6040516100a991906104e5565b60405180910390f35b6100cc60048036038101906100c79190610528565b6102c2565b005b6100d66103f8565b6040516100e39190610575565b60405180910390f35b5f602052805f5260405f205f91509050805f0154908060010154905082565b5f805f3373ffffffffffffffffffffffffffffffffffffffff1673ffffffffffffffffffffffffffffffffffffffff1681526020019081526020015f206040518060400160405290815f820154815260200160018201548152505090505f815f0151116101ad576040517f08c379a00000000000000000000000000000000000000000000000000000000081526004016101a4906105e8565b60405180910390fd5b5f6002548260200151426101c19190610633565b6101cb9190610666565b905060015f9054906101000a900473ffffffffffffffffffffffffffffffffffffffff1673ffffffffffffffffffffffffffffffffffffffff1663a9059cbb33836040518363ffffffff1660e01b81526004016102299291906106a7565b6020604051808303815f875af1158015610245573d5f803e3d5ffd5b505050506040513d601f19601f820116820180604052508101906102699190610703565b503373ffffffffffffffffffffffffffffffffffffffff167f106f923f993c2149d49b4255ff723acafa1f2d94393f561d3eda32ae348f7241826040516102b091906104e5565b60405180910390a25050565b60025481565b8173ffffffffffffffffffffffffffffffffffffffff166323b872dd3330846040518463ffffffff1660e01b81526004016102ff9392919061072e565b6020604051808303815f875af115801561031b573d5f803e3d5ffd5b505050506040513d601f19601f8201168201806040525081019061033f9190610703565b506040518060400160405280828152602001428152505f803373ffffffffffffffffffffffffffffffffffffffff1673ffffffffffffffffffffffffffffffffffffffff1681526020019081526020015f205f820151815f0155602082015181600101559050503373ffffffffffffffffffffffffffffffffffffffff167f9e71bc8eea02a63969f509818f2dafb9254532904319f9dbda79b67bd34a5f3d826040516103ec91906104e5565b60405180910390a25050565b60015f9054906101000a900473ffffffffffffffffffffffffffffffffffffffff1681565b5f80fd5b5f73ffffffffffffffffffffffffffffffffffffffff82169050919050565b5f61044a82610421565b9050919050565b61045a81610440565b8114610464575f80fd5b50565b5f8135905061047581610451565b92915050565b5f602082840312156104905761048f61041d565b5b5f61049d84828501610467565b91505092915050565b5f819050919050565b6104b8816104a6565b82525050565b5f6040820190506104d15f8301856104af565b6104de60208301846104af565b9392505050565b5f6020820190506104f85f8301846104af565b92915050565b610507816104a6565b8114610511575f80fd5b50565b5f81359050610522816104fe565b92915050565b5f806040838503121561053e5761053d61041d565b5b5f61054b85828601610467565b925050602061055c85828601610514565b9150509250929050565b61056f81610440565b82525050565b5f6020820190506105885f830184610566565b92915050565b5f82825260208201905092915050565b7f4e6f207374616b6520666f756e640000000000000000000000000000000000005f82015250565b5f6105d2600e8361058e565b91506105dd8261059e565b602082019050919050565b5f6020820190508181035f8301526105ff816105c6565b9050919050565b7f4e487b71000000000000000000000000000000000000000000000000000000005f52601160045260245ffd5b5f61063d826104a6565b9150610648836104a6565b92508282039050818111156106605761065f610606565b5b92915050565b5f610670826104a6565b915061067b836104a6565b9250828202610689816104a6565b915082820484148315176106a05761069f610606565b5b5092915050565b5f6040820190506106ba5f830185610566565b6106c760208301846104af565b9392505050565b5f8115159050919050565b6106e2816106ce565b81146106ec575f80fd5b50565b5f815190506106fd816106d9565b92915050565b5f602082840312156107185761071761041d565b5b5f610725848285016106ef565b91505092915050565b5f6060820190506107415f830186610566565b61074e6020830185610566565b61075b60408301846104af565b94935050505056fea26469706673582212202c035b872311c08687234204f5d9a42847867bb60a50734a06852b2a5fd5483164736f6c634300081a0033",
					"opcodes": "PUSH1 0x80 PUSH1 0x40 MSTORE CALLVALUE DUP1 ISZERO PUSH2 0xF JUMPI PUSH0 DUP1 REVERT JUMPDEST POP PUSH1 0x40 MLOAD PUSH2 0x8F4 CODESIZE SUB DUP1 PUSH2 0x8F4 DUP4 CODECOPY DUP2 DUP2 ADD PUSH1 0x40 MSTORE DUP2 ADD SWAP1 PUSH2 0x31 SWAP2 SWAP1 PUSH2 0x110 JUMP JUMPDEST DUP2 PUSH1 0x1 PUSH0 PUSH2 0x100 EXP DUP2 SLOAD DUP2 PUSH20 0xFFFFFFFFFFFFFFFFFFFFFFFFFFFFFFFFFFFFFFFF MUL NOT AND SWAP1 DUP4 PUSH20 0xFFFFFFFFFFFFFFFFFFFFFFFFFFFFFFFFFFFFFFFF AND MUL OR SWAP1 SSTORE POP DUP1 PUSH1 0x2 DUP2 SWAP1 SSTORE POP POP POP PUSH2 0x14E JUMP JUMPDEST PUSH0 DUP1 REVERT JUMPDEST PUSH0 PUSH20 0xFFFFFFFFFFFFFFFFFFFFFFFFFFFFFFFFFFFFFFFF DUP3 AND SWAP1 POP SWAP2 SWAP1 POP JUMP JUMPDEST PUSH0 PUSH2 0xAC DUP3 PUSH2 0x83 JUMP JUMPDEST SWAP1 POP SWAP2 SWAP1 POP JUMP JUMPDEST PUSH2 0xBC DUP2 PUSH2 0xA2 JUMP JUMPDEST DUP2 EQ PUSH2 0xC6 JUMPI PUSH0 DUP1 REVERT JUMPDEST POP JUMP JUMPDEST PUSH0 DUP2 MLOAD SWAP1 POP PUSH2 0xD7 DUP2 PUSH2 0xB3 JUMP JUMPDEST SWAP3 SWAP2 POP POP JUMP JUMPDEST PUSH0 DUP2 SWAP1 POP SWAP2 SWAP1 POP JUMP JUMPDEST PUSH2 0xEF DUP2 PUSH2 0xDD JUMP JUMPDEST DUP2 EQ PUSH2 0xF9 JUMPI PUSH0 DUP1 REVERT JUMPDEST POP JUMP JUMPDEST PUSH0 DUP2 MLOAD SWAP1 POP PUSH2 0x10A DUP2 PUSH2 0xE6 JUMP JUMPDEST SWAP3 SWAP2 POP POP JUMP JUMPDEST PUSH0 DUP1 PUSH1 0x40 DUP4 DUP6 SUB SLT ISZERO PUSH2 0x126 JUMPI PUSH2 0x125 PUSH2 0x7F JUMP JUMPDEST JUMPDEST PUSH0 PUSH2 0x133 DUP6 DUP3 DUP7 ADD PUSH2 0xC9 JUMP JUMPDEST SWAP3 POP POP PUSH1 0x20 PUSH2 0x144 DUP6 DUP3 DUP7 ADD PUSH2 0xFC JUMP JUMPDEST SWAP2 POP POP SWAP3 POP SWAP3 SWAP1 POP JUMP JUMPDEST PUSH2 0x799 DUP1 PUSH2 0x15B PUSH0 CODECOPY PUSH0 RETURN INVALID PUSH1 0x80 PUSH1 0x40 MSTORE CALLVALUE DUP1 ISZERO PUSH2 0xF JUMPI PUSH0 DUP1 REVERT JUMPDEST POP PUSH1 0x4 CALLDATASIZE LT PUSH2 0x55 JUMPI PUSH0 CALLDATALOAD PUSH1 0xE0 SHR DUP1 PUSH4 0x16934FC4 EQ PUSH2 0x59 JUMPI DUP1 PUSH4 0x372500AB EQ PUSH2 0x8A JUMPI DUP1 PUSH4 0x7B0A47EE EQ PUSH2 0x94 JUMPI DUP1 PUSH4 0xADC9772E EQ PUSH2 0xB2 JUMPI DUP1 PUSH4 0xF7C618C1 EQ PUSH2 0xCE JUMPI JUMPDEST PUSH0 DUP1 REVERT JUMPDEST PUSH2 0x73 PUSH1 0x4 DUP1 CALLDATASIZE SUB DUP2 ADD SWAP1 PUSH2 0x6E SWAP2 SWAP1 PUSH2 0x47B JUMP JUMPDEST PUSH2 0xEC JUMP JUMPDEST PUSH1 0x40 MLOAD PUSH2 0x81 SWAP3 SWAP2 SWAP1 PUSH2 0x4BE JUMP JUMPDEST PUSH1 0x40 MLOAD DUP1 SWAP2 SUB SWAP1 RETURN JUMPDEST PUSH2 0x92 PUSH2 0x10B JUMP JUMPDEST STOP JUMPDEST PUSH2 0x9C PUSH2 0x2BC JUMP JUMPDEST PUSH1 0x40 MLOAD PUSH2 0xA9 SWAP2 SWAP1 PUSH2 0x4E5 JUMP JUMPDEST PUSH1 0x40 MLOAD DUP1 SWAP2 SUB SWAP1 RETURN JUMPDEST PUSH2 0xCC PUSH1 0x4 DUP1 CALLDATASIZE SUB DUP2 ADD SWAP1 PUSH2 0xC7 SWAP2 SWAP1 PUSH2 0x528 JUMP JUMPDEST PUSH2 0x2C2 JUMP JUMPDEST STOP JUMPDEST PUSH2 0xD6 PUSH2 0x3F8 JUMP JUMPDEST PUSH1 0x40 MLOAD PUSH2 0xE3 SWAP2 SWAP1 PUSH2 0x575 JUMP JUMPDEST PUSH1 0x40 MLOAD DUP1 SWAP2 SUB SWAP1 RETURN JUMPDEST PUSH0 PUSH1 0x20 MSTORE DUP1 PUSH0 MSTORE PUSH1 0x40 PUSH0 KECCAK256 PUSH0 SWAP2 POP SWAP1 POP DUP1 PUSH0 ADD SLOAD SWAP1 DUP1 PUSH1 0x1 ADD SLOAD SWAP1 POP DUP3 JUMP JUMPDEST PUSH0 DUP1 PUSH0 CALLER PUSH20 0xFFFFFFFFFFFFFFFFFFFFFFFFFFFFFFFFFFFFFFFF AND PUSH20 0xFFFFFFFFFFFFFFFFFFFFFFFFFFFFFFFFFFFFFFFF AND DUP2 MSTORE PUSH1 0x20 ADD SWAP1 DUP2 MSTORE PUSH1 0x20 ADD PUSH0 KECCAK256 PUSH1 0x40 MLOAD DUP1 PUSH1 0x40 ADD PUSH1 0x40 MSTORE SWAP1 DUP2 PUSH0 DUP3 ADD SLOAD DUP2 MSTORE PUSH1 0x20 ADD PUSH1 0x1 DUP3 ADD SLOAD DUP2 MSTORE POP POP SWAP1 POP PUSH0 DUP2 PUSH0 ADD MLOAD GT PUSH2 0x1AD JUMPI PUSH1 0x40 MLOAD PUSH32 0x8C379A000000000000000000000000000000000000000000000000000000000 DUP2 MSTORE PUSH1 0x4 ADD PUSH2 0x1A4 SWAP1 PUSH2 0x5E8 JUMP JUMPDEST PUSH1 0x40 MLOAD DUP1 SWAP2 SUB SWAP1 REVERT JUMPDEST PUSH0 PUSH1 0x2 SLOAD DUP3 PUSH1 0x20 ADD MLOAD TIMESTAMP PUSH2 0x1C1 SWAP2 SWAP1 PUSH2 0x633 JUMP JUMPDEST PUSH2 0x1CB SWAP2 SWAP1 PUSH2 0x666 JUMP JUMPDEST SWAP1 POP PUSH1 0x1 PUSH0 SWAP1 SLOAD SWAP1 PUSH2 0x100 EXP SWAP1 DIV PUSH20 0xFFFFFFFFFFFFFFFFFFFFFFFFFFFFFFFFFFFFFFFF AND PUSH20 0xFFFFFFFFFFFFFFFFFFFFFFFFFFFFFFFFFFFFFFFF AND PUSH4 0xA9059CBB CALLER DUP4 PUSH1 0x40 MLOAD DUP4 PUSH4 0xFFFFFFFF AND PUSH1 0xE0 SHL DUP2 MSTORE PUSH1 0x4 ADD PUSH2 0x229 SWAP3 SWAP2 SWAP1 PUSH2 0x6A7 JUMP JUMPDEST PUSH1 0x20 PUSH1 0x40 MLOAD DUP1 DUP4 SUB DUP2 PUSH0 DUP8 GAS CALL ISZERO DUP1 ISZERO PUSH2 0x245 JUMPI RETURNDATASIZE PUSH0 DUP1 RETURNDATACOPY RETURNDATASIZE PUSH0 REVERT JUMPDEST POP POP POP POP PUSH1 0x40 MLOAD RETURNDATASIZE PUSH1 0x1F NOT PUSH1 0x1F DUP3 ADD AND DUP3 ADD DUP1 PUSH1 0x40 MSTORE POP DUP2 ADD SWAP1 PUSH2 0x269 SWAP2 SWAP1 PUSH2 0x703 JUMP JUMPDEST POP CALLER PUSH20 0xFFFFFFFFFFFFFFFFFFFFFFFFFFFFFFFFFFFFFFFF AND PUSH32 0x106F923F993C2149D49B4255FF723ACAFA1F2D94393F561D3EDA32AE348F7241 DUP3 PUSH1 0x40 MLOAD PUSH2 0x2B0 SWAP2 SWAP1 PUSH2 0x4E5 JUMP JUMPDEST PUSH1 0x40 MLOAD DUP1 SWAP2 SUB SWAP1 LOG2 POP POP JUMP JUMPDEST PUSH1 0x2 SLOAD DUP2 JUMP JUMPDEST DUP2 PUSH20 0xFFFFFFFFFFFFFFFFFFFFFFFFFFFFFFFFFFFFFFFF AND PUSH4 0x23B872DD CALLER ADDRESS DUP5 PUSH1 0x40 MLOAD DUP5 PUSH4 0xFFFFFFFF AND PUSH1 0xE0 SHL DUP2 MSTORE PUSH1 0x4 ADD PUSH2 0x2FF SWAP4 SWAP3 SWAP2 SWAP1 PUSH2 0x72E JUMP JUMPDEST PUSH1 0x20 PUSH1 0x40 MLOAD DUP1 DUP4 SUB DUP2 PUSH0 DUP8 GAS CALL ISZERO DUP1 ISZERO PUSH2 0x31B JUMPI RETURNDATASIZE PUSH0 DUP1 RETURNDATACOPY RETURNDATASIZE PUSH0 REVERT JUMPDEST POP POP POP POP PUSH1 0x40 MLOAD RETURNDATASIZE PUSH1 0x1F NOT PUSH1 0x1F DUP3 ADD AND DUP3 ADD DUP1 PUSH1 0x40 MSTORE POP DUP2 ADD SWAP1 PUSH2 0x33F SWAP2 SWAP1 PUSH2 0x703 JUMP JUMPDEST POP PUSH1 0x40 MLOAD DUP1 PUSH1 0x40 ADD PUSH1 0x40 MSTORE DUP1 DUP3 DUP2 MSTORE PUSH1 0x20 ADD TIMESTAMP DUP2 MSTORE POP PUSH0 DUP1 CALLER PUSH20 0xFFFFFFFFFFFFFFFFFFFFFFFFFFFFFFFFFFFFFFFF AND PUSH20 0xFFFFFFFFFFFFFFFFFFFFFFFFFFFFFFFFFFFFFFFF AND DUP2 MSTORE PUSH1 0x20 ADD SWAP1 DUP2 MSTORE PUSH1 0x20 ADD PUSH0 KECCAK256 PUSH0 DUP3 ADD MLOAD DUP2 PUSH0 ADD SSTORE PUSH1 0x20 DUP3 ADD MLOAD DUP2 PUSH1 0x1 ADD SSTORE SWAP1 POP POP CALLER PUSH20 0xFFFFFFFFFFFFFFFFFFFFFFFFFFFFFFFFFFFFFFFF AND PUSH32 0x9E71BC8EEA02A63969F509818F2DAFB9254532904319F9DBDA79B67BD34A5F3D DUP3 PUSH1 0x40 MLOAD PUSH2 0x3EC SWAP2 SWAP1 PUSH2 0x4E5 JUMP JUMPDEST PUSH1 0x40 MLOAD DUP1 SWAP2 SUB SWAP1 LOG2 POP POP JUMP JUMPDEST PUSH1 0x1 PUSH0 SWAP1 SLOAD SWAP1 PUSH2 0x100 EXP SWAP1 DIV PUSH20 0xFFFFFFFFFFFFFFFFFFFFFFFFFFFFFFFFFFFFFFFF AND DUP2 JUMP JUMPDEST PUSH0 DUP1 REVERT JUMPDEST PUSH0 PUSH20 0xFFFFFFFFFFFFFFFFFFFFFFFFFFFFFFFFFFFFFFFF DUP3 AND SWAP1 POP SWAP2 SWAP1 POP JUMP JUMPDEST PUSH0 PUSH2 0x44A DUP3 PUSH2 0x421 JUMP JUMPDEST SWAP1 POP SWAP2 SWAP1 POP JUMP JUMPDEST PUSH2 0x45A DUP2 PUSH2 0x440 JUMP JUMPDEST DUP2 EQ PUSH2 0x464 JUMPI PUSH0 DUP1 REVERT JUMPDEST POP JUMP JUMPDEST PUSH0 DUP2 CALLDATALOAD SWAP1 POP PUSH2 0x475 DUP2 PUSH2 0x451 JUMP JUMPDEST SWAP3 SWAP2 POP POP JUMP JUMPDEST PUSH0 PUSH1 0x20 DUP3 DUP5 SUB SLT ISZERO PUSH2 0x490 JUMPI PUSH2 0x48F PUSH2 0x41D JUMP JUMPDEST JUMPDEST PUSH0 PUSH2 0x49D DUP5 DUP3 DUP6 ADD PUSH2 0x467 JUMP JUMPDEST SWAP2 POP POP SWAP3 SWAP2 POP POP JUMP JUMPDEST PUSH0 DUP2 SWAP1 POP SWAP2 SWAP1 POP JUMP JUMPDEST PUSH2 0x4B8 DUP2 PUSH2 0x4A6 JUMP JUMPDEST DUP3 MSTORE POP POP JUMP JUMPDEST PUSH0 PUSH1 0x40 DUP3 ADD SWAP1 POP PUSH2 0x4D1 PUSH0 DUP4 ADD DUP6 PUSH2 0x4AF JUMP JUMPDEST PUSH2 0x4DE PUSH1 0x20 DUP4 ADD DUP5 PUSH2 0x4AF JUMP JUMPDEST SWAP4 SWAP3 POP POP POP JUMP JUMPDEST PUSH0 PUSH1 0x20 DUP3 ADD SWAP1 POP PUSH2 0x4F8 PUSH0 DUP4 ADD DUP5 PUSH2 0x4AF JUMP JUMPDEST SWAP3 SWAP2 POP POP JUMP JUMPDEST PUSH2 0x507 DUP2 PUSH2 0x4A6 JUMP JUMPDEST DUP2 EQ PUSH2 0x511 JUMPI PUSH0 DUP1 REVERT JUMPDEST POP JUMP JUMPDEST PUSH0 DUP2 CALLDATALOAD SWAP1 POP PUSH2 0x522 DUP2 PUSH2 0x4FE JUMP JUMPDEST SWAP3 SWAP2 POP POP JUMP JUMPDEST PUSH0 DUP1 PUSH1 0x40 DUP4 DUP6 SUB SLT ISZERO PUSH2 0x53E JUMPI PUSH2 0x53D PUSH2 0x41D JUMP JUMPDEST JUMPDEST PUSH0 PUSH2 0x54B DUP6 DUP3 DUP7 ADD PUSH2 0x467 JUMP JUMPDEST SWAP3 POP POP PUSH1 0x20 PUSH2 0x55C DUP6 DUP3 DUP7 ADD PUSH2 0x514 JUMP JUMPDEST SWAP2 POP POP SWAP3 POP SWAP3 SWAP1 POP JUMP JUMPDEST PUSH2 0x56F DUP2 PUSH2 0x440 JUMP JUMPDEST DUP3 MSTORE POP POP JUMP JUMPDEST PUSH0 PUSH1 0x20 DUP3 ADD SWAP1 POP PUSH2 0x588 PUSH0 DUP4 ADD DUP5 PUSH2 0x566 JUMP JUMPDEST SWAP3 SWAP2 POP POP JUMP JUMPDEST PUSH0 DUP3 DUP3 MSTORE PUSH1 0x20 DUP3 ADD SWAP1 POP SWAP3 SWAP2 POP POP JUMP JUMPDEST PUSH32 0x4E6F207374616B6520666F756E64000000000000000000000000000000000000 PUSH0 DUP3 ADD MSTORE POP JUMP JUMPDEST PUSH0 PUSH2 0x5D2 PUSH1 0xE DUP4 PUSH2 0x58E JUMP JUMPDEST SWAP2 POP PUSH2 0x5DD DUP3 PUSH2 0x59E JUMP JUMPDEST PUSH1 0x20 DUP3 ADD SWAP1 POP SWAP2 SWAP1 POP JUMP JUMPDEST PUSH0 PUSH1 0x20 DUP3 ADD SWAP1 POP DUP2 DUP2 SUB PUSH0 DUP4 ADD MSTORE PUSH2 0x5FF DUP2 PUSH2 0x5C6 JUMP JUMPDEST SWAP1 POP SWAP2 SWAP1 POP JUMP JUMPDEST PUSH32 0x4E487B7100000000000000000000000000000000000000000000000000000000 PUSH0 MSTORE PUSH1 0x11 PUSH1 0x4 MSTORE PUSH1 0x24 PUSH0 REVERT JUMPDEST PUSH0 PUSH2 0x63D DUP3 PUSH2 0x4A6 JUMP JUMPDEST SWAP2 POP PUSH2 0x648 DUP4 PUSH2 0x4A6 JUMP JUMPDEST SWAP3 POP DUP3 DUP3 SUB SWAP1 POP DUP2 DUP2 GT ISZERO PUSH2 0x660 JUMPI PUSH2 0x65F PUSH2 0x606 JUMP JUMPDEST JUMPDEST SWAP3 SWAP2 POP POP JUMP JUMPDEST PUSH0 PUSH2 0x670 DUP3 PUSH2 0x4A6 JUMP JUMPDEST SWAP2 POP PUSH2 0x67B DUP4 PUSH2 0x4A6 JUMP JUMPDEST SWAP3 POP DUP3 DUP3 MUL PUSH2 0x689 DUP2 PUSH2 0x4A6 JUMP JUMPDEST SWAP2 POP DUP3 DUP3 DIV DUP5 EQ DUP4 ISZERO OR PUSH2 0x6A0 JUMPI PUSH2 0x69F PUSH2 0x606 JUMP JUMPDEST JUMPDEST POP SWAP3 SWAP2 POP POP JUMP JUMPDEST PUSH0 PUSH1 0x40 DUP3 ADD SWAP1 POP PUSH2 0x6BA PUSH0 DUP4 ADD DUP6 PUSH2 0x566 JUMP JUMPDEST PUSH2 0x6C7 PUSH1 0x20 DUP4 ADD DUP5 PUSH2 0x4AF JUMP JUMPDEST SWAP4 SWAP3 POP POP POP JUMP JUMPDEST PUSH0 DUP2 ISZERO ISZERO SWAP1 POP SWAP2 SWAP1 POP JUMP JUMPDEST PUSH2 0x6E2 DUP2 PUSH2 0x6CE JUMP JUMPDEST DUP2 EQ PUSH2 0x6EC JUMPI PUSH0 DUP1 REVERT JUMPDEST POP JUMP JUMPDEST PUSH0 DUP2 MLOAD SWAP1 POP PUSH2 0x6FD DUP2 PUSH2 0x6D9 JUMP JUMPDEST SWAP3 SWAP2 POP POP JUMP JUMPDEST PUSH0 PUSH1 0x20 DUP3 DUP5 SUB SLT ISZERO PUSH2 0x718 JUMPI PUSH2 0x717 PUSH2 0x41D JUMP JUMPDEST JUMPDEST PUSH0 PUSH2 0x725 DUP5 DUP3 DUP6 ADD PUSH2 0x6EF JUMP JUMPDEST SWAP2 POP POP SWAP3 SWAP2 POP POP JUMP JUMPDEST PUSH0 PUSH1 0x60 DUP3 ADD SWAP1 POP PUSH2 0x741 PUSH0 DUP4 ADD DUP7 PUSH2 0x566 JUMP JUMPDEST PUSH2 0x74E PUSH1 0x20 DUP4 ADD DUP6 PUSH2 0x566 JUMP JUMPDEST PUSH2 0x75B PUSH1 0x40 DUP4 ADD DUP5 PUSH2 0x4AF JUMP JUMPDEST SWAP5 SWAP4 POP POP POP POP JUMP INVALID LOG2 PUSH5 0x6970667358 0x22 SLT KECCAK256 0x2C SUB JUMPDEST DUP8 0x23 GT 0xC0 DUP7 DUP8 0x23 TIMESTAMP DIV CREATE2 0xD9 LOG4 0x28 SELFBALANCE DUP7 PUSH28 0xB60A50734A06852B2A5FD5483164736F6C634300081A003300000000 "
				},
				"gasEstimates": {
					"creation": {
						"codeDepositCost": "389000",
						"executionCost": "infinite",
						"totalCost": "infinite"
					},
					"external": {
						"claimRewards()": "infinite",
						"rewardRate()": "2447",
						"rewardToken()": "2574",
						"stake(address,uint256)": "infinite",
						"stakes(address)": "infinite"
					}
				},
				"methodIdentifiers": {
					"claimRewards()": "372500ab",
					"rewardRate()": "7b0a47ee",
					"rewardToken()": "f7c618c1",
					"stake(address,uint256)": "adc9772e",
					"stakes(address)": "16934fc4"
				}
			},
			"storageLayout": {
				"storage": [
					{
						"astId": 90,
						"contract": "src/CrossChainStaking.sol:CrossChainStaking",
						"label": "stakes",
						"offset": 0,
						"slot": "0",
						"type": "t_mapping(t_address,t_struct(StakeInfo)85_storage)"
					},
					{
						"astId": 92,
						"contract": "src/CrossChainStaking.sol:CrossChainStaking",
						"label": "rewardToken",
						"offset": 0,
						"slot": "1",
						"type": "t_address"
					},
					{
						"astId": 94,
						"contract": "src/CrossChainStaking.sol:CrossChainStaking",
						"label": "rewardRate",
						"offset": 0,
						"slot": "2",
						"type": "t_uint256"
					}
				],
				"types": {
					"t_address": {
						"encoding": "inplace",
						"label": "address",
						"numberOfBytes": "20"
					},
					"t_mapping(t_address,t_struct(StakeInfo)85_storage)": {
						"encoding": "mapping",
						"key": "t_address",
						"label": "mapping(address => struct CrossChainStaking.StakeInfo)",
						"numberOfBytes": "32",
						"value": "t_struct(StakeInfo)85_storage"
					},
					"t_struct(StakeInfo)85_storage": {
						"encoding": "inplace",
						"label": "struct CrossChainStaking.StakeInfo",
						"members": [
							{
								"astId": 82,
								"contract": "src/CrossChainStaking.sol:CrossChainStaking",
								"label": "amount",
								"offset": 0,
								"slot": "0",
								"type": "t_uint256"
							},
							{
								"astId": 84,
								"contract": "src/CrossChainStaking.sol:CrossChainStaking",
								"label": "timestamp",
								"offset": 0,
								"slot": "1",
								"type": "t_uint256"
							}
						],
						"numberOfBytes": "64"
					},
					"t_uint256": {
						"encoding": "inplace",
						"label": "uint256",
						"numberOfBytes": "32"
					}
				}
			},
			"userdoc": {
				"kind": "user",
				"methods": {},
				"version": 1
			}
		}
	}
}