{
	"src/OpenDexV2.sol": {
		"MultiTokenPool": {
			"abi": [
				{
					"inputs": [
						{
							"internalType": "address[]",
							"name": "_tokens",
							"type": "address[]"
						},
						{
							"internalType": "uint256[]",
							"name": "_weights",
							"type": "uint256[]"
						},
						{
							"internalType": "address",
							"name": "_governance",
							"type": "address"
						}
					],
					"stateMutability": "nonpayable",
					"type": "constructor"
				},
				{
					"inputs": [
						{
							"internalType": "address",
							"name": "target",
							"type": "address"
						}
					],
					"name": "AddressEmptyCode",
					"type": "error"
				},
				{
					"inputs": [
						{
							"internalType": "address",
							"name": "account",
							"type": "address"
						}
					],
					"name": "AddressInsufficientBalance",
					"type": "error"
				},
				{
					"inputs": [],
					"name": "FailedInnerCall",
					"type": "error"
				},
				{
					"inputs": [
						{
							"internalType": "address",
							"name": "token",
							"type": "address"
						}
					],
					"name": "SafeERC20FailedOperation",
					"type": "error"
				},
				{
					"anonymous": false,
					"inputs": [
						{
							"indexed": true,
							"internalType": "address",
							"name": "provider",
							"type": "address"
						},
						{
							"indexed": false,
							"internalType": "address",
							"name": "token",
							"type": "address"
						},
						{
							"indexed": false,
							"internalType": "uint256",
							"name": "amount",
							"type": "uint256"
						}
					],
					"name": "LiquidityAdded",
					"type": "event"
				},
				{
					"anonymous": false,
					"inputs": [
						{
							"indexed": true,
							"internalType": "address",
							"name": "provider",
							"type": "address"
						},
						{
							"indexed": false,
							"internalType": "address",
							"name": "token",
							"type": "address"
						},
						{
							"indexed": false,
							"internalType": "uint256",
							"name": "amount",
							"type": "uint256"
						}
					],
					"name": "LiquidityRemoved",
					"type": "event"
				},
				{
					"anonymous": false,
					"inputs": [
						{
							"indexed": false,
							"internalType": "address",
							"name": "token",
							"type": "address"
						},
						{
							"indexed": false,
							"internalType": "uint256",
							"name": "newWeight",
							"type": "uint256"
						}
					],
					"name": "TokenWeightUpdated",
					"type": "event"
				},
				{
					"inputs": [
						{
							"internalType": "address",
							"name": "token",
							"type": "address"
						},
						{
							"internalType": "uint256",
							"name": "amount",
							"type": "uint256"
						}
					],
					"name": "addLiquidity",
					"outputs": [],
					"stateMutability": "nonpayable",
					"type": "function"
				},
				{
					"inputs": [
						{
							"internalType": "address",
							"name": "token",
							"type": "address"
						},
						{
							"internalType": "uint256",
							"name": "weight",
							"type": "uint256"
						}
					],
					"name": "addSupportedToken",
					"outputs": [],
					"stateMutability": "nonpayable",
					"type": "function"
				},
				{
					"inputs": [
						{
							"internalType": "address",
							"name": "user",
							"type": "address"
						},
						{
							"internalType": "address",
							"name": "token",
							"type": "address"
						}
					],
					"name": "getUserBalance",
					"outputs": [
						{
							"internalType": "uint256",
							"name": "",
							"type": "uint256"
						}
					],
					"stateMutability": "view",
					"type": "function"
				},
				{
					"inputs": [],
					"name": "governance",
					"outputs": [
						{
							"internalType": "address",
							"name": "",
							"type": "address"
						}
					],
					"stateMutability": "view",
					"type": "function"
				},
				{
					"inputs": [],
					"name": "liquidityFee",
					"outputs": [
						{
							"internalType": "uint256",
							"name": "",
							"type": "uint256"
						}
					],
					"stateMutability": "view",
					"type": "function"
				},
				{
					"inputs": [
						{
							"internalType": "address",
							"name": "token",
							"type": "address"
						},
						{
							"internalType": "uint256",
							"name": "amount",
							"type": "uint256"
						}
					],
					"name": "removeLiquidity",
					"outputs": [],
					"stateMutability": "nonpayable",
					"type": "function"
				},
				{
					"inputs": [
						{
							"internalType": "address",
							"name": "token",
							"type": "address"
						}
					],
					"name": "removeSupportedToken",
					"outputs": [],
					"stateMutability": "nonpayable",
					"type": "function"
				},
				{
					"inputs": [
						{
							"internalType": "uint256",
							"name": "_liquidityFee",
							"type": "uint256"
						}
					],
					"name": "setLiquidityFee",
					"outputs": [],
					"stateMutability": "nonpayable",
					"type": "function"
				},
				{
					"inputs": [
						{
							"internalType": "uint256",
							"name": "",
							"type": "uint256"
						}
					],
					"name": "supportedTokens",
					"outputs": [
						{
							"internalType": "address",
							"name": "",
							"type": "address"
						}
					],
					"stateMutability": "view",
					"type": "function"
				},
				{
					"inputs": [
						{
							"internalType": "address",
							"name": "",
							"type": "address"
						}
					],
					"name": "tokenWeights",
					"outputs": [
						{
							"internalType": "uint256",
							"name": "",
							"type": "uint256"
						}
					],
					"stateMutability": "view",
					"type": "function"
				},
				{
					"inputs": [
						{
							"internalType": "address",
							"name": "",
							"type": "address"
						}
					],
					"name": "totalPoolLiquidity",
					"outputs": [
						{
							"internalType": "uint256",
							"name": "",
							"type": "uint256"
						}
					],
					"stateMutability": "view",
					"type": "function"
				},
				{
					"inputs": [
						{
							"internalType": "address",
							"name": "token",
							"type": "address"
						},
						{
							"internalType": "uint256",
							"name": "newWeight",
							"type": "uint256"
						}
					],
					"name": "updateTokenWeight",
					"outputs": [],
					"stateMutability": "nonpayable",
					"type": "function"
				}
			],
			"devdoc": {
				"errors": {
					"AddressEmptyCode(address)": [
						{
							"details": "There's no code at `target` (it is not a contract)."
						}
					],
					"AddressInsufficientBalance(address)": [
						{
							"details": "The ETH balance of the account is not enough to perform the operation."
						}
					],
					"FailedInnerCall()": [
						{
							"details": "A call to an address target failed. The target may have reverted."
						}
					],
					"SafeERC20FailedOperation(address)": [
						{
							"details": "An operation with an ERC20 token failed."
						}
					]
				},
				"kind": "dev",
				"methods": {},
				"version": 1
			},
			"evm": {
				"assembly": "    /* \"src/OpenDexV2.sol\":187:4930  contract MultiTokenPool {... */\n  mstore(0x40, 0x80)\n    /* \"src/OpenDexV2.sol\":837:839  10 */\n  0x0a\n    /* \"src/OpenDexV2.sol\":807:839  uint256 public liquidityFee = 10 */\n  0x05\n  sstore\n    /* \"src/OpenDexV2.sol\":1255:1624  constructor(address[] memory _tokens, uint256[] memory _weights, address _governance) {... */\n  callvalue\n  dup1\n  iszero\n  tag_1\n  jumpi\n  0x00\n  dup1\n  revert\ntag_1:\n  pop\n  mload(0x40)\n  sub(codesize, bytecodeSize)\n  dup1\n  bytecodeSize\n  dup4\n  codecopy\n  dup2\n  dup2\n  add\n  0x40\n  mstore\n  dup2\n  add\n  swap1\n  tag_2\n  swap2\n  swap1\n  tag_3\n  jump\t// in\ntag_2:\n    /* \"src/OpenDexV2.sol\":1378:1386  _weights */\n  dup2\n    /* \"src/OpenDexV2.sol\":1378:1393  _weights.length */\n  mload\n    /* \"src/OpenDexV2.sol\":1360:1367  _tokens */\n  dup4\n    /* \"src/OpenDexV2.sol\":1360:1374  _tokens.length */\n  mload\n    /* \"src/OpenDexV2.sol\":1360:1393  _tokens.length == _weights.length */\n  eq\n    /* \"src/OpenDexV2.sol\":1352:1423  require(_tokens.length == _weights.length, \"Token and weight mismatch\") */\n  tag_6\n  jumpi\n  mload(0x40)\n  0x08c379a000000000000000000000000000000000000000000000000000000000\n  dup2\n  mstore\n  0x04\n  add\n  tag_7\n  swap1\n  tag_8\n  jump\t// in\ntag_7:\n  mload(0x40)\n  dup1\n  swap2\n  sub\n  swap1\n  revert\ntag_6:\n    /* \"src/OpenDexV2.sol\":1447:1458  _governance */\n  dup1\n    /* \"src/OpenDexV2.sol\":1434:1444  governance */\n  0x03\n  0x00\n    /* \"src/OpenDexV2.sol\":1434:1458  governance = _governance */\n  0x0100\n  exp\n  dup2\n  sload\n  dup2\n  0xffffffffffffffffffffffffffffffffffffffff\n  mul\n  not\n  and\n  swap1\n  dup4\n  0xffffffffffffffffffffffffffffffffffffffff\n  and\n  mul\n  or\n  swap1\n  sstore\n  pop\n    /* \"src/OpenDexV2.sol\":1487:1494  _tokens */\n  dup3\n    /* \"src/OpenDexV2.sol\":1469:1484  supportedTokens */\n  0x04\n    /* \"src/OpenDexV2.sol\":1469:1494  supportedTokens = _tokens */\n  swap1\n  dup1\n  mload\n  swap1\n  0x20\n  add\n  swap1\n  tag_9\n  swap3\n  swap2\n  swap1\n  tag_10\n  jump\t// in\ntag_9:\n  pop\n    /* \"src/OpenDexV2.sol\":1512:1521  uint256 i */\n  0x00\n    /* \"src/OpenDexV2.sol\":1507:1617  for (uint256 i = 0; i < _tokens.length; i++) {... */\ntag_11:\n    /* \"src/OpenDexV2.sol\":1531:1538  _tokens */\n  dup4\n    /* \"src/OpenDexV2.sol\":1531:1545  _tokens.length */\n  mload\n    /* \"src/OpenDexV2.sol\":1527:1528  i */\n  dup2\n    /* \"src/OpenDexV2.sol\":1527:1545  i < _tokens.length */\n  lt\n    /* \"src/OpenDexV2.sol\":1507:1617  for (uint256 i = 0; i < _tokens.length; i++) {... */\n  iszero\n  tag_12\n  jumpi\n    /* \"src/OpenDexV2.sol\":1594:1602  _weights */\n  dup3\n    /* \"src/OpenDexV2.sol\":1603:1604  i */\n  dup2\n    /* \"src/OpenDexV2.sol\":1594:1605  _weights[i] */\n  dup2\n  mload\n  dup2\n  lt\n  tag_14\n  jumpi\n  tag_15\n  tag_16\n  jump\t// in\ntag_15:\ntag_14:\n  0x20\n  mul\n  0x20\n  add\n  add\n  mload\n    /* \"src/OpenDexV2.sol\":1567:1579  tokenWeights */\n  0x02\n    /* \"src/OpenDexV2.sol\":1567:1591  tokenWeights[_tokens[i]] */\n  0x00\n    /* \"src/OpenDexV2.sol\":1580:1587  _tokens */\n  dup7\n    /* \"src/OpenDexV2.sol\":1588:1589  i */\n  dup5\n    /* \"src/OpenDexV2.sol\":1580:1590  _tokens[i] */\n  dup2\n  mload\n  dup2\n  lt\n  tag_17\n  jumpi\n  tag_18\n  tag_16\n  jump\t// in\ntag_18:\ntag_17:\n  0x20\n  mul\n  0x20\n  add\n  add\n  mload\n    /* \"src/OpenDexV2.sol\":1567:1591  tokenWeights[_tokens[i]] */\n  0xffffffffffffffffffffffffffffffffffffffff\n  and\n  0xffffffffffffffffffffffffffffffffffffffff\n  and\n  dup2\n  mstore\n  0x20\n  add\n  swap1\n  dup2\n  mstore\n  0x20\n  add\n  0x00\n  keccak256\n    /* \"src/OpenDexV2.sol\":1567:1605  tokenWeights[_tokens[i]] = _weights[i] */\n  dup2\n  swap1\n  sstore\n  pop\n    /* \"src/OpenDexV2.sol\":1547:1550  i++ */\n  dup1\n  dup1\n  0x01\n  add\n  swap2\n  pop\n  pop\n    /* \"src/OpenDexV2.sol\":1507:1617  for (uint256 i = 0; i < _tokens.length; i++) {... */\n  jump(tag_11)\ntag_12:\n  pop\n    /* \"src/OpenDexV2.sol\":1255:1624  constructor(address[] memory _tokens, uint256[] memory _weights, address _governance) {... */\n  pop\n  pop\n  pop\n    /* \"src/OpenDexV2.sol\":187:4930  contract MultiTokenPool {... */\n  jump(tag_19)\ntag_10:\n  dup3\n  dup1\n  sload\n  dup3\n  dup3\n  sstore\n  swap1\n  0x00\n  mstore\n  keccak256(0x00, 0x20)\n  swap1\n  dup2\n  add\n  swap3\n  dup3\n  iszero\n  tag_20\n  jumpi\n  swap2\n  0x20\n  mul\n  dup3\n  add\ntag_21:\n  dup3\n  dup2\n  gt\n  iszero\n  tag_22\n  jumpi\n  dup3\n  mload\n  dup3\n  exp(0x0100, 0x00)\n  dup2\n  sload\n  dup2\n  0xffffffffffffffffffffffffffffffffffffffff\n  mul\n  not\n  and\n  swap1\n  dup4\n  0xffffffffffffffffffffffffffffffffffffffff\n  and\n  mul\n  or\n  swap1\n  sstore\n  pop\n  swap2\n  0x20\n  add\n  swap2\n  swap1\n  0x01\n  add\n  swap1\n  jump(tag_21)\ntag_22:\ntag_20:\n  pop\n  swap1\n  pop\n  tag_23\n  swap2\n  swap1\n  tag_24\n  jump\t// in\ntag_23:\n  pop\n  swap1\n  jump\t// out\ntag_24:\ntag_25:\n  dup1\n  dup3\n  gt\n  iszero\n  tag_26\n  jumpi\n  0x00\n  dup2\n  0x00\n  swap1\n  sstore\n  pop\n  0x01\n  add\n  jump(tag_25)\ntag_26:\n  pop\n  swap1\n  jump\t// out\n    /* \"#utility.yul\":7:82   */\ntag_27:\n    /* \"#utility.yul\":40:46   */\n  0x00\n    /* \"#utility.yul\":73:75   */\n  0x40\n    /* \"#utility.yul\":67:76   */\n  mload\n    /* \"#utility.yul\":57:76   */\n  swap1\n  pop\n    /* \"#utility.yul\":7:82   */\n  swap1\n  jump\t// out\n    /* \"#utility.yul\":88:205   */\ntag_28:\n    /* \"#utility.yul\":197:198   */\n  0x00\n    /* \"#utility.yul\":194:195   */\n  dup1\n    /* \"#utility.yul\":187:199   */\n  revert\n    /* \"#utility.yul\":211:328   */\ntag_29:\n    /* \"#utility.yul\":320:321   */\n  0x00\n    /* \"#utility.yul\":317:318   */\n  dup1\n    /* \"#utility.yul\":310:322   */\n  revert\n    /* \"#utility.yul\":334:451   */\ntag_30:\n    /* \"#utility.yul\":443:444   */\n  0x00\n    /* \"#utility.yul\":440:441   */\n  dup1\n    /* \"#utility.yul\":433:445   */\n  revert\n    /* \"#utility.yul\":457:559   */\ntag_31:\n    /* \"#utility.yul\":498:504   */\n  0x00\n    /* \"#utility.yul\":549:551   */\n  0x1f\n    /* \"#utility.yul\":545:552   */\n  not\n    /* \"#utility.yul\":540:542   */\n  0x1f\n    /* \"#utility.yul\":533:538   */\n  dup4\n    /* \"#utility.yul\":529:543   */\n  add\n    /* \"#utility.yul\":525:553   */\n  and\n    /* \"#utility.yul\":515:553   */\n  swap1\n  pop\n    /* \"#utility.yul\":457:559   */\n  swap2\n  swap1\n  pop\n  jump\t// out\n    /* \"#utility.yul\":565:745   */\ntag_32:\n    /* \"#utility.yul\":613:690   */\n  0x4e487b7100000000000000000000000000000000000000000000000000000000\n    /* \"#utility.yul\":610:611   */\n  0x00\n    /* \"#utility.yul\":603:691   */\n  mstore\n    /* \"#utility.yul\":710:714   */\n  0x41\n    /* \"#utility.yul\":707:708   */\n  0x04\n    /* \"#utility.yul\":700:715   */\n  mstore\n    /* \"#utility.yul\":734:738   */\n  0x24\n    /* \"#utility.yul\":731:732   */\n  0x00\n    /* \"#utility.yul\":724:739   */\n  revert\n    /* \"#utility.yul\":751:1032   */\ntag_33:\n    /* \"#utility.yul\":834:861   */\n  tag_60\n    /* \"#utility.yul\":856:860   */\n  dup3\n    /* \"#utility.yul\":834:861   */\n  tag_31\n  jump\t// in\ntag_60:\n    /* \"#utility.yul\":826:832   */\n  dup2\n    /* \"#utility.yul\":822:862   */\n  add\n    /* \"#utility.yul\":964:970   */\n  dup2\n    /* \"#utility.yul\":952:962   */\n  dup2\n    /* \"#utility.yul\":949:971   */\n  lt\n    /* \"#utility.yul\":928:946   */\n  0xffffffffffffffff\n    /* \"#utility.yul\":916:926   */\n  dup3\n    /* \"#utility.yul\":913:947   */\n  gt\n    /* \"#utility.yul\":910:972   */\n  or\n    /* \"#utility.yul\":907:995   */\n  iszero\n  tag_61\n  jumpi\n    /* \"#utility.yul\":975:993   */\n  tag_62\n  tag_32\n  jump\t// in\ntag_62:\n    /* \"#utility.yul\":907:995   */\ntag_61:\n    /* \"#utility.yul\":1015:1025   */\n  dup1\n    /* \"#utility.yul\":1011:1013   */\n  0x40\n    /* \"#utility.yul\":1004:1026   */\n  mstore\n    /* \"#utility.yul\":794:1032   */\n  pop\n    /* \"#utility.yul\":751:1032   */\n  pop\n  pop\n  jump\t// out\n    /* \"#utility.yul\":1038:1167   */\ntag_34:\n    /* \"#utility.yul\":1072:1078   */\n  0x00\n    /* \"#utility.yul\":1099:1119   */\n  tag_64\n  tag_27\n  jump\t// in\ntag_64:\n    /* \"#utility.yul\":1089:1119   */\n  swap1\n  pop\n    /* \"#utility.yul\":1128:1161   */\n  tag_65\n    /* \"#utility.yul\":1156:1160   */\n  dup3\n    /* \"#utility.yul\":1148:1154   */\n  dup3\n    /* \"#utility.yul\":1128:1161   */\n  tag_33\n  jump\t// in\ntag_65:\n    /* \"#utility.yul\":1038:1167   */\n  swap2\n  swap1\n  pop\n  jump\t// out\n    /* \"#utility.yul\":1173:1484   */\ntag_35:\n    /* \"#utility.yul\":1250:1254   */\n  0x00\n    /* \"#utility.yul\":1340:1358   */\n  0xffffffffffffffff\n    /* \"#utility.yul\":1332:1338   */\n  dup3\n    /* \"#utility.yul\":1329:1359   */\n  gt\n    /* \"#utility.yul\":1326:1382   */\n  iszero\n  tag_67\n  jumpi\n    /* \"#utility.yul\":1362:1380   */\n  tag_68\n  tag_32\n  jump\t// in\ntag_68:\n    /* \"#utility.yul\":1326:1382   */\ntag_67:\n    /* \"#utility.yul\":1412:1416   */\n  0x20\n    /* \"#utility.yul\":1404:1410   */\n  dup3\n    /* \"#utility.yul\":1400:1417   */\n  mul\n    /* \"#utility.yul\":1392:1417   */\n  swap1\n  pop\n    /* \"#utility.yul\":1472:1476   */\n  0x20\n    /* \"#utility.yul\":1466:1470   */\n  dup2\n    /* \"#utility.yul\":1462:1477   */\n  add\n    /* \"#utility.yul\":1454:1477   */\n  swap1\n  pop\n    /* \"#utility.yul\":1173:1484   */\n  swap2\n  swap1\n  pop\n  jump\t// out\n    /* \"#utility.yul\":1490:1607   */\ntag_36:\n    /* \"#utility.yul\":1599:1600   */\n  0x00\n    /* \"#utility.yul\":1596:1597   */\n  dup1\n    /* \"#utility.yul\":1589:1601   */\n  revert\n    /* \"#utility.yul\":1613:1739   */\ntag_37:\n    /* \"#utility.yul\":1650:1657   */\n  0x00\n    /* \"#utility.yul\":1690:1732   */\n  0xffffffffffffffffffffffffffffffffffffffff\n    /* \"#utility.yul\":1683:1688   */\n  dup3\n    /* \"#utility.yul\":1679:1733   */\n  and\n    /* \"#utility.yul\":1668:1733   */\n  swap1\n  pop\n    /* \"#utility.yul\":1613:1739   */\n  swap2\n  swap1\n  pop\n  jump\t// out\n    /* \"#utility.yul\":1745:1841   */\ntag_38:\n    /* \"#utility.yul\":1782:1789   */\n  0x00\n    /* \"#utility.yul\":1811:1835   */\n  tag_72\n    /* \"#utility.yul\":1829:1834   */\n  dup3\n    /* \"#utility.yul\":1811:1835   */\n  tag_37\n  jump\t// in\ntag_72:\n    /* \"#utility.yul\":1800:1835   */\n  swap1\n  pop\n    /* \"#utility.yul\":1745:1841   */\n  swap2\n  swap1\n  pop\n  jump\t// out\n    /* \"#utility.yul\":1847:1969   */\ntag_39:\n    /* \"#utility.yul\":1920:1944   */\n  tag_74\n    /* \"#utility.yul\":1938:1943   */\n  dup2\n    /* \"#utility.yul\":1920:1944   */\n  tag_38\n  jump\t// in\ntag_74:\n    /* \"#utility.yul\":1913:1918   */\n  dup2\n    /* \"#utility.yul\":1910:1945   */\n  eq\n    /* \"#utility.yul\":1900:1963   */\n  tag_75\n  jumpi\n    /* \"#utility.yul\":1959:1960   */\n  0x00\n    /* \"#utility.yul\":1956:1957   */\n  dup1\n    /* \"#utility.yul\":1949:1961   */\n  revert\n    /* \"#utility.yul\":1900:1963   */\ntag_75:\n    /* \"#utility.yul\":1847:1969   */\n  pop\n  jump\t// out\n    /* \"#utility.yul\":1975:2118   */\ntag_40:\n    /* \"#utility.yul\":2032:2037   */\n  0x00\n    /* \"#utility.yul\":2063:2069   */\n  dup2\n    /* \"#utility.yul\":2057:2070   */\n  mload\n    /* \"#utility.yul\":2048:2070   */\n  swap1\n  pop\n    /* \"#utility.yul\":2079:2112   */\n  tag_77\n    /* \"#utility.yul\":2106:2111   */\n  dup2\n    /* \"#utility.yul\":2079:2112   */\n  tag_39\n  jump\t// in\ntag_77:\n    /* \"#utility.yul\":1975:2118   */\n  swap3\n  swap2\n  pop\n  pop\n  jump\t// out\n    /* \"#utility.yul\":2141:2873   */\ntag_41:\n    /* \"#utility.yul\":2248:2253   */\n  0x00\n    /* \"#utility.yul\":2273:2354   */\n  tag_79\n    /* \"#utility.yul\":2289:2353   */\n  tag_80\n    /* \"#utility.yul\":2346:2352   */\n  dup5\n    /* \"#utility.yul\":2289:2353   */\n  tag_35\n  jump\t// in\ntag_80:\n    /* \"#utility.yul\":2273:2354   */\n  tag_34\n  jump\t// in\ntag_79:\n    /* \"#utility.yul\":2264:2354   */\n  swap1\n  pop\n    /* \"#utility.yul\":2374:2379   */\n  dup1\n    /* \"#utility.yul\":2403:2409   */\n  dup4\n    /* \"#utility.yul\":2396:2401   */\n  dup3\n    /* \"#utility.yul\":2389:2410   */\n  mstore\n    /* \"#utility.yul\":2437:2441   */\n  0x20\n    /* \"#utility.yul\":2430:2435   */\n  dup3\n    /* \"#utility.yul\":2426:2442   */\n  add\n    /* \"#utility.yul\":2419:2442   */\n  swap1\n  pop\n    /* \"#utility.yul\":2490:2494   */\n  0x20\n    /* \"#utility.yul\":2482:2488   */\n  dup5\n    /* \"#utility.yul\":2478:2495   */\n  mul\n    /* \"#utility.yul\":2470:2476   */\n  dup4\n    /* \"#utility.yul\":2466:2496   */\n  add\n    /* \"#utility.yul\":2519:2522   */\n  dup6\n    /* \"#utility.yul\":2511:2517   */\n  dup2\n    /* \"#utility.yul\":2508:2523   */\n  gt\n    /* \"#utility.yul\":2505:2627   */\n  iszero\n  tag_81\n  jumpi\n    /* \"#utility.yul\":2538:2617   */\n  tag_82\n  tag_36\n  jump\t// in\ntag_82:\n    /* \"#utility.yul\":2505:2627   */\ntag_81:\n    /* \"#utility.yul\":2653:2659   */\n  dup4\n    /* \"#utility.yul\":2636:2867   */\ntag_83:\n    /* \"#utility.yul\":2670:2676   */\n  dup2\n    /* \"#utility.yul\":2665:2668   */\n  dup2\n    /* \"#utility.yul\":2662:2677   */\n  lt\n    /* \"#utility.yul\":2636:2867   */\n  iszero\n  tag_85\n  jumpi\n    /* \"#utility.yul\":2745:2748   */\n  dup1\n    /* \"#utility.yul\":2774:2822   */\n  tag_86\n    /* \"#utility.yul\":2818:2821   */\n  dup9\n    /* \"#utility.yul\":2806:2816   */\n  dup3\n    /* \"#utility.yul\":2774:2822   */\n  tag_40\n  jump\t// in\ntag_86:\n    /* \"#utility.yul\":2769:2772   */\n  dup5\n    /* \"#utility.yul\":2762:2823   */\n  mstore\n    /* \"#utility.yul\":2852:2856   */\n  0x20\n    /* \"#utility.yul\":2847:2850   */\n  dup5\n    /* \"#utility.yul\":2843:2857   */\n  add\n    /* \"#utility.yul\":2836:2857   */\n  swap4\n  pop\n    /* \"#utility.yul\":2712:2867   */\n  pop\n    /* \"#utility.yul\":2696:2700   */\n  0x20\n    /* \"#utility.yul\":2691:2694   */\n  dup2\n    /* \"#utility.yul\":2687:2701   */\n  add\n    /* \"#utility.yul\":2680:2701   */\n  swap1\n  pop\n    /* \"#utility.yul\":2636:2867   */\n  jump(tag_83)\ntag_85:\n    /* \"#utility.yul\":2640:2661   */\n  pop\n    /* \"#utility.yul\":2254:2873   */\n  pop\n  pop\n    /* \"#utility.yul\":2141:2873   */\n  swap4\n  swap3\n  pop\n  pop\n  pop\n  jump\t// out\n    /* \"#utility.yul\":2896:3281   */\ntag_42:\n    /* \"#utility.yul\":2978:2983   */\n  0x00\n    /* \"#utility.yul\":3027:3030   */\n  dup3\n    /* \"#utility.yul\":3020:3024   */\n  0x1f\n    /* \"#utility.yul\":3012:3018   */\n  dup4\n    /* \"#utility.yul\":3008:3025   */\n  add\n    /* \"#utility.yul\":3004:3031   */\n  slt\n    /* \"#utility.yul\":2994:3116   */\n  tag_88\n  jumpi\n    /* \"#utility.yul\":3035:3114   */\n  tag_89\n  tag_30\n  jump\t// in\ntag_89:\n    /* \"#utility.yul\":2994:3116   */\ntag_88:\n    /* \"#utility.yul\":3145:3151   */\n  dup2\n    /* \"#utility.yul\":3139:3152   */\n  mload\n    /* \"#utility.yul\":3170:3275   */\n  tag_90\n    /* \"#utility.yul\":3271:3274   */\n  dup5\n    /* \"#utility.yul\":3263:3269   */\n  dup3\n    /* \"#utility.yul\":3256:3260   */\n  0x20\n    /* \"#utility.yul\":3248:3254   */\n  dup7\n    /* \"#utility.yul\":3244:3261   */\n  add\n    /* \"#utility.yul\":3170:3275   */\n  tag_41\n  jump\t// in\ntag_90:\n    /* \"#utility.yul\":3161:3275   */\n  swap2\n  pop\n    /* \"#utility.yul\":2984:3281   */\n  pop\n    /* \"#utility.yul\":2896:3281   */\n  swap3\n  swap2\n  pop\n  pop\n  jump\t// out\n    /* \"#utility.yul\":3287:3598   */\ntag_43:\n    /* \"#utility.yul\":3364:3368   */\n  0x00\n    /* \"#utility.yul\":3454:3472   */\n  0xffffffffffffffff\n    /* \"#utility.yul\":3446:3452   */\n  dup3\n    /* \"#utility.yul\":3443:3473   */\n  gt\n    /* \"#utility.yul\":3440:3496   */\n  iszero\n  tag_92\n  jumpi\n    /* \"#utility.yul\":3476:3494   */\n  tag_93\n  tag_32\n  jump\t// in\ntag_93:\n    /* \"#utility.yul\":3440:3496   */\ntag_92:\n    /* \"#utility.yul\":3526:3530   */\n  0x20\n    /* \"#utility.yul\":3518:3524   */\n  dup3\n    /* \"#utility.yul\":3514:3531   */\n  mul\n    /* \"#utility.yul\":3506:3531   */\n  swap1\n  pop\n    /* \"#utility.yul\":3586:3590   */\n  0x20\n    /* \"#utility.yul\":3580:3584   */\n  dup2\n    /* \"#utility.yul\":3576:3591   */\n  add\n    /* \"#utility.yul\":3568:3591   */\n  swap1\n  pop\n    /* \"#utility.yul\":3287:3598   */\n  swap2\n  swap1\n  pop\n  jump\t// out\n    /* \"#utility.yul\":3604:3681   */\ntag_44:\n    /* \"#utility.yul\":3641:3648   */\n  0x00\n    /* \"#utility.yul\":3670:3675   */\n  dup2\n    /* \"#utility.yul\":3659:3675   */\n  swap1\n  pop\n    /* \"#utility.yul\":3604:3681   */\n  swap2\n  swap1\n  pop\n  jump\t// out\n    /* \"#utility.yul\":3687:3809   */\ntag_45:\n    /* \"#utility.yul\":3760:3784   */\n  tag_96\n    /* \"#utility.yul\":3778:3783   */\n  dup2\n    /* \"#utility.yul\":3760:3784   */\n  tag_44\n  jump\t// in\ntag_96:\n    /* \"#utility.yul\":3753:3758   */\n  dup2\n    /* \"#utility.yul\":3750:3785   */\n  eq\n    /* \"#utility.yul\":3740:3803   */\n  tag_97\n  jumpi\n    /* \"#utility.yul\":3799:3800   */\n  0x00\n    /* \"#utility.yul\":3796:3797   */\n  dup1\n    /* \"#utility.yul\":3789:3801   */\n  revert\n    /* \"#utility.yul\":3740:3803   */\ntag_97:\n    /* \"#utility.yul\":3687:3809   */\n  pop\n  jump\t// out\n    /* \"#utility.yul\":3815:3958   */\ntag_46:\n    /* \"#utility.yul\":3872:3877   */\n  0x00\n    /* \"#utility.yul\":3903:3909   */\n  dup2\n    /* \"#utility.yul\":3897:3910   */\n  mload\n    /* \"#utility.yul\":3888:3910   */\n  swap1\n  pop\n    /* \"#utility.yul\":3919:3952   */\n  tag_99\n    /* \"#utility.yul\":3946:3951   */\n  dup2\n    /* \"#utility.yul\":3919:3952   */\n  tag_45\n  jump\t// in\ntag_99:\n    /* \"#utility.yul\":3815:3958   */\n  swap3\n  swap2\n  pop\n  pop\n  jump\t// out\n    /* \"#utility.yul\":3981:4713   */\ntag_47:\n    /* \"#utility.yul\":4088:4093   */\n  0x00\n    /* \"#utility.yul\":4113:4194   */\n  tag_101\n    /* \"#utility.yul\":4129:4193   */\n  tag_102\n    /* \"#utility.yul\":4186:4192   */\n  dup5\n    /* \"#utility.yul\":4129:4193   */\n  tag_43\n  jump\t// in\ntag_102:\n    /* \"#utility.yul\":4113:4194   */\n  tag_34\n  jump\t// in\ntag_101:\n    /* \"#utility.yul\":4104:4194   */\n  swap1\n  pop\n    /* \"#utility.yul\":4214:4219   */\n  dup1\n    /* \"#utility.yul\":4243:4249   */\n  dup4\n    /* \"#utility.yul\":4236:4241   */\n  dup3\n    /* \"#utility.yul\":4229:4250   */\n  mstore\n    /* \"#utility.yul\":4277:4281   */\n  0x20\n    /* \"#utility.yul\":4270:4275   */\n  dup3\n    /* \"#utility.yul\":4266:4282   */\n  add\n    /* \"#utility.yul\":4259:4282   */\n  swap1\n  pop\n    /* \"#utility.yul\":4330:4334   */\n  0x20\n    /* \"#utility.yul\":4322:4328   */\n  dup5\n    /* \"#utility.yul\":4318:4335   */\n  mul\n    /* \"#utility.yul\":4310:4316   */\n  dup4\n    /* \"#utility.yul\":4306:4336   */\n  add\n    /* \"#utility.yul\":4359:4362   */\n  dup6\n    /* \"#utility.yul\":4351:4357   */\n  dup2\n    /* \"#utility.yul\":4348:4363   */\n  gt\n    /* \"#utility.yul\":4345:4467   */\n  iszero\n  tag_103\n  jumpi\n    /* \"#utility.yul\":4378:4457   */\n  tag_104\n  tag_36\n  jump\t// in\ntag_104:\n    /* \"#utility.yul\":4345:4467   */\ntag_103:\n    /* \"#utility.yul\":4493:4499   */\n  dup4\n    /* \"#utility.yul\":4476:4707   */\ntag_105:\n    /* \"#utility.yul\":4510:4516   */\n  dup2\n    /* \"#utility.yul\":4505:4508   */\n  dup2\n    /* \"#utility.yul\":4502:4517   */\n  lt\n    /* \"#utility.yul\":4476:4707   */\n  iszero\n  tag_107\n  jumpi\n    /* \"#utility.yul\":4585:4588   */\n  dup1\n    /* \"#utility.yul\":4614:4662   */\n  tag_108\n    /* \"#utility.yul\":4658:4661   */\n  dup9\n    /* \"#utility.yul\":4646:4656   */\n  dup3\n    /* \"#utility.yul\":4614:4662   */\n  tag_46\n  jump\t// in\ntag_108:\n    /* \"#utility.yul\":4609:4612   */\n  dup5\n    /* \"#utility.yul\":4602:4663   */\n  mstore\n    /* \"#utility.yul\":4692:4696   */\n  0x20\n    /* \"#utility.yul\":4687:4690   */\n  dup5\n    /* \"#utility.yul\":4683:4697   */\n  add\n    /* \"#utility.yul\":4676:4697   */\n  swap4\n  pop\n    /* \"#utility.yul\":4552:4707   */\n  pop\n    /* \"#utility.yul\":4536:4540   */\n  0x20\n    /* \"#utility.yul\":4531:4534   */\n  dup2\n    /* \"#utility.yul\":4527:4541   */\n  add\n    /* \"#utility.yul\":4520:4541   */\n  swap1\n  pop\n    /* \"#utility.yul\":4476:4707   */\n  jump(tag_105)\ntag_107:\n    /* \"#utility.yul\":4480:4501   */\n  pop\n    /* \"#utility.yul\":4094:4713   */\n  pop\n  pop\n    /* \"#utility.yul\":3981:4713   */\n  swap4\n  swap3\n  pop\n  pop\n  pop\n  jump\t// out\n    /* \"#utility.yul\":4736:5121   */\ntag_48:\n    /* \"#utility.yul\":4818:4823   */\n  0x00\n    /* \"#utility.yul\":4867:4870   */\n  dup3\n    /* \"#utility.yul\":4860:4864   */\n  0x1f\n    /* \"#utility.yul\":4852:4858   */\n  dup4\n    /* \"#utility.yul\":4848:4865   */\n  add\n    /* \"#utility.yul\":4844:4871   */\n  slt\n    /* \"#utility.yul\":4834:4956   */\n  tag_110\n  jumpi\n    /* \"#utility.yul\":4875:4954   */\n  tag_111\n  tag_30\n  jump\t// in\ntag_111:\n    /* \"#utility.yul\":4834:4956   */\ntag_110:\n    /* \"#utility.yul\":4985:4991   */\n  dup2\n    /* \"#utility.yul\":4979:4992   */\n  mload\n    /* \"#utility.yul\":5010:5115   */\n  tag_112\n    /* \"#utility.yul\":5111:5114   */\n  dup5\n    /* \"#utility.yul\":5103:5109   */\n  dup3\n    /* \"#utility.yul\":5096:5100   */\n  0x20\n    /* \"#utility.yul\":5088:5094   */\n  dup7\n    /* \"#utility.yul\":5084:5101   */\n  add\n    /* \"#utility.yul\":5010:5115   */\n  tag_47\n  jump\t// in\ntag_112:\n    /* \"#utility.yul\":5001:5115   */\n  swap2\n  pop\n    /* \"#utility.yul\":4824:5121   */\n  pop\n    /* \"#utility.yul\":4736:5121   */\n  swap3\n  swap2\n  pop\n  pop\n  jump\t// out\n    /* \"#utility.yul\":5127:6196   */\ntag_3:\n    /* \"#utility.yul\":5265:5271   */\n  0x00\n    /* \"#utility.yul\":5273:5279   */\n  dup1\n    /* \"#utility.yul\":5281:5287   */\n  0x00\n    /* \"#utility.yul\":5330:5332   */\n  0x60\n    /* \"#utility.yul\":5318:5327   */\n  dup5\n    /* \"#utility.yul\":5309:5316   */\n  dup7\n    /* \"#utility.yul\":5305:5328   */\n  sub\n    /* \"#utility.yul\":5301:5333   */\n  slt\n    /* \"#utility.yul\":5298:5417   */\n  iszero\n  tag_114\n  jumpi\n    /* \"#utility.yul\":5336:5415   */\n  tag_115\n  tag_28\n  jump\t// in\ntag_115:\n    /* \"#utility.yul\":5298:5417   */\ntag_114:\n    /* \"#utility.yul\":5477:5478   */\n  0x00\n    /* \"#utility.yul\":5466:5475   */\n  dup5\n    /* \"#utility.yul\":5462:5479   */\n  add\n    /* \"#utility.yul\":5456:5480   */\n  mload\n    /* \"#utility.yul\":5507:5525   */\n  0xffffffffffffffff\n    /* \"#utility.yul\":5499:5505   */\n  dup2\n    /* \"#utility.yul\":5496:5526   */\n  gt\n    /* \"#utility.yul\":5493:5610   */\n  iszero\n  tag_116\n  jumpi\n    /* \"#utility.yul\":5529:5608   */\n  tag_117\n  tag_29\n  jump\t// in\ntag_117:\n    /* \"#utility.yul\":5493:5610   */\ntag_116:\n    /* \"#utility.yul\":5634:5723   */\n  tag_118\n    /* \"#utility.yul\":5715:5722   */\n  dup7\n    /* \"#utility.yul\":5706:5712   */\n  dup3\n    /* \"#utility.yul\":5695:5704   */\n  dup8\n    /* \"#utility.yul\":5691:5713   */\n  add\n    /* \"#utility.yul\":5634:5723   */\n  tag_42\n  jump\t// in\ntag_118:\n    /* \"#utility.yul\":5624:5723   */\n  swap4\n  pop\n    /* \"#utility.yul\":5427:5733   */\n  pop\n    /* \"#utility.yul\":5793:5795   */\n  0x20\n    /* \"#utility.yul\":5782:5791   */\n  dup5\n    /* \"#utility.yul\":5778:5796   */\n  add\n    /* \"#utility.yul\":5772:5797   */\n  mload\n    /* \"#utility.yul\":5824:5842   */\n  0xffffffffffffffff\n    /* \"#utility.yul\":5816:5822   */\n  dup2\n    /* \"#utility.yul\":5813:5843   */\n  gt\n    /* \"#utility.yul\":5810:5927   */\n  iszero\n  tag_119\n  jumpi\n    /* \"#utility.yul\":5846:5925   */\n  tag_120\n  tag_29\n  jump\t// in\ntag_120:\n    /* \"#utility.yul\":5810:5927   */\ntag_119:\n    /* \"#utility.yul\":5951:6040   */\n  tag_121\n    /* \"#utility.yul\":6032:6039   */\n  dup7\n    /* \"#utility.yul\":6023:6029   */\n  dup3\n    /* \"#utility.yul\":6012:6021   */\n  dup8\n    /* \"#utility.yul\":6008:6030   */\n  add\n    /* \"#utility.yul\":5951:6040   */\n  tag_48\n  jump\t// in\ntag_121:\n    /* \"#utility.yul\":5941:6040   */\n  swap3\n  pop\n    /* \"#utility.yul\":5743:6050   */\n  pop\n    /* \"#utility.yul\":6089:6091   */\n  0x40\n    /* \"#utility.yul\":6115:6179   */\n  tag_122\n    /* \"#utility.yul\":6171:6178   */\n  dup7\n    /* \"#utility.yul\":6162:6168   */\n  dup3\n    /* \"#utility.yul\":6151:6160   */\n  dup8\n    /* \"#utility.yul\":6147:6169   */\n  add\n    /* \"#utility.yul\":6115:6179   */\n  tag_40\n  jump\t// in\ntag_122:\n    /* \"#utility.yul\":6105:6179   */\n  swap2\n  pop\n    /* \"#utility.yul\":6060:6189   */\n  pop\n    /* \"#utility.yul\":5127:6196   */\n  swap3\n  pop\n  swap3\n  pop\n  swap3\n  jump\t// out\n    /* \"#utility.yul\":6202:6371   */\ntag_49:\n    /* \"#utility.yul\":6286:6297   */\n  0x00\n    /* \"#utility.yul\":6320:6326   */\n  dup3\n    /* \"#utility.yul\":6315:6318   */\n  dup3\n    /* \"#utility.yul\":6308:6327   */\n  mstore\n    /* \"#utility.yul\":6360:6364   */\n  0x20\n    /* \"#utility.yul\":6355:6358   */\n  dup3\n    /* \"#utility.yul\":6351:6365   */\n  add\n    /* \"#utility.yul\":6336:6365   */\n  swap1\n  pop\n    /* \"#utility.yul\":6202:6371   */\n  swap3\n  swap2\n  pop\n  pop\n  jump\t// out\n    /* \"#utility.yul\":6377:6552   */\ntag_50:\n    /* \"#utility.yul\":6517:6544   */\n  0x546f6b656e20616e6420776569676874206d69736d6174636800000000000000\n    /* \"#utility.yul\":6513:6514   */\n  0x00\n    /* \"#utility.yul\":6505:6511   */\n  dup3\n    /* \"#utility.yul\":6501:6515   */\n  add\n    /* \"#utility.yul\":6494:6545   */\n  mstore\n    /* \"#utility.yul\":6377:6552   */\n  pop\n  jump\t// out\n    /* \"#utility.yul\":6558:6924   */\ntag_51:\n    /* \"#utility.yul\":6700:6703   */\n  0x00\n    /* \"#utility.yul\":6721:6788   */\n  tag_126\n    /* \"#utility.yul\":6785:6787   */\n  0x19\n    /* \"#utility.yul\":6780:6783   */\n  dup4\n    /* \"#utility.yul\":6721:6788   */\n  tag_49\n  jump\t// in\ntag_126:\n    /* \"#utility.yul\":6714:6788   */\n  swap2\n  pop\n    /* \"#utility.yul\":6797:6890   */\n  tag_127\n    /* \"#utility.yul\":6886:6889   */\n  dup3\n    /* \"#utility.yul\":6797:6890   */\n  tag_50\n  jump\t// in\ntag_127:\n    /* \"#utility.yul\":6915:6917   */\n  0x20\n    /* \"#utility.yul\":6910:6913   */\n  dup3\n    /* \"#utility.yul\":6906:6918   */\n  add\n    /* \"#utility.yul\":6899:6918   */\n  swap1\n  pop\n    /* \"#utility.yul\":6558:6924   */\n  swap2\n  swap1\n  pop\n  jump\t// out\n    /* \"#utility.yul\":6930:7349   */\ntag_8:\n    /* \"#utility.yul\":7096:7100   */\n  0x00\n    /* \"#utility.yul\":7134:7136   */\n  0x20\n    /* \"#utility.yul\":7123:7132   */\n  dup3\n    /* \"#utility.yul\":7119:7137   */\n  add\n    /* \"#utility.yul\":7111:7137   */\n  swap1\n  pop\n    /* \"#utility.yul\":7183:7192   */\n  dup2\n    /* \"#utility.yul\":7177:7181   */\n  dup2\n    /* \"#utility.yul\":7173:7193   */\n  sub\n    /* \"#utility.yul\":7169:7170   */\n  0x00\n    /* \"#utility.yul\":7158:7167   */\n  dup4\n    /* \"#utility.yul\":7154:7171   */\n  add\n    /* \"#utility.yul\":7147:7194   */\n  mstore\n    /* \"#utility.yul\":7211:7342   */\n  tag_129\n    /* \"#utility.yul\":7337:7341   */\n  dup2\n    /* \"#utility.yul\":7211:7342   */\n  tag_51\n  jump\t// in\ntag_129:\n    /* \"#utility.yul\":7203:7342   */\n  swap1\n  pop\n    /* \"#utility.yul\":6930:7349   */\n  swap2\n  swap1\n  pop\n  jump\t// out\n    /* \"#utility.yul\":7355:7535   */\ntag_16:\n    /* \"#utility.yul\":7403:7480   */\n  0x4e487b7100000000000000000000000000000000000000000000000000000000\n    /* \"#utility.yul\":7400:7401   */\n  0x00\n    /* \"#utility.yul\":7393:7481   */\n  mstore\n    /* \"#utility.yul\":7500:7504   */\n  0x32\n    /* \"#utility.yul\":7497:7498   */\n  0x04\n    /* \"#utility.yul\":7490:7505   */\n  mstore\n    /* \"#utility.yul\":7524:7528   */\n  0x24\n    /* \"#utility.yul\":7521:7522   */\n  0x00\n    /* \"#utility.yul\":7514:7529   */\n  revert\n    /* \"src/OpenDexV2.sol\":187:4930  contract MultiTokenPool {... */\ntag_19:\n  dataSize(sub_0)\n  dup1\n  dataOffset(sub_0)\n  0x00\n  codecopy\n  0x00\n  return\nstop\n\nsub_0: assembly {\n        /* \"src/OpenDexV2.sol\":187:4930  contract MultiTokenPool {... */\n      mstore(0x40, 0x80)\n      callvalue\n      dup1\n      iszero\n      tag_1\n      jumpi\n      0x00\n      dup1\n      revert\n    tag_1:\n      pop\n      jumpi(tag_2, lt(calldatasize, 0x04))\n      shr(0xe0, calldataload(0x00))\n      dup1\n      0x6805d6ad\n      gt\n      tag_15\n      jumpi\n      dup1\n      0x6805d6ad\n      eq\n      tag_9\n      jumpi\n      dup1\n      0x76319190\n      eq\n      tag_10\n      jumpi\n      dup1\n      0x98118cb4\n      eq\n      tag_11\n      jumpi\n      dup1\n      0xa201ccf6\n      eq\n      tag_12\n      jumpi\n      dup1\n      0xab2f3ad4\n      eq\n      tag_13\n      jumpi\n      dup1\n      0xc6255626\n      eq\n      tag_14\n      jumpi\n      jump(tag_2)\n    tag_15:\n      dup1\n      0x21faf184\n      eq\n      tag_3\n      jumpi\n      dup1\n      0x3053f0b2\n      eq\n      tag_4\n      jumpi\n      dup1\n      0x357bf15c\n      eq\n      tag_5\n      jumpi\n      dup1\n      0x4d8e3d3b\n      eq\n      tag_6\n      jumpi\n      dup1\n      0x56688700\n      eq\n      tag_7\n      jumpi\n      dup1\n      0x5aa6e675\n      eq\n      tag_8\n      jumpi\n    tag_2:\n      0x00\n      dup1\n      revert\n        /* \"src/OpenDexV2.sol\":3484:3737  function updateTokenWeight(address token, uint256 newWeight) external onlyGovernance {... */\n    tag_3:\n      tag_16\n      0x04\n      dup1\n      calldatasize\n      sub\n      dup2\n      add\n      swap1\n      tag_17\n      swap2\n      swap1\n      tag_18\n      jump\t// in\n    tag_17:\n      tag_19\n      jump\t// in\n    tag_16:\n      stop\n        /* \"src/OpenDexV2.sol\":523:576  mapping(address => uint256) public totalPoolLiquidity */\n    tag_4:\n      tag_20\n      0x04\n      dup1\n      calldatasize\n      sub\n      dup2\n      add\n      swap1\n      tag_21\n      swap2\n      swap1\n      tag_22\n      jump\t// in\n    tag_21:\n      tag_23\n      jump\t// in\n    tag_20:\n      mload(0x40)\n      tag_24\n      swap2\n      swap1\n      tag_25\n      jump\t// in\n    tag_24:\n      mload(0x40)\n      dup1\n      swap2\n      sub\n      swap1\n      return\n        /* \"src/OpenDexV2.sol\":4738:4927  function setLiquidityFee(uint256 _liquidityFee) external onlyGovernance {... */\n    tag_5:\n      tag_26\n      0x04\n      dup1\n      calldatasize\n      sub\n      dup2\n      add\n      swap1\n      tag_27\n      swap2\n      swap1\n      tag_28\n      jump\t// in\n    tag_27:\n      tag_29\n      jump\t// in\n    tag_26:\n      stop\n        /* \"src/OpenDexV2.sol\":3802:4040  function addSupportedToken(address token, uint256 weight) external onlyGovernance {... */\n    tag_6:\n      tag_30\n      0x04\n      dup1\n      calldatasize\n      sub\n      dup2\n      add\n      swap1\n      tag_31\n      swap2\n      swap1\n      tag_18\n      jump\t// in\n    tag_31:\n      tag_32\n      jump\t// in\n    tag_30:\n      stop\n        /* \"src/OpenDexV2.sol\":1675:2336  function addLiquidity(address token, uint256 amount) external {... */\n    tag_7:\n      tag_33\n      0x04\n      dup1\n      calldatasize\n      sub\n      dup2\n      add\n      swap1\n      tag_34\n      swap2\n      swap1\n      tag_18\n      jump\t// in\n    tag_34:\n      tag_35\n      jump\t// in\n    tag_33:\n      stop\n        /* \"src/OpenDexV2.sol\":736:761  address public governance */\n    tag_8:\n      tag_36\n      tag_37\n      jump\t// in\n    tag_36:\n      mload(0x40)\n      tag_38\n      swap2\n      swap1\n      tag_39\n      jump\t// in\n    tag_38:\n      mload(0x40)\n      dup1\n      swap2\n      sub\n      swap1\n      return\n        /* \"src/OpenDexV2.sol\":3256:3412  function getUserBalance(address user, address token) external view returns (uint256) {... */\n    tag_9:\n      tag_40\n      0x04\n      dup1\n      calldatasize\n      sub\n      dup2\n      add\n      swap1\n      tag_41\n      swap2\n      swap1\n      tag_42\n      jump\t// in\n    tag_41:\n      tag_43\n      jump\t// in\n    tag_40:\n      mload(0x40)\n      tag_44\n      swap2\n      swap1\n      tag_25\n      jump\t// in\n    tag_44:\n      mload(0x40)\n      dup1\n      swap2\n      sub\n      swap1\n      return\n        /* \"src/OpenDexV2.sol\":4104:4674  function removeSupportedToken(address token) external onlyGovernance {... */\n    tag_10:\n      tag_45\n      0x04\n      dup1\n      calldatasize\n      sub\n      dup2\n      add\n      swap1\n      tag_46\n      swap2\n      swap1\n      tag_22\n      jump\t// in\n    tag_46:\n      tag_47\n      jump\t// in\n    tag_45:\n      stop\n        /* \"src/OpenDexV2.sol\":807:839  uint256 public liquidityFee = 10 */\n    tag_11:\n      tag_48\n      tag_49\n      jump\t// in\n    tag_48:\n      mload(0x40)\n      tag_50\n      swap2\n      swap1\n      tag_25\n      jump\t// in\n    tag_50:\n      mload(0x40)\n      dup1\n      swap2\n      sub\n      swap1\n      return\n        /* \"src/OpenDexV2.sol\":2389:2871  function removeLiquidity(address token, uint256 amount) external {... */\n    tag_12:\n      tag_51\n      0x04\n      dup1\n      calldatasize\n      sub\n      dup2\n      add\n      swap1\n      tag_52\n      swap2\n      swap1\n      tag_18\n      jump\t// in\n    tag_52:\n      tag_53\n      jump\t// in\n    tag_51:\n      stop\n        /* \"src/OpenDexV2.sol\":633:680  mapping(address => uint256) public tokenWeights */\n    tag_13:\n      tag_54\n      0x04\n      dup1\n      calldatasize\n      sub\n      dup2\n      add\n      swap1\n      tag_55\n      swap2\n      swap1\n      tag_22\n      jump\t// in\n    tag_55:\n      tag_56\n      jump\t// in\n    tag_54:\n      mload(0x40)\n      tag_57\n      swap2\n      swap1\n      tag_25\n      jump\t// in\n    tag_57:\n      mload(0x40)\n      dup1\n      swap2\n      sub\n      swap1\n      return\n        /* \"src/OpenDexV2.sol\":768:800  address[] public supportedTokens */\n    tag_14:\n      tag_58\n      0x04\n      dup1\n      calldatasize\n      sub\n      dup2\n      add\n      swap1\n      tag_59\n      swap2\n      swap1\n      tag_28\n      jump\t// in\n    tag_59:\n      tag_60\n      jump\t// in\n    tag_58:\n      mload(0x40)\n      tag_61\n      swap2\n      swap1\n      tag_39\n      jump\t// in\n    tag_61:\n      mload(0x40)\n      dup1\n      swap2\n      sub\n      swap1\n      return\n        /* \"src/OpenDexV2.sol\":3484:3737  function updateTokenWeight(address token, uint256 newWeight) external onlyGovernance {... */\n    tag_19:\n        /* \"src/OpenDexV2.sol\":1198:1208  governance */\n      0x03\n      0x00\n      swap1\n      sload\n      swap1\n      0x0100\n      exp\n      swap1\n      div\n      0xffffffffffffffffffffffffffffffffffffffff\n      and\n        /* \"src/OpenDexV2.sol\":1184:1208  msg.sender == governance */\n      0xffffffffffffffffffffffffffffffffffffffff\n      and\n        /* \"src/OpenDexV2.sol\":1184:1194  msg.sender */\n      caller\n        /* \"src/OpenDexV2.sol\":1184:1208  msg.sender == governance */\n      0xffffffffffffffffffffffffffffffffffffffff\n      and\n      eq\n        /* \"src/OpenDexV2.sol\":1176:1227  require(msg.sender == governance, \"Not authorized\") */\n      tag_63\n      jumpi\n      mload(0x40)\n      0x08c379a000000000000000000000000000000000000000000000000000000000\n      dup2\n      mstore\n      0x04\n      add\n      tag_64\n      swap1\n      tag_65\n      jump\t// in\n    tag_64:\n      mload(0x40)\n      dup1\n      swap2\n      sub\n      swap1\n      revert\n    tag_63:\n        /* \"src/OpenDexV2.sol\":3588:3611  isSupportedToken(token) */\n      tag_67\n        /* \"src/OpenDexV2.sol\":3605:3610  token */\n      dup3\n        /* \"src/OpenDexV2.sol\":3588:3604  isSupportedToken */\n      tag_68\n        /* \"src/OpenDexV2.sol\":3588:3611  isSupportedToken(token) */\n      jump\t// in\n    tag_67:\n        /* \"src/OpenDexV2.sol\":3580:3635  require(isSupportedToken(token), \"Token not supported\") */\n      tag_69\n      jumpi\n      mload(0x40)\n      0x08c379a000000000000000000000000000000000000000000000000000000000\n      dup2\n      mstore\n      0x04\n      add\n      tag_70\n      swap1\n      tag_71\n      jump\t// in\n    tag_70:\n      mload(0x40)\n      dup1\n      swap2\n      sub\n      swap1\n      revert\n    tag_69:\n        /* \"src/OpenDexV2.sol\":3668:3677  newWeight */\n      dup1\n        /* \"src/OpenDexV2.sol\":3646:3658  tokenWeights */\n      0x02\n        /* \"src/OpenDexV2.sol\":3646:3665  tokenWeights[token] */\n      0x00\n        /* \"src/OpenDexV2.sol\":3659:3664  token */\n      dup5\n        /* \"src/OpenDexV2.sol\":3646:3665  tokenWeights[token] */\n      0xffffffffffffffffffffffffffffffffffffffff\n      and\n      0xffffffffffffffffffffffffffffffffffffffff\n      and\n      dup2\n      mstore\n      0x20\n      add\n      swap1\n      dup2\n      mstore\n      0x20\n      add\n      0x00\n      keccak256\n        /* \"src/OpenDexV2.sol\":3646:3677  tokenWeights[token] = newWeight */\n      dup2\n      swap1\n      sstore\n      pop\n        /* \"src/OpenDexV2.sol\":3693:3729  TokenWeightUpdated(token, newWeight) */\n      0xc9bf4277eb054fe4fa82ff2e3b468a6300f4bc73a13794b02287f6d8282c998c\n        /* \"src/OpenDexV2.sol\":3712:3717  token */\n      dup3\n        /* \"src/OpenDexV2.sol\":3719:3728  newWeight */\n      dup3\n        /* \"src/OpenDexV2.sol\":3693:3729  TokenWeightUpdated(token, newWeight) */\n      mload(0x40)\n      tag_72\n      swap3\n      swap2\n      swap1\n      tag_73\n      jump\t// in\n    tag_72:\n      mload(0x40)\n      dup1\n      swap2\n      sub\n      swap1\n      log1\n        /* \"src/OpenDexV2.sol\":3484:3737  function updateTokenWeight(address token, uint256 newWeight) external onlyGovernance {... */\n      pop\n      pop\n      jump\t// out\n        /* \"src/OpenDexV2.sol\":523:576  mapping(address => uint256) public totalPoolLiquidity */\n    tag_23:\n      mstore(0x20, 0x01)\n      dup1\n      0x00\n      mstore\n      keccak256(0x00, 0x40)\n      0x00\n      swap2\n      pop\n      swap1\n      pop\n      sload\n      dup2\n      jump\t// out\n        /* \"src/OpenDexV2.sol\":4738:4927  function setLiquidityFee(uint256 _liquidityFee) external onlyGovernance {... */\n    tag_29:\n        /* \"src/OpenDexV2.sol\":1198:1208  governance */\n      0x03\n      0x00\n      swap1\n      sload\n      swap1\n      0x0100\n      exp\n      swap1\n      div\n      0xffffffffffffffffffffffffffffffffffffffff\n      and\n        /* \"src/OpenDexV2.sol\":1184:1208  msg.sender == governance */\n      0xffffffffffffffffffffffffffffffffffffffff\n      and\n        /* \"src/OpenDexV2.sol\":1184:1194  msg.sender */\n      caller\n        /* \"src/OpenDexV2.sol\":1184:1208  msg.sender == governance */\n      0xffffffffffffffffffffffffffffffffffffffff\n      and\n      eq\n        /* \"src/OpenDexV2.sol\":1176:1227  require(msg.sender == governance, \"Not authorized\") */\n      tag_75\n      jumpi\n      mload(0x40)\n      0x08c379a000000000000000000000000000000000000000000000000000000000\n      dup2\n      mstore\n      0x04\n      add\n      tag_76\n      swap1\n      tag_65\n      jump\t// in\n    tag_76:\n      mload(0x40)\n      dup1\n      swap2\n      sub\n      swap1\n      revert\n    tag_75:\n        /* \"src/OpenDexV2.sol\":4846:4849  100 */\n      0x64\n        /* \"src/OpenDexV2.sol\":4829:4842  _liquidityFee */\n      dup2\n        /* \"src/OpenDexV2.sol\":4829:4849  _liquidityFee <= 100 */\n      gt\n      iszero\n        /* \"src/OpenDexV2.sol\":4821:4866  require(_liquidityFee <= 100, \"Fee too high\") */\n      tag_78\n      jumpi\n      mload(0x40)\n      0x08c379a000000000000000000000000000000000000000000000000000000000\n      dup2\n      mstore\n      0x04\n      add\n      tag_79\n      swap1\n      tag_80\n      jump\t// in\n    tag_79:\n      mload(0x40)\n      dup1\n      swap2\n      sub\n      swap1\n      revert\n    tag_78:\n        /* \"src/OpenDexV2.sol\":4906:4919  _liquidityFee */\n      dup1\n        /* \"src/OpenDexV2.sol\":4891:4903  liquidityFee */\n      0x05\n        /* \"src/OpenDexV2.sol\":4891:4919  liquidityFee = _liquidityFee */\n      dup2\n      swap1\n      sstore\n      pop\n        /* \"src/OpenDexV2.sol\":4738:4927  function setLiquidityFee(uint256 _liquidityFee) external onlyGovernance {... */\n      pop\n      jump\t// out\n        /* \"src/OpenDexV2.sol\":3802:4040  function addSupportedToken(address token, uint256 weight) external onlyGovernance {... */\n    tag_32:\n        /* \"src/OpenDexV2.sol\":1198:1208  governance */\n      0x03\n      0x00\n      swap1\n      sload\n      swap1\n      0x0100\n      exp\n      swap1\n      div\n      0xffffffffffffffffffffffffffffffffffffffff\n      and\n        /* \"src/OpenDexV2.sol\":1184:1208  msg.sender == governance */\n      0xffffffffffffffffffffffffffffffffffffffff\n      and\n        /* \"src/OpenDexV2.sol\":1184:1194  msg.sender */\n      caller\n        /* \"src/OpenDexV2.sol\":1184:1208  msg.sender == governance */\n      0xffffffffffffffffffffffffffffffffffffffff\n      and\n      eq\n        /* \"src/OpenDexV2.sol\":1176:1227  require(msg.sender == governance, \"Not authorized\") */\n      tag_82\n      jumpi\n      mload(0x40)\n      0x08c379a000000000000000000000000000000000000000000000000000000000\n      dup2\n      mstore\n      0x04\n      add\n      tag_83\n      swap1\n      tag_65\n      jump\t// in\n    tag_83:\n      mload(0x40)\n      dup1\n      swap2\n      sub\n      swap1\n      revert\n    tag_82:\n        /* \"src/OpenDexV2.sol\":3904:3927  isSupportedToken(token) */\n      tag_85\n        /* \"src/OpenDexV2.sol\":3921:3926  token */\n      dup3\n        /* \"src/OpenDexV2.sol\":3904:3920  isSupportedToken */\n      tag_68\n        /* \"src/OpenDexV2.sol\":3904:3927  isSupportedToken(token) */\n      jump\t// in\n    tag_85:\n        /* \"src/OpenDexV2.sol\":3903:3927  !isSupportedToken(token) */\n      iszero\n        /* \"src/OpenDexV2.sol\":3895:3955  require(!isSupportedToken(token), \"Token already supported\") */\n      tag_86\n      jumpi\n      mload(0x40)\n      0x08c379a000000000000000000000000000000000000000000000000000000000\n      dup2\n      mstore\n      0x04\n      add\n      tag_87\n      swap1\n      tag_88\n      jump\t// in\n    tag_87:\n      mload(0x40)\n      dup1\n      swap2\n      sub\n      swap1\n      revert\n    tag_86:\n        /* \"src/OpenDexV2.sol\":3966:3981  supportedTokens */\n      0x04\n        /* \"src/OpenDexV2.sol\":3987:3992  token */\n      dup3\n        /* \"src/OpenDexV2.sol\":3966:3993  supportedTokens.push(token) */\n      swap1\n      dup1\n      0x01\n      dup2\n      sload\n      add\n      dup1\n      dup3\n      sstore\n      dup1\n      swap2\n      pop\n      pop\n      0x01\n      swap1\n      sub\n      swap1\n      0x00\n      mstore\n      keccak256(0x00, 0x20)\n      add\n      0x00\n      swap1\n      swap2\n      swap1\n      swap2\n      swap1\n      swap2\n      0x0100\n      exp\n      dup2\n      sload\n      dup2\n      0xffffffffffffffffffffffffffffffffffffffff\n      mul\n      not\n      and\n      swap1\n      dup4\n      0xffffffffffffffffffffffffffffffffffffffff\n      and\n      mul\n      or\n      swap1\n      sstore\n      pop\n        /* \"src/OpenDexV2.sol\":4026:4032  weight */\n      dup1\n        /* \"src/OpenDexV2.sol\":4004:4016  tokenWeights */\n      0x02\n        /* \"src/OpenDexV2.sol\":4004:4023  tokenWeights[token] */\n      0x00\n        /* \"src/OpenDexV2.sol\":4017:4022  token */\n      dup5\n        /* \"src/OpenDexV2.sol\":4004:4023  tokenWeights[token] */\n      0xffffffffffffffffffffffffffffffffffffffff\n      and\n      0xffffffffffffffffffffffffffffffffffffffff\n      and\n      dup2\n      mstore\n      0x20\n      add\n      swap1\n      dup2\n      mstore\n      0x20\n      add\n      0x00\n      keccak256\n        /* \"src/OpenDexV2.sol\":4004:4032  tokenWeights[token] = weight */\n      dup2\n      swap1\n      sstore\n      pop\n        /* \"src/OpenDexV2.sol\":3802:4040  function addSupportedToken(address token, uint256 weight) external onlyGovernance {... */\n      pop\n      pop\n      jump\t// out\n        /* \"src/OpenDexV2.sol\":1675:2336  function addLiquidity(address token, uint256 amount) external {... */\n    tag_35:\n        /* \"src/OpenDexV2.sol\":1756:1779  isSupportedToken(token) */\n      tag_91\n        /* \"src/OpenDexV2.sol\":1773:1778  token */\n      dup3\n        /* \"src/OpenDexV2.sol\":1756:1772  isSupportedToken */\n      tag_68\n        /* \"src/OpenDexV2.sol\":1756:1779  isSupportedToken(token) */\n      jump\t// in\n    tag_91:\n        /* \"src/OpenDexV2.sol\":1748:1803  require(isSupportedToken(token), \"Token not supported\") */\n      tag_92\n      jumpi\n      mload(0x40)\n      0x08c379a000000000000000000000000000000000000000000000000000000000\n      dup2\n      mstore\n      0x04\n      add\n      tag_93\n      swap1\n      tag_71\n      jump\t// in\n    tag_93:\n      mload(0x40)\n      dup1\n      swap2\n      sub\n      swap1\n      revert\n    tag_92:\n        /* \"src/OpenDexV2.sol\":1816:1827  uint256 fee */\n      0x00\n        /* \"src/OpenDexV2.sol\":1856:1861  10000 */\n      0x2710\n        /* \"src/OpenDexV2.sol\":1840:1852  liquidityFee */\n      sload(0x05)\n        /* \"src/OpenDexV2.sol\":1831:1837  amount */\n      dup4\n        /* \"src/OpenDexV2.sol\":1831:1852  amount * liquidityFee */\n      tag_94\n      swap2\n      swap1\n      tag_95\n      jump\t// in\n    tag_94:\n        /* \"src/OpenDexV2.sol\":1830:1861  (amount * liquidityFee) / 10000 */\n      tag_96\n      swap2\n      swap1\n      tag_97\n      jump\t// in\n    tag_96:\n        /* \"src/OpenDexV2.sol\":1816:1861  uint256 fee = (amount * liquidityFee) / 10000 */\n      swap1\n      pop\n        /* \"src/OpenDexV2.sol\":1906:1928  uint256 amountAfterFee */\n      0x00\n        /* \"src/OpenDexV2.sol\":1940:1943  fee */\n      dup2\n        /* \"src/OpenDexV2.sol\":1931:1937  amount */\n      dup4\n        /* \"src/OpenDexV2.sol\":1931:1943  amount - fee */\n      tag_98\n      swap2\n      swap1\n      tag_99\n      jump\t// in\n    tag_98:\n        /* \"src/OpenDexV2.sol\":1906:1943  uint256 amountAfterFee = amount - fee */\n      swap1\n      pop\n        /* \"src/OpenDexV2.sol\":1956:2029  IERC20(token).safeTransferFrom(msg.sender, address(this), amountAfterFee) */\n      tag_100\n        /* \"src/OpenDexV2.sol\":1987:1997  msg.sender */\n      caller\n        /* \"src/OpenDexV2.sol\":2007:2011  this */\n      address\n        /* \"src/OpenDexV2.sol\":2014:2028  amountAfterFee */\n      dup4\n        /* \"src/OpenDexV2.sol\":1963:1968  token */\n      dup8\n        /* \"src/OpenDexV2.sol\":1956:1986  IERC20(token).safeTransferFrom */\n      0xffffffffffffffffffffffffffffffffffffffff\n      and\n      tag_101\n      swap1\n        /* \"src/OpenDexV2.sol\":1956:2029  IERC20(token).safeTransferFrom(msg.sender, address(this), amountAfterFee) */\n      swap4\n      swap3\n      swap2\n      swap1\n      0xffffffff\n      and\n      jump\t// in\n    tag_100:\n        /* \"src/OpenDexV2.sol\":2040:2099  IERC20(token).safeTransferFrom(msg.sender, governance, fee) */\n      tag_102\n        /* \"src/OpenDexV2.sol\":2071:2081  msg.sender */\n      caller\n        /* \"src/OpenDexV2.sol\":2083:2093  governance */\n      0x03\n      0x00\n      swap1\n      sload\n      swap1\n      0x0100\n      exp\n      swap1\n      div\n      0xffffffffffffffffffffffffffffffffffffffff\n      and\n        /* \"src/OpenDexV2.sol\":2095:2098  fee */\n      dup5\n        /* \"src/OpenDexV2.sol\":2047:2052  token */\n      dup8\n        /* \"src/OpenDexV2.sol\":2040:2070  IERC20(token).safeTransferFrom */\n      0xffffffffffffffffffffffffffffffffffffffff\n      and\n      tag_101\n      swap1\n        /* \"src/OpenDexV2.sol\":2040:2099  IERC20(token).safeTransferFrom(msg.sender, governance, fee) */\n      swap4\n      swap3\n      swap2\n      swap1\n      0xffffffff\n      and\n      jump\t// in\n    tag_102:\n        /* \"src/OpenDexV2.sol\":2193:2207  amountAfterFee */\n      dup1\n        /* \"src/OpenDexV2.sol\":2138:2156  liquidityProviders */\n      0x00\n        /* \"src/OpenDexV2.sol\":2138:2168  liquidityProviders[msg.sender] */\n      dup1\n        /* \"src/OpenDexV2.sol\":2157:2167  msg.sender */\n      caller\n        /* \"src/OpenDexV2.sol\":2138:2168  liquidityProviders[msg.sender] */\n      0xffffffffffffffffffffffffffffffffffffffff\n      and\n      0xffffffffffffffffffffffffffffffffffffffff\n      and\n      dup2\n      mstore\n      0x20\n      add\n      swap1\n      dup2\n      mstore\n      0x20\n      add\n      0x00\n      keccak256\n        /* \"src/OpenDexV2.sol\":2138:2182  liquidityProviders[msg.sender].tokenBalances */\n      0x00\n      add\n        /* \"src/OpenDexV2.sol\":2138:2189  liquidityProviders[msg.sender].tokenBalances[token] */\n      0x00\n        /* \"src/OpenDexV2.sol\":2183:2188  token */\n      dup7\n        /* \"src/OpenDexV2.sol\":2138:2189  liquidityProviders[msg.sender].tokenBalances[token] */\n      0xffffffffffffffffffffffffffffffffffffffff\n      and\n      0xffffffffffffffffffffffffffffffffffffffff\n      and\n      dup2\n      mstore\n      0x20\n      add\n      swap1\n      dup2\n      mstore\n      0x20\n      add\n      0x00\n      keccak256\n      0x00\n        /* \"src/OpenDexV2.sol\":2138:2207  liquidityProviders[msg.sender].tokenBalances[token] += amountAfterFee */\n      dup3\n      dup3\n      sload\n      tag_103\n      swap2\n      swap1\n      tag_104\n      jump\t// in\n    tag_103:\n      swap3\n      pop\n      pop\n      dup2\n      swap1\n      sstore\n      pop\n        /* \"src/OpenDexV2.sol\":2247:2261  amountAfterFee */\n      dup1\n        /* \"src/OpenDexV2.sol\":2218:2236  totalPoolLiquidity */\n      0x01\n        /* \"src/OpenDexV2.sol\":2218:2243  totalPoolLiquidity[token] */\n      0x00\n        /* \"src/OpenDexV2.sol\":2237:2242  token */\n      dup7\n        /* \"src/OpenDexV2.sol\":2218:2243  totalPoolLiquidity[token] */\n      0xffffffffffffffffffffffffffffffffffffffff\n      and\n      0xffffffffffffffffffffffffffffffffffffffff\n      and\n      dup2\n      mstore\n      0x20\n      add\n      swap1\n      dup2\n      mstore\n      0x20\n      add\n      0x00\n      keccak256\n      0x00\n        /* \"src/OpenDexV2.sol\":2218:2261  totalPoolLiquidity[token] += amountAfterFee */\n      dup3\n      dup3\n      sload\n      tag_105\n      swap2\n      swap1\n      tag_104\n      jump\t// in\n    tag_105:\n      swap3\n      pop\n      pop\n      dup2\n      swap1\n      sstore\n      pop\n        /* \"src/OpenDexV2.sol\":2294:2304  msg.sender */\n      caller\n        /* \"src/OpenDexV2.sol\":2279:2328  LiquidityAdded(msg.sender, token, amountAfterFee) */\n      0xffffffffffffffffffffffffffffffffffffffff\n      and\n      0x9d278c56ba6dc86a12eefe6b43112bd6e06648eb4ec0b950ee2d783d40e2acb4\n        /* \"src/OpenDexV2.sol\":2306:2311  token */\n      dup6\n        /* \"src/OpenDexV2.sol\":2313:2327  amountAfterFee */\n      dup4\n        /* \"src/OpenDexV2.sol\":2279:2328  LiquidityAdded(msg.sender, token, amountAfterFee) */\n      mload(0x40)\n      tag_106\n      swap3\n      swap2\n      swap1\n      tag_73\n      jump\t// in\n    tag_106:\n      mload(0x40)\n      dup1\n      swap2\n      sub\n      swap1\n      log2\n        /* \"src/OpenDexV2.sol\":1737:2336  {... */\n      pop\n      pop\n        /* \"src/OpenDexV2.sol\":1675:2336  function addLiquidity(address token, uint256 amount) external {... */\n      pop\n      pop\n      jump\t// out\n        /* \"src/OpenDexV2.sol\":736:761  address public governance */\n    tag_37:\n      0x03\n      0x00\n      swap1\n      sload\n      swap1\n      0x0100\n      exp\n      swap1\n      div\n      0xffffffffffffffffffffffffffffffffffffffff\n      and\n      dup2\n      jump\t// out\n        /* \"src/OpenDexV2.sol\":3256:3412  function getUserBalance(address user, address token) external view returns (uint256) {... */\n    tag_43:\n        /* \"src/OpenDexV2.sol\":3332:3339  uint256 */\n      0x00\n        /* \"src/OpenDexV2.sol\":3359:3377  liquidityProviders */\n      dup1\n        /* \"src/OpenDexV2.sol\":3359:3383  liquidityProviders[user] */\n      0x00\n        /* \"src/OpenDexV2.sol\":3378:3382  user */\n      dup5\n        /* \"src/OpenDexV2.sol\":3359:3383  liquidityProviders[user] */\n      0xffffffffffffffffffffffffffffffffffffffff\n      and\n      0xffffffffffffffffffffffffffffffffffffffff\n      and\n      dup2\n      mstore\n      0x20\n      add\n      swap1\n      dup2\n      mstore\n      0x20\n      add\n      0x00\n      keccak256\n        /* \"src/OpenDexV2.sol\":3359:3397  liquidityProviders[user].tokenBalances */\n      0x00\n      add\n        /* \"src/OpenDexV2.sol\":3359:3404  liquidityProviders[user].tokenBalances[token] */\n      0x00\n        /* \"src/OpenDexV2.sol\":3398:3403  token */\n      dup4\n        /* \"src/OpenDexV2.sol\":3359:3404  liquidityProviders[user].tokenBalances[token] */\n      0xffffffffffffffffffffffffffffffffffffffff\n      and\n      0xffffffffffffffffffffffffffffffffffffffff\n      and\n      dup2\n      mstore\n      0x20\n      add\n      swap1\n      dup2\n      mstore\n      0x20\n      add\n      0x00\n      keccak256\n      sload\n        /* \"src/OpenDexV2.sol\":3352:3404  return liquidityProviders[user].tokenBalances[token] */\n      swap1\n      pop\n        /* \"src/OpenDexV2.sol\":3256:3412  function getUserBalance(address user, address token) external view returns (uint256) {... */\n      swap3\n      swap2\n      pop\n      pop\n      jump\t// out\n        /* \"src/OpenDexV2.sol\":4104:4674  function removeSupportedToken(address token) external onlyGovernance {... */\n    tag_47:\n        /* \"src/OpenDexV2.sol\":1198:1208  governance */\n      0x03\n      0x00\n      swap1\n      sload\n      swap1\n      0x0100\n      exp\n      swap1\n      div\n      0xffffffffffffffffffffffffffffffffffffffff\n      and\n        /* \"src/OpenDexV2.sol\":1184:1208  msg.sender == governance */\n      0xffffffffffffffffffffffffffffffffffffffff\n      and\n        /* \"src/OpenDexV2.sol\":1184:1194  msg.sender */\n      caller\n        /* \"src/OpenDexV2.sol\":1184:1208  msg.sender == governance */\n      0xffffffffffffffffffffffffffffffffffffffff\n      and\n      eq\n        /* \"src/OpenDexV2.sol\":1176:1227  require(msg.sender == governance, \"Not authorized\") */\n      tag_109\n      jumpi\n      mload(0x40)\n      0x08c379a000000000000000000000000000000000000000000000000000000000\n      dup2\n      mstore\n      0x04\n      add\n      tag_110\n      swap1\n      tag_65\n      jump\t// in\n    tag_110:\n      mload(0x40)\n      dup1\n      swap2\n      sub\n      swap1\n      revert\n    tag_109:\n        /* \"src/OpenDexV2.sol\":4192:4215  isSupportedToken(token) */\n      tag_112\n        /* \"src/OpenDexV2.sol\":4209:4214  token */\n      dup2\n        /* \"src/OpenDexV2.sol\":4192:4208  isSupportedToken */\n      tag_68\n        /* \"src/OpenDexV2.sol\":4192:4215  isSupportedToken(token) */\n      jump\t// in\n    tag_112:\n        /* \"src/OpenDexV2.sol\":4184:4239  require(isSupportedToken(token), \"Token not supported\") */\n      tag_113\n      jumpi\n      mload(0x40)\n      0x08c379a000000000000000000000000000000000000000000000000000000000\n      dup2\n      mstore\n      0x04\n      add\n      tag_114\n      swap1\n      tag_71\n      jump\t// in\n    tag_114:\n      mload(0x40)\n      dup1\n      swap2\n      sub\n      swap1\n      revert\n    tag_113:\n        /* \"src/OpenDexV2.sol\":4255:4264  uint256 i */\n      0x00\n        /* \"src/OpenDexV2.sol\":4250:4595  for (uint256 i = 0; i < supportedTokens.length; i++) {... */\n    tag_115:\n        /* \"src/OpenDexV2.sol\":4274:4289  supportedTokens */\n      0x04\n        /* \"src/OpenDexV2.sol\":4274:4296  supportedTokens.length */\n      dup1\n      sload\n      swap1\n      pop\n        /* \"src/OpenDexV2.sol\":4270:4271  i */\n      dup2\n        /* \"src/OpenDexV2.sol\":4270:4296  i < supportedTokens.length */\n      lt\n        /* \"src/OpenDexV2.sol\":4250:4595  for (uint256 i = 0; i < supportedTokens.length; i++) {... */\n      iszero\n      tag_116\n      jumpi\n        /* \"src/OpenDexV2.sol\":4344:4349  token */\n      dup2\n        /* \"src/OpenDexV2.sol\":4322:4349  supportedTokens[i] == token */\n      0xffffffffffffffffffffffffffffffffffffffff\n      and\n        /* \"src/OpenDexV2.sol\":4322:4337  supportedTokens */\n      0x04\n        /* \"src/OpenDexV2.sol\":4338:4339  i */\n      dup3\n        /* \"src/OpenDexV2.sol\":4322:4340  supportedTokens[i] */\n      dup2\n      sload\n      dup2\n      lt\n      tag_118\n      jumpi\n      tag_119\n      tag_120\n      jump\t// in\n    tag_119:\n    tag_118:\n      swap1\n      0x00\n      mstore\n      keccak256(0x00, 0x20)\n      add\n      0x00\n      swap1\n      sload\n      swap1\n      0x0100\n      exp\n      swap1\n      div\n      0xffffffffffffffffffffffffffffffffffffffff\n      and\n        /* \"src/OpenDexV2.sol\":4322:4349  supportedTokens[i] == token */\n      0xffffffffffffffffffffffffffffffffffffffff\n      and\n      sub\n        /* \"src/OpenDexV2.sol\":4318:4584  if (supportedTokens[i] == token) {... */\n      tag_122\n      jumpi\n        /* \"src/OpenDexV2.sol\":4391:4406  supportedTokens */\n      0x04\n        /* \"src/OpenDexV2.sol\":4432:4433  1 */\n      0x01\n        /* \"src/OpenDexV2.sol\":4407:4422  supportedTokens */\n      0x04\n        /* \"src/OpenDexV2.sol\":4407:4429  supportedTokens.length */\n      dup1\n      sload\n      swap1\n      pop\n        /* \"src/OpenDexV2.sol\":4407:4433  supportedTokens.length - 1 */\n      tag_123\n      swap2\n      swap1\n      tag_99\n      jump\t// in\n    tag_123:\n        /* \"src/OpenDexV2.sol\":4391:4434  supportedTokens[supportedTokens.length - 1] */\n      dup2\n      sload\n      dup2\n      lt\n      tag_124\n      jumpi\n      tag_125\n      tag_120\n      jump\t// in\n    tag_125:\n    tag_124:\n      swap1\n      0x00\n      mstore\n      keccak256(0x00, 0x20)\n      add\n      0x00\n      swap1\n      sload\n      swap1\n      0x0100\n      exp\n      swap1\n      div\n      0xffffffffffffffffffffffffffffffffffffffff\n      and\n        /* \"src/OpenDexV2.sol\":4370:4385  supportedTokens */\n      0x04\n        /* \"src/OpenDexV2.sol\":4386:4387  i */\n      dup3\n        /* \"src/OpenDexV2.sol\":4370:4388  supportedTokens[i] */\n      dup2\n      sload\n      dup2\n      lt\n      tag_127\n      jumpi\n      tag_128\n      tag_120\n      jump\t// in\n    tag_128:\n    tag_127:\n      swap1\n      0x00\n      mstore\n      keccak256(0x00, 0x20)\n      add\n      0x00\n        /* \"src/OpenDexV2.sol\":4370:4434  supportedTokens[i] = supportedTokens[supportedTokens.length - 1] */\n      0x0100\n      exp\n      dup2\n      sload\n      dup2\n      0xffffffffffffffffffffffffffffffffffffffff\n      mul\n      not\n      and\n      swap1\n      dup4\n      0xffffffffffffffffffffffffffffffffffffffff\n      and\n      mul\n      or\n      swap1\n      sstore\n      pop\n        /* \"src/OpenDexV2.sol\":4496:4511  supportedTokens */\n      0x04\n        /* \"src/OpenDexV2.sol\":4496:4517  supportedTokens.pop() */\n      dup1\n      sload\n      dup1\n      tag_130\n      jumpi\n      tag_131\n      tag_132\n      jump\t// in\n    tag_131:\n    tag_130:\n      0x01\n      swap1\n      sub\n      dup2\n      dup2\n      swap1\n      0x00\n      mstore\n      keccak256(0x00, 0x20)\n      add\n      exp(0x0100, 0x00)\n      dup2\n      sload\n      swap1\n      0xffffffffffffffffffffffffffffffffffffffff\n      mul\n      not\n      and\n      swap1\n      sstore\n      swap1\n      sstore\n        /* \"src/OpenDexV2.sol\":4563:4568  break */\n      jump(tag_116)\n        /* \"src/OpenDexV2.sol\":4318:4584  if (supportedTokens[i] == token) {... */\n    tag_122:\n        /* \"src/OpenDexV2.sol\":4298:4301  i++ */\n      dup1\n      dup1\n      0x01\n      add\n      swap2\n      pop\n      pop\n        /* \"src/OpenDexV2.sol\":4250:4595  for (uint256 i = 0; i < supportedTokens.length; i++) {... */\n      jump(tag_115)\n    tag_116:\n      pop\n        /* \"src/OpenDexV2.sol\":4612:4624  tokenWeights */\n      0x02\n        /* \"src/OpenDexV2.sol\":4612:4631  tokenWeights[token] */\n      0x00\n        /* \"src/OpenDexV2.sol\":4625:4630  token */\n      dup3\n        /* \"src/OpenDexV2.sol\":4612:4631  tokenWeights[token] */\n      0xffffffffffffffffffffffffffffffffffffffff\n      and\n      0xffffffffffffffffffffffffffffffffffffffff\n      and\n      dup2\n      mstore\n      0x20\n      add\n      swap1\n      dup2\n      mstore\n      0x20\n      add\n      0x00\n      keccak256\n        /* \"src/OpenDexV2.sol\":4605:4631  delete tokenWeights[token] */\n      0x00\n      swap1\n      sstore\n        /* \"src/OpenDexV2.sol\":4104:4674  function removeSupportedToken(address token) external onlyGovernance {... */\n      pop\n      jump\t// out\n        /* \"src/OpenDexV2.sol\":807:839  uint256 public liquidityFee = 10 */\n    tag_49:\n      sload(0x05)\n      dup2\n      jump\t// out\n        /* \"src/OpenDexV2.sol\":2389:2871  function removeLiquidity(address token, uint256 amount) external {... */\n    tag_53:\n        /* \"src/OpenDexV2.sol\":2473:2496  isSupportedToken(token) */\n      tag_135\n        /* \"src/OpenDexV2.sol\":2490:2495  token */\n      dup3\n        /* \"src/OpenDexV2.sol\":2473:2489  isSupportedToken */\n      tag_68\n        /* \"src/OpenDexV2.sol\":2473:2496  isSupportedToken(token) */\n      jump\t// in\n    tag_135:\n        /* \"src/OpenDexV2.sol\":2465:2520  require(isSupportedToken(token), \"Token not supported\") */\n      tag_136\n      jumpi\n      mload(0x40)\n      0x08c379a000000000000000000000000000000000000000000000000000000000\n      dup2\n      mstore\n      0x04\n      add\n      tag_137\n      swap1\n      tag_71\n      jump\t// in\n    tag_137:\n      mload(0x40)\n      dup1\n      swap2\n      sub\n      swap1\n      revert\n    tag_136:\n        /* \"src/OpenDexV2.sol\":2594:2600  amount */\n      dup1\n        /* \"src/OpenDexV2.sol\":2539:2557  liquidityProviders */\n      0x00\n        /* \"src/OpenDexV2.sol\":2539:2569  liquidityProviders[msg.sender] */\n      dup1\n        /* \"src/OpenDexV2.sol\":2558:2568  msg.sender */\n      caller\n        /* \"src/OpenDexV2.sol\":2539:2569  liquidityProviders[msg.sender] */\n      0xffffffffffffffffffffffffffffffffffffffff\n      and\n      0xffffffffffffffffffffffffffffffffffffffff\n      and\n      dup2\n      mstore\n      0x20\n      add\n      swap1\n      dup2\n      mstore\n      0x20\n      add\n      0x00\n      keccak256\n        /* \"src/OpenDexV2.sol\":2539:2583  liquidityProviders[msg.sender].tokenBalances */\n      0x00\n      add\n        /* \"src/OpenDexV2.sol\":2539:2590  liquidityProviders[msg.sender].tokenBalances[token] */\n      0x00\n        /* \"src/OpenDexV2.sol\":2584:2589  token */\n      dup5\n        /* \"src/OpenDexV2.sol\":2539:2590  liquidityProviders[msg.sender].tokenBalances[token] */\n      0xffffffffffffffffffffffffffffffffffffffff\n      and\n      0xffffffffffffffffffffffffffffffffffffffff\n      and\n      dup2\n      mstore\n      0x20\n      add\n      swap1\n      dup2\n      mstore\n      0x20\n      add\n      0x00\n      keccak256\n      sload\n        /* \"src/OpenDexV2.sol\":2539:2600  liquidityProviders[msg.sender].tokenBalances[token] >= amount */\n      lt\n      iszero\n        /* \"src/OpenDexV2.sol\":2531:2625  require(liquidityProviders[msg.sender].tokenBalances[token] >= amount, \"Insufficient balance\") */\n      tag_138\n      jumpi\n      mload(0x40)\n      0x08c379a000000000000000000000000000000000000000000000000000000000\n      dup2\n      mstore\n      0x04\n      add\n      tag_139\n      swap1\n      tag_140\n      jump\t// in\n    tag_139:\n      mload(0x40)\n      dup1\n      swap2\n      sub\n      swap1\n      revert\n    tag_138:\n        /* \"src/OpenDexV2.sol\":2693:2699  amount */\n      dup1\n        /* \"src/OpenDexV2.sol\":2638:2656  liquidityProviders */\n      0x00\n        /* \"src/OpenDexV2.sol\":2638:2668  liquidityProviders[msg.sender] */\n      dup1\n        /* \"src/OpenDexV2.sol\":2657:2667  msg.sender */\n      caller\n        /* \"src/OpenDexV2.sol\":2638:2668  liquidityProviders[msg.sender] */\n      0xffffffffffffffffffffffffffffffffffffffff\n      and\n      0xffffffffffffffffffffffffffffffffffffffff\n      and\n      dup2\n      mstore\n      0x20\n      add\n      swap1\n      dup2\n      mstore\n      0x20\n      add\n      0x00\n      keccak256\n        /* \"src/OpenDexV2.sol\":2638:2682  liquidityProviders[msg.sender].tokenBalances */\n      0x00\n      add\n        /* \"src/OpenDexV2.sol\":2638:2689  liquidityProviders[msg.sender].tokenBalances[token] */\n      0x00\n        /* \"src/OpenDexV2.sol\":2683:2688  token */\n      dup5\n        /* \"src/OpenDexV2.sol\":2638:2689  liquidityProviders[msg.sender].tokenBalances[token] */\n      0xffffffffffffffffffffffffffffffffffffffff\n      and\n      0xffffffffffffffffffffffffffffffffffffffff\n      and\n      dup2\n      mstore\n      0x20\n      add\n      swap1\n      dup2\n      mstore\n      0x20\n      add\n      0x00\n      keccak256\n      0x00\n        /* \"src/OpenDexV2.sol\":2638:2699  liquidityProviders[msg.sender].tokenBalances[token] -= amount */\n      dup3\n      dup3\n      sload\n      tag_141\n      swap2\n      swap1\n      tag_99\n      jump\t// in\n    tag_141:\n      swap3\n      pop\n      pop\n      dup2\n      swap1\n      sstore\n      pop\n        /* \"src/OpenDexV2.sol\":2739:2745  amount */\n      dup1\n        /* \"src/OpenDexV2.sol\":2710:2728  totalPoolLiquidity */\n      0x01\n        /* \"src/OpenDexV2.sol\":2710:2735  totalPoolLiquidity[token] */\n      0x00\n        /* \"src/OpenDexV2.sol\":2729:2734  token */\n      dup5\n        /* \"src/OpenDexV2.sol\":2710:2735  totalPoolLiquidity[token] */\n      0xffffffffffffffffffffffffffffffffffffffff\n      and\n      0xffffffffffffffffffffffffffffffffffffffff\n      and\n      dup2\n      mstore\n      0x20\n      add\n      swap1\n      dup2\n      mstore\n      0x20\n      add\n      0x00\n      keccak256\n      0x00\n        /* \"src/OpenDexV2.sol\":2710:2745  totalPoolLiquidity[token] -= amount */\n      dup3\n      dup3\n      sload\n      tag_142\n      swap2\n      swap1\n      tag_99\n      jump\t// in\n    tag_142:\n      swap3\n      pop\n      pop\n      dup2\n      swap1\n      sstore\n      pop\n        /* \"src/OpenDexV2.sol\":2758:2804  IERC20(token).safeTransfer(msg.sender, amount) */\n      tag_143\n        /* \"src/OpenDexV2.sol\":2785:2795  msg.sender */\n      caller\n        /* \"src/OpenDexV2.sol\":2797:2803  amount */\n      dup3\n        /* \"src/OpenDexV2.sol\":2765:2770  token */\n      dup5\n        /* \"src/OpenDexV2.sol\":2758:2784  IERC20(token).safeTransfer */\n      0xffffffffffffffffffffffffffffffffffffffff\n      and\n      tag_144\n      swap1\n        /* \"src/OpenDexV2.sol\":2758:2804  IERC20(token).safeTransfer(msg.sender, amount) */\n      swap3\n      swap2\n      swap1\n      0xffffffff\n      and\n      jump\t// in\n    tag_143:\n        /* \"src/OpenDexV2.sol\":2837:2847  msg.sender */\n      caller\n        /* \"src/OpenDexV2.sol\":2820:2863  LiquidityRemoved(msg.sender, token, amount) */\n      0xffffffffffffffffffffffffffffffffffffffff\n      and\n      0x983e86fda8e7b1e2eae380201830eaf1cac55772e8e39583da349865e8178863\n        /* \"src/OpenDexV2.sol\":2849:2854  token */\n      dup4\n        /* \"src/OpenDexV2.sol\":2856:2862  amount */\n      dup4\n        /* \"src/OpenDexV2.sol\":2820:2863  LiquidityRemoved(msg.sender, token, amount) */\n      mload(0x40)\n      tag_145\n      swap3\n      swap2\n      swap1\n      tag_73\n      jump\t// in\n    tag_145:\n      mload(0x40)\n      dup1\n      swap2\n      sub\n      swap1\n      log2\n        /* \"src/OpenDexV2.sol\":2389:2871  function removeLiquidity(address token, uint256 amount) external {... */\n      pop\n      pop\n      jump\t// out\n        /* \"src/OpenDexV2.sol\":633:680  mapping(address => uint256) public tokenWeights */\n    tag_56:\n      mstore(0x20, 0x02)\n      dup1\n      0x00\n      mstore\n      keccak256(0x00, 0x40)\n      0x00\n      swap2\n      pop\n      swap1\n      pop\n      sload\n      dup2\n      jump\t// out\n        /* \"src/OpenDexV2.sol\":768:800  address[] public supportedTokens */\n    tag_60:\n      0x04\n      dup2\n      dup2\n      sload\n      dup2\n      lt\n      tag_146\n      jumpi\n      0x00\n      dup1\n      revert\n    tag_146:\n      swap1\n      0x00\n      mstore\n      keccak256(0x00, 0x20)\n      add\n      0x00\n      swap2\n      pop\n      sload\n      swap1\n      0x0100\n      exp\n      swap1\n      div\n      0xffffffffffffffffffffffffffffffffffffffff\n      and\n      dup2\n      jump\t// out\n        /* \"src/OpenDexV2.sol\":2917:3186  function isSupportedToken(address token) internal view returns (bool) {... */\n    tag_68:\n        /* \"src/OpenDexV2.sol\":2981:2985  bool */\n      0x00\n        /* \"src/OpenDexV2.sol\":3003:3012  uint256 i */\n      dup1\n        /* \"src/OpenDexV2.sol\":3015:3016  0 */\n      0x00\n        /* \"src/OpenDexV2.sol\":3003:3016  uint256 i = 0 */\n      swap1\n      pop\n        /* \"src/OpenDexV2.sol\":2998:3156  for (uint256 i = 0; i < supportedTokens.length; i++) {... */\n    tag_149:\n        /* \"src/OpenDexV2.sol\":3022:3037  supportedTokens */\n      0x04\n        /* \"src/OpenDexV2.sol\":3022:3044  supportedTokens.length */\n      dup1\n      sload\n      swap1\n      pop\n        /* \"src/OpenDexV2.sol\":3018:3019  i */\n      dup2\n        /* \"src/OpenDexV2.sol\":3018:3044  i < supportedTokens.length */\n      lt\n        /* \"src/OpenDexV2.sol\":2998:3156  for (uint256 i = 0; i < supportedTokens.length; i++) {... */\n      iszero\n      tag_150\n      jumpi\n        /* \"src/OpenDexV2.sol\":3092:3097  token */\n      dup3\n        /* \"src/OpenDexV2.sol\":3070:3097  supportedTokens[i] == token */\n      0xffffffffffffffffffffffffffffffffffffffff\n      and\n        /* \"src/OpenDexV2.sol\":3070:3085  supportedTokens */\n      0x04\n        /* \"src/OpenDexV2.sol\":3086:3087  i */\n      dup3\n        /* \"src/OpenDexV2.sol\":3070:3088  supportedTokens[i] */\n      dup2\n      sload\n      dup2\n      lt\n      tag_152\n      jumpi\n      tag_153\n      tag_120\n      jump\t// in\n    tag_153:\n    tag_152:\n      swap1\n      0x00\n      mstore\n      keccak256(0x00, 0x20)\n      add\n      0x00\n      swap1\n      sload\n      swap1\n      0x0100\n      exp\n      swap1\n      div\n      0xffffffffffffffffffffffffffffffffffffffff\n      and\n        /* \"src/OpenDexV2.sol\":3070:3097  supportedTokens[i] == token */\n      0xffffffffffffffffffffffffffffffffffffffff\n      and\n      sub\n        /* \"src/OpenDexV2.sol\":3066:3145  if (supportedTokens[i] == token) {... */\n      tag_155\n      jumpi\n        /* \"src/OpenDexV2.sol\":3125:3129  true */\n      0x01\n        /* \"src/OpenDexV2.sol\":3118:3129  return true */\n      swap2\n      pop\n      pop\n      jump(tag_148)\n        /* \"src/OpenDexV2.sol\":3066:3145  if (supportedTokens[i] == token) {... */\n    tag_155:\n        /* \"src/OpenDexV2.sol\":3046:3049  i++ */\n      dup1\n      dup1\n      0x01\n      add\n      swap2\n      pop\n      pop\n        /* \"src/OpenDexV2.sol\":2998:3156  for (uint256 i = 0; i < supportedTokens.length; i++) {... */\n      jump(tag_149)\n    tag_150:\n      pop\n        /* \"src/OpenDexV2.sol\":3173:3178  false */\n      0x00\n        /* \"src/OpenDexV2.sol\":3166:3178  return false */\n      swap1\n      pop\n        /* \"src/OpenDexV2.sol\":2917:3186  function isSupportedToken(address token) internal view returns (bool) {... */\n    tag_148:\n      swap2\n      swap1\n      pop\n      jump\t// out\n        /* \"@openzeppelin/contracts/token/ERC20/utils/SafeERC20.sol\":1702:1890  function safeTransferFrom(IERC20 token, address from, address to, uint256 value) internal {... */\n    tag_101:\n        /* \"@openzeppelin/contracts/token/ERC20/utils/SafeERC20.sol\":1802:1883  _callOptionalReturn(token, abi.encodeCall(token.transferFrom, (from, to, value))) */\n      tag_157\n        /* \"@openzeppelin/contracts/token/ERC20/utils/SafeERC20.sol\":1822:1827  token */\n      dup5\n        /* \"@openzeppelin/contracts/token/ERC20/utils/SafeERC20.sol\":1844:1849  token */\n      dup6\n        /* \"@openzeppelin/contracts/token/ERC20/utils/SafeERC20.sol\":1844:1862  token.transferFrom */\n      0xffffffffffffffffffffffffffffffffffffffff\n      and\n      0x23b872dd\n        /* \"@openzeppelin/contracts/token/ERC20/utils/SafeERC20.sol\":1865:1869  from */\n      dup7\n        /* \"@openzeppelin/contracts/token/ERC20/utils/SafeERC20.sol\":1871:1873  to */\n      dup7\n        /* \"@openzeppelin/contracts/token/ERC20/utils/SafeERC20.sol\":1875:1880  value */\n      dup7\n        /* \"@openzeppelin/contracts/token/ERC20/utils/SafeERC20.sol\":1829:1882  abi.encodeCall(token.transferFrom, (from, to, value)) */\n      add(0x24, mload(0x40))\n      tag_158\n      swap4\n      swap3\n      swap2\n      swap1\n      tag_159\n      jump\t// in\n    tag_158:\n      mload(0x40)\n      0x20\n      dup2\n      dup4\n      sub\n      sub\n      dup2\n      mstore\n      swap1\n      0x40\n      mstore\n      swap2\n      pop\n      0xe0\n      shl\n      0x20\n      dup3\n      add\n      dup1\n      mload\n      0xffffffffffffffffffffffffffffffffffffffffffffffffffffffff\n      dup4\n      dup2\n      dup4\n      and\n      or\n      dup4\n      mstore\n      pop\n      pop\n      pop\n      pop\n        /* \"@openzeppelin/contracts/token/ERC20/utils/SafeERC20.sol\":1802:1821  _callOptionalReturn */\n      tag_160\n        /* \"@openzeppelin/contracts/token/ERC20/utils/SafeERC20.sol\":1802:1883  _callOptionalReturn(token, abi.encodeCall(token.transferFrom, (from, to, value))) */\n      jump\t// in\n    tag_157:\n        /* \"@openzeppelin/contracts/token/ERC20/utils/SafeERC20.sol\":1702:1890  function safeTransferFrom(IERC20 token, address from, address to, uint256 value) internal {... */\n      pop\n      pop\n      pop\n      pop\n      jump\t// out\n        /* \"@openzeppelin/contracts/token/ERC20/utils/SafeERC20.sol\":1303:1463  function safeTransfer(IERC20 token, address to, uint256 value) internal {... */\n    tag_144:\n        /* \"@openzeppelin/contracts/token/ERC20/utils/SafeERC20.sol\":1385:1456  _callOptionalReturn(token, abi.encodeCall(token.transfer, (to, value))) */\n      tag_162\n        /* \"@openzeppelin/contracts/token/ERC20/utils/SafeERC20.sol\":1405:1410  token */\n      dup4\n        /* \"@openzeppelin/contracts/token/ERC20/utils/SafeERC20.sol\":1427:1432  token */\n      dup5\n        /* \"@openzeppelin/contracts/token/ERC20/utils/SafeERC20.sol\":1427:1441  token.transfer */\n      0xffffffffffffffffffffffffffffffffffffffff\n      and\n      0xa9059cbb\n        /* \"@openzeppelin/contracts/token/ERC20/utils/SafeERC20.sol\":1444:1446  to */\n      dup6\n        /* \"@openzeppelin/contracts/token/ERC20/utils/SafeERC20.sol\":1448:1453  value */\n      dup6\n        /* \"@openzeppelin/contracts/token/ERC20/utils/SafeERC20.sol\":1412:1455  abi.encodeCall(token.transfer, (to, value)) */\n      add(0x24, mload(0x40))\n      tag_163\n      swap3\n      swap2\n      swap1\n      tag_73\n      jump\t// in\n    tag_163:\n      mload(0x40)\n      0x20\n      dup2\n      dup4\n      sub\n      sub\n      dup2\n      mstore\n      swap1\n      0x40\n      mstore\n      swap2\n      pop\n      0xe0\n      shl\n      0x20\n      dup3\n      add\n      dup1\n      mload\n      0xffffffffffffffffffffffffffffffffffffffffffffffffffffffff\n      dup4\n      dup2\n      dup4\n      and\n      or\n      dup4\n      mstore\n      pop\n      pop\n      pop\n      pop\n        /* \"@openzeppelin/contracts/token/ERC20/utils/SafeERC20.sol\":1385:1404  _callOptionalReturn */\n      tag_160\n        /* \"@openzeppelin/contracts/token/ERC20/utils/SafeERC20.sol\":1385:1456  _callOptionalReturn(token, abi.encodeCall(token.transfer, (to, value))) */\n      jump\t// in\n    tag_162:\n        /* \"@openzeppelin/contracts/token/ERC20/utils/SafeERC20.sol\":1303:1463  function safeTransfer(IERC20 token, address to, uint256 value) internal {... */\n      pop\n      pop\n      pop\n      jump\t// out\n        /* \"@openzeppelin/contracts/token/ERC20/utils/SafeERC20.sol\":4059:4688  function _callOptionalReturn(IERC20 token, bytes memory data) private {... */\n    tag_160:\n        /* \"@openzeppelin/contracts/token/ERC20/utils/SafeERC20.sol\":4478:4501  bytes memory returndata */\n      0x00\n        /* \"@openzeppelin/contracts/token/ERC20/utils/SafeERC20.sol\":4504:4537  address(token).functionCall(data) */\n      tag_165\n        /* \"@openzeppelin/contracts/token/ERC20/utils/SafeERC20.sol\":4532:4536  data */\n      dup3\n        /* \"@openzeppelin/contracts/token/ERC20/utils/SafeERC20.sol\":4512:4517  token */\n      dup5\n        /* \"@openzeppelin/contracts/token/ERC20/utils/SafeERC20.sol\":4504:4531  address(token).functionCall */\n      0xffffffffffffffffffffffffffffffffffffffff\n      and\n      tag_166\n      swap1\n        /* \"@openzeppelin/contracts/token/ERC20/utils/SafeERC20.sol\":4504:4537  address(token).functionCall(data) */\n      swap2\n      swap1\n      0xffffffff\n      and\n      jump\t// in\n    tag_165:\n        /* \"@openzeppelin/contracts/token/ERC20/utils/SafeERC20.sol\":4478:4537  bytes memory returndata = address(token).functionCall(data) */\n      swap1\n      pop\n        /* \"@openzeppelin/contracts/token/ERC20/utils/SafeERC20.sol\":4572:4573  0 */\n      0x00\n        /* \"@openzeppelin/contracts/token/ERC20/utils/SafeERC20.sol\":4551:4561  returndata */\n      dup2\n        /* \"@openzeppelin/contracts/token/ERC20/utils/SafeERC20.sol\":4551:4568  returndata.length */\n      mload\n        /* \"@openzeppelin/contracts/token/ERC20/utils/SafeERC20.sol\":4551:4573  returndata.length != 0 */\n      eq\n      iszero\n        /* \"@openzeppelin/contracts/token/ERC20/utils/SafeERC20.sol\":4551:4608  returndata.length != 0 && !abi.decode(returndata, (bool)) */\n      dup1\n      iszero\n      tag_167\n      jumpi\n      pop\n        /* \"@openzeppelin/contracts/token/ERC20/utils/SafeERC20.sol\":4589:4599  returndata */\n      dup1\n        /* \"@openzeppelin/contracts/token/ERC20/utils/SafeERC20.sol\":4578:4608  abi.decode(returndata, (bool)) */\n      dup1\n      0x20\n      add\n      swap1\n      mload\n      dup2\n      add\n      swap1\n      tag_168\n      swap2\n      swap1\n      tag_169\n      jump\t// in\n    tag_168:\n        /* \"@openzeppelin/contracts/token/ERC20/utils/SafeERC20.sol\":4577:4608  !abi.decode(returndata, (bool)) */\n      iszero\n        /* \"@openzeppelin/contracts/token/ERC20/utils/SafeERC20.sol\":4551:4608  returndata.length != 0 && !abi.decode(returndata, (bool)) */\n    tag_167:\n        /* \"@openzeppelin/contracts/token/ERC20/utils/SafeERC20.sol\":4547:4682  if (returndata.length != 0 && !abi.decode(returndata, (bool))) {... */\n      iszero\n      tag_170\n      jumpi\n        /* \"@openzeppelin/contracts/token/ERC20/utils/SafeERC20.sol\":4664:4669  token */\n      dup3\n        /* \"@openzeppelin/contracts/token/ERC20/utils/SafeERC20.sol\":4631:4671  SafeERC20FailedOperation(address(token)) */\n      mload(0x40)\n      0x5274afe700000000000000000000000000000000000000000000000000000000\n      dup2\n      mstore\n      0x04\n      add\n      tag_171\n      swap2\n      swap1\n      tag_39\n      jump\t// in\n    tag_171:\n      mload(0x40)\n      dup1\n      swap2\n      sub\n      swap1\n      revert\n        /* \"@openzeppelin/contracts/token/ERC20/utils/SafeERC20.sol\":4547:4682  if (returndata.length != 0 && !abi.decode(returndata, (bool))) {... */\n    tag_170:\n        /* \"@openzeppelin/contracts/token/ERC20/utils/SafeERC20.sol\":4129:4688  {... */\n      pop\n        /* \"@openzeppelin/contracts/token/ERC20/utils/SafeERC20.sol\":4059:4688  function _callOptionalReturn(IERC20 token, bytes memory data) private {... */\n      pop\n      pop\n      jump\t// out\n        /* \"@openzeppelin/contracts/utils/Address.sol\":2705:2856  function functionCall(address target, bytes memory data) internal returns (bytes memory) {... */\n    tag_166:\n        /* \"@openzeppelin/contracts/utils/Address.sol\":2780:2792  bytes memory */\n      0x60\n        /* \"@openzeppelin/contracts/utils/Address.sol\":2811:2849  functionCallWithValue(target, data, 0) */\n      tag_173\n        /* \"@openzeppelin/contracts/utils/Address.sol\":2833:2839  target */\n      dup4\n        /* \"@openzeppelin/contracts/utils/Address.sol\":2841:2845  data */\n      dup4\n        /* \"@openzeppelin/contracts/utils/Address.sol\":2847:2848  0 */\n      0x00\n        /* \"@openzeppelin/contracts/utils/Address.sol\":2811:2832  functionCallWithValue */\n      tag_174\n        /* \"@openzeppelin/contracts/utils/Address.sol\":2811:2849  functionCallWithValue(target, data, 0) */\n      jump\t// in\n    tag_173:\n        /* \"@openzeppelin/contracts/utils/Address.sol\":2804:2849  return functionCallWithValue(target, data, 0) */\n      swap1\n      pop\n        /* \"@openzeppelin/contracts/utils/Address.sol\":2705:2856  function functionCall(address target, bytes memory data) internal returns (bytes memory) {... */\n      swap3\n      swap2\n      pop\n      pop\n      jump\t// out\n        /* \"@openzeppelin/contracts/utils/Address.sol\":3180:3572  function functionCallWithValue(address target, bytes memory data, uint256 value) internal returns (bytes memory) {... */\n    tag_174:\n        /* \"@openzeppelin/contracts/utils/Address.sol\":3279:3291  bytes memory */\n      0x60\n        /* \"@openzeppelin/contracts/utils/Address.sol\":3331:3336  value */\n      dup2\n        /* \"@openzeppelin/contracts/utils/Address.sol\":3307:3328  address(this).balance */\n      selfbalance\n        /* \"@openzeppelin/contracts/utils/Address.sol\":3307:3336  address(this).balance < value */\n      lt\n        /* \"@openzeppelin/contracts/utils/Address.sol\":3303:3411  if (address(this).balance < value) {... */\n      iszero\n      tag_176\n      jumpi\n        /* \"@openzeppelin/contracts/utils/Address.sol\":3394:3398  this */\n      address\n        /* \"@openzeppelin/contracts/utils/Address.sol\":3359:3400  AddressInsufficientBalance(address(this)) */\n      mload(0x40)\n      0xcd78605900000000000000000000000000000000000000000000000000000000\n      dup2\n      mstore\n      0x04\n      add\n      tag_177\n      swap2\n      swap1\n      tag_39\n      jump\t// in\n    tag_177:\n      mload(0x40)\n      dup1\n      swap2\n      sub\n      swap1\n      revert\n        /* \"@openzeppelin/contracts/utils/Address.sol\":3303:3411  if (address(this).balance < value) {... */\n    tag_176:\n        /* \"@openzeppelin/contracts/utils/Address.sol\":3421:3433  bool success */\n      0x00\n        /* \"@openzeppelin/contracts/utils/Address.sol\":3435:3458  bytes memory returndata */\n      dup1\n        /* \"@openzeppelin/contracts/utils/Address.sol\":3462:3468  target */\n      dup6\n        /* \"@openzeppelin/contracts/utils/Address.sol\":3462:3473  target.call */\n      0xffffffffffffffffffffffffffffffffffffffff\n      and\n        /* \"@openzeppelin/contracts/utils/Address.sol\":3481:3486  value */\n      dup5\n        /* \"@openzeppelin/contracts/utils/Address.sol\":3488:3492  data */\n      dup7\n        /* \"@openzeppelin/contracts/utils/Address.sol\":3462:3493  target.call{value: value}(data) */\n      mload(0x40)\n      tag_178\n      swap2\n      swap1\n      tag_179\n      jump\t// in\n    tag_178:\n      0x00\n      mload(0x40)\n      dup1\n      dup4\n      sub\n      dup2\n      dup6\n      dup8\n      gas\n      call\n      swap3\n      pop\n      pop\n      pop\n      returndatasize\n      dup1\n      0x00\n      dup2\n      eq\n      tag_182\n      jumpi\n      mload(0x40)\n      swap2\n      pop\n      and(add(returndatasize, 0x3f), not(0x1f))\n      dup3\n      add\n      0x40\n      mstore\n      returndatasize\n      dup3\n      mstore\n      returndatasize\n      0x00\n      0x20\n      dup5\n      add\n      returndatacopy\n      jump(tag_181)\n    tag_182:\n      0x60\n      swap2\n      pop\n    tag_181:\n      pop\n        /* \"@openzeppelin/contracts/utils/Address.sol\":3420:3493  (bool success, bytes memory returndata) = target.call{value: value}(data) */\n      swap2\n      pop\n      swap2\n      pop\n        /* \"@openzeppelin/contracts/utils/Address.sol\":3510:3565  verifyCallResultFromTarget(target, success, returndata) */\n      tag_183\n        /* \"@openzeppelin/contracts/utils/Address.sol\":3537:3543  target */\n      dup7\n        /* \"@openzeppelin/contracts/utils/Address.sol\":3545:3552  success */\n      dup4\n        /* \"@openzeppelin/contracts/utils/Address.sol\":3554:3564  returndata */\n      dup4\n        /* \"@openzeppelin/contracts/utils/Address.sol\":3510:3536  verifyCallResultFromTarget */\n      tag_184\n        /* \"@openzeppelin/contracts/utils/Address.sol\":3510:3565  verifyCallResultFromTarget(target, success, returndata) */\n      jump\t// in\n    tag_183:\n        /* \"@openzeppelin/contracts/utils/Address.sol\":3503:3565  return verifyCallResultFromTarget(target, success, returndata) */\n      swap3\n      pop\n      pop\n      pop\n        /* \"@openzeppelin/contracts/utils/Address.sol\":3180:3572  function functionCallWithValue(address target, bytes memory data, uint256 value) internal returns (bytes memory) {... */\n      swap4\n      swap3\n      pop\n      pop\n      pop\n      jump\t// out\n        /* \"@openzeppelin/contracts/utils/Address.sol\":4625:5207  function verifyCallResultFromTarget(... */\n    tag_184:\n        /* \"@openzeppelin/contracts/utils/Address.sol\":4769:4781  bytes memory */\n      0x60\n        /* \"@openzeppelin/contracts/utils/Address.sol\":4798:4805  success */\n      dup3\n        /* \"@openzeppelin/contracts/utils/Address.sol\":4793:5201  if (!success) {... */\n      tag_186\n      jumpi\n        /* \"@openzeppelin/contracts/utils/Address.sol\":4821:4840  _revert(returndata) */\n      tag_187\n        /* \"@openzeppelin/contracts/utils/Address.sol\":4829:4839  returndata */\n      dup3\n        /* \"@openzeppelin/contracts/utils/Address.sol\":4821:4828  _revert */\n      tag_188\n        /* \"@openzeppelin/contracts/utils/Address.sol\":4821:4840  _revert(returndata) */\n      jump\t// in\n    tag_187:\n        /* \"@openzeppelin/contracts/utils/Address.sol\":4793:5201  if (!success) {... */\n      jump(tag_189)\n    tag_186:\n        /* \"@openzeppelin/contracts/utils/Address.sol\":5066:5067  0 */\n      0x00\n        /* \"@openzeppelin/contracts/utils/Address.sol\":5045:5055  returndata */\n      dup3\n        /* \"@openzeppelin/contracts/utils/Address.sol\":5045:5062  returndata.length */\n      mload\n        /* \"@openzeppelin/contracts/utils/Address.sol\":5045:5067  returndata.length == 0 */\n      eq\n        /* \"@openzeppelin/contracts/utils/Address.sol\":5045:5094  returndata.length == 0 && target.code.length == 0 */\n      dup1\n      iszero\n      tag_190\n      jumpi\n      pop\n        /* \"@openzeppelin/contracts/utils/Address.sol\":5093:5094  0 */\n      0x00\n        /* \"@openzeppelin/contracts/utils/Address.sol\":5071:5077  target */\n      dup5\n        /* \"@openzeppelin/contracts/utils/Address.sol\":5071:5089  target.code.length */\n      0xffffffffffffffffffffffffffffffffffffffff\n      and\n      extcodesize\n        /* \"@openzeppelin/contracts/utils/Address.sol\":5071:5094  target.code.length == 0 */\n      eq\n        /* \"@openzeppelin/contracts/utils/Address.sol\":5045:5094  returndata.length == 0 && target.code.length == 0 */\n    tag_190:\n        /* \"@openzeppelin/contracts/utils/Address.sol\":5041:5160  if (returndata.length == 0 && target.code.length == 0) {... */\n      iszero\n      tag_191\n      jumpi\n        /* \"@openzeppelin/contracts/utils/Address.sol\":5138:5144  target */\n      dup4\n        /* \"@openzeppelin/contracts/utils/Address.sol\":5121:5145  AddressEmptyCode(target) */\n      mload(0x40)\n      0x9996b31500000000000000000000000000000000000000000000000000000000\n      dup2\n      mstore\n      0x04\n      add\n      tag_192\n      swap2\n      swap1\n      tag_39\n      jump\t// in\n    tag_192:\n      mload(0x40)\n      dup1\n      swap2\n      sub\n      swap1\n      revert\n        /* \"@openzeppelin/contracts/utils/Address.sol\":5041:5160  if (returndata.length == 0 && target.code.length == 0) {... */\n    tag_191:\n        /* \"@openzeppelin/contracts/utils/Address.sol\":5180:5190  returndata */\n      dup2\n        /* \"@openzeppelin/contracts/utils/Address.sol\":5173:5190  return returndata */\n      swap1\n      pop\n      jump(tag_185)\n        /* \"@openzeppelin/contracts/utils/Address.sol\":4793:5201  if (!success) {... */\n    tag_189:\n        /* \"@openzeppelin/contracts/utils/Address.sol\":4625:5207  function verifyCallResultFromTarget(... */\n    tag_185:\n      swap4\n      swap3\n      pop\n      pop\n      pop\n      jump\t// out\n        /* \"@openzeppelin/contracts/utils/Address.sol\":5743:6259  function _revert(bytes memory returndata) private pure {... */\n    tag_188:\n        /* \"@openzeppelin/contracts/utils/Address.sol\":5894:5895  0 */\n      0x00\n        /* \"@openzeppelin/contracts/utils/Address.sol\":5874:5884  returndata */\n      dup2\n        /* \"@openzeppelin/contracts/utils/Address.sol\":5874:5891  returndata.length */\n      mload\n        /* \"@openzeppelin/contracts/utils/Address.sol\":5874:5895  returndata.length > 0 */\n      gt\n        /* \"@openzeppelin/contracts/utils/Address.sol\":5870:6253  if (returndata.length > 0) {... */\n      iszero\n      tag_194\n      jumpi\n        /* \"@openzeppelin/contracts/utils/Address.sol\":6102:6112  returndata */\n      dup1\n        /* \"@openzeppelin/contracts/utils/Address.sol\":6096:6113  mload(returndata) */\n      mload\n        /* \"@openzeppelin/contracts/utils/Address.sol\":6158:6173  returndata_size */\n      dup1\n        /* \"@openzeppelin/contracts/utils/Address.sol\":6145:6155  returndata */\n      dup3\n        /* \"@openzeppelin/contracts/utils/Address.sol\":6141:6143  32 */\n      0x20\n        /* \"@openzeppelin/contracts/utils/Address.sol\":6137:6156  add(32, returndata) */\n      add\n        /* \"@openzeppelin/contracts/utils/Address.sol\":6130:6174  revert(add(32, returndata), returndata_size) */\n      revert\n        /* \"@openzeppelin/contracts/utils/Address.sol\":5870:6253  if (returndata.length > 0) {... */\n    tag_194:\n        /* \"@openzeppelin/contracts/utils/Address.sol\":6225:6242  FailedInnerCall() */\n      mload(0x40)\n      0x1425ea4200000000000000000000000000000000000000000000000000000000\n      dup2\n      mstore\n      0x04\n      add\n      mload(0x40)\n      dup1\n      swap2\n      sub\n      swap1\n      revert\n        /* \"#utility.yul\":88:205   */\n    tag_197:\n        /* \"#utility.yul\":197:198   */\n      0x00\n        /* \"#utility.yul\":194:195   */\n      dup1\n        /* \"#utility.yul\":187:199   */\n      revert\n        /* \"#utility.yul\":334:460   */\n    tag_199:\n        /* \"#utility.yul\":371:378   */\n      0x00\n        /* \"#utility.yul\":411:453   */\n      0xffffffffffffffffffffffffffffffffffffffff\n        /* \"#utility.yul\":404:409   */\n      dup3\n        /* \"#utility.yul\":400:454   */\n      and\n        /* \"#utility.yul\":389:454   */\n      swap1\n      pop\n        /* \"#utility.yul\":334:460   */\n      swap2\n      swap1\n      pop\n      jump\t// out\n        /* \"#utility.yul\":466:562   */\n    tag_200:\n        /* \"#utility.yul\":503:510   */\n      0x00\n        /* \"#utility.yul\":532:556   */\n      tag_234\n        /* \"#utility.yul\":550:555   */\n      dup3\n        /* \"#utility.yul\":532:556   */\n      tag_199\n      jump\t// in\n    tag_234:\n        /* \"#utility.yul\":521:556   */\n      swap1\n      pop\n        /* \"#utility.yul\":466:562   */\n      swap2\n      swap1\n      pop\n      jump\t// out\n        /* \"#utility.yul\":568:690   */\n    tag_201:\n        /* \"#utility.yul\":641:665   */\n      tag_236\n        /* \"#utility.yul\":659:664   */\n      dup2\n        /* \"#utility.yul\":641:665   */\n      tag_200\n      jump\t// in\n    tag_236:\n        /* \"#utility.yul\":634:639   */\n      dup2\n        /* \"#utility.yul\":631:666   */\n      eq\n        /* \"#utility.yul\":621:684   */\n      tag_237\n      jumpi\n        /* \"#utility.yul\":680:681   */\n      0x00\n        /* \"#utility.yul\":677:678   */\n      dup1\n        /* \"#utility.yul\":670:682   */\n      revert\n        /* \"#utility.yul\":621:684   */\n    tag_237:\n        /* \"#utility.yul\":568:690   */\n      pop\n      jump\t// out\n        /* \"#utility.yul\":696:835   */\n    tag_202:\n        /* \"#utility.yul\":742:747   */\n      0x00\n        /* \"#utility.yul\":780:786   */\n      dup2\n        /* \"#utility.yul\":767:787   */\n      calldataload\n        /* \"#utility.yul\":758:787   */\n      swap1\n      pop\n        /* \"#utility.yul\":796:829   */\n      tag_239\n        /* \"#utility.yul\":823:828   */\n      dup2\n        /* \"#utility.yul\":796:829   */\n      tag_201\n      jump\t// in\n    tag_239:\n        /* \"#utility.yul\":696:835   */\n      swap3\n      swap2\n      pop\n      pop\n      jump\t// out\n        /* \"#utility.yul\":841:918   */\n    tag_203:\n        /* \"#utility.yul\":878:885   */\n      0x00\n        /* \"#utility.yul\":907:912   */\n      dup2\n        /* \"#utility.yul\":896:912   */\n      swap1\n      pop\n        /* \"#utility.yul\":841:918   */\n      swap2\n      swap1\n      pop\n      jump\t// out\n        /* \"#utility.yul\":924:1046   */\n    tag_204:\n        /* \"#utility.yul\":997:1021   */\n      tag_242\n        /* \"#utility.yul\":1015:1020   */\n      dup2\n        /* \"#utility.yul\":997:1021   */\n      tag_203\n      jump\t// in\n    tag_242:\n        /* \"#utility.yul\":990:995   */\n      dup2\n        /* \"#utility.yul\":987:1022   */\n      eq\n        /* \"#utility.yul\":977:1040   */\n      tag_243\n      jumpi\n        /* \"#utility.yul\":1036:1037   */\n      0x00\n        /* \"#utility.yul\":1033:1034   */\n      dup1\n        /* \"#utility.yul\":1026:1038   */\n      revert\n        /* \"#utility.yul\":977:1040   */\n    tag_243:\n        /* \"#utility.yul\":924:1046   */\n      pop\n      jump\t// out\n        /* \"#utility.yul\":1052:1191   */\n    tag_205:\n        /* \"#utility.yul\":1098:1103   */\n      0x00\n        /* \"#utility.yul\":1136:1142   */\n      dup2\n        /* \"#utility.yul\":1123:1143   */\n      calldataload\n        /* \"#utility.yul\":1114:1143   */\n      swap1\n      pop\n        /* \"#utility.yul\":1152:1185   */\n      tag_245\n        /* \"#utility.yul\":1179:1184   */\n      dup2\n        /* \"#utility.yul\":1152:1185   */\n      tag_204\n      jump\t// in\n    tag_245:\n        /* \"#utility.yul\":1052:1191   */\n      swap3\n      swap2\n      pop\n      pop\n      jump\t// out\n        /* \"#utility.yul\":1197:1671   */\n    tag_18:\n        /* \"#utility.yul\":1265:1271   */\n      0x00\n        /* \"#utility.yul\":1273:1279   */\n      dup1\n        /* \"#utility.yul\":1322:1324   */\n      0x40\n        /* \"#utility.yul\":1310:1319   */\n      dup4\n        /* \"#utility.yul\":1301:1308   */\n      dup6\n        /* \"#utility.yul\":1297:1320   */\n      sub\n        /* \"#utility.yul\":1293:1325   */\n      slt\n        /* \"#utility.yul\":1290:1409   */\n      iszero\n      tag_247\n      jumpi\n        /* \"#utility.yul\":1328:1407   */\n      tag_248\n      tag_197\n      jump\t// in\n    tag_248:\n        /* \"#utility.yul\":1290:1409   */\n    tag_247:\n        /* \"#utility.yul\":1448:1449   */\n      0x00\n        /* \"#utility.yul\":1473:1526   */\n      tag_249\n        /* \"#utility.yul\":1518:1525   */\n      dup6\n        /* \"#utility.yul\":1509:1515   */\n      dup3\n        /* \"#utility.yul\":1498:1507   */\n      dup7\n        /* \"#utility.yul\":1494:1516   */\n      add\n        /* \"#utility.yul\":1473:1526   */\n      tag_202\n      jump\t// in\n    tag_249:\n        /* \"#utility.yul\":1463:1526   */\n      swap3\n      pop\n        /* \"#utility.yul\":1419:1536   */\n      pop\n        /* \"#utility.yul\":1575:1577   */\n      0x20\n        /* \"#utility.yul\":1601:1654   */\n      tag_250\n        /* \"#utility.yul\":1646:1653   */\n      dup6\n        /* \"#utility.yul\":1637:1643   */\n      dup3\n        /* \"#utility.yul\":1626:1635   */\n      dup7\n        /* \"#utility.yul\":1622:1644   */\n      add\n        /* \"#utility.yul\":1601:1654   */\n      tag_205\n      jump\t// in\n    tag_250:\n        /* \"#utility.yul\":1591:1654   */\n      swap2\n      pop\n        /* \"#utility.yul\":1546:1664   */\n      pop\n        /* \"#utility.yul\":1197:1671   */\n      swap3\n      pop\n      swap3\n      swap1\n      pop\n      jump\t// out\n        /* \"#utility.yul\":1677:2006   */\n    tag_22:\n        /* \"#utility.yul\":1736:1742   */\n      0x00\n        /* \"#utility.yul\":1785:1787   */\n      0x20\n        /* \"#utility.yul\":1773:1782   */\n      dup3\n        /* \"#utility.yul\":1764:1771   */\n      dup5\n        /* \"#utility.yul\":1760:1783   */\n      sub\n        /* \"#utility.yul\":1756:1788   */\n      slt\n        /* \"#utility.yul\":1753:1872   */\n      iszero\n      tag_252\n      jumpi\n        /* \"#utility.yul\":1791:1870   */\n      tag_253\n      tag_197\n      jump\t// in\n    tag_253:\n        /* \"#utility.yul\":1753:1872   */\n    tag_252:\n        /* \"#utility.yul\":1911:1912   */\n      0x00\n        /* \"#utility.yul\":1936:1989   */\n      tag_254\n        /* \"#utility.yul\":1981:1988   */\n      dup5\n        /* \"#utility.yul\":1972:1978   */\n      dup3\n        /* \"#utility.yul\":1961:1970   */\n      dup6\n        /* \"#utility.yul\":1957:1979   */\n      add\n        /* \"#utility.yul\":1936:1989   */\n      tag_202\n      jump\t// in\n    tag_254:\n        /* \"#utility.yul\":1926:1989   */\n      swap2\n      pop\n        /* \"#utility.yul\":1882:1999   */\n      pop\n        /* \"#utility.yul\":1677:2006   */\n      swap3\n      swap2\n      pop\n      pop\n      jump\t// out\n        /* \"#utility.yul\":2012:2130   */\n    tag_206:\n        /* \"#utility.yul\":2099:2123   */\n      tag_256\n        /* \"#utility.yul\":2117:2122   */\n      dup2\n        /* \"#utility.yul\":2099:2123   */\n      tag_203\n      jump\t// in\n    tag_256:\n        /* \"#utility.yul\":2094:2097   */\n      dup3\n        /* \"#utility.yul\":2087:2124   */\n      mstore\n        /* \"#utility.yul\":2012:2130   */\n      pop\n      pop\n      jump\t// out\n        /* \"#utility.yul\":2136:2358   */\n    tag_25:\n        /* \"#utility.yul\":2229:2233   */\n      0x00\n        /* \"#utility.yul\":2267:2269   */\n      0x20\n        /* \"#utility.yul\":2256:2265   */\n      dup3\n        /* \"#utility.yul\":2252:2270   */\n      add\n        /* \"#utility.yul\":2244:2270   */\n      swap1\n      pop\n        /* \"#utility.yul\":2280:2351   */\n      tag_258\n        /* \"#utility.yul\":2348:2349   */\n      0x00\n        /* \"#utility.yul\":2337:2346   */\n      dup4\n        /* \"#utility.yul\":2333:2350   */\n      add\n        /* \"#utility.yul\":2324:2330   */\n      dup5\n        /* \"#utility.yul\":2280:2351   */\n      tag_206\n      jump\t// in\n    tag_258:\n        /* \"#utility.yul\":2136:2358   */\n      swap3\n      swap2\n      pop\n      pop\n      jump\t// out\n        /* \"#utility.yul\":2364:2693   */\n    tag_28:\n        /* \"#utility.yul\":2423:2429   */\n      0x00\n        /* \"#utility.yul\":2472:2474   */\n      0x20\n        /* \"#utility.yul\":2460:2469   */\n      dup3\n        /* \"#utility.yul\":2451:2458   */\n      dup5\n        /* \"#utility.yul\":2447:2470   */\n      sub\n        /* \"#utility.yul\":2443:2475   */\n      slt\n        /* \"#utility.yul\":2440:2559   */\n      iszero\n      tag_260\n      jumpi\n        /* \"#utility.yul\":2478:2557   */\n      tag_261\n      tag_197\n      jump\t// in\n    tag_261:\n        /* \"#utility.yul\":2440:2559   */\n    tag_260:\n        /* \"#utility.yul\":2598:2599   */\n      0x00\n        /* \"#utility.yul\":2623:2676   */\n      tag_262\n        /* \"#utility.yul\":2668:2675   */\n      dup5\n        /* \"#utility.yul\":2659:2665   */\n      dup3\n        /* \"#utility.yul\":2648:2657   */\n      dup6\n        /* \"#utility.yul\":2644:2666   */\n      add\n        /* \"#utility.yul\":2623:2676   */\n      tag_205\n      jump\t// in\n    tag_262:\n        /* \"#utility.yul\":2613:2676   */\n      swap2\n      pop\n        /* \"#utility.yul\":2569:2686   */\n      pop\n        /* \"#utility.yul\":2364:2693   */\n      swap3\n      swap2\n      pop\n      pop\n      jump\t// out\n        /* \"#utility.yul\":2699:2817   */\n    tag_207:\n        /* \"#utility.yul\":2786:2810   */\n      tag_264\n        /* \"#utility.yul\":2804:2809   */\n      dup2\n        /* \"#utility.yul\":2786:2810   */\n      tag_200\n      jump\t// in\n    tag_264:\n        /* \"#utility.yul\":2781:2784   */\n      dup3\n        /* \"#utility.yul\":2774:2811   */\n      mstore\n        /* \"#utility.yul\":2699:2817   */\n      pop\n      pop\n      jump\t// out\n        /* \"#utility.yul\":2823:3045   */\n    tag_39:\n        /* \"#utility.yul\":2916:2920   */\n      0x00\n        /* \"#utility.yul\":2954:2956   */\n      0x20\n        /* \"#utility.yul\":2943:2952   */\n      dup3\n        /* \"#utility.yul\":2939:2957   */\n      add\n        /* \"#utility.yul\":2931:2957   */\n      swap1\n      pop\n        /* \"#utility.yul\":2967:3038   */\n      tag_266\n        /* \"#utility.yul\":3035:3036   */\n      0x00\n        /* \"#utility.yul\":3024:3033   */\n      dup4\n        /* \"#utility.yul\":3020:3037   */\n      add\n        /* \"#utility.yul\":3011:3017   */\n      dup5\n        /* \"#utility.yul\":2967:3038   */\n      tag_207\n      jump\t// in\n    tag_266:\n        /* \"#utility.yul\":2823:3045   */\n      swap3\n      swap2\n      pop\n      pop\n      jump\t// out\n        /* \"#utility.yul\":3051:3525   */\n    tag_42:\n        /* \"#utility.yul\":3119:3125   */\n      0x00\n        /* \"#utility.yul\":3127:3133   */\n      dup1\n        /* \"#utility.yul\":3176:3178   */\n      0x40\n        /* \"#utility.yul\":3164:3173   */\n      dup4\n        /* \"#utility.yul\":3155:3162   */\n      dup6\n        /* \"#utility.yul\":3151:3174   */\n      sub\n        /* \"#utility.yul\":3147:3179   */\n      slt\n        /* \"#utility.yul\":3144:3263   */\n      iszero\n      tag_268\n      jumpi\n        /* \"#utility.yul\":3182:3261   */\n      tag_269\n      tag_197\n      jump\t// in\n    tag_269:\n        /* \"#utility.yul\":3144:3263   */\n    tag_268:\n        /* \"#utility.yul\":3302:3303   */\n      0x00\n        /* \"#utility.yul\":3327:3380   */\n      tag_270\n        /* \"#utility.yul\":3372:3379   */\n      dup6\n        /* \"#utility.yul\":3363:3369   */\n      dup3\n        /* \"#utility.yul\":3352:3361   */\n      dup7\n        /* \"#utility.yul\":3348:3370   */\n      add\n        /* \"#utility.yul\":3327:3380   */\n      tag_202\n      jump\t// in\n    tag_270:\n        /* \"#utility.yul\":3317:3380   */\n      swap3\n      pop\n        /* \"#utility.yul\":3273:3390   */\n      pop\n        /* \"#utility.yul\":3429:3431   */\n      0x20\n        /* \"#utility.yul\":3455:3508   */\n      tag_271\n        /* \"#utility.yul\":3500:3507   */\n      dup6\n        /* \"#utility.yul\":3491:3497   */\n      dup3\n        /* \"#utility.yul\":3480:3489   */\n      dup7\n        /* \"#utility.yul\":3476:3498   */\n      add\n        /* \"#utility.yul\":3455:3508   */\n      tag_202\n      jump\t// in\n    tag_271:\n        /* \"#utility.yul\":3445:3508   */\n      swap2\n      pop\n        /* \"#utility.yul\":3400:3518   */\n      pop\n        /* \"#utility.yul\":3051:3525   */\n      swap3\n      pop\n      swap3\n      swap1\n      pop\n      jump\t// out\n        /* \"#utility.yul\":3531:3700   */\n    tag_208:\n        /* \"#utility.yul\":3615:3626   */\n      0x00\n        /* \"#utility.yul\":3649:3655   */\n      dup3\n        /* \"#utility.yul\":3644:3647   */\n      dup3\n        /* \"#utility.yul\":3637:3656   */\n      mstore\n        /* \"#utility.yul\":3689:3693   */\n      0x20\n        /* \"#utility.yul\":3684:3687   */\n      dup3\n        /* \"#utility.yul\":3680:3694   */\n      add\n        /* \"#utility.yul\":3665:3694   */\n      swap1\n      pop\n        /* \"#utility.yul\":3531:3700   */\n      swap3\n      swap2\n      pop\n      pop\n      jump\t// out\n        /* \"#utility.yul\":3706:3870   */\n    tag_209:\n        /* \"#utility.yul\":3846:3862   */\n      0x4e6f7420617574686f72697a6564000000000000000000000000000000000000\n        /* \"#utility.yul\":3842:3843   */\n      0x00\n        /* \"#utility.yul\":3834:3840   */\n      dup3\n        /* \"#utility.yul\":3830:3844   */\n      add\n        /* \"#utility.yul\":3823:3863   */\n      mstore\n        /* \"#utility.yul\":3706:3870   */\n      pop\n      jump\t// out\n        /* \"#utility.yul\":3876:4242   */\n    tag_210:\n        /* \"#utility.yul\":4018:4021   */\n      0x00\n        /* \"#utility.yul\":4039:4106   */\n      tag_275\n        /* \"#utility.yul\":4103:4105   */\n      0x0e\n        /* \"#utility.yul\":4098:4101   */\n      dup4\n        /* \"#utility.yul\":4039:4106   */\n      tag_208\n      jump\t// in\n    tag_275:\n        /* \"#utility.yul\":4032:4106   */\n      swap2\n      pop\n        /* \"#utility.yul\":4115:4208   */\n      tag_276\n        /* \"#utility.yul\":4204:4207   */\n      dup3\n        /* \"#utility.yul\":4115:4208   */\n      tag_209\n      jump\t// in\n    tag_276:\n        /* \"#utility.yul\":4233:4235   */\n      0x20\n        /* \"#utility.yul\":4228:4231   */\n      dup3\n        /* \"#utility.yul\":4224:4236   */\n      add\n        /* \"#utility.yul\":4217:4236   */\n      swap1\n      pop\n        /* \"#utility.yul\":3876:4242   */\n      swap2\n      swap1\n      pop\n      jump\t// out\n        /* \"#utility.yul\":4248:4667   */\n    tag_65:\n        /* \"#utility.yul\":4414:4418   */\n      0x00\n        /* \"#utility.yul\":4452:4454   */\n      0x20\n        /* \"#utility.yul\":4441:4450   */\n      dup3\n        /* \"#utility.yul\":4437:4455   */\n      add\n        /* \"#utility.yul\":4429:4455   */\n      swap1\n      pop\n        /* \"#utility.yul\":4501:4510   */\n      dup2\n        /* \"#utility.yul\":4495:4499   */\n      dup2\n        /* \"#utility.yul\":4491:4511   */\n      sub\n        /* \"#utility.yul\":4487:4488   */\n      0x00\n        /* \"#utility.yul\":4476:4485   */\n      dup4\n        /* \"#utility.yul\":4472:4489   */\n      add\n        /* \"#utility.yul\":4465:4512   */\n      mstore\n        /* \"#utility.yul\":4529:4660   */\n      tag_278\n        /* \"#utility.yul\":4655:4659   */\n      dup2\n        /* \"#utility.yul\":4529:4660   */\n      tag_210\n      jump\t// in\n    tag_278:\n        /* \"#utility.yul\":4521:4660   */\n      swap1\n      pop\n        /* \"#utility.yul\":4248:4667   */\n      swap2\n      swap1\n      pop\n      jump\t// out\n        /* \"#utility.yul\":4673:4842   */\n    tag_211:\n        /* \"#utility.yul\":4813:4834   */\n      0x546f6b656e206e6f7420737570706f7274656400000000000000000000000000\n        /* \"#utility.yul\":4809:4810   */\n      0x00\n        /* \"#utility.yul\":4801:4807   */\n      dup3\n        /* \"#utility.yul\":4797:4811   */\n      add\n        /* \"#utility.yul\":4790:4835   */\n      mstore\n        /* \"#utility.yul\":4673:4842   */\n      pop\n      jump\t// out\n        /* \"#utility.yul\":4848:5214   */\n    tag_212:\n        /* \"#utility.yul\":4990:4993   */\n      0x00\n        /* \"#utility.yul\":5011:5078   */\n      tag_281\n        /* \"#utility.yul\":5075:5077   */\n      0x13\n        /* \"#utility.yul\":5070:5073   */\n      dup4\n        /* \"#utility.yul\":5011:5078   */\n      tag_208\n      jump\t// in\n    tag_281:\n        /* \"#utility.yul\":5004:5078   */\n      swap2\n      pop\n        /* \"#utility.yul\":5087:5180   */\n      tag_282\n        /* \"#utility.yul\":5176:5179   */\n      dup3\n        /* \"#utility.yul\":5087:5180   */\n      tag_211\n      jump\t// in\n    tag_282:\n        /* \"#utility.yul\":5205:5207   */\n      0x20\n        /* \"#utility.yul\":5200:5203   */\n      dup3\n        /* \"#utility.yul\":5196:5208   */\n      add\n        /* \"#utility.yul\":5189:5208   */\n      swap1\n      pop\n        /* \"#utility.yul\":4848:5214   */\n      swap2\n      swap1\n      pop\n      jump\t// out\n        /* \"#utility.yul\":5220:5639   */\n    tag_71:\n        /* \"#utility.yul\":5386:5390   */\n      0x00\n        /* \"#utility.yul\":5424:5426   */\n      0x20\n        /* \"#utility.yul\":5413:5422   */\n      dup3\n        /* \"#utility.yul\":5409:5427   */\n      add\n        /* \"#utility.yul\":5401:5427   */\n      swap1\n      pop\n        /* \"#utility.yul\":5473:5482   */\n      dup2\n        /* \"#utility.yul\":5467:5471   */\n      dup2\n        /* \"#utility.yul\":5463:5483   */\n      sub\n        /* \"#utility.yul\":5459:5460   */\n      0x00\n        /* \"#utility.yul\":5448:5457   */\n      dup4\n        /* \"#utility.yul\":5444:5461   */\n      add\n        /* \"#utility.yul\":5437:5484   */\n      mstore\n        /* \"#utility.yul\":5501:5632   */\n      tag_284\n        /* \"#utility.yul\":5627:5631   */\n      dup2\n        /* \"#utility.yul\":5501:5632   */\n      tag_212\n      jump\t// in\n    tag_284:\n        /* \"#utility.yul\":5493:5632   */\n      swap1\n      pop\n        /* \"#utility.yul\":5220:5639   */\n      swap2\n      swap1\n      pop\n      jump\t// out\n        /* \"#utility.yul\":5645:5977   */\n    tag_73:\n        /* \"#utility.yul\":5766:5770   */\n      0x00\n        /* \"#utility.yul\":5804:5806   */\n      0x40\n        /* \"#utility.yul\":5793:5802   */\n      dup3\n        /* \"#utility.yul\":5789:5807   */\n      add\n        /* \"#utility.yul\":5781:5807   */\n      swap1\n      pop\n        /* \"#utility.yul\":5817:5888   */\n      tag_286\n        /* \"#utility.yul\":5885:5886   */\n      0x00\n        /* \"#utility.yul\":5874:5883   */\n      dup4\n        /* \"#utility.yul\":5870:5887   */\n      add\n        /* \"#utility.yul\":5861:5867   */\n      dup6\n        /* \"#utility.yul\":5817:5888   */\n      tag_207\n      jump\t// in\n    tag_286:\n        /* \"#utility.yul\":5898:5970   */\n      tag_287\n        /* \"#utility.yul\":5966:5968   */\n      0x20\n        /* \"#utility.yul\":5955:5964   */\n      dup4\n        /* \"#utility.yul\":5951:5969   */\n      add\n        /* \"#utility.yul\":5942:5948   */\n      dup5\n        /* \"#utility.yul\":5898:5970   */\n      tag_206\n      jump\t// in\n    tag_287:\n        /* \"#utility.yul\":5645:5977   */\n      swap4\n      swap3\n      pop\n      pop\n      pop\n      jump\t// out\n        /* \"#utility.yul\":5983:6145   */\n    tag_213:\n        /* \"#utility.yul\":6123:6137   */\n      0x46656520746f6f20686967680000000000000000000000000000000000000000\n        /* \"#utility.yul\":6119:6120   */\n      0x00\n        /* \"#utility.yul\":6111:6117   */\n      dup3\n        /* \"#utility.yul\":6107:6121   */\n      add\n        /* \"#utility.yul\":6100:6138   */\n      mstore\n        /* \"#utility.yul\":5983:6145   */\n      pop\n      jump\t// out\n        /* \"#utility.yul\":6151:6517   */\n    tag_214:\n        /* \"#utility.yul\":6293:6296   */\n      0x00\n        /* \"#utility.yul\":6314:6381   */\n      tag_290\n        /* \"#utility.yul\":6378:6380   */\n      0x0c\n        /* \"#utility.yul\":6373:6376   */\n      dup4\n        /* \"#utility.yul\":6314:6381   */\n      tag_208\n      jump\t// in\n    tag_290:\n        /* \"#utility.yul\":6307:6381   */\n      swap2\n      pop\n        /* \"#utility.yul\":6390:6483   */\n      tag_291\n        /* \"#utility.yul\":6479:6482   */\n      dup3\n        /* \"#utility.yul\":6390:6483   */\n      tag_213\n      jump\t// in\n    tag_291:\n        /* \"#utility.yul\":6508:6510   */\n      0x20\n        /* \"#utility.yul\":6503:6506   */\n      dup3\n        /* \"#utility.yul\":6499:6511   */\n      add\n        /* \"#utility.yul\":6492:6511   */\n      swap1\n      pop\n        /* \"#utility.yul\":6151:6517   */\n      swap2\n      swap1\n      pop\n      jump\t// out\n        /* \"#utility.yul\":6523:6942   */\n    tag_80:\n        /* \"#utility.yul\":6689:6693   */\n      0x00\n        /* \"#utility.yul\":6727:6729   */\n      0x20\n        /* \"#utility.yul\":6716:6725   */\n      dup3\n        /* \"#utility.yul\":6712:6730   */\n      add\n        /* \"#utility.yul\":6704:6730   */\n      swap1\n      pop\n        /* \"#utility.yul\":6776:6785   */\n      dup2\n        /* \"#utility.yul\":6770:6774   */\n      dup2\n        /* \"#utility.yul\":6766:6786   */\n      sub\n        /* \"#utility.yul\":6762:6763   */\n      0x00\n        /* \"#utility.yul\":6751:6760   */\n      dup4\n        /* \"#utility.yul\":6747:6764   */\n      add\n        /* \"#utility.yul\":6740:6787   */\n      mstore\n        /* \"#utility.yul\":6804:6935   */\n      tag_293\n        /* \"#utility.yul\":6930:6934   */\n      dup2\n        /* \"#utility.yul\":6804:6935   */\n      tag_214\n      jump\t// in\n    tag_293:\n        /* \"#utility.yul\":6796:6935   */\n      swap1\n      pop\n        /* \"#utility.yul\":6523:6942   */\n      swap2\n      swap1\n      pop\n      jump\t// out\n        /* \"#utility.yul\":6948:7121   */\n    tag_215:\n        /* \"#utility.yul\":7088:7113   */\n      0x546f6b656e20616c726561647920737570706f72746564000000000000000000\n        /* \"#utility.yul\":7084:7085   */\n      0x00\n        /* \"#utility.yul\":7076:7082   */\n      dup3\n        /* \"#utility.yul\":7072:7086   */\n      add\n        /* \"#utility.yul\":7065:7114   */\n      mstore\n        /* \"#utility.yul\":6948:7121   */\n      pop\n      jump\t// out\n        /* \"#utility.yul\":7127:7493   */\n    tag_216:\n        /* \"#utility.yul\":7269:7272   */\n      0x00\n        /* \"#utility.yul\":7290:7357   */\n      tag_296\n        /* \"#utility.yul\":7354:7356   */\n      0x17\n        /* \"#utility.yul\":7349:7352   */\n      dup4\n        /* \"#utility.yul\":7290:7357   */\n      tag_208\n      jump\t// in\n    tag_296:\n        /* \"#utility.yul\":7283:7357   */\n      swap2\n      pop\n        /* \"#utility.yul\":7366:7459   */\n      tag_297\n        /* \"#utility.yul\":7455:7458   */\n      dup3\n        /* \"#utility.yul\":7366:7459   */\n      tag_215\n      jump\t// in\n    tag_297:\n        /* \"#utility.yul\":7484:7486   */\n      0x20\n        /* \"#utility.yul\":7479:7482   */\n      dup3\n        /* \"#utility.yul\":7475:7487   */\n      add\n        /* \"#utility.yul\":7468:7487   */\n      swap1\n      pop\n        /* \"#utility.yul\":7127:7493   */\n      swap2\n      swap1\n      pop\n      jump\t// out\n        /* \"#utility.yul\":7499:7918   */\n    tag_88:\n        /* \"#utility.yul\":7665:7669   */\n      0x00\n        /* \"#utility.yul\":7703:7705   */\n      0x20\n        /* \"#utility.yul\":7692:7701   */\n      dup3\n        /* \"#utility.yul\":7688:7706   */\n      add\n        /* \"#utility.yul\":7680:7706   */\n      swap1\n      pop\n        /* \"#utility.yul\":7752:7761   */\n      dup2\n        /* \"#utility.yul\":7746:7750   */\n      dup2\n        /* \"#utility.yul\":7742:7762   */\n      sub\n        /* \"#utility.yul\":7738:7739   */\n      0x00\n        /* \"#utility.yul\":7727:7736   */\n      dup4\n        /* \"#utility.yul\":7723:7740   */\n      add\n        /* \"#utility.yul\":7716:7763   */\n      mstore\n        /* \"#utility.yul\":7780:7911   */\n      tag_299\n        /* \"#utility.yul\":7906:7910   */\n      dup2\n        /* \"#utility.yul\":7780:7911   */\n      tag_216\n      jump\t// in\n    tag_299:\n        /* \"#utility.yul\":7772:7911   */\n      swap1\n      pop\n        /* \"#utility.yul\":7499:7918   */\n      swap2\n      swap1\n      pop\n      jump\t// out\n        /* \"#utility.yul\":7924:8104   */\n    tag_217:\n        /* \"#utility.yul\":7972:8049   */\n      0x4e487b7100000000000000000000000000000000000000000000000000000000\n        /* \"#utility.yul\":7969:7970   */\n      0x00\n        /* \"#utility.yul\":7962:8050   */\n      mstore\n        /* \"#utility.yul\":8069:8073   */\n      0x11\n        /* \"#utility.yul\":8066:8067   */\n      0x04\n        /* \"#utility.yul\":8059:8074   */\n      mstore\n        /* \"#utility.yul\":8093:8097   */\n      0x24\n        /* \"#utility.yul\":8090:8091   */\n      0x00\n        /* \"#utility.yul\":8083:8098   */\n      revert\n        /* \"#utility.yul\":8110:8520   */\n    tag_95:\n        /* \"#utility.yul\":8150:8157   */\n      0x00\n        /* \"#utility.yul\":8173:8193   */\n      tag_302\n        /* \"#utility.yul\":8191:8192   */\n      dup3\n        /* \"#utility.yul\":8173:8193   */\n      tag_203\n      jump\t// in\n    tag_302:\n        /* \"#utility.yul\":8168:8193   */\n      swap2\n      pop\n        /* \"#utility.yul\":8207:8227   */\n      tag_303\n        /* \"#utility.yul\":8225:8226   */\n      dup4\n        /* \"#utility.yul\":8207:8227   */\n      tag_203\n      jump\t// in\n    tag_303:\n        /* \"#utility.yul\":8202:8227   */\n      swap3\n      pop\n        /* \"#utility.yul\":8262:8263   */\n      dup3\n        /* \"#utility.yul\":8259:8260   */\n      dup3\n        /* \"#utility.yul\":8255:8264   */\n      mul\n        /* \"#utility.yul\":8284:8314   */\n      tag_304\n        /* \"#utility.yul\":8302:8313   */\n      dup2\n        /* \"#utility.yul\":8284:8314   */\n      tag_203\n      jump\t// in\n    tag_304:\n        /* \"#utility.yul\":8273:8314   */\n      swap2\n      pop\n        /* \"#utility.yul\":8463:8464   */\n      dup3\n        /* \"#utility.yul\":8454:8461   */\n      dup3\n        /* \"#utility.yul\":8450:8465   */\n      div\n        /* \"#utility.yul\":8447:8448   */\n      dup5\n        /* \"#utility.yul\":8444:8466   */\n      eq\n        /* \"#utility.yul\":8424:8425   */\n      dup4\n        /* \"#utility.yul\":8417:8426   */\n      iszero\n        /* \"#utility.yul\":8397:8480   */\n      or\n        /* \"#utility.yul\":8374:8513   */\n      tag_305\n      jumpi\n        /* \"#utility.yul\":8493:8511   */\n      tag_306\n      tag_217\n      jump\t// in\n    tag_306:\n        /* \"#utility.yul\":8374:8513   */\n    tag_305:\n        /* \"#utility.yul\":8158:8520   */\n      pop\n        /* \"#utility.yul\":8110:8520   */\n      swap3\n      swap2\n      pop\n      pop\n      jump\t// out\n        /* \"#utility.yul\":8526:8706   */\n    tag_218:\n        /* \"#utility.yul\":8574:8651   */\n      0x4e487b7100000000000000000000000000000000000000000000000000000000\n        /* \"#utility.yul\":8571:8572   */\n      0x00\n        /* \"#utility.yul\":8564:8652   */\n      mstore\n        /* \"#utility.yul\":8671:8675   */\n      0x12\n        /* \"#utility.yul\":8668:8669   */\n      0x04\n        /* \"#utility.yul\":8661:8676   */\n      mstore\n        /* \"#utility.yul\":8695:8699   */\n      0x24\n        /* \"#utility.yul\":8692:8693   */\n      0x00\n        /* \"#utility.yul\":8685:8700   */\n      revert\n        /* \"#utility.yul\":8712:8897   */\n    tag_97:\n        /* \"#utility.yul\":8752:8753   */\n      0x00\n        /* \"#utility.yul\":8769:8789   */\n      tag_309\n        /* \"#utility.yul\":8787:8788   */\n      dup3\n        /* \"#utility.yul\":8769:8789   */\n      tag_203\n      jump\t// in\n    tag_309:\n        /* \"#utility.yul\":8764:8789   */\n      swap2\n      pop\n        /* \"#utility.yul\":8803:8823   */\n      tag_310\n        /* \"#utility.yul\":8821:8822   */\n      dup4\n        /* \"#utility.yul\":8803:8823   */\n      tag_203\n      jump\t// in\n    tag_310:\n        /* \"#utility.yul\":8798:8823   */\n      swap3\n      pop\n        /* \"#utility.yul\":8842:8843   */\n      dup3\n        /* \"#utility.yul\":8832:8867   */\n      tag_311\n      jumpi\n        /* \"#utility.yul\":8847:8865   */\n      tag_312\n      tag_218\n      jump\t// in\n    tag_312:\n        /* \"#utility.yul\":8832:8867   */\n    tag_311:\n        /* \"#utility.yul\":8889:8890   */\n      dup3\n        /* \"#utility.yul\":8886:8887   */\n      dup3\n        /* \"#utility.yul\":8882:8891   */\n      div\n        /* \"#utility.yul\":8877:8891   */\n      swap1\n      pop\n        /* \"#utility.yul\":8712:8897   */\n      swap3\n      swap2\n      pop\n      pop\n      jump\t// out\n        /* \"#utility.yul\":8903:9097   */\n    tag_99:\n        /* \"#utility.yul\":8943:8947   */\n      0x00\n        /* \"#utility.yul\":8963:8983   */\n      tag_314\n        /* \"#utility.yul\":8981:8982   */\n      dup3\n        /* \"#utility.yul\":8963:8983   */\n      tag_203\n      jump\t// in\n    tag_314:\n        /* \"#utility.yul\":8958:8983   */\n      swap2\n      pop\n        /* \"#utility.yul\":8997:9017   */\n      tag_315\n        /* \"#utility.yul\":9015:9016   */\n      dup4\n        /* \"#utility.yul\":8997:9017   */\n      tag_203\n      jump\t// in\n    tag_315:\n        /* \"#utility.yul\":8992:9017   */\n      swap3\n      pop\n        /* \"#utility.yul\":9041:9042   */\n      dup3\n        /* \"#utility.yul\":9038:9039   */\n      dup3\n        /* \"#utility.yul\":9034:9043   */\n      sub\n        /* \"#utility.yul\":9026:9043   */\n      swap1\n      pop\n        /* \"#utility.yul\":9065:9066   */\n      dup2\n        /* \"#utility.yul\":9059:9063   */\n      dup2\n        /* \"#utility.yul\":9056:9067   */\n      gt\n        /* \"#utility.yul\":9053:9090   */\n      iszero\n      tag_316\n      jumpi\n        /* \"#utility.yul\":9070:9088   */\n      tag_317\n      tag_217\n      jump\t// in\n    tag_317:\n        /* \"#utility.yul\":9053:9090   */\n    tag_316:\n        /* \"#utility.yul\":8903:9097   */\n      swap3\n      swap2\n      pop\n      pop\n      jump\t// out\n        /* \"#utility.yul\":9103:9294   */\n    tag_104:\n        /* \"#utility.yul\":9143:9146   */\n      0x00\n        /* \"#utility.yul\":9162:9182   */\n      tag_319\n        /* \"#utility.yul\":9180:9181   */\n      dup3\n        /* \"#utility.yul\":9162:9182   */\n      tag_203\n      jump\t// in\n    tag_319:\n        /* \"#utility.yul\":9157:9182   */\n      swap2\n      pop\n        /* \"#utility.yul\":9196:9216   */\n      tag_320\n        /* \"#utility.yul\":9214:9215   */\n      dup4\n        /* \"#utility.yul\":9196:9216   */\n      tag_203\n      jump\t// in\n    tag_320:\n        /* \"#utility.yul\":9191:9216   */\n      swap3\n      pop\n        /* \"#utility.yul\":9239:9240   */\n      dup3\n        /* \"#utility.yul\":9236:9237   */\n      dup3\n        /* \"#utility.yul\":9232:9241   */\n      add\n        /* \"#utility.yul\":9225:9241   */\n      swap1\n      pop\n        /* \"#utility.yul\":9260:9263   */\n      dup1\n        /* \"#utility.yul\":9257:9258   */\n      dup3\n        /* \"#utility.yul\":9254:9264   */\n      gt\n        /* \"#utility.yul\":9251:9287   */\n      iszero\n      tag_321\n      jumpi\n        /* \"#utility.yul\":9267:9285   */\n      tag_322\n      tag_217\n      jump\t// in\n    tag_322:\n        /* \"#utility.yul\":9251:9287   */\n    tag_321:\n        /* \"#utility.yul\":9103:9294   */\n      swap3\n      swap2\n      pop\n      pop\n      jump\t// out\n        /* \"#utility.yul\":9300:9480   */\n    tag_120:\n        /* \"#utility.yul\":9348:9425   */\n      0x4e487b7100000000000000000000000000000000000000000000000000000000\n        /* \"#utility.yul\":9345:9346   */\n      0x00\n        /* \"#utility.yul\":9338:9426   */\n      mstore\n        /* \"#utility.yul\":9445:9449   */\n      0x32\n        /* \"#utility.yul\":9442:9443   */\n      0x04\n        /* \"#utility.yul\":9435:9450   */\n      mstore\n        /* \"#utility.yul\":9469:9473   */\n      0x24\n        /* \"#utility.yul\":9466:9467   */\n      0x00\n        /* \"#utility.yul\":9459:9474   */\n      revert\n        /* \"#utility.yul\":9486:9666   */\n    tag_132:\n        /* \"#utility.yul\":9534:9611   */\n      0x4e487b7100000000000000000000000000000000000000000000000000000000\n        /* \"#utility.yul\":9531:9532   */\n      0x00\n        /* \"#utility.yul\":9524:9612   */\n      mstore\n        /* \"#utility.yul\":9631:9635   */\n      0x31\n        /* \"#utility.yul\":9628:9629   */\n      0x04\n        /* \"#utility.yul\":9621:9636   */\n      mstore\n        /* \"#utility.yul\":9655:9659   */\n      0x24\n        /* \"#utility.yul\":9652:9653   */\n      0x00\n        /* \"#utility.yul\":9645:9660   */\n      revert\n        /* \"#utility.yul\":9672:9842   */\n    tag_219:\n        /* \"#utility.yul\":9812:9834   */\n      0x496e73756666696369656e742062616c616e6365000000000000000000000000\n        /* \"#utility.yul\":9808:9809   */\n      0x00\n        /* \"#utility.yul\":9800:9806   */\n      dup3\n        /* \"#utility.yul\":9796:9810   */\n      add\n        /* \"#utility.yul\":9789:9835   */\n      mstore\n        /* \"#utility.yul\":9672:9842   */\n      pop\n      jump\t// out\n        /* \"#utility.yul\":9848:10214   */\n    tag_220:\n        /* \"#utility.yul\":9990:9993   */\n      0x00\n        /* \"#utility.yul\":10011:10078   */\n      tag_327\n        /* \"#utility.yul\":10075:10077   */\n      0x14\n        /* \"#utility.yul\":10070:10073   */\n      dup4\n        /* \"#utility.yul\":10011:10078   */\n      tag_208\n      jump\t// in\n    tag_327:\n        /* \"#utility.yul\":10004:10078   */\n      swap2\n      pop\n        /* \"#utility.yul\":10087:10180   */\n      tag_328\n        /* \"#utility.yul\":10176:10179   */\n      dup3\n        /* \"#utility.yul\":10087:10180   */\n      tag_219\n      jump\t// in\n    tag_328:\n        /* \"#utility.yul\":10205:10207   */\n      0x20\n        /* \"#utility.yul\":10200:10203   */\n      dup3\n        /* \"#utility.yul\":10196:10208   */\n      add\n        /* \"#utility.yul\":10189:10208   */\n      swap1\n      pop\n        /* \"#utility.yul\":9848:10214   */\n      swap2\n      swap1\n      pop\n      jump\t// out\n        /* \"#utility.yul\":10220:10639   */\n    tag_140:\n        /* \"#utility.yul\":10386:10390   */\n      0x00\n        /* \"#utility.yul\":10424:10426   */\n      0x20\n        /* \"#utility.yul\":10413:10422   */\n      dup3\n        /* \"#utility.yul\":10409:10427   */\n      add\n        /* \"#utility.yul\":10401:10427   */\n      swap1\n      pop\n        /* \"#utility.yul\":10473:10482   */\n      dup2\n        /* \"#utility.yul\":10467:10471   */\n      dup2\n        /* \"#utility.yul\":10463:10483   */\n      sub\n        /* \"#utility.yul\":10459:10460   */\n      0x00\n        /* \"#utility.yul\":10448:10457   */\n      dup4\n        /* \"#utility.yul\":10444:10461   */\n      add\n        /* \"#utility.yul\":10437:10484   */\n      mstore\n        /* \"#utility.yul\":10501:10632   */\n      tag_330\n        /* \"#utility.yul\":10627:10631   */\n      dup2\n        /* \"#utility.yul\":10501:10632   */\n      tag_220\n      jump\t// in\n    tag_330:\n        /* \"#utility.yul\":10493:10632   */\n      swap1\n      pop\n        /* \"#utility.yul\":10220:10639   */\n      swap2\n      swap1\n      pop\n      jump\t// out\n        /* \"#utility.yul\":10645:11087   */\n    tag_159:\n        /* \"#utility.yul\":10794:10798   */\n      0x00\n        /* \"#utility.yul\":10832:10834   */\n      0x60\n        /* \"#utility.yul\":10821:10830   */\n      dup3\n        /* \"#utility.yul\":10817:10835   */\n      add\n        /* \"#utility.yul\":10809:10835   */\n      swap1\n      pop\n        /* \"#utility.yul\":10845:10916   */\n      tag_332\n        /* \"#utility.yul\":10913:10914   */\n      0x00\n        /* \"#utility.yul\":10902:10911   */\n      dup4\n        /* \"#utility.yul\":10898:10915   */\n      add\n        /* \"#utility.yul\":10889:10895   */\n      dup7\n        /* \"#utility.yul\":10845:10916   */\n      tag_207\n      jump\t// in\n    tag_332:\n        /* \"#utility.yul\":10926:10998   */\n      tag_333\n        /* \"#utility.yul\":10994:10996   */\n      0x20\n        /* \"#utility.yul\":10983:10992   */\n      dup4\n        /* \"#utility.yul\":10979:10997   */\n      add\n        /* \"#utility.yul\":10970:10976   */\n      dup6\n        /* \"#utility.yul\":10926:10998   */\n      tag_207\n      jump\t// in\n    tag_333:\n        /* \"#utility.yul\":11008:11080   */\n      tag_334\n        /* \"#utility.yul\":11076:11078   */\n      0x40\n        /* \"#utility.yul\":11065:11074   */\n      dup4\n        /* \"#utility.yul\":11061:11079   */\n      add\n        /* \"#utility.yul\":11052:11058   */\n      dup5\n        /* \"#utility.yul\":11008:11080   */\n      tag_206\n      jump\t// in\n    tag_334:\n        /* \"#utility.yul\":10645:11087   */\n      swap5\n      swap4\n      pop\n      pop\n      pop\n      pop\n      jump\t// out\n        /* \"#utility.yul\":11093:11183   */\n    tag_221:\n        /* \"#utility.yul\":11127:11134   */\n      0x00\n        /* \"#utility.yul\":11170:11175   */\n      dup2\n        /* \"#utility.yul\":11163:11176   */\n      iszero\n        /* \"#utility.yul\":11156:11177   */\n      iszero\n        /* \"#utility.yul\":11145:11177   */\n      swap1\n      pop\n        /* \"#utility.yul\":11093:11183   */\n      swap2\n      swap1\n      pop\n      jump\t// out\n        /* \"#utility.yul\":11189:11305   */\n    tag_222:\n        /* \"#utility.yul\":11259:11280   */\n      tag_337\n        /* \"#utility.yul\":11274:11279   */\n      dup2\n        /* \"#utility.yul\":11259:11280   */\n      tag_221\n      jump\t// in\n    tag_337:\n        /* \"#utility.yul\":11252:11257   */\n      dup2\n        /* \"#utility.yul\":11249:11281   */\n      eq\n        /* \"#utility.yul\":11239:11299   */\n      tag_338\n      jumpi\n        /* \"#utility.yul\":11295:11296   */\n      0x00\n        /* \"#utility.yul\":11292:11293   */\n      dup1\n        /* \"#utility.yul\":11285:11297   */\n      revert\n        /* \"#utility.yul\":11239:11299   */\n    tag_338:\n        /* \"#utility.yul\":11189:11305   */\n      pop\n      jump\t// out\n        /* \"#utility.yul\":11311:11448   */\n    tag_223:\n        /* \"#utility.yul\":11365:11370   */\n      0x00\n        /* \"#utility.yul\":11396:11402   */\n      dup2\n        /* \"#utility.yul\":11390:11403   */\n      mload\n        /* \"#utility.yul\":11381:11403   */\n      swap1\n      pop\n        /* \"#utility.yul\":11412:11442   */\n      tag_340\n        /* \"#utility.yul\":11436:11441   */\n      dup2\n        /* \"#utility.yul\":11412:11442   */\n      tag_222\n      jump\t// in\n    tag_340:\n        /* \"#utility.yul\":11311:11448   */\n      swap3\n      swap2\n      pop\n      pop\n      jump\t// out\n        /* \"#utility.yul\":11454:11799   */\n    tag_169:\n        /* \"#utility.yul\":11521:11527   */\n      0x00\n        /* \"#utility.yul\":11570:11572   */\n      0x20\n        /* \"#utility.yul\":11558:11567   */\n      dup3\n        /* \"#utility.yul\":11549:11556   */\n      dup5\n        /* \"#utility.yul\":11545:11568   */\n      sub\n        /* \"#utility.yul\":11541:11573   */\n      slt\n        /* \"#utility.yul\":11538:11657   */\n      iszero\n      tag_342\n      jumpi\n        /* \"#utility.yul\":11576:11655   */\n      tag_343\n      tag_197\n      jump\t// in\n    tag_343:\n        /* \"#utility.yul\":11538:11657   */\n    tag_342:\n        /* \"#utility.yul\":11696:11697   */\n      0x00\n        /* \"#utility.yul\":11721:11782   */\n      tag_344\n        /* \"#utility.yul\":11774:11781   */\n      dup5\n        /* \"#utility.yul\":11765:11771   */\n      dup3\n        /* \"#utility.yul\":11754:11763   */\n      dup6\n        /* \"#utility.yul\":11750:11772   */\n      add\n        /* \"#utility.yul\":11721:11782   */\n      tag_223\n      jump\t// in\n    tag_344:\n        /* \"#utility.yul\":11711:11782   */\n      swap2\n      pop\n        /* \"#utility.yul\":11667:11792   */\n      pop\n        /* \"#utility.yul\":11454:11799   */\n      swap3\n      swap2\n      pop\n      pop\n      jump\t// out\n        /* \"#utility.yul\":11805:11903   */\n    tag_224:\n        /* \"#utility.yul\":11856:11862   */\n      0x00\n        /* \"#utility.yul\":11890:11895   */\n      dup2\n        /* \"#utility.yul\":11884:11896   */\n      mload\n        /* \"#utility.yul\":11874:11896   */\n      swap1\n      pop\n        /* \"#utility.yul\":11805:11903   */\n      swap2\n      swap1\n      pop\n      jump\t// out\n        /* \"#utility.yul\":11909:12056   */\n    tag_225:\n        /* \"#utility.yul\":12010:12021   */\n      0x00\n        /* \"#utility.yul\":12047:12050   */\n      dup2\n        /* \"#utility.yul\":12032:12050   */\n      swap1\n      pop\n        /* \"#utility.yul\":11909:12056   */\n      swap3\n      swap2\n      pop\n      pop\n      jump\t// out\n        /* \"#utility.yul\":12062:12201   */\n    tag_226:\n        /* \"#utility.yul\":12151:12157   */\n      dup3\n        /* \"#utility.yul\":12146:12149   */\n      dup2\n        /* \"#utility.yul\":12141:12144   */\n      dup4\n        /* \"#utility.yul\":12135:12158   */\n      mcopy\n        /* \"#utility.yul\":12192:12193   */\n      0x00\n        /* \"#utility.yul\":12183:12189   */\n      dup4\n        /* \"#utility.yul\":12178:12181   */\n      dup4\n        /* \"#utility.yul\":12174:12190   */\n      add\n        /* \"#utility.yul\":12167:12194   */\n      mstore\n        /* \"#utility.yul\":12062:12201   */\n      pop\n      pop\n      pop\n      jump\t// out\n        /* \"#utility.yul\":12207:12593   */\n    tag_227:\n        /* \"#utility.yul\":12311:12314   */\n      0x00\n        /* \"#utility.yul\":12339:12377   */\n      tag_349\n        /* \"#utility.yul\":12371:12376   */\n      dup3\n        /* \"#utility.yul\":12339:12377   */\n      tag_224\n      jump\t// in\n    tag_349:\n        /* \"#utility.yul\":12393:12481   */\n      tag_350\n        /* \"#utility.yul\":12474:12480   */\n      dup2\n        /* \"#utility.yul\":12469:12472   */\n      dup6\n        /* \"#utility.yul\":12393:12481   */\n      tag_225\n      jump\t// in\n    tag_350:\n        /* \"#utility.yul\":12386:12481   */\n      swap4\n      pop\n        /* \"#utility.yul\":12490:12555   */\n      tag_351\n        /* \"#utility.yul\":12548:12554   */\n      dup2\n        /* \"#utility.yul\":12543:12546   */\n      dup6\n        /* \"#utility.yul\":12536:12540   */\n      0x20\n        /* \"#utility.yul\":12529:12534   */\n      dup7\n        /* \"#utility.yul\":12525:12541   */\n      add\n        /* \"#utility.yul\":12490:12555   */\n      tag_226\n      jump\t// in\n    tag_351:\n        /* \"#utility.yul\":12580:12586   */\n      dup1\n        /* \"#utility.yul\":12575:12578   */\n      dup5\n        /* \"#utility.yul\":12571:12587   */\n      add\n        /* \"#utility.yul\":12564:12587   */\n      swap2\n      pop\n        /* \"#utility.yul\":12315:12593   */\n      pop\n        /* \"#utility.yul\":12207:12593   */\n      swap3\n      swap2\n      pop\n      pop\n      jump\t// out\n        /* \"#utility.yul\":12599:12870   */\n    tag_179:\n        /* \"#utility.yul\":12729:12732   */\n      0x00\n        /* \"#utility.yul\":12751:12844   */\n      tag_353\n        /* \"#utility.yul\":12840:12843   */\n      dup3\n        /* \"#utility.yul\":12831:12837   */\n      dup5\n        /* \"#utility.yul\":12751:12844   */\n      tag_227\n      jump\t// in\n    tag_353:\n        /* \"#utility.yul\":12744:12844   */\n      swap2\n      pop\n        /* \"#utility.yul\":12861:12864   */\n      dup2\n        /* \"#utility.yul\":12854:12864   */\n      swap1\n      pop\n        /* \"#utility.yul\":12599:12870   */\n      swap3\n      swap2\n      pop\n      pop\n      jump\t// out\n\n    auxdata: 0xa2646970667358221220ab03e5580427c0916df5aa02a59a6cba7baaa8c91c7b0bf9cf7c982104688e0f64736f6c634300081a0033\n}\n",
				"bytecode": {
					"linkReferences": {},
					"object": "6080604052600a600555348015610014575f80fd5b50604051611ec8380380611ec8833981810160405281019061003691906104b8565b815183511461007a576040517f08c379a00000000000000000000000000000000000000000000000000000000081526004016100719061059a565b60405180910390fd5b8060035f6101000a81548173ffffffffffffffffffffffffffffffffffffffff021916908373ffffffffffffffffffffffffffffffffffffffff16021790555082600490805190602001906100d0929190610168565b505f5b835181101561015f578281815181106100ef576100ee6105b8565b5b602002602001015160025f86848151811061010d5761010c6105b8565b5b602002602001015173ffffffffffffffffffffffffffffffffffffffff1673ffffffffffffffffffffffffffffffffffffffff1681526020019081526020015f208190555080806001019150506100d3565b505050506105e5565b828054828255905f5260205f209081019282156101de579160200282015b828111156101dd578251825f6101000a81548173ffffffffffffffffffffffffffffffffffffffff021916908373ffffffffffffffffffffffffffffffffffffffff16021790555091602001919060010190610186565b5b5090506101eb91906101ef565b5090565b5b80821115610206575f815f9055506001016101f0565b5090565b5f604051905090565b5f80fd5b5f80fd5b5f80fd5b5f601f19601f8301169050919050565b7f4e487b71000000000000000000000000000000000000000000000000000000005f52604160045260245ffd5b6102658261021f565b810181811067ffffffffffffffff821117156102845761028361022f565b5b80604052505050565b5f61029661020a565b90506102a2828261025c565b919050565b5f67ffffffffffffffff8211156102c1576102c061022f565b5b602082029050602081019050919050565b5f80fd5b5f73ffffffffffffffffffffffffffffffffffffffff82169050919050565b5f6102ff826102d6565b9050919050565b61030f816102f5565b8114610319575f80fd5b50565b5f8151905061032a81610306565b92915050565b5f61034261033d846102a7565b61028d565b90508083825260208201905060208402830185811115610365576103646102d2565b5b835b8181101561038e578061037a888261031c565b845260208401935050602081019050610367565b5050509392505050565b5f82601f8301126103ac576103ab61021b565b5b81516103bc848260208601610330565b91505092915050565b5f67ffffffffffffffff8211156103df576103de61022f565b5b602082029050602081019050919050565b5f819050919050565b610402816103f0565b811461040c575f80fd5b50565b5f8151905061041d816103f9565b92915050565b5f610435610430846103c5565b61028d565b90508083825260208201905060208402830185811115610458576104576102d2565b5b835b81811015610481578061046d888261040f565b84526020840193505060208101905061045a565b5050509392505050565b5f82601f83011261049f5761049e61021b565b5b81516104af848260208601610423565b91505092915050565b5f805f606084860312156104cf576104ce610213565b5b5f84015167ffffffffffffffff8111156104ec576104eb610217565b5b6104f886828701610398565b935050602084015167ffffffffffffffff81111561051957610518610217565b5b6105258682870161048b565b92505060406105368682870161031c565b9150509250925092565b5f82825260208201905092915050565b7f546f6b656e20616e6420776569676874206d69736d61746368000000000000005f82015250565b5f610584601983610540565b915061058f82610550565b602082019050919050565b5f6020820190508181035f8301526105b181610578565b9050919050565b7f4e487b71000000000000000000000000000000000000000000000000000000005f52603260045260245ffd5b6118d6806105f25f395ff3fe608060405234801561000f575f80fd5b50600436106100b2575f3560e01c80636805d6ad1161006f5780636805d6ad1461017457806376319190146101a457806398118cb4146101c0578063a201ccf6146101de578063ab2f3ad4146101fa578063c62556261461022a576100b2565b806321faf184146100b65780633053f0b2146100d2578063357bf15c146101025780634d8e3d3b1461011e578063566887001461013a5780635aa6e67514610156575b5f80fd5b6100d060048036038101906100cb91906112b7565b61025a565b005b6100ec60048036038101906100e791906112f5565b6103b0565b6040516100f9919061132f565b60405180910390f35b61011c60048036038101906101179190611348565b6103c5565b005b610138600480360381019061013391906112b7565b6104a2565b005b610154600480360381019061014f91906112b7565b610620565b005b61015e610848565b60405161016b9190611382565b60405180910390f35b61018e6004803603810190610189919061139b565b61086d565b60405161019b919061132f565b60405180910390f35b6101be60048036038101906101b991906112f5565b6108f0565b005b6101c8610b84565b6040516101d5919061132f565b60405180910390f35b6101f860048036038101906101f391906112b7565b610b8a565b005b610214600480360381019061020f91906112f5565b610def565b604051610221919061132f565b60405180910390f35b610244600480360381019061023f9190611348565b610e04565b6040516102519190611382565b60405180910390f35b60035f9054906101000a900473ffffffffffffffffffffffffffffffffffffffff1673ffffffffffffffffffffffffffffffffffffffff163373ffffffffffffffffffffffffffffffffffffffff16146102e9576040517f08c379a00000000000000000000000000000000000000000000000000000000081526004016102e090611433565b60405180910390fd5b6102f282610e3f565b610331576040517f08c379a00000000000000000000000000000000000000000000000000000000081526004016103289061149b565b60405180910390fd5b8060025f8473ffffffffffffffffffffffffffffffffffffffff1673ffffffffffffffffffffffffffffffffffffffff1681526020019081526020015f20819055507fc9bf4277eb054fe4fa82ff2e3b468a6300f4bc73a13794b02287f6d8282c998c82826040516103a49291906114b9565b60405180910390a15050565b6001602052805f5260405f205f915090505481565b60035f9054906101000a900473ffffffffffffffffffffffffffffffffffffffff1673ffffffffffffffffffffffffffffffffffffffff163373ffffffffffffffffffffffffffffffffffffffff1614610454576040517f08c379a000000000000000000000000000000000000000000000000000000000815260040161044b90611433565b60405180910390fd5b6064811115610498576040517f08c379a000000000000000000000000000000000000000000000000000000000815260040161048f9061152a565b60405180910390fd5b8060058190555050565b60035f9054906101000a900473ffffffffffffffffffffffffffffffffffffffff1673ffffffffffffffffffffffffffffffffffffffff163373ffffffffffffffffffffffffffffffffffffffff1614610531576040517f08c379a000000000000000000000000000000000000000000000000000000000815260040161052890611433565b60405180910390fd5b61053a82610e3f565b1561057a576040517f08c379a000000000000000000000000000000000000000000000000000000000815260040161057190611592565b60405180910390fd5b600482908060018154018082558091505060019003905f5260205f20015f9091909190916101000a81548173ffffffffffffffffffffffffffffffffffffffff021916908373ffffffffffffffffffffffffffffffffffffffff1602179055508060025f8473ffffffffffffffffffffffffffffffffffffffff1673ffffffffffffffffffffffffffffffffffffffff1681526020019081526020015f20819055505050565b61062982610e3f565b610668576040517f08c379a000000000000000000000000000000000000000000000000000000000815260040161065f9061149b565b60405180910390fd5b5f6127106005548361067a91906115dd565b610684919061164b565b90505f8183610693919061167b565b90506106c23330838773ffffffffffffffffffffffffffffffffffffffff16610ee1909392919063ffffffff16565b6107103360035f9054906101000a900473ffffffffffffffffffffffffffffffffffffffff16848773ffffffffffffffffffffffffffffffffffffffff16610ee1909392919063ffffffff16565b805f803373ffffffffffffffffffffffffffffffffffffffff1673ffffffffffffffffffffffffffffffffffffffff1681526020019081526020015f205f015f8673ffffffffffffffffffffffffffffffffffffffff1673ffffffffffffffffffffffffffffffffffffffff1681526020019081526020015f205f82825461079891906116ae565b925050819055508060015f8673ffffffffffffffffffffffffffffffffffffffff1673ffffffffffffffffffffffffffffffffffffffff1681526020019081526020015f205f8282546107eb91906116ae565b925050819055503373ffffffffffffffffffffffffffffffffffffffff167f9d278c56ba6dc86a12eefe6b43112bd6e06648eb4ec0b950ee2d783d40e2acb4858360405161083a9291906114b9565b60405180910390a250505050565b60035f9054906101000a900473ffffffffffffffffffffffffffffffffffffffff1681565b5f805f8473ffffffffffffffffffffffffffffffffffffffff1673ffffffffffffffffffffffffffffffffffffffff1681526020019081526020015f205f015f8373ffffffffffffffffffffffffffffffffffffffff1673ffffffffffffffffffffffffffffffffffffffff1681526020019081526020015f2054905092915050565b60035f9054906101000a900473ffffffffffffffffffffffffffffffffffffffff1673ffffffffffffffffffffffffffffffffffffffff163373ffffffffffffffffffffffffffffffffffffffff161461097f576040517f08c379a000000000000000000000000000000000000000000000000000000000815260040161097690611433565b60405180910390fd5b61098881610e3f565b6109c7576040517f08c379a00000000000000000000000000000000000000000000000000000000081526004016109be9061149b565b60405180910390fd5b5f5b600480549050811015610b40578173ffffffffffffffffffffffffffffffffffffffff1660048281548110610a0157610a006116e1565b5b905f5260205f20015f9054906101000a900473ffffffffffffffffffffffffffffffffffffffff1673ffffffffffffffffffffffffffffffffffffffff1603610b335760046001600480549050610a58919061167b565b81548110610a6957610a686116e1565b5b905f5260205f20015f9054906101000a900473ffffffffffffffffffffffffffffffffffffffff1660048281548110610aa557610aa46116e1565b5b905f5260205f20015f6101000a81548173ffffffffffffffffffffffffffffffffffffffff021916908373ffffffffffffffffffffffffffffffffffffffff1602179055506004805480610afc57610afb61170e565b5b600190038181905f5260205f20015f6101000a81549073ffffffffffffffffffffffffffffffffffffffff02191690559055610b40565b80806001019150506109c9565b5060025f8273ffffffffffffffffffffffffffffffffffffffff1673ffffffffffffffffffffffffffffffffffffffff1681526020019081526020015f205f905550565b60055481565b610b9382610e3f565b610bd2576040517f08c379a0000000000000000000000000000000000000000000000000000000008152600401610bc99061149b565b60405180910390fd5b805f803373ffffffffffffffffffffffffffffffffffffffff1673ffffffffffffffffffffffffffffffffffffffff1681526020019081526020015f205f015f8473ffffffffffffffffffffffffffffffffffffffff1673ffffffffffffffffffffffffffffffffffffffff1681526020019081526020015f20541015610c8e576040517f08c379a0000000000000000000000000000000000000000000000000000000008152600401610c8590611785565b60405180910390fd5b805f803373ffffffffffffffffffffffffffffffffffffffff1673ffffffffffffffffffffffffffffffffffffffff1681526020019081526020015f205f015f8473ffffffffffffffffffffffffffffffffffffffff1673ffffffffffffffffffffffffffffffffffffffff1681526020019081526020015f205f828254610d16919061167b565b925050819055508060015f8473ffffffffffffffffffffffffffffffffffffffff1673ffffffffffffffffffffffffffffffffffffffff1681526020019081526020015f205f828254610d69919061167b565b92505081905550610d9b33828473ffffffffffffffffffffffffffffffffffffffff16610f639092919063ffffffff16565b3373ffffffffffffffffffffffffffffffffffffffff167f983e86fda8e7b1e2eae380201830eaf1cac55772e8e39583da349865e81788638383604051610de39291906114b9565b60405180910390a25050565b6002602052805f5260405f205f915090505481565b60048181548110610e13575f80fd5b905f5260205f20015f915054906101000a900473ffffffffffffffffffffffffffffffffffffffff1681565b5f805f90505b600480549050811015610ed7578273ffffffffffffffffffffffffffffffffffffffff1660048281548110610e7d57610e7c6116e1565b5b905f5260205f20015f9054906101000a900473ffffffffffffffffffffffffffffffffffffffff1673ffffffffffffffffffffffffffffffffffffffff1603610eca576001915050610edc565b8080600101915050610e45565b505f90505b919050565b610f5d848573ffffffffffffffffffffffffffffffffffffffff166323b872dd868686604051602401610f16939291906117a3565b604051602081830303815290604052915060e01b6020820180517bffffffffffffffffffffffffffffffffffffffffffffffffffffffff8381831617835250505050610fe2565b50505050565b610fdd838473ffffffffffffffffffffffffffffffffffffffff1663a9059cbb8585604051602401610f969291906114b9565b604051602081830303815290604052915060e01b6020820180517bffffffffffffffffffffffffffffffffffffffffffffffffffffffff8381831617835250505050610fe2565b505050565b5f61100c828473ffffffffffffffffffffffffffffffffffffffff1661107790919063ffffffff16565b90505f81511415801561103057508080602001905181019061102e919061180d565b155b1561107257826040517f5274afe70000000000000000000000000000000000000000000000000000000081526004016110699190611382565b60405180910390fd5b505050565b606061108483835f61108c565b905092915050565b6060814710156110d357306040517fcd7860590000000000000000000000000000000000000000000000000000000081526004016110ca9190611382565b60405180910390fd5b5f808573ffffffffffffffffffffffffffffffffffffffff1684866040516110fb919061188a565b5f6040518083038185875af1925050503d805f8114611135576040519150601f19603f3d011682016040523d82523d5f602084013e61113a565b606091505b509150915061114a868383611155565b925050509392505050565b60608261116a57611165826111e2565b6111da565b5f825114801561119057505f8473ffffffffffffffffffffffffffffffffffffffff163b145b156111d257836040517f9996b3150000000000000000000000000000000000000000000000000000000081526004016111c99190611382565b60405180910390fd5b8190506111db565b5b9392505050565b5f815111156111f45780518082602001fd5b6040517f1425ea4200000000000000000000000000000000000000000000000000000000815260040160405180910390fd5b5f80fd5b5f73ffffffffffffffffffffffffffffffffffffffff82169050919050565b5f6112538261122a565b9050919050565b61126381611249565b811461126d575f80fd5b50565b5f8135905061127e8161125a565b92915050565b5f819050919050565b61129681611284565b81146112a0575f80fd5b50565b5f813590506112b18161128d565b92915050565b5f80604083850312156112cd576112cc611226565b5b5f6112da85828601611270565b92505060206112eb858286016112a3565b9150509250929050565b5f6020828403121561130a57611309611226565b5b5f61131784828501611270565b91505092915050565b61132981611284565b82525050565b5f6020820190506113425f830184611320565b92915050565b5f6020828403121561135d5761135c611226565b5b5f61136a848285016112a3565b91505092915050565b61137c81611249565b82525050565b5f6020820190506113955f830184611373565b92915050565b5f80604083850312156113b1576113b0611226565b5b5f6113be85828601611270565b92505060206113cf85828601611270565b9150509250929050565b5f82825260208201905092915050565b7f4e6f7420617574686f72697a65640000000000000000000000000000000000005f82015250565b5f61141d600e836113d9565b9150611428826113e9565b602082019050919050565b5f6020820190508181035f83015261144a81611411565b9050919050565b7f546f6b656e206e6f7420737570706f72746564000000000000000000000000005f82015250565b5f6114856013836113d9565b915061149082611451565b602082019050919050565b5f6020820190508181035f8301526114b281611479565b9050919050565b5f6040820190506114cc5f830185611373565b6114d96020830184611320565b9392505050565b7f46656520746f6f206869676800000000000000000000000000000000000000005f82015250565b5f611514600c836113d9565b915061151f826114e0565b602082019050919050565b5f6020820190508181035f83015261154181611508565b9050919050565b7f546f6b656e20616c726561647920737570706f727465640000000000000000005f82015250565b5f61157c6017836113d9565b915061158782611548565b602082019050919050565b5f6020820190508181035f8301526115a981611570565b9050919050565b7f4e487b71000000000000000000000000000000000000000000000000000000005f52601160045260245ffd5b5f6115e782611284565b91506115f283611284565b925082820261160081611284565b91508282048414831517611617576116166115b0565b5b5092915050565b7f4e487b71000000000000000000000000000000000000000000000000000000005f52601260045260245ffd5b5f61165582611284565b915061166083611284565b9250826116705761166f61161e565b5b828204905092915050565b5f61168582611284565b915061169083611284565b92508282039050818111156116a8576116a76115b0565b5b92915050565b5f6116b882611284565b91506116c383611284565b92508282019050808211156116db576116da6115b0565b5b92915050565b7f4e487b71000000000000000000000000000000000000000000000000000000005f52603260045260245ffd5b7f4e487b71000000000000000000000000000000000000000000000000000000005f52603160045260245ffd5b7f496e73756666696369656e742062616c616e63650000000000000000000000005f82015250565b5f61176f6014836113d9565b915061177a8261173b565b602082019050919050565b5f6020820190508181035f83015261179c81611763565b9050919050565b5f6060820190506117b65f830186611373565b6117c36020830185611373565b6117d06040830184611320565b949350505050565b5f8115159050919050565b6117ec816117d8565b81146117f6575f80fd5b50565b5f81519050611807816117e3565b92915050565b5f6020828403121561182257611821611226565b5b5f61182f848285016117f9565b91505092915050565b5f81519050919050565b5f81905092915050565b8281835e5f83830152505050565b5f61186482611838565b61186e8185611842565b935061187e81856020860161184c565b80840191505092915050565b5f611895828461185a565b91508190509291505056fea2646970667358221220ab03e5580427c0916df5aa02a59a6cba7baaa8c91c7b0bf9cf7c982104688e0f64736f6c634300081a0033",
					"opcodes": "PUSH1 0x80 PUSH1 0x40 MSTORE PUSH1 0xA PUSH1 0x5 SSTORE CALLVALUE DUP1 ISZERO PUSH2 0x14 JUMPI PUSH0 DUP1 REVERT JUMPDEST POP PUSH1 0x40 MLOAD PUSH2 0x1EC8 CODESIZE SUB DUP1 PUSH2 0x1EC8 DUP4 CODECOPY DUP2 DUP2 ADD PUSH1 0x40 MSTORE DUP2 ADD SWAP1 PUSH2 0x36 SWAP2 SWAP1 PUSH2 0x4B8 JUMP JUMPDEST DUP2 MLOAD DUP4 MLOAD EQ PUSH2 0x7A JUMPI PUSH1 0x40 MLOAD PUSH32 0x8C379A000000000000000000000000000000000000000000000000000000000 DUP2 MSTORE PUSH1 0x4 ADD PUSH2 0x71 SWAP1 PUSH2 0x59A JUMP JUMPDEST PUSH1 0x40 MLOAD DUP1 SWAP2 SUB SWAP1 REVERT JUMPDEST DUP1 PUSH1 0x3 PUSH0 PUSH2 0x100 EXP DUP2 SLOAD DUP2 PUSH20 0xFFFFFFFFFFFFFFFFFFFFFFFFFFFFFFFFFFFFFFFF MUL NOT AND SWAP1 DUP4 PUSH20 0xFFFFFFFFFFFFFFFFFFFFFFFFFFFFFFFFFFFFFFFF AND MUL OR SWAP1 SSTORE POP DUP3 PUSH1 0x4 SWAP1 DUP1 MLOAD SWAP1 PUSH1 0x20 ADD SWAP1 PUSH2 0xD0 SWAP3 SWAP2 SWAP1 PUSH2 0x168 JUMP JUMPDEST POP PUSH0 JUMPDEST DUP4 MLOAD DUP2 LT ISZERO PUSH2 0x15F JUMPI DUP3 DUP2 DUP2 MLOAD DUP2 LT PUSH2 0xEF JUMPI PUSH2 0xEE PUSH2 0x5B8 JUMP JUMPDEST JUMPDEST PUSH1 0x20 MUL PUSH1 0x20 ADD ADD MLOAD PUSH1 0x2 PUSH0 DUP7 DUP5 DUP2 MLOAD DUP2 LT PUSH2 0x10D JUMPI PUSH2 0x10C PUSH2 0x5B8 JUMP JUMPDEST JUMPDEST PUSH1 0x20 MUL PUSH1 0x20 ADD ADD MLOAD PUSH20 0xFFFFFFFFFFFFFFFFFFFFFFFFFFFFFFFFFFFFFFFF AND PUSH20 0xFFFFFFFFFFFFFFFFFFFFFFFFFFFFFFFFFFFFFFFF AND DUP2 MSTORE PUSH1 0x20 ADD SWAP1 DUP2 MSTORE PUSH1 0x20 ADD PUSH0 KECCAK256 DUP2 SWAP1 SSTORE POP DUP1 DUP1 PUSH1 0x1 ADD SWAP2 POP POP PUSH2 0xD3 JUMP JUMPDEST POP POP POP POP PUSH2 0x5E5 JUMP JUMPDEST DUP3 DUP1 SLOAD DUP3 DUP3 SSTORE SWAP1 PUSH0 MSTORE PUSH1 0x20 PUSH0 KECCAK256 SWAP1 DUP2 ADD SWAP3 DUP3 ISZERO PUSH2 0x1DE JUMPI SWAP2 PUSH1 0x20 MUL DUP3 ADD JUMPDEST DUP3 DUP2 GT ISZERO PUSH2 0x1DD JUMPI DUP3 MLOAD DUP3 PUSH0 PUSH2 0x100 EXP DUP2 SLOAD DUP2 PUSH20 0xFFFFFFFFFFFFFFFFFFFFFFFFFFFFFFFFFFFFFFFF MUL NOT AND SWAP1 DUP4 PUSH20 0xFFFFFFFFFFFFFFFFFFFFFFFFFFFFFFFFFFFFFFFF AND MUL OR SWAP1 SSTORE POP SWAP2 PUSH1 0x20 ADD SWAP2 SWAP1 PUSH1 0x1 ADD SWAP1 PUSH2 0x186 JUMP JUMPDEST JUMPDEST POP SWAP1 POP PUSH2 0x1EB SWAP2 SWAP1 PUSH2 0x1EF JUMP JUMPDEST POP SWAP1 JUMP JUMPDEST JUMPDEST DUP1 DUP3 GT ISZERO PUSH2 0x206 JUMPI PUSH0 DUP2 PUSH0 SWAP1 SSTORE POP PUSH1 0x1 ADD PUSH2 0x1F0 JUMP JUMPDEST POP SWAP1 JUMP JUMPDEST PUSH0 PUSH1 0x40 MLOAD SWAP1 POP SWAP1 JUMP JUMPDEST PUSH0 DUP1 REVERT JUMPDEST PUSH0 DUP1 REVERT JUMPDEST PUSH0 DUP1 REVERT JUMPDEST PUSH0 PUSH1 0x1F NOT PUSH1 0x1F DUP4 ADD AND SWAP1 POP SWAP2 SWAP1 POP JUMP JUMPDEST PUSH32 0x4E487B7100000000000000000000000000000000000000000000000000000000 PUSH0 MSTORE PUSH1 0x41 PUSH1 0x4 MSTORE PUSH1 0x24 PUSH0 REVERT JUMPDEST PUSH2 0x265 DUP3 PUSH2 0x21F JUMP JUMPDEST DUP2 ADD DUP2 DUP2 LT PUSH8 0xFFFFFFFFFFFFFFFF DUP3 GT OR ISZERO PUSH2 0x284 JUMPI PUSH2 0x283 PUSH2 0x22F JUMP JUMPDEST JUMPDEST DUP1 PUSH1 0x40 MSTORE POP POP POP JUMP JUMPDEST PUSH0 PUSH2 0x296 PUSH2 0x20A JUMP JUMPDEST SWAP1 POP PUSH2 0x2A2 DUP3 DUP3 PUSH2 0x25C JUMP JUMPDEST SWAP2 SWAP1 POP JUMP JUMPDEST PUSH0 PUSH8 0xFFFFFFFFFFFFFFFF DUP3 GT ISZERO PUSH2 0x2C1 JUMPI PUSH2 0x2C0 PUSH2 0x22F JUMP JUMPDEST JUMPDEST PUSH1 0x20 DUP3 MUL SWAP1 POP PUSH1 0x20 DUP2 ADD SWAP1 POP SWAP2 SWAP1 POP JUMP JUMPDEST PUSH0 DUP1 REVERT JUMPDEST PUSH0 PUSH20 0xFFFFFFFFFFFFFFFFFFFFFFFFFFFFFFFFFFFFFFFF DUP3 AND SWAP1 POP SWAP2 SWAP1 POP JUMP JUMPDEST PUSH0 PUSH2 0x2FF DUP3 PUSH2 0x2D6 JUMP JUMPDEST SWAP1 POP SWAP2 SWAP1 POP JUMP JUMPDEST PUSH2 0x30F DUP2 PUSH2 0x2F5 JUMP JUMPDEST DUP2 EQ PUSH2 0x319 JUMPI PUSH0 DUP1 REVERT JUMPDEST POP JUMP JUMPDEST PUSH0 DUP2 MLOAD SWAP1 POP PUSH2 0x32A DUP2 PUSH2 0x306 JUMP JUMPDEST SWAP3 SWAP2 POP POP JUMP JUMPDEST PUSH0 PUSH2 0x342 PUSH2 0x33D DUP5 PUSH2 0x2A7 JUMP JUMPDEST PUSH2 0x28D JUMP JUMPDEST SWAP1 POP DUP1 DUP4 DUP3 MSTORE PUSH1 0x20 DUP3 ADD SWAP1 POP PUSH1 0x20 DUP5 MUL DUP4 ADD DUP6 DUP2 GT ISZERO PUSH2 0x365 JUMPI PUSH2 0x364 PUSH2 0x2D2 JUMP JUMPDEST JUMPDEST DUP4 JUMPDEST DUP2 DUP2 LT ISZERO PUSH2 0x38E JUMPI DUP1 PUSH2 0x37A DUP9 DUP3 PUSH2 0x31C JUMP JUMPDEST DUP5 MSTORE PUSH1 0x20 DUP5 ADD SWAP4 POP POP PUSH1 0x20 DUP2 ADD SWAP1 POP PUSH2 0x367 JUMP JUMPDEST POP POP POP SWAP4 SWAP3 POP POP POP JUMP JUMPDEST PUSH0 DUP3 PUSH1 0x1F DUP4 ADD SLT PUSH2 0x3AC JUMPI PUSH2 0x3AB PUSH2 0x21B JUMP JUMPDEST JUMPDEST DUP2 MLOAD PUSH2 0x3BC DUP5 DUP3 PUSH1 0x20 DUP7 ADD PUSH2 0x330 JUMP JUMPDEST SWAP2 POP POP SWAP3 SWAP2 POP POP JUMP JUMPDEST PUSH0 PUSH8 0xFFFFFFFFFFFFFFFF DUP3 GT ISZERO PUSH2 0x3DF JUMPI PUSH2 0x3DE PUSH2 0x22F JUMP JUMPDEST JUMPDEST PUSH1 0x20 DUP3 MUL SWAP1 POP PUSH1 0x20 DUP2 ADD SWAP1 POP SWAP2 SWAP1 POP JUMP JUMPDEST PUSH0 DUP2 SWAP1 POP SWAP2 SWAP1 POP JUMP JUMPDEST PUSH2 0x402 DUP2 PUSH2 0x3F0 JUMP JUMPDEST DUP2 EQ PUSH2 0x40C JUMPI PUSH0 DUP1 REVERT JUMPDEST POP JUMP JUMPDEST PUSH0 DUP2 MLOAD SWAP1 POP PUSH2 0x41D DUP2 PUSH2 0x3F9 JUMP JUMPDEST SWAP3 SWAP2 POP POP JUMP JUMPDEST PUSH0 PUSH2 0x435 PUSH2 0x430 DUP5 PUSH2 0x3C5 JUMP JUMPDEST PUSH2 0x28D JUMP JUMPDEST SWAP1 POP DUP1 DUP4 DUP3 MSTORE PUSH1 0x20 DUP3 ADD SWAP1 POP PUSH1 0x20 DUP5 MUL DUP4 ADD DUP6 DUP2 GT ISZERO PUSH2 0x458 JUMPI PUSH2 0x457 PUSH2 0x2D2 JUMP JUMPDEST JUMPDEST DUP4 JUMPDEST DUP2 DUP2 LT ISZERO PUSH2 0x481 JUMPI DUP1 PUSH2 0x46D DUP9 DUP3 PUSH2 0x40F JUMP JUMPDEST DUP5 MSTORE PUSH1 0x20 DUP5 ADD SWAP4 POP POP PUSH1 0x20 DUP2 ADD SWAP1 POP PUSH2 0x45A JUMP JUMPDEST POP POP POP SWAP4 SWAP3 POP POP POP JUMP JUMPDEST PUSH0 DUP3 PUSH1 0x1F DUP4 ADD SLT PUSH2 0x49F JUMPI PUSH2 0x49E PUSH2 0x21B JUMP JUMPDEST JUMPDEST DUP2 MLOAD PUSH2 0x4AF DUP5 DUP3 PUSH1 0x20 DUP7 ADD PUSH2 0x423 JUMP JUMPDEST SWAP2 POP POP SWAP3 SWAP2 POP POP JUMP JUMPDEST PUSH0 DUP1 PUSH0 PUSH1 0x60 DUP5 DUP7 SUB SLT ISZERO PUSH2 0x4CF JUMPI PUSH2 0x4CE PUSH2 0x213 JUMP JUMPDEST JUMPDEST PUSH0 DUP5 ADD MLOAD PUSH8 0xFFFFFFFFFFFFFFFF DUP2 GT ISZERO PUSH2 0x4EC JUMPI PUSH2 0x4EB PUSH2 0x217 JUMP JUMPDEST JUMPDEST PUSH2 0x4F8 DUP7 DUP3 DUP8 ADD PUSH2 0x398 JUMP JUMPDEST SWAP4 POP POP PUSH1 0x20 DUP5 ADD MLOAD PUSH8 0xFFFFFFFFFFFFFFFF DUP2 GT ISZERO PUSH2 0x519 JUMPI PUSH2 0x518 PUSH2 0x217 JUMP JUMPDEST JUMPDEST PUSH2 0x525 DUP7 DUP3 DUP8 ADD PUSH2 0x48B JUMP JUMPDEST SWAP3 POP POP PUSH1 0x40 PUSH2 0x536 DUP7 DUP3 DUP8 ADD PUSH2 0x31C JUMP JUMPDEST SWAP2 POP POP SWAP3 POP SWAP3 POP SWAP3 JUMP JUMPDEST PUSH0 DUP3 DUP3 MSTORE PUSH1 0x20 DUP3 ADD SWAP1 POP SWAP3 SWAP2 POP POP JUMP JUMPDEST PUSH32 0x546F6B656E20616E6420776569676874206D69736D6174636800000000000000 PUSH0 DUP3 ADD MSTORE POP JUMP JUMPDEST PUSH0 PUSH2 0x584 PUSH1 0x19 DUP4 PUSH2 0x540 JUMP JUMPDEST SWAP2 POP PUSH2 0x58F DUP3 PUSH2 0x550 JUMP JUMPDEST PUSH1 0x20 DUP3 ADD SWAP1 POP SWAP2 SWAP1 POP JUMP JUMPDEST PUSH0 PUSH1 0x20 DUP3 ADD SWAP1 POP DUP2 DUP2 SUB PUSH0 DUP4 ADD MSTORE PUSH2 0x5B1 DUP2 PUSH2 0x578 JUMP JUMPDEST SWAP1 POP SWAP2 SWAP1 POP JUMP JUMPDEST PUSH32 0x4E487B7100000000000000000000000000000000000000000000000000000000 PUSH0 MSTORE PUSH1 0x32 PUSH1 0x4 MSTORE PUSH1 0x24 PUSH0 REVERT JUMPDEST PUSH2 0x18D6 DUP1 PUSH2 0x5F2 PUSH0 CODECOPY PUSH0 RETURN INVALID PUSH1 0x80 PUSH1 0x40 MSTORE CALLVALUE DUP1 ISZERO PUSH2 0xF JUMPI PUSH0 DUP1 REVERT JUMPDEST POP PUSH1 0x4 CALLDATASIZE LT PUSH2 0xB2 JUMPI PUSH0 CALLDATALOAD PUSH1 0xE0 SHR DUP1 PUSH4 0x6805D6AD GT PUSH2 0x6F JUMPI DUP1 PUSH4 0x6805D6AD EQ PUSH2 0x174 JUMPI DUP1 PUSH4 0x76319190 EQ PUSH2 0x1A4 JUMPI DUP1 PUSH4 0x98118CB4 EQ PUSH2 0x1C0 JUMPI DUP1 PUSH4 0xA201CCF6 EQ PUSH2 0x1DE JUMPI DUP1 PUSH4 0xAB2F3AD4 EQ PUSH2 0x1FA JUMPI DUP1 PUSH4 0xC6255626 EQ PUSH2 0x22A JUMPI PUSH2 0xB2 JUMP JUMPDEST DUP1 PUSH4 0x21FAF184 EQ PUSH2 0xB6 JUMPI DUP1 PUSH4 0x3053F0B2 EQ PUSH2 0xD2 JUMPI DUP1 PUSH4 0x357BF15C EQ PUSH2 0x102 JUMPI DUP1 PUSH4 0x4D8E3D3B EQ PUSH2 0x11E JUMPI DUP1 PUSH4 0x56688700 EQ PUSH2 0x13A JUMPI DUP1 PUSH4 0x5AA6E675 EQ PUSH2 0x156 JUMPI JUMPDEST PUSH0 DUP1 REVERT JUMPDEST PUSH2 0xD0 PUSH1 0x4 DUP1 CALLDATASIZE SUB DUP2 ADD SWAP1 PUSH2 0xCB SWAP2 SWAP1 PUSH2 0x12B7 JUMP JUMPDEST PUSH2 0x25A JUMP JUMPDEST STOP JUMPDEST PUSH2 0xEC PUSH1 0x4 DUP1 CALLDATASIZE SUB DUP2 ADD SWAP1 PUSH2 0xE7 SWAP2 SWAP1 PUSH2 0x12F5 JUMP JUMPDEST PUSH2 0x3B0 JUMP JUMPDEST PUSH1 0x40 MLOAD PUSH2 0xF9 SWAP2 SWAP1 PUSH2 0x132F JUMP JUMPDEST PUSH1 0x40 MLOAD DUP1 SWAP2 SUB SWAP1 RETURN JUMPDEST PUSH2 0x11C PUSH1 0x4 DUP1 CALLDATASIZE SUB DUP2 ADD SWAP1 PUSH2 0x117 SWAP2 SWAP1 PUSH2 0x1348 JUMP JUMPDEST PUSH2 0x3C5 JUMP JUMPDEST STOP JUMPDEST PUSH2 0x138 PUSH1 0x4 DUP1 CALLDATASIZE SUB DUP2 ADD SWAP1 PUSH2 0x133 SWAP2 SWAP1 PUSH2 0x12B7 JUMP JUMPDEST PUSH2 0x4A2 JUMP JUMPDEST STOP JUMPDEST PUSH2 0x154 PUSH1 0x4 DUP1 CALLDATASIZE SUB DUP2 ADD SWAP1 PUSH2 0x14F SWAP2 SWAP1 PUSH2 0x12B7 JUMP JUMPDEST PUSH2 0x620 JUMP JUMPDEST STOP JUMPDEST PUSH2 0x15E PUSH2 0x848 JUMP JUMPDEST PUSH1 0x40 MLOAD PUSH2 0x16B SWAP2 SWAP1 PUSH2 0x1382 JUMP JUMPDEST PUSH1 0x40 MLOAD DUP1 SWAP2 SUB SWAP1 RETURN JUMPDEST PUSH2 0x18E PUSH1 0x4 DUP1 CALLDATASIZE SUB DUP2 ADD SWAP1 PUSH2 0x189 SWAP2 SWAP1 PUSH2 0x139B JUMP JUMPDEST PUSH2 0x86D JUMP JUMPDEST PUSH1 0x40 MLOAD PUSH2 0x19B SWAP2 SWAP1 PUSH2 0x132F JUMP JUMPDEST PUSH1 0x40 MLOAD DUP1 SWAP2 SUB SWAP1 RETURN JUMPDEST PUSH2 0x1BE PUSH1 0x4 DUP1 CALLDATASIZE SUB DUP2 ADD SWAP1 PUSH2 0x1B9 SWAP2 SWAP1 PUSH2 0x12F5 JUMP JUMPDEST PUSH2 0x8F0 JUMP JUMPDEST STOP JUMPDEST PUSH2 0x1C8 PUSH2 0xB84 JUMP JUMPDEST PUSH1 0x40 MLOAD PUSH2 0x1D5 SWAP2 SWAP1 PUSH2 0x132F JUMP JUMPDEST PUSH1 0x40 MLOAD DUP1 SWAP2 SUB SWAP1 RETURN JUMPDEST PUSH2 0x1F8 PUSH1 0x4 DUP1 CALLDATASIZE SUB DUP2 ADD SWAP1 PUSH2 0x1F3 SWAP2 SWAP1 PUSH2 0x12B7 JUMP JUMPDEST PUSH2 0xB8A JUMP JUMPDEST STOP JUMPDEST PUSH2 0x214 PUSH1 0x4 DUP1 CALLDATASIZE SUB DUP2 ADD SWAP1 PUSH2 0x20F SWAP2 SWAP1 PUSH2 0x12F5 JUMP JUMPDEST PUSH2 0xDEF JUMP JUMPDEST PUSH1 0x40 MLOAD PUSH2 0x221 SWAP2 SWAP1 PUSH2 0x132F JUMP JUMPDEST PUSH1 0x40 MLOAD DUP1 SWAP2 SUB SWAP1 RETURN JUMPDEST PUSH2 0x244 PUSH1 0x4 DUP1 CALLDATASIZE SUB DUP2 ADD SWAP1 PUSH2 0x23F SWAP2 SWAP1 PUSH2 0x1348 JUMP JUMPDEST PUSH2 0xE04 JUMP JUMPDEST PUSH1 0x40 MLOAD PUSH2 0x251 SWAP2 SWAP1 PUSH2 0x1382 JUMP JUMPDEST PUSH1 0x40 MLOAD DUP1 SWAP2 SUB SWAP1 RETURN JUMPDEST PUSH1 0x3 PUSH0 SWAP1 SLOAD SWAP1 PUSH2 0x100 EXP SWAP1 DIV PUSH20 0xFFFFFFFFFFFFFFFFFFFFFFFFFFFFFFFFFFFFFFFF AND PUSH20 0xFFFFFFFFFFFFFFFFFFFFFFFFFFFFFFFFFFFFFFFF AND CALLER PUSH20 0xFFFFFFFFFFFFFFFFFFFFFFFFFFFFFFFFFFFFFFFF AND EQ PUSH2 0x2E9 JUMPI PUSH1 0x40 MLOAD PUSH32 0x8C379A000000000000000000000000000000000000000000000000000000000 DUP2 MSTORE PUSH1 0x4 ADD PUSH2 0x2E0 SWAP1 PUSH2 0x1433 JUMP JUMPDEST PUSH1 0x40 MLOAD DUP1 SWAP2 SUB SWAP1 REVERT JUMPDEST PUSH2 0x2F2 DUP3 PUSH2 0xE3F JUMP JUMPDEST PUSH2 0x331 JUMPI PUSH1 0x40 MLOAD PUSH32 0x8C379A000000000000000000000000000000000000000000000000000000000 DUP2 MSTORE PUSH1 0x4 ADD PUSH2 0x328 SWAP1 PUSH2 0x149B JUMP JUMPDEST PUSH1 0x40 MLOAD DUP1 SWAP2 SUB SWAP1 REVERT JUMPDEST DUP1 PUSH1 0x2 PUSH0 DUP5 PUSH20 0xFFFFFFFFFFFFFFFFFFFFFFFFFFFFFFFFFFFFFFFF AND PUSH20 0xFFFFFFFFFFFFFFFFFFFFFFFFFFFFFFFFFFFFFFFF AND DUP2 MSTORE PUSH1 0x20 ADD SWAP1 DUP2 MSTORE PUSH1 0x20 ADD PUSH0 KECCAK256 DUP2 SWAP1 SSTORE POP PUSH32 0xC9BF4277EB054FE4FA82FF2E3B468A6300F4BC73A13794B02287F6D8282C998C DUP3 DUP3 PUSH1 0x40 MLOAD PUSH2 0x3A4 SWAP3 SWAP2 SWAP1 PUSH2 0x14B9 JUMP JUMPDEST PUSH1 0x40 MLOAD DUP1 SWAP2 SUB SWAP1 LOG1 POP POP JUMP JUMPDEST PUSH1 0x1 PUSH1 0x20 MSTORE DUP1 PUSH0 MSTORE PUSH1 0x40 PUSH0 KECCAK256 PUSH0 SWAP2 POP SWAP1 POP SLOAD DUP2 JUMP JUMPDEST PUSH1 0x3 PUSH0 SWAP1 SLOAD SWAP1 PUSH2 0x100 EXP SWAP1 DIV PUSH20 0xFFFFFFFFFFFFFFFFFFFFFFFFFFFFFFFFFFFFFFFF AND PUSH20 0xFFFFFFFFFFFFFFFFFFFFFFFFFFFFFFFFFFFFFFFF AND CALLER PUSH20 0xFFFFFFFFFFFFFFFFFFFFFFFFFFFFFFFFFFFFFFFF AND EQ PUSH2 0x454 JUMPI PUSH1 0x40 MLOAD PUSH32 0x8C379A000000000000000000000000000000000000000000000000000000000 DUP2 MSTORE PUSH1 0x4 ADD PUSH2 0x44B SWAP1 PUSH2 0x1433 JUMP JUMPDEST PUSH1 0x40 MLOAD DUP1 SWAP2 SUB SWAP1 REVERT JUMPDEST PUSH1 0x64 DUP2 GT ISZERO PUSH2 0x498 JUMPI PUSH1 0x40 MLOAD PUSH32 0x8C379A000000000000000000000000000000000000000000000000000000000 DUP2 MSTORE PUSH1 0x4 ADD PUSH2 0x48F SWAP1 PUSH2 0x152A JUMP JUMPDEST PUSH1 0x40 MLOAD DUP1 SWAP2 SUB SWAP1 REVERT JUMPDEST DUP1 PUSH1 0x5 DUP2 SWAP1 SSTORE POP POP JUMP JUMPDEST PUSH1 0x3 PUSH0 SWAP1 SLOAD SWAP1 PUSH2 0x100 EXP SWAP1 DIV PUSH20 0xFFFFFFFFFFFFFFFFFFFFFFFFFFFFFFFFFFFFFFFF AND PUSH20 0xFFFFFFFFFFFFFFFFFFFFFFFFFFFFFFFFFFFFFFFF AND CALLER PUSH20 0xFFFFFFFFFFFFFFFFFFFFFFFFFFFFFFFFFFFFFFFF AND EQ PUSH2 0x531 JUMPI PUSH1 0x40 MLOAD PUSH32 0x8C379A000000000000000000000000000000000000000000000000000000000 DUP2 MSTORE PUSH1 0x4 ADD PUSH2 0x528 SWAP1 PUSH2 0x1433 JUMP JUMPDEST PUSH1 0x40 MLOAD DUP1 SWAP2 SUB SWAP1 REVERT JUMPDEST PUSH2 0x53A DUP3 PUSH2 0xE3F JUMP JUMPDEST ISZERO PUSH2 0x57A JUMPI PUSH1 0x40 MLOAD PUSH32 0x8C379A000000000000000000000000000000000000000000000000000000000 DUP2 MSTORE PUSH1 0x4 ADD PUSH2 0x571 SWAP1 PUSH2 0x1592 JUMP JUMPDEST PUSH1 0x40 MLOAD DUP1 SWAP2 SUB SWAP1 REVERT JUMPDEST PUSH1 0x4 DUP3 SWAP1 DUP1 PUSH1 0x1 DUP2 SLOAD ADD DUP1 DUP3 SSTORE DUP1 SWAP2 POP POP PUSH1 0x1 SWAP1 SUB SWAP1 PUSH0 MSTORE PUSH1 0x20 PUSH0 KECCAK256 ADD PUSH0 SWAP1 SWAP2 SWAP1 SWAP2 SWAP1 SWAP2 PUSH2 0x100 EXP DUP2 SLOAD DUP2 PUSH20 0xFFFFFFFFFFFFFFFFFFFFFFFFFFFFFFFFFFFFFFFF MUL NOT AND SWAP1 DUP4 PUSH20 0xFFFFFFFFFFFFFFFFFFFFFFFFFFFFFFFFFFFFFFFF AND MUL OR SWAP1 SSTORE POP DUP1 PUSH1 0x2 PUSH0 DUP5 PUSH20 0xFFFFFFFFFFFFFFFFFFFFFFFFFFFFFFFFFFFFFFFF AND PUSH20 0xFFFFFFFFFFFFFFFFFFFFFFFFFFFFFFFFFFFFFFFF AND DUP2 MSTORE PUSH1 0x20 ADD SWAP1 DUP2 MSTORE PUSH1 0x20 ADD PUSH0 KECCAK256 DUP2 SWAP1 SSTORE POP POP POP JUMP JUMPDEST PUSH2 0x629 DUP3 PUSH2 0xE3F JUMP JUMPDEST PUSH2 0x668 JUMPI PUSH1 0x40 MLOAD PUSH32 0x8C379A000000000000000000000000000000000000000000000000000000000 DUP2 MSTORE PUSH1 0x4 ADD PUSH2 0x65F SWAP1 PUSH2 0x149B JUMP JUMPDEST PUSH1 0x40 MLOAD DUP1 SWAP2 SUB SWAP1 REVERT JUMPDEST PUSH0 PUSH2 0x2710 PUSH1 0x5 SLOAD DUP4 PUSH2 0x67A SWAP2 SWAP1 PUSH2 0x15DD JUMP JUMPDEST PUSH2 0x684 SWAP2 SWAP1 PUSH2 0x164B JUMP JUMPDEST SWAP1 POP PUSH0 DUP2 DUP4 PUSH2 0x693 SWAP2 SWAP1 PUSH2 0x167B JUMP JUMPDEST SWAP1 POP PUSH2 0x6C2 CALLER ADDRESS DUP4 DUP8 PUSH20 0xFFFFFFFFFFFFFFFFFFFFFFFFFFFFFFFFFFFFFFFF AND PUSH2 0xEE1 SWAP1 SWAP4 SWAP3 SWAP2 SWAP1 PUSH4 0xFFFFFFFF AND JUMP JUMPDEST PUSH2 0x710 CALLER PUSH1 0x3 PUSH0 SWAP1 SLOAD SWAP1 PUSH2 0x100 EXP SWAP1 DIV PUSH20 0xFFFFFFFFFFFFFFFFFFFFFFFFFFFFFFFFFFFFFFFF AND DUP5 DUP8 PUSH20 0xFFFFFFFFFFFFFFFFFFFFFFFFFFFFFFFFFFFFFFFF AND PUSH2 0xEE1 SWAP1 SWAP4 SWAP3 SWAP2 SWAP1 PUSH4 0xFFFFFFFF AND JUMP JUMPDEST DUP1 PUSH0 DUP1 CALLER PUSH20 0xFFFFFFFFFFFFFFFFFFFFFFFFFFFFFFFFFFFFFFFF AND PUSH20 0xFFFFFFFFFFFFFFFFFFFFFFFFFFFFFFFFFFFFFFFF AND DUP2 MSTORE PUSH1 0x20 ADD SWAP1 DUP2 MSTORE PUSH1 0x20 ADD PUSH0 KECCAK256 PUSH0 ADD PUSH0 DUP7 PUSH20 0xFFFFFFFFFFFFFFFFFFFFFFFFFFFFFFFFFFFFFFFF AND PUSH20 0xFFFFFFFFFFFFFFFFFFFFFFFFFFFFFFFFFFFFFFFF AND DUP2 MSTORE PUSH1 0x20 ADD SWAP1 DUP2 MSTORE PUSH1 0x20 ADD PUSH0 KECCAK256 PUSH0 DUP3 DUP3 SLOAD PUSH2 0x798 SWAP2 SWAP1 PUSH2 0x16AE JUMP JUMPDEST SWAP3 POP POP DUP2 SWAP1 SSTORE POP DUP1 PUSH1 0x1 PUSH0 DUP7 PUSH20 0xFFFFFFFFFFFFFFFFFFFFFFFFFFFFFFFFFFFFFFFF AND PUSH20 0xFFFFFFFFFFFFFFFFFFFFFFFFFFFFFFFFFFFFFFFF AND DUP2 MSTORE PUSH1 0x20 ADD SWAP1 DUP2 MSTORE PUSH1 0x20 ADD PUSH0 KECCAK256 PUSH0 DUP3 DUP3 SLOAD PUSH2 0x7EB SWAP2 SWAP1 PUSH2 0x16AE JUMP JUMPDEST SWAP3 POP POP DUP2 SWAP1 SSTORE POP CALLER PUSH20 0xFFFFFFFFFFFFFFFFFFFFFFFFFFFFFFFFFFFFFFFF AND PUSH32 0x9D278C56BA6DC86A12EEFE6B43112BD6E06648EB4EC0B950EE2D783D40E2ACB4 DUP6 DUP4 PUSH1 0x40 MLOAD PUSH2 0x83A SWAP3 SWAP2 SWAP1 PUSH2 0x14B9 JUMP JUMPDEST PUSH1 0x40 MLOAD DUP1 SWAP2 SUB SWAP1 LOG2 POP POP POP POP JUMP JUMPDEST PUSH1 0x3 PUSH0 SWAP1 SLOAD SWAP1 PUSH2 0x100 EXP SWAP1 DIV PUSH20 0xFFFFFFFFFFFFFFFFFFFFFFFFFFFFFFFFFFFFFFFF AND DUP2 JUMP JUMPDEST PUSH0 DUP1 PUSH0 DUP5 PUSH20 0xFFFFFFFFFFFFFFFFFFFFFFFFFFFFFFFFFFFFFFFF AND PUSH20 0xFFFFFFFFFFFFFFFFFFFFFFFFFFFFFFFFFFFFFFFF AND DUP2 MSTORE PUSH1 0x20 ADD SWAP1 DUP2 MSTORE PUSH1 0x20 ADD PUSH0 KECCAK256 PUSH0 ADD PUSH0 DUP4 PUSH20 0xFFFFFFFFFFFFFFFFFFFFFFFFFFFFFFFFFFFFFFFF AND PUSH20 0xFFFFFFFFFFFFFFFFFFFFFFFFFFFFFFFFFFFFFFFF AND DUP2 MSTORE PUSH1 0x20 ADD SWAP1 DUP2 MSTORE PUSH1 0x20 ADD PUSH0 KECCAK256 SLOAD SWAP1 POP SWAP3 SWAP2 POP POP JUMP JUMPDEST PUSH1 0x3 PUSH0 SWAP1 SLOAD SWAP1 PUSH2 0x100 EXP SWAP1 DIV PUSH20 0xFFFFFFFFFFFFFFFFFFFFFFFFFFFFFFFFFFFFFFFF AND PUSH20 0xFFFFFFFFFFFFFFFFFFFFFFFFFFFFFFFFFFFFFFFF AND CALLER PUSH20 0xFFFFFFFFFFFFFFFFFFFFFFFFFFFFFFFFFFFFFFFF AND EQ PUSH2 0x97F JUMPI PUSH1 0x40 MLOAD PUSH32 0x8C379A000000000000000000000000000000000000000000000000000000000 DUP2 MSTORE PUSH1 0x4 ADD PUSH2 0x976 SWAP1 PUSH2 0x1433 JUMP JUMPDEST PUSH1 0x40 MLOAD DUP1 SWAP2 SUB SWAP1 REVERT JUMPDEST PUSH2 0x988 DUP2 PUSH2 0xE3F JUMP JUMPDEST PUSH2 0x9C7 JUMPI PUSH1 0x40 MLOAD PUSH32 0x8C379A000000000000000000000000000000000000000000000000000000000 DUP2 MSTORE PUSH1 0x4 ADD PUSH2 0x9BE SWAP1 PUSH2 0x149B JUMP JUMPDEST PUSH1 0x40 MLOAD DUP1 SWAP2 SUB SWAP1 REVERT JUMPDEST PUSH0 JUMPDEST PUSH1 0x4 DUP1 SLOAD SWAP1 POP DUP2 LT ISZERO PUSH2 0xB40 JUMPI DUP2 PUSH20 0xFFFFFFFFFFFFFFFFFFFFFFFFFFFFFFFFFFFFFFFF AND PUSH1 0x4 DUP3 DUP2 SLOAD DUP2 LT PUSH2 0xA01 JUMPI PUSH2 0xA00 PUSH2 0x16E1 JUMP JUMPDEST JUMPDEST SWAP1 PUSH0 MSTORE PUSH1 0x20 PUSH0 KECCAK256 ADD PUSH0 SWAP1 SLOAD SWAP1 PUSH2 0x100 EXP SWAP1 DIV PUSH20 0xFFFFFFFFFFFFFFFFFFFFFFFFFFFFFFFFFFFFFFFF AND PUSH20 0xFFFFFFFFFFFFFFFFFFFFFFFFFFFFFFFFFFFFFFFF AND SUB PUSH2 0xB33 JUMPI PUSH1 0x4 PUSH1 0x1 PUSH1 0x4 DUP1 SLOAD SWAP1 POP PUSH2 0xA58 SWAP2 SWAP1 PUSH2 0x167B JUMP JUMPDEST DUP2 SLOAD DUP2 LT PUSH2 0xA69 JUMPI PUSH2 0xA68 PUSH2 0x16E1 JUMP JUMPDEST JUMPDEST SWAP1 PUSH0 MSTORE PUSH1 0x20 PUSH0 KECCAK256 ADD PUSH0 SWAP1 SLOAD SWAP1 PUSH2 0x100 EXP SWAP1 DIV PUSH20 0xFFFFFFFFFFFFFFFFFFFFFFFFFFFFFFFFFFFFFFFF AND PUSH1 0x4 DUP3 DUP2 SLOAD DUP2 LT PUSH2 0xAA5 JUMPI PUSH2 0xAA4 PUSH2 0x16E1 JUMP JUMPDEST JUMPDEST SWAP1 PUSH0 MSTORE PUSH1 0x20 PUSH0 KECCAK256 ADD PUSH0 PUSH2 0x100 EXP DUP2 SLOAD DUP2 PUSH20 0xFFFFFFFFFFFFFFFFFFFFFFFFFFFFFFFFFFFFFFFF MUL NOT AND SWAP1 DUP4 PUSH20 0xFFFFFFFFFFFFFFFFFFFFFFFFFFFFFFFFFFFFFFFF AND MUL OR SWAP1 SSTORE POP PUSH1 0x4 DUP1 SLOAD DUP1 PUSH2 0xAFC JUMPI PUSH2 0xAFB PUSH2 0x170E JUMP JUMPDEST JUMPDEST PUSH1 0x1 SWAP1 SUB DUP2 DUP2 SWAP1 PUSH0 MSTORE PUSH1 0x20 PUSH0 KECCAK256 ADD PUSH0 PUSH2 0x100 EXP DUP2 SLOAD SWAP1 PUSH20 0xFFFFFFFFFFFFFFFFFFFFFFFFFFFFFFFFFFFFFFFF MUL NOT AND SWAP1 SSTORE SWAP1 SSTORE PUSH2 0xB40 JUMP JUMPDEST DUP1 DUP1 PUSH1 0x1 ADD SWAP2 POP POP PUSH2 0x9C9 JUMP JUMPDEST POP PUSH1 0x2 PUSH0 DUP3 PUSH20 0xFFFFFFFFFFFFFFFFFFFFFFFFFFFFFFFFFFFFFFFF AND PUSH20 0xFFFFFFFFFFFFFFFFFFFFFFFFFFFFFFFFFFFFFFFF AND DUP2 MSTORE PUSH1 0x20 ADD SWAP1 DUP2 MSTORE PUSH1 0x20 ADD PUSH0 KECCAK256 PUSH0 SWAP1 SSTORE POP JUMP JUMPDEST PUSH1 0x5 SLOAD DUP2 JUMP JUMPDEST PUSH2 0xB93 DUP3 PUSH2 0xE3F JUMP JUMPDEST PUSH2 0xBD2 JUMPI PUSH1 0x40 MLOAD PUSH32 0x8C379A000000000000000000000000000000000000000000000000000000000 DUP2 MSTORE PUSH1 0x4 ADD PUSH2 0xBC9 SWAP1 PUSH2 0x149B JUMP JUMPDEST PUSH1 0x40 MLOAD DUP1 SWAP2 SUB SWAP1 REVERT JUMPDEST DUP1 PUSH0 DUP1 CALLER PUSH20 0xFFFFFFFFFFFFFFFFFFFFFFFFFFFFFFFFFFFFFFFF AND PUSH20 0xFFFFFFFFFFFFFFFFFFFFFFFFFFFFFFFFFFFFFFFF AND DUP2 MSTORE PUSH1 0x20 ADD SWAP1 DUP2 MSTORE PUSH1 0x20 ADD PUSH0 KECCAK256 PUSH0 ADD PUSH0 DUP5 PUSH20 0xFFFFFFFFFFFFFFFFFFFFFFFFFFFFFFFFFFFFFFFF AND PUSH20 0xFFFFFFFFFFFFFFFFFFFFFFFFFFFFFFFFFFFFFFFF AND DUP2 MSTORE PUSH1 0x20 ADD SWAP1 DUP2 MSTORE PUSH1 0x20 ADD PUSH0 KECCAK256 SLOAD LT ISZERO PUSH2 0xC8E JUMPI PUSH1 0x40 MLOAD PUSH32 0x8C379A000000000000000000000000000000000000000000000000000000000 DUP2 MSTORE PUSH1 0x4 ADD PUSH2 0xC85 SWAP1 PUSH2 0x1785 JUMP JUMPDEST PUSH1 0x40 MLOAD DUP1 SWAP2 SUB SWAP1 REVERT JUMPDEST DUP1 PUSH0 DUP1 CALLER PUSH20 0xFFFFFFFFFFFFFFFFFFFFFFFFFFFFFFFFFFFFFFFF AND PUSH20 0xFFFFFFFFFFFFFFFFFFFFFFFFFFFFFFFFFFFFFFFF AND DUP2 MSTORE PUSH1 0x20 ADD SWAP1 DUP2 MSTORE PUSH1 0x20 ADD PUSH0 KECCAK256 PUSH0 ADD PUSH0 DUP5 PUSH20 0xFFFFFFFFFFFFFFFFFFFFFFFFFFFFFFFFFFFFFFFF AND PUSH20 0xFFFFFFFFFFFFFFFFFFFFFFFFFFFFFFFFFFFFFFFF AND DUP2 MSTORE PUSH1 0x20 ADD SWAP1 DUP2 MSTORE PUSH1 0x20 ADD PUSH0 KECCAK256 PUSH0 DUP3 DUP3 SLOAD PUSH2 0xD16 SWAP2 SWAP1 PUSH2 0x167B JUMP JUMPDEST SWAP3 POP POP DUP2 SWAP1 SSTORE POP DUP1 PUSH1 0x1 PUSH0 DUP5 PUSH20 0xFFFFFFFFFFFFFFFFFFFFFFFFFFFFFFFFFFFFFFFF AND PUSH20 0xFFFFFFFFFFFFFFFFFFFFFFFFFFFFFFFFFFFFFFFF AND DUP2 MSTORE PUSH1 0x20 ADD SWAP1 DUP2 MSTORE PUSH1 0x20 ADD PUSH0 KECCAK256 PUSH0 DUP3 DUP3 SLOAD PUSH2 0xD69 SWAP2 SWAP1 PUSH2 0x167B JUMP JUMPDEST SWAP3 POP POP DUP2 SWAP1 SSTORE POP PUSH2 0xD9B CALLER DUP3 DUP5 PUSH20 0xFFFFFFFFFFFFFFFFFFFFFFFFFFFFFFFFFFFFFFFF AND PUSH2 0xF63 SWAP1 SWAP3 SWAP2 SWAP1 PUSH4 0xFFFFFFFF AND JUMP JUMPDEST CALLER PUSH20 0xFFFFFFFFFFFFFFFFFFFFFFFFFFFFFFFFFFFFFFFF AND PUSH32 0x983E86FDA8E7B1E2EAE380201830EAF1CAC55772E8E39583DA349865E8178863 DUP4 DUP4 PUSH1 0x40 MLOAD PUSH2 0xDE3 SWAP3 SWAP2 SWAP1 PUSH2 0x14B9 JUMP JUMPDEST PUSH1 0x40 MLOAD DUP1 SWAP2 SUB SWAP1 LOG2 POP POP JUMP JUMPDEST PUSH1 0x2 PUSH1 0x20 MSTORE DUP1 PUSH0 MSTORE PUSH1 0x40 PUSH0 KECCAK256 PUSH0 SWAP2 POP SWAP1 POP SLOAD DUP2 JUMP JUMPDEST PUSH1 0x4 DUP2 DUP2 SLOAD DUP2 LT PUSH2 0xE13 JUMPI PUSH0 DUP1 REVERT JUMPDEST SWAP1 PUSH0 MSTORE PUSH1 0x20 PUSH0 KECCAK256 ADD PUSH0 SWAP2 POP SLOAD SWAP1 PUSH2 0x100 EXP SWAP1 DIV PUSH20 0xFFFFFFFFFFFFFFFFFFFFFFFFFFFFFFFFFFFFFFFF AND DUP2 JUMP JUMPDEST PUSH0 DUP1 PUSH0 SWAP1 POP JUMPDEST PUSH1 0x4 DUP1 SLOAD SWAP1 POP DUP2 LT ISZERO PUSH2 0xED7 JUMPI DUP3 PUSH20 0xFFFFFFFFFFFFFFFFFFFFFFFFFFFFFFFFFFFFFFFF AND PUSH1 0x4 DUP3 DUP2 SLOAD DUP2 LT PUSH2 0xE7D JUMPI PUSH2 0xE7C PUSH2 0x16E1 JUMP JUMPDEST JUMPDEST SWAP1 PUSH0 MSTORE PUSH1 0x20 PUSH0 KECCAK256 ADD PUSH0 SWAP1 SLOAD SWAP1 PUSH2 0x100 EXP SWAP1 DIV PUSH20 0xFFFFFFFFFFFFFFFFFFFFFFFFFFFFFFFFFFFFFFFF AND PUSH20 0xFFFFFFFFFFFFFFFFFFFFFFFFFFFFFFFFFFFFFFFF AND SUB PUSH2 0xECA JUMPI PUSH1 0x1 SWAP2 POP POP PUSH2 0xEDC JUMP JUMPDEST DUP1 DUP1 PUSH1 0x1 ADD SWAP2 POP POP PUSH2 0xE45 JUMP JUMPDEST POP PUSH0 SWAP1 POP JUMPDEST SWAP2 SWAP1 POP JUMP JUMPDEST PUSH2 0xF5D DUP5 DUP6 PUSH20 0xFFFFFFFFFFFFFFFFFFFFFFFFFFFFFFFFFFFFFFFF AND PUSH4 0x23B872DD DUP7 DUP7 DUP7 PUSH1 0x40 MLOAD PUSH1 0x24 ADD PUSH2 0xF16 SWAP4 SWAP3 SWAP2 SWAP1 PUSH2 0x17A3 JUMP JUMPDEST PUSH1 0x40 MLOAD PUSH1 0x20 DUP2 DUP4 SUB SUB DUP2 MSTORE SWAP1 PUSH1 0x40 MSTORE SWAP2 POP PUSH1 0xE0 SHL PUSH1 0x20 DUP3 ADD DUP1 MLOAD PUSH28 0xFFFFFFFFFFFFFFFFFFFFFFFFFFFFFFFFFFFFFFFFFFFFFFFFFFFFFFFF DUP4 DUP2 DUP4 AND OR DUP4 MSTORE POP POP POP POP PUSH2 0xFE2 JUMP JUMPDEST POP POP POP POP JUMP JUMPDEST PUSH2 0xFDD DUP4 DUP5 PUSH20 0xFFFFFFFFFFFFFFFFFFFFFFFFFFFFFFFFFFFFFFFF AND PUSH4 0xA9059CBB DUP6 DUP6 PUSH1 0x40 MLOAD PUSH1 0x24 ADD PUSH2 0xF96 SWAP3 SWAP2 SWAP1 PUSH2 0x14B9 JUMP JUMPDEST PUSH1 0x40 MLOAD PUSH1 0x20 DUP2 DUP4 SUB SUB DUP2 MSTORE SWAP1 PUSH1 0x40 MSTORE SWAP2 POP PUSH1 0xE0 SHL PUSH1 0x20 DUP3 ADD DUP1 MLOAD PUSH28 0xFFFFFFFFFFFFFFFFFFFFFFFFFFFFFFFFFFFFFFFFFFFFFFFFFFFFFFFF DUP4 DUP2 DUP4 AND OR DUP4 MSTORE POP POP POP POP PUSH2 0xFE2 JUMP JUMPDEST POP POP POP JUMP JUMPDEST PUSH0 PUSH2 0x100C DUP3 DUP5 PUSH20 0xFFFFFFFFFFFFFFFFFFFFFFFFFFFFFFFFFFFFFFFF AND PUSH2 0x1077 SWAP1 SWAP2 SWAP1 PUSH4 0xFFFFFFFF AND JUMP JUMPDEST SWAP1 POP PUSH0 DUP2 MLOAD EQ ISZERO DUP1 ISZERO PUSH2 0x1030 JUMPI POP DUP1 DUP1 PUSH1 0x20 ADD SWAP1 MLOAD DUP2 ADD SWAP1 PUSH2 0x102E SWAP2 SWAP1 PUSH2 0x180D JUMP JUMPDEST ISZERO JUMPDEST ISZERO PUSH2 0x1072 JUMPI DUP3 PUSH1 0x40 MLOAD PUSH32 0x5274AFE700000000000000000000000000000000000000000000000000000000 DUP2 MSTORE PUSH1 0x4 ADD PUSH2 0x1069 SWAP2 SWAP1 PUSH2 0x1382 JUMP JUMPDEST PUSH1 0x40 MLOAD DUP1 SWAP2 SUB SWAP1 REVERT JUMPDEST POP POP POP JUMP JUMPDEST PUSH1 0x60 PUSH2 0x1084 DUP4 DUP4 PUSH0 PUSH2 0x108C JUMP JUMPDEST SWAP1 POP SWAP3 SWAP2 POP POP JUMP JUMPDEST PUSH1 0x60 DUP2 SELFBALANCE LT ISZERO PUSH2 0x10D3 JUMPI ADDRESS PUSH1 0x40 MLOAD PUSH32 0xCD78605900000000000000000000000000000000000000000000000000000000 DUP2 MSTORE PUSH1 0x4 ADD PUSH2 0x10CA SWAP2 SWAP1 PUSH2 0x1382 JUMP JUMPDEST PUSH1 0x40 MLOAD DUP1 SWAP2 SUB SWAP1 REVERT JUMPDEST PUSH0 DUP1 DUP6 PUSH20 0xFFFFFFFFFFFFFFFFFFFFFFFFFFFFFFFFFFFFFFFF AND DUP5 DUP7 PUSH1 0x40 MLOAD PUSH2 0x10FB SWAP2 SWAP1 PUSH2 0x188A JUMP JUMPDEST PUSH0 PUSH1 0x40 MLOAD DUP1 DUP4 SUB DUP2 DUP6 DUP8 GAS CALL SWAP3 POP POP POP RETURNDATASIZE DUP1 PUSH0 DUP2 EQ PUSH2 0x1135 JUMPI PUSH1 0x40 MLOAD SWAP2 POP PUSH1 0x1F NOT PUSH1 0x3F RETURNDATASIZE ADD AND DUP3 ADD PUSH1 0x40 MSTORE RETURNDATASIZE DUP3 MSTORE RETURNDATASIZE PUSH0 PUSH1 0x20 DUP5 ADD RETURNDATACOPY PUSH2 0x113A JUMP JUMPDEST PUSH1 0x60 SWAP2 POP JUMPDEST POP SWAP2 POP SWAP2 POP PUSH2 0x114A DUP7 DUP4 DUP4 PUSH2 0x1155 JUMP JUMPDEST SWAP3 POP POP POP SWAP4 SWAP3 POP POP POP JUMP JUMPDEST PUSH1 0x60 DUP3 PUSH2 0x116A JUMPI PUSH2 0x1165 DUP3 PUSH2 0x11E2 JUMP JUMPDEST PUSH2 0x11DA JUMP JUMPDEST PUSH0 DUP3 MLOAD EQ DUP1 ISZERO PUSH2 0x1190 JUMPI POP PUSH0 DUP5 PUSH20 0xFFFFFFFFFFFFFFFFFFFFFFFFFFFFFFFFFFFFFFFF AND EXTCODESIZE EQ JUMPDEST ISZERO PUSH2 0x11D2 JUMPI DUP4 PUSH1 0x40 MLOAD PUSH32 0x9996B31500000000000000000000000000000000000000000000000000000000 DUP2 MSTORE PUSH1 0x4 ADD PUSH2 0x11C9 SWAP2 SWAP1 PUSH2 0x1382 JUMP JUMPDEST PUSH1 0x40 MLOAD DUP1 SWAP2 SUB SWAP1 REVERT JUMPDEST DUP2 SWAP1 POP PUSH2 0x11DB JUMP JUMPDEST JUMPDEST SWAP4 SWAP3 POP POP POP JUMP JUMPDEST PUSH0 DUP2 MLOAD GT ISZERO PUSH2 0x11F4 JUMPI DUP1 MLOAD DUP1 DUP3 PUSH1 0x20 ADD REVERT JUMPDEST PUSH1 0x40 MLOAD PUSH32 0x1425EA4200000000000000000000000000000000000000000000000000000000 DUP2 MSTORE PUSH1 0x4 ADD PUSH1 0x40 MLOAD DUP1 SWAP2 SUB SWAP1 REVERT JUMPDEST PUSH0 DUP1 REVERT JUMPDEST PUSH0 PUSH20 0xFFFFFFFFFFFFFFFFFFFFFFFFFFFFFFFFFFFFFFFF DUP3 AND SWAP1 POP SWAP2 SWAP1 POP JUMP JUMPDEST PUSH0 PUSH2 0x1253 DUP3 PUSH2 0x122A JUMP JUMPDEST SWAP1 POP SWAP2 SWAP1 POP JUMP JUMPDEST PUSH2 0x1263 DUP2 PUSH2 0x1249 JUMP JUMPDEST DUP2 EQ PUSH2 0x126D JUMPI PUSH0 DUP1 REVERT JUMPDEST POP JUMP JUMPDEST PUSH0 DUP2 CALLDATALOAD SWAP1 POP PUSH2 0x127E DUP2 PUSH2 0x125A JUMP JUMPDEST SWAP3 SWAP2 POP POP JUMP JUMPDEST PUSH0 DUP2 SWAP1 POP SWAP2 SWAP1 POP JUMP JUMPDEST PUSH2 0x1296 DUP2 PUSH2 0x1284 JUMP JUMPDEST DUP2 EQ PUSH2 0x12A0 JUMPI PUSH0 DUP1 REVERT JUMPDEST POP JUMP JUMPDEST PUSH0 DUP2 CALLDATALOAD SWAP1 POP PUSH2 0x12B1 DUP2 PUSH2 0x128D JUMP JUMPDEST SWAP3 SWAP2 POP POP JUMP JUMPDEST PUSH0 DUP1 PUSH1 0x40 DUP4 DUP6 SUB SLT ISZERO PUSH2 0x12CD JUMPI PUSH2 0x12CC PUSH2 0x1226 JUMP JUMPDEST JUMPDEST PUSH0 PUSH2 0x12DA DUP6 DUP3 DUP7 ADD PUSH2 0x1270 JUMP JUMPDEST SWAP3 POP POP PUSH1 0x20 PUSH2 0x12EB DUP6 DUP3 DUP7 ADD PUSH2 0x12A3 JUMP JUMPDEST SWAP2 POP POP SWAP3 POP SWAP3 SWAP1 POP JUMP JUMPDEST PUSH0 PUSH1 0x20 DUP3 DUP5 SUB SLT ISZERO PUSH2 0x130A JUMPI PUSH2 0x1309 PUSH2 0x1226 JUMP JUMPDEST JUMPDEST PUSH0 PUSH2 0x1317 DUP5 DUP3 DUP6 ADD PUSH2 0x1270 JUMP JUMPDEST SWAP2 POP POP SWAP3 SWAP2 POP POP JUMP JUMPDEST PUSH2 0x1329 DUP2 PUSH2 0x1284 JUMP JUMPDEST DUP3 MSTORE POP POP JUMP JUMPDEST PUSH0 PUSH1 0x20 DUP3 ADD SWAP1 POP PUSH2 0x1342 PUSH0 DUP4 ADD DUP5 PUSH2 0x1320 JUMP JUMPDEST SWAP3 SWAP2 POP POP JUMP JUMPDEST PUSH0 PUSH1 0x20 DUP3 DUP5 SUB SLT ISZERO PUSH2 0x135D JUMPI PUSH2 0x135C PUSH2 0x1226 JUMP JUMPDEST JUMPDEST PUSH0 PUSH2 0x136A DUP5 DUP3 DUP6 ADD PUSH2 0x12A3 JUMP JUMPDEST SWAP2 POP POP SWAP3 SWAP2 POP POP JUMP JUMPDEST PUSH2 0x137C DUP2 PUSH2 0x1249 JUMP JUMPDEST DUP3 MSTORE POP POP JUMP JUMPDEST PUSH0 PUSH1 0x20 DUP3 ADD SWAP1 POP PUSH2 0x1395 PUSH0 DUP4 ADD DUP5 PUSH2 0x1373 JUMP JUMPDEST SWAP3 SWAP2 POP POP JUMP JUMPDEST PUSH0 DUP1 PUSH1 0x40 DUP4 DUP6 SUB SLT ISZERO PUSH2 0x13B1 JUMPI PUSH2 0x13B0 PUSH2 0x1226 JUMP JUMPDEST JUMPDEST PUSH0 PUSH2 0x13BE DUP6 DUP3 DUP7 ADD PUSH2 0x1270 JUMP JUMPDEST SWAP3 POP POP PUSH1 0x20 PUSH2 0x13CF DUP6 DUP3 DUP7 ADD PUSH2 0x1270 JUMP JUMPDEST SWAP2 POP POP SWAP3 POP SWAP3 SWAP1 POP JUMP JUMPDEST PUSH0 DUP3 DUP3 MSTORE PUSH1 0x20 DUP3 ADD SWAP1 POP SWAP3 SWAP2 POP POP JUMP JUMPDEST PUSH32 0x4E6F7420617574686F72697A6564000000000000000000000000000000000000 PUSH0 DUP3 ADD MSTORE POP JUMP JUMPDEST PUSH0 PUSH2 0x141D PUSH1 0xE DUP4 PUSH2 0x13D9 JUMP JUMPDEST SWAP2 POP PUSH2 0x1428 DUP3 PUSH2 0x13E9 JUMP JUMPDEST PUSH1 0x20 DUP3 ADD SWAP1 POP SWAP2 SWAP1 POP JUMP JUMPDEST PUSH0 PUSH1 0x20 DUP3 ADD SWAP1 POP DUP2 DUP2 SUB PUSH0 DUP4 ADD MSTORE PUSH2 0x144A DUP2 PUSH2 0x1411 JUMP JUMPDEST SWAP1 POP SWAP2 SWAP1 POP JUMP JUMPDEST PUSH32 0x546F6B656E206E6F7420737570706F7274656400000000000000000000000000 PUSH0 DUP3 ADD MSTORE POP JUMP JUMPDEST PUSH0 PUSH2 0x1485 PUSH1 0x13 DUP4 PUSH2 0x13D9 JUMP JUMPDEST SWAP2 POP PUSH2 0x1490 DUP3 PUSH2 0x1451 JUMP JUMPDEST PUSH1 0x20 DUP3 ADD SWAP1 POP SWAP2 SWAP1 POP JUMP JUMPDEST PUSH0 PUSH1 0x20 DUP3 ADD SWAP1 POP DUP2 DUP2 SUB PUSH0 DUP4 ADD MSTORE PUSH2 0x14B2 DUP2 PUSH2 0x1479 JUMP JUMPDEST SWAP1 POP SWAP2 SWAP1 POP JUMP JUMPDEST PUSH0 PUSH1 0x40 DUP3 ADD SWAP1 POP PUSH2 0x14CC PUSH0 DUP4 ADD DUP6 PUSH2 0x1373 JUMP JUMPDEST PUSH2 0x14D9 PUSH1 0x20 DUP4 ADD DUP5 PUSH2 0x1320 JUMP JUMPDEST SWAP4 SWAP3 POP POP POP JUMP JUMPDEST PUSH32 0x46656520746F6F20686967680000000000000000000000000000000000000000 PUSH0 DUP3 ADD MSTORE POP JUMP JUMPDEST PUSH0 PUSH2 0x1514 PUSH1 0xC DUP4 PUSH2 0x13D9 JUMP JUMPDEST SWAP2 POP PUSH2 0x151F DUP3 PUSH2 0x14E0 JUMP JUMPDEST PUSH1 0x20 DUP3 ADD SWAP1 POP SWAP2 SWAP1 POP JUMP JUMPDEST PUSH0 PUSH1 0x20 DUP3 ADD SWAP1 POP DUP2 DUP2 SUB PUSH0 DUP4 ADD MSTORE PUSH2 0x1541 DUP2 PUSH2 0x1508 JUMP JUMPDEST SWAP1 POP SWAP2 SWAP1 POP JUMP JUMPDEST PUSH32 0x546F6B656E20616C726561647920737570706F72746564000000000000000000 PUSH0 DUP3 ADD MSTORE POP JUMP JUMPDEST PUSH0 PUSH2 0x157C PUSH1 0x17 DUP4 PUSH2 0x13D9 JUMP JUMPDEST SWAP2 POP PUSH2 0x1587 DUP3 PUSH2 0x1548 JUMP JUMPDEST PUSH1 0x20 DUP3 ADD SWAP1 POP SWAP2 SWAP1 POP JUMP JUMPDEST PUSH0 PUSH1 0x20 DUP3 ADD SWAP1 POP DUP2 DUP2 SUB PUSH0 DUP4 ADD MSTORE PUSH2 0x15A9 DUP2 PUSH2 0x1570 JUMP JUMPDEST SWAP1 POP SWAP2 SWAP1 POP JUMP JUMPDEST PUSH32 0x4E487B7100000000000000000000000000000000000000000000000000000000 PUSH0 MSTORE PUSH1 0x11 PUSH1 0x4 MSTORE PUSH1 0x24 PUSH0 REVERT JUMPDEST PUSH0 PUSH2 0x15E7 DUP3 PUSH2 0x1284 JUMP JUMPDEST SWAP2 POP PUSH2 0x15F2 DUP4 PUSH2 0x1284 JUMP JUMPDEST SWAP3 POP DUP3 DUP3 MUL PUSH2 0x1600 DUP2 PUSH2 0x1284 JUMP JUMPDEST SWAP2 POP DUP3 DUP3 DIV DUP5 EQ DUP4 ISZERO OR PUSH2 0x1617 JUMPI PUSH2 0x1616 PUSH2 0x15B0 JUMP JUMPDEST JUMPDEST POP SWAP3 SWAP2 POP POP JUMP JUMPDEST PUSH32 0x4E487B7100000000000000000000000000000000000000000000000000000000 PUSH0 MSTORE PUSH1 0x12 PUSH1 0x4 MSTORE PUSH1 0x24 PUSH0 REVERT JUMPDEST PUSH0 PUSH2 0x1655 DUP3 PUSH2 0x1284 JUMP JUMPDEST SWAP2 POP PUSH2 0x1660 DUP4 PUSH2 0x1284 JUMP JUMPDEST SWAP3 POP DUP3 PUSH2 0x1670 JUMPI PUSH2 0x166F PUSH2 0x161E JUMP JUMPDEST JUMPDEST DUP3 DUP3 DIV SWAP1 POP SWAP3 SWAP2 POP POP JUMP JUMPDEST PUSH0 PUSH2 0x1685 DUP3 PUSH2 0x1284 JUMP JUMPDEST SWAP2 POP PUSH2 0x1690 DUP4 PUSH2 0x1284 JUMP JUMPDEST SWAP3 POP DUP3 DUP3 SUB SWAP1 POP DUP2 DUP2 GT ISZERO PUSH2 0x16A8 JUMPI PUSH2 0x16A7 PUSH2 0x15B0 JUMP JUMPDEST JUMPDEST SWAP3 SWAP2 POP POP JUMP JUMPDEST PUSH0 PUSH2 0x16B8 DUP3 PUSH2 0x1284 JUMP JUMPDEST SWAP2 POP PUSH2 0x16C3 DUP4 PUSH2 0x1284 JUMP JUMPDEST SWAP3 POP DUP3 DUP3 ADD SWAP1 POP DUP1 DUP3 GT ISZERO PUSH2 0x16DB JUMPI PUSH2 0x16DA PUSH2 0x15B0 JUMP JUMPDEST JUMPDEST SWAP3 SWAP2 POP POP JUMP JUMPDEST PUSH32 0x4E487B7100000000000000000000000000000000000000000000000000000000 PUSH0 MSTORE PUSH1 0x32 PUSH1 0x4 MSTORE PUSH1 0x24 PUSH0 REVERT JUMPDEST PUSH32 0x4E487B7100000000000000000000000000000000000000000000000000000000 PUSH0 MSTORE PUSH1 0x31 PUSH1 0x4 MSTORE PUSH1 0x24 PUSH0 REVERT JUMPDEST PUSH32 0x496E73756666696369656E742062616C616E6365000000000000000000000000 PUSH0 DUP3 ADD MSTORE POP JUMP JUMPDEST PUSH0 PUSH2 0x176F PUSH1 0x14 DUP4 PUSH2 0x13D9 JUMP JUMPDEST SWAP2 POP PUSH2 0x177A DUP3 PUSH2 0x173B JUMP JUMPDEST PUSH1 0x20 DUP3 ADD SWAP1 POP SWAP2 SWAP1 POP JUMP JUMPDEST PUSH0 PUSH1 0x20 DUP3 ADD SWAP1 POP DUP2 DUP2 SUB PUSH0 DUP4 ADD MSTORE PUSH2 0x179C DUP2 PUSH2 0x1763 JUMP JUMPDEST SWAP1 POP SWAP2 SWAP1 POP JUMP JUMPDEST PUSH0 PUSH1 0x60 DUP3 ADD SWAP1 POP PUSH2 0x17B6 PUSH0 DUP4 ADD DUP7 PUSH2 0x1373 JUMP JUMPDEST PUSH2 0x17C3 PUSH1 0x20 DUP4 ADD DUP6 PUSH2 0x1373 JUMP JUMPDEST PUSH2 0x17D0 PUSH1 0x40 DUP4 ADD DUP5 PUSH2 0x1320 JUMP JUMPDEST SWAP5 SWAP4 POP POP POP POP JUMP JUMPDEST PUSH0 DUP2 ISZERO ISZERO SWAP1 POP SWAP2 SWAP1 POP JUMP JUMPDEST PUSH2 0x17EC DUP2 PUSH2 0x17D8 JUMP JUMPDEST DUP2 EQ PUSH2 0x17F6 JUMPI PUSH0 DUP1 REVERT JUMPDEST POP JUMP JUMPDEST PUSH0 DUP2 MLOAD SWAP1 POP PUSH2 0x1807 DUP2 PUSH2 0x17E3 JUMP JUMPDEST SWAP3 SWAP2 POP POP JUMP JUMPDEST PUSH0 PUSH1 0x20 DUP3 DUP5 SUB SLT ISZERO PUSH2 0x1822 JUMPI PUSH2 0x1821 PUSH2 0x1226 JUMP JUMPDEST JUMPDEST PUSH0 PUSH2 0x182F DUP5 DUP3 DUP6 ADD PUSH2 0x17F9 JUMP JUMPDEST SWAP2 POP POP SWAP3 SWAP2 POP POP JUMP JUMPDEST PUSH0 DUP2 MLOAD SWAP1 POP SWAP2 SWAP1 POP JUMP JUMPDEST PUSH0 DUP2 SWAP1 POP SWAP3 SWAP2 POP POP JUMP JUMPDEST DUP3 DUP2 DUP4 MCOPY PUSH0 DUP4 DUP4 ADD MSTORE POP POP POP JUMP JUMPDEST PUSH0 PUSH2 0x1864 DUP3 PUSH2 0x1838 JUMP JUMPDEST PUSH2 0x186E DUP2 DUP6 PUSH2 0x1842 JUMP JUMPDEST SWAP4 POP PUSH2 0x187E DUP2 DUP6 PUSH1 0x20 DUP7 ADD PUSH2 0x184C JUMP JUMPDEST DUP1 DUP5 ADD SWAP2 POP POP SWAP3 SWAP2 POP POP JUMP JUMPDEST PUSH0 PUSH2 0x1895 DUP3 DUP5 PUSH2 0x185A JUMP JUMPDEST SWAP2 POP DUP2 SWAP1 POP SWAP3 SWAP2 POP POP JUMP INVALID LOG2 PUSH5 0x6970667358 0x22 SLT KECCAK256 0xAB SUB 0xE5 PC DIV 0x27 0xC0 SWAP2 PUSH14 0xF5AA02A59A6CBA7BAAA8C91C7B0B 0xF9 0xCF PUSH29 0x982104688E0F64736F6C634300081A0033000000000000000000000000 "
				},
				"gasEstimates": {
					"creation": {
						"codeDepositCost": "1271600",
						"executionCost": "infinite",
						"totalCost": "infinite"
					},
					"external": {
						"addLiquidity(address,uint256)": "infinite",
						"addSupportedToken(address,uint256)": "infinite",
						"getUserBalance(address,address)": "infinite",
						"governance()": "2619",
						"liquidityFee()": "2469",
						"removeLiquidity(address,uint256)": "infinite",
						"removeSupportedToken(address)": "infinite",
						"setLiquidityFee(uint256)": "24755",
						"supportedTokens(uint256)": "5054",
						"tokenWeights(address)": "2890",
						"totalPoolLiquidity(address)": "2825",
						"updateTokenWeight(address,uint256)": "infinite"
					},
					"internal": {
						"isSupportedToken(address)": "infinite"
					}
				},
				"methodIdentifiers": {
					"addLiquidity(address,uint256)": "56688700",
					"addSupportedToken(address,uint256)": "4d8e3d3b",
					"getUserBalance(address,address)": "6805d6ad",
					"governance()": "5aa6e675",
					"liquidityFee()": "98118cb4",
					"removeLiquidity(address,uint256)": "a201ccf6",
					"removeSupportedToken(address)": "76319190",
					"setLiquidityFee(uint256)": "357bf15c",
					"supportedTokens(uint256)": "c6255626",
					"tokenWeights(address)": "ab2f3ad4",
					"totalPoolLiquidity(address)": "3053f0b2",
					"updateTokenWeight(address,uint256)": "21faf184"
				}
			},
			"storageLayout": {
				"storage": [
					{
						"astId": 674,
						"contract": "src/OpenDexV2.sol:MultiTokenPool",
						"label": "liquidityProviders",
						"offset": 0,
						"slot": "0",
						"type": "t_mapping(t_address,t_struct(LiquidityProvider)669_storage)"
					},
					{
						"astId": 678,
						"contract": "src/OpenDexV2.sol:MultiTokenPool",
						"label": "totalPoolLiquidity",
						"offset": 0,
						"slot": "1",
						"type": "t_mapping(t_address,t_uint256)"
					},
					{
						"astId": 682,
						"contract": "src/OpenDexV2.sol:MultiTokenPool",
						"label": "tokenWeights",
						"offset": 0,
						"slot": "2",
						"type": "t_mapping(t_address,t_uint256)"
					},
					{
						"astId": 684,
						"contract": "src/OpenDexV2.sol:MultiTokenPool",
						"label": "governance",
						"offset": 0,
						"slot": "3",
						"type": "t_address"
					},
					{
						"astId": 687,
						"contract": "src/OpenDexV2.sol:MultiTokenPool",
						"label": "supportedTokens",
						"offset": 0,
						"slot": "4",
						"type": "t_array(t_address)dyn_storage"
					},
					{
						"astId": 690,
						"contract": "src/OpenDexV2.sol:MultiTokenPool",
						"label": "liquidityFee",
						"offset": 0,
						"slot": "5",
						"type": "t_uint256"
					}
				],
				"types": {
					"t_address": {
						"encoding": "inplace",
						"label": "address",
						"numberOfBytes": "20"
					},
					"t_array(t_address)dyn_storage": {
						"base": "t_address",
						"encoding": "dynamic_array",
						"label": "address[]",
						"numberOfBytes": "32"
					},
					"t_mapping(t_address,t_struct(LiquidityProvider)669_storage)": {
						"encoding": "mapping",
						"key": "t_address",
						"label": "mapping(address => struct MultiTokenPool.LiquidityProvider)",
						"numberOfBytes": "32",
						"value": "t_struct(LiquidityProvider)669_storage"
					},
					"t_mapping(t_address,t_uint256)": {
						"encoding": "mapping",
						"key": "t_address",
						"label": "mapping(address => uint256)",
						"numberOfBytes": "32",
						"value": "t_uint256"
					},
					"t_struct(LiquidityProvider)669_storage": {
						"encoding": "inplace",
						"label": "struct MultiTokenPool.LiquidityProvider",
						"members": [
							{
								"astId": 668,
								"contract": "src/OpenDexV2.sol:MultiTokenPool",
								"label": "tokenBalances",
								"offset": 0,
								"slot": "0",
								"type": "t_mapping(t_address,t_uint256)"
							}
						],
						"numberOfBytes": "32"
					},
					"t_uint256": {
						"encoding": "inplace",
						"label": "uint256",
						"numberOfBytes": "32"
					}
				}
			},
			"userdoc": {
				"kind": "user",
				"methods": {},
				"version": 1
			}
		}
	}
}