{
	"data": {
		"bytecode": {
			"linkReferences": {},
			"object": "6080604052348015600e575f80fd5b5061079a8061001c5f395ff3fe608060405234801561000f575f80fd5b5060043610610029575f3560e01c8063e0232b421461002d575b5f80fd5b61004760048036038101906100429190610425565b610049565b005b5f8473ffffffffffffffffffffffffffffffffffffffff166370a08231306040518263ffffffff1660e01b815260040161008391906104a5565b602060405180830381865afa15801561009e573d5f803e3d5ffd5b505050506040513d601f19601f820116820180604052508101906100c291906104d2565b905083811015610107576040517f08c379a00000000000000000000000000000000000000000000000000000000081526004016100fe90610557565b60405180910390fd5b8473ffffffffffffffffffffffffffffffffffffffff1663a9059cbb33866040518363ffffffff1660e01b8152600401610142929190610584565b6020604051808303815f875af115801561015e573d5f803e3d5ffd5b505050506040513d601f19601f8201168201806040525081019061018291906105e0565b505f3373ffffffffffffffffffffffffffffffffffffffff1684846040516101ab929190610647565b5f604051808303815f865af19150503d805f81146101e4576040519150601f19603f3d011682016040523d82523d5f602084013e6101e9565b606091505b505090508061022d576040517f08c379a0000000000000000000000000000000000000000000000000000000008152600401610224906106a9565b60405180910390fd5b5f8673ffffffffffffffffffffffffffffffffffffffff166370a08231306040518263ffffffff1660e01b815260040161026791906104a5565b602060405180830381865afa158015610282573d5f803e3d5ffd5b505050506040513d601f19601f820116820180604052508101906102a691906104d2565b9050828110156102eb576040517f08c379a00000000000000000000000000000000000000000000000000000000081526004016102e290610711565b60405180910390fd5b7f04e179950449bd79da9af29fc13c0eb43e00040cf8888a5b8a2fd86c780521dc33878960405161031e9392919061072f565b60405180910390a150505050505050565b5f80fd5b5f80fd5b5f73ffffffffffffffffffffffffffffffffffffffff82169050919050565b5f61036082610337565b9050919050565b61037081610356565b811461037a575f80fd5b50565b5f8135905061038b81610367565b92915050565b5f819050919050565b6103a381610391565b81146103ad575f80fd5b50565b5f813590506103be8161039a565b92915050565b5f80fd5b5f80fd5b5f80fd5b5f8083601f8401126103e5576103e46103c4565b5b8235905067ffffffffffffffff811115610402576104016103c8565b5b60208301915083600182028301111561041e5761041d6103cc565b5b9250929050565b5f805f806060858703121561043d5761043c61032f565b5b5f61044a8782880161037d565b945050602061045b878288016103b0565b935050604085013567ffffffffffffffff81111561047c5761047b610333565b5b610488878288016103d0565b925092505092959194509250565b61049f81610356565b82525050565b5f6020820190506104b85f830184610496565b92915050565b5f815190506104cc8161039a565b92915050565b5f602082840312156104e7576104e661032f565b5b5f6104f4848285016104be565b91505092915050565b5f82825260208201905092915050565b7f4e6f7420656e6f756768206c69717569646974790000000000000000000000005f82015250565b5f6105416014836104fd565b915061054c8261050d565b602082019050919050565b5f6020820190508181035f83015261056e81610535565b9050919050565b61057e81610391565b82525050565b5f6040820190506105975f830185610496565b6105a46020830184610575565b9392505050565b5f8115159050919050565b6105bf816105ab565b81146105c9575f80fd5b50565b5f815190506105da816105b6565b92915050565b5f602082840312156105f5576105f461032f565b5b5f610602848285016105cc565b91505092915050565b5f81905092915050565b828183375f83830152505050565b5f61062e838561060b565b935061063b838584610615565b82840190509392505050565b5f610653828486610623565b91508190509392505050565b7f4c6f616e20657865637574696f6e206661696c656400000000000000000000005f82015250565b5f6106936015836104fd565b915061069e8261065f565b602082019050919050565b5f6020820190508181035f8301526106c081610687565b9050919050565b7f4c6f616e206e6f742072657061696400000000000000000000000000000000005f82015250565b5f6106fb600f836104fd565b9150610706826106c7565b602082019050919050565b5f6020820190508181035f830152610728816106ef565b9050919050565b5f6060820190506107425f830186610496565b61074f6020830185610575565b61075c6040830184610496565b94935050505056fea2646970667358221220229b661ddd5f03b843c29780573d3ac96ab1e49bf928c71031965908dc64249464736f6c634300081a0033",
			"opcodes": "PUSH1 0x80 PUSH1 0x40 MSTORE CALLVALUE DUP1 ISZERO PUSH1 0xE JUMPI PUSH0 DUP1 REVERT JUMPDEST POP PUSH2 0x79A DUP1 PUSH2 0x1C PUSH0 CODECOPY PUSH0 RETURN INVALID PUSH1 0x80 PUSH1 0x40 MSTORE CALLVALUE DUP1 ISZERO PUSH2 0xF JUMPI PUSH0 DUP1 REVERT JUMPDEST POP PUSH1 0x4 CALLDATASIZE LT PUSH2 0x29 JUMPI PUSH0 CALLDATALOAD PUSH1 0xE0 SHR DUP1 PUSH4 0xE0232B42 EQ PUSH2 0x2D JUMPI JUMPDEST PUSH0 DUP1 REVERT JUMPDEST PUSH2 0x47 PUSH1 0x4 DUP1 CALLDATASIZE SUB DUP2 ADD SWAP1 PUSH2 0x42 SWAP2 SWAP1 PUSH2 0x425 JUMP JUMPDEST PUSH2 0x49 JUMP JUMPDEST STOP JUMPDEST PUSH0 DUP5 PUSH20 0xFFFFFFFFFFFFFFFFFFFFFFFFFFFFFFFFFFFFFFFF AND PUSH4 0x70A08231 ADDRESS PUSH1 0x40 MLOAD DUP3 PUSH4 0xFFFFFFFF AND PUSH1 0xE0 SHL DUP2 MSTORE PUSH1 0x4 ADD PUSH2 0x83 SWAP2 SWAP1 PUSH2 0x4A5 JUMP JUMPDEST PUSH1 0x20 PUSH1 0x40 MLOAD DUP1 DUP4 SUB DUP2 DUP7 GAS STATICCALL ISZERO DUP1 ISZERO PUSH2 0x9E JUMPI RETURNDATASIZE PUSH0 DUP1 RETURNDATACOPY RETURNDATASIZE PUSH0 REVERT JUMPDEST POP POP POP POP PUSH1 0x40 MLOAD RETURNDATASIZE PUSH1 0x1F NOT PUSH1 0x1F DUP3 ADD AND DUP3 ADD DUP1 PUSH1 0x40 MSTORE POP DUP2 ADD SWAP1 PUSH2 0xC2 SWAP2 SWAP1 PUSH2 0x4D2 JUMP JUMPDEST SWAP1 POP DUP4 DUP2 LT ISZERO PUSH2 0x107 JUMPI PUSH1 0x40 MLOAD PUSH32 0x8C379A000000000000000000000000000000000000000000000000000000000 DUP2 MSTORE PUSH1 0x4 ADD PUSH2 0xFE SWAP1 PUSH2 0x557 JUMP JUMPDEST PUSH1 0x40 MLOAD DUP1 SWAP2 SUB SWAP1 REVERT JUMPDEST DUP5 PUSH20 0xFFFFFFFFFFFFFFFFFFFFFFFFFFFFFFFFFFFFFFFF AND PUSH4 0xA9059CBB CALLER DUP7 PUSH1 0x40 MLOAD DUP4 PUSH4 0xFFFFFFFF AND PUSH1 0xE0 SHL DUP2 MSTORE PUSH1 0x4 ADD PUSH2 0x142 SWAP3 SWAP2 SWAP1 PUSH2 0x584 JUMP JUMPDEST PUSH1 0x20 PUSH1 0x40 MLOAD DUP1 DUP4 SUB DUP2 PUSH0 DUP8 GAS CALL ISZERO DUP1 ISZERO PUSH2 0x15E JUMPI RETURNDATASIZE PUSH0 DUP1 RETURNDATACOPY RETURNDATASIZE PUSH0 REVERT JUMPDEST POP POP POP POP PUSH1 0x40 MLOAD RETURNDATASIZE PUSH1 0x1F NOT PUSH1 0x1F DUP3 ADD AND DUP3 ADD DUP1 PUSH1 0x40 MSTORE POP DUP2 ADD SWAP1 PUSH2 0x182 SWAP2 SWAP1 PUSH2 0x5E0 JUMP JUMPDEST POP PUSH0 CALLER PUSH20 0xFFFFFFFFFFFFFFFFFFFFFFFFFFFFFFFFFFFFFFFF AND DUP5 DUP5 PUSH1 0x40 MLOAD PUSH2 0x1AB SWAP3 SWAP2 SWAP1 PUSH2 0x647 JUMP JUMPDEST PUSH0 PUSH1 0x40 MLOAD DUP1 DUP4 SUB DUP2 PUSH0 DUP7 GAS CALL SWAP2 POP POP RETURNDATASIZE DUP1 PUSH0 DUP2 EQ PUSH2 0x1E4 JUMPI PUSH1 0x40 MLOAD SWAP2 POP PUSH1 0x1F NOT PUSH1 0x3F RETURNDATASIZE ADD AND DUP3 ADD PUSH1 0x40 MSTORE RETURNDATASIZE DUP3 MSTORE RETURNDATASIZE PUSH0 PUSH1 0x20 DUP5 ADD RETURNDATACOPY PUSH2 0x1E9 JUMP JUMPDEST PUSH1 0x60 SWAP2 POP JUMPDEST POP POP SWAP1 POP DUP1 PUSH2 0x22D JUMPI PUSH1 0x40 MLOAD PUSH32 0x8C379A000000000000000000000000000000000000000000000000000000000 DUP2 MSTORE PUSH1 0x4 ADD PUSH2 0x224 SWAP1 PUSH2 0x6A9 JUMP JUMPDEST PUSH1 0x40 MLOAD DUP1 SWAP2 SUB SWAP1 REVERT JUMPDEST PUSH0 DUP7 PUSH20 0xFFFFFFFFFFFFFFFFFFFFFFFFFFFFFFFFFFFFFFFF AND PUSH4 0x70A08231 ADDRESS PUSH1 0x40 MLOAD DUP3 PUSH4 0xFFFFFFFF AND PUSH1 0xE0 SHL DUP2 MSTORE PUSH1 0x4 ADD PUSH2 0x267 SWAP2 SWAP1 PUSH2 0x4A5 JUMP JUMPDEST PUSH1 0x20 PUSH1 0x40 MLOAD DUP1 DUP4 SUB DUP2 DUP7 GAS STATICCALL ISZERO DUP1 ISZERO PUSH2 0x282 JUMPI RETURNDATASIZE PUSH0 DUP1 RETURNDATACOPY RETURNDATASIZE PUSH0 REVERT JUMPDEST POP POP POP POP PUSH1 0x40 MLOAD RETURNDATASIZE PUSH1 0x1F NOT PUSH1 0x1F DUP3 ADD AND DUP3 ADD DUP1 PUSH1 0x40 MSTORE POP DUP2 ADD SWAP1 PUSH2 0x2A6 SWAP2 SWAP1 PUSH2 0x4D2 JUMP JUMPDEST SWAP1 POP DUP3 DUP2 LT ISZERO PUSH2 0x2EB JUMPI PUSH1 0x40 MLOAD PUSH32 0x8C379A000000000000000000000000000000000000000000000000000000000 DUP2 MSTORE PUSH1 0x4 ADD PUSH2 0x2E2 SWAP1 PUSH2 0x711 JUMP JUMPDEST PUSH1 0x40 MLOAD DUP1 SWAP2 SUB SWAP1 REVERT JUMPDEST PUSH32 0x4E179950449BD79DA9AF29FC13C0EB43E00040CF8888A5B8A2FD86C780521DC CALLER DUP8 DUP10 PUSH1 0x40 MLOAD PUSH2 0x31E SWAP4 SWAP3 SWAP2 SWAP1 PUSH2 0x72F JUMP JUMPDEST PUSH1 0x40 MLOAD DUP1 SWAP2 SUB SWAP1 LOG1 POP POP POP POP POP POP POP JUMP JUMPDEST PUSH0 DUP1 REVERT JUMPDEST PUSH0 DUP1 REVERT JUMPDEST PUSH0 PUSH20 0xFFFFFFFFFFFFFFFFFFFFFFFFFFFFFFFFFFFFFFFF DUP3 AND SWAP1 POP SWAP2 SWAP1 POP JUMP JUMPDEST PUSH0 PUSH2 0x360 DUP3 PUSH2 0x337 JUMP JUMPDEST SWAP1 POP SWAP2 SWAP1 POP JUMP JUMPDEST PUSH2 0x370 DUP2 PUSH2 0x356 JUMP JUMPDEST DUP2 EQ PUSH2 0x37A JUMPI PUSH0 DUP1 REVERT JUMPDEST POP JUMP JUMPDEST PUSH0 DUP2 CALLDATALOAD SWAP1 POP PUSH2 0x38B DUP2 PUSH2 0x367 JUMP JUMPDEST SWAP3 SWAP2 POP POP JUMP JUMPDEST PUSH0 DUP2 SWAP1 POP SWAP2 SWAP1 POP JUMP JUMPDEST PUSH2 0x3A3 DUP2 PUSH2 0x391 JUMP JUMPDEST DUP2 EQ PUSH2 0x3AD JUMPI PUSH0 DUP1 REVERT JUMPDEST POP JUMP JUMPDEST PUSH0 DUP2 CALLDATALOAD SWAP1 POP PUSH2 0x3BE DUP2 PUSH2 0x39A JUMP JUMPDEST SWAP3 SWAP2 POP POP JUMP JUMPDEST PUSH0 DUP1 REVERT JUMPDEST PUSH0 DUP1 REVERT JUMPDEST PUSH0 DUP1 REVERT JUMPDEST PUSH0 DUP1 DUP4 PUSH1 0x1F DUP5 ADD SLT PUSH2 0x3E5 JUMPI PUSH2 0x3E4 PUSH2 0x3C4 JUMP JUMPDEST JUMPDEST DUP3 CALLDATALOAD SWAP1 POP PUSH8 0xFFFFFFFFFFFFFFFF DUP2 GT ISZERO PUSH2 0x402 JUMPI PUSH2 0x401 PUSH2 0x3C8 JUMP JUMPDEST JUMPDEST PUSH1 0x20 DUP4 ADD SWAP2 POP DUP4 PUSH1 0x1 DUP3 MUL DUP4 ADD GT ISZERO PUSH2 0x41E JUMPI PUSH2 0x41D PUSH2 0x3CC JUMP JUMPDEST JUMPDEST SWAP3 POP SWAP3 SWAP1 POP JUMP JUMPDEST PUSH0 DUP1 PUSH0 DUP1 PUSH1 0x60 DUP6 DUP8 SUB SLT ISZERO PUSH2 0x43D JUMPI PUSH2 0x43C PUSH2 0x32F JUMP JUMPDEST JUMPDEST PUSH0 PUSH2 0x44A DUP8 DUP3 DUP9 ADD PUSH2 0x37D JUMP JUMPDEST SWAP5 POP POP PUSH1 0x20 PUSH2 0x45B DUP8 DUP3 DUP9 ADD PUSH2 0x3B0 JUMP JUMPDEST SWAP4 POP POP PUSH1 0x40 DUP6 ADD CALLDATALOAD PUSH8 0xFFFFFFFFFFFFFFFF DUP2 GT ISZERO PUSH2 0x47C JUMPI PUSH2 0x47B PUSH2 0x333 JUMP JUMPDEST JUMPDEST PUSH2 0x488 DUP8 DUP3 DUP9 ADD PUSH2 0x3D0 JUMP JUMPDEST SWAP3 POP SWAP3 POP POP SWAP3 SWAP6 SWAP2 SWAP5 POP SWAP3 POP JUMP JUMPDEST PUSH2 0x49F DUP2 PUSH2 0x356 JUMP JUMPDEST DUP3 MSTORE POP POP JUMP JUMPDEST PUSH0 PUSH1 0x20 DUP3 ADD SWAP1 POP PUSH2 0x4B8 PUSH0 DUP4 ADD DUP5 PUSH2 0x496 JUMP JUMPDEST SWAP3 SWAP2 POP POP JUMP JUMPDEST PUSH0 DUP2 MLOAD SWAP1 POP PUSH2 0x4CC DUP2 PUSH2 0x39A JUMP JUMPDEST SWAP3 SWAP2 POP POP JUMP JUMPDEST PUSH0 PUSH1 0x20 DUP3 DUP5 SUB SLT ISZERO PUSH2 0x4E7 JUMPI PUSH2 0x4E6 PUSH2 0x32F JUMP JUMPDEST JUMPDEST PUSH0 PUSH2 0x4F4 DUP5 DUP3 DUP6 ADD PUSH2 0x4BE JUMP JUMPDEST SWAP2 POP POP SWAP3 SWAP2 POP POP JUMP JUMPDEST PUSH0 DUP3 DUP3 MSTORE PUSH1 0x20 DUP3 ADD SWAP1 POP SWAP3 SWAP2 POP POP JUMP JUMPDEST PUSH32 0x4E6F7420656E6F756768206C6971756964697479000000000000000000000000 PUSH0 DUP3 ADD MSTORE POP JUMP JUMPDEST PUSH0 PUSH2 0x541 PUSH1 0x14 DUP4 PUSH2 0x4FD JUMP JUMPDEST SWAP2 POP PUSH2 0x54C DUP3 PUSH2 0x50D JUMP JUMPDEST PUSH1 0x20 DUP3 ADD SWAP1 POP SWAP2 SWAP1 POP JUMP JUMPDEST PUSH0 PUSH1 0x20 DUP3 ADD SWAP1 POP DUP2 DUP2 SUB PUSH0 DUP4 ADD MSTORE PUSH2 0x56E DUP2 PUSH2 0x535 JUMP JUMPDEST SWAP1 POP SWAP2 SWAP1 POP JUMP JUMPDEST PUSH2 0x57E DUP2 PUSH2 0x391 JUMP JUMPDEST DUP3 MSTORE POP POP JUMP JUMPDEST PUSH0 PUSH1 0x40 DUP3 ADD SWAP1 POP PUSH2 0x597 PUSH0 DUP4 ADD DUP6 PUSH2 0x496 JUMP JUMPDEST PUSH2 0x5A4 PUSH1 0x20 DUP4 ADD DUP5 PUSH2 0x575 JUMP JUMPDEST SWAP4 SWAP3 POP POP POP JUMP JUMPDEST PUSH0 DUP2 ISZERO ISZERO SWAP1 POP SWAP2 SWAP1 POP JUMP JUMPDEST PUSH2 0x5BF DUP2 PUSH2 0x5AB JUMP JUMPDEST DUP2 EQ PUSH2 0x5C9 JUMPI PUSH0 DUP1 REVERT JUMPDEST POP JUMP JUMPDEST PUSH0 DUP2 MLOAD SWAP1 POP PUSH2 0x5DA DUP2 PUSH2 0x5B6 JUMP JUMPDEST SWAP3 SWAP2 POP POP JUMP JUMPDEST PUSH0 PUSH1 0x20 DUP3 DUP5 SUB SLT ISZERO PUSH2 0x5F5 JUMPI PUSH2 0x5F4 PUSH2 0x32F JUMP JUMPDEST JUMPDEST PUSH0 PUSH2 0x602 DUP5 DUP3 DUP6 ADD PUSH2 0x5CC JUMP JUMPDEST SWAP2 POP POP SWAP3 SWAP2 POP POP JUMP JUMPDEST PUSH0 DUP2 SWAP1 POP SWAP3 SWAP2 POP POP JUMP JUMPDEST DUP3 DUP2 DUP4 CALLDATACOPY PUSH0 DUP4 DUP4 ADD MSTORE POP POP POP JUMP JUMPDEST PUSH0 PUSH2 0x62E DUP4 DUP6 PUSH2 0x60B JUMP JUMPDEST SWAP4 POP PUSH2 0x63B DUP4 DUP6 DUP5 PUSH2 0x615 JUMP JUMPDEST DUP3 DUP5 ADD SWAP1 POP SWAP4 SWAP3 POP POP POP JUMP JUMPDEST PUSH0 PUSH2 0x653 DUP3 DUP5 DUP7 PUSH2 0x623 JUMP JUMPDEST SWAP2 POP DUP2 SWAP1 POP SWAP4 SWAP3 POP POP POP JUMP JUMPDEST PUSH32 0x4C6F616E20657865637574696F6E206661696C65640000000000000000000000 PUSH0 DUP3 ADD MSTORE POP JUMP JUMPDEST PUSH0 PUSH2 0x693 PUSH1 0x15 DUP4 PUSH2 0x4FD JUMP JUMPDEST SWAP2 POP PUSH2 0x69E DUP3 PUSH2 0x65F JUMP JUMPDEST PUSH1 0x20 DUP3 ADD SWAP1 POP SWAP2 SWAP1 POP JUMP JUMPDEST PUSH0 PUSH1 0x20 DUP3 ADD SWAP1 POP DUP2 DUP2 SUB PUSH0 DUP4 ADD MSTORE PUSH2 0x6C0 DUP2 PUSH2 0x687 JUMP JUMPDEST SWAP1 POP SWAP2 SWAP1 POP JUMP JUMPDEST PUSH32 0x4C6F616E206E6F74207265706169640000000000000000000000000000000000 PUSH0 DUP3 ADD MSTORE POP JUMP JUMPDEST PUSH0 PUSH2 0x6FB PUSH1 0xF DUP4 PUSH2 0x4FD JUMP JUMPDEST SWAP2 POP PUSH2 0x706 DUP3 PUSH2 0x6C7 JUMP JUMPDEST PUSH1 0x20 DUP3 ADD SWAP1 POP SWAP2 SWAP1 POP JUMP JUMPDEST PUSH0 PUSH1 0x20 DUP3 ADD SWAP1 POP DUP2 DUP2 SUB PUSH0 DUP4 ADD MSTORE PUSH2 0x728 DUP2 PUSH2 0x6EF JUMP JUMPDEST SWAP1 POP SWAP2 SWAP1 POP JUMP JUMPDEST PUSH0 PUSH1 0x60 DUP3 ADD SWAP1 POP PUSH2 0x742 PUSH0 DUP4 ADD DUP7 PUSH2 0x496 JUMP JUMPDEST PUSH2 0x74F PUSH1 0x20 DUP4 ADD DUP6 PUSH2 0x575 JUMP JUMPDEST PUSH2 0x75C PUSH1 0x40 DUP4 ADD DUP5 PUSH2 0x496 JUMP JUMPDEST SWAP5 SWAP4 POP POP POP POP JUMP INVALID LOG2 PUSH5 0x6970667358 0x22 SLT KECCAK256 0x22 SWAP12 PUSH7 0x1DDD5F03B843C2 SWAP8 DUP1 JUMPI RETURNDATASIZE GASPRICE 0xC9 PUSH11 0xB1E49BF928C71031965908 0xDC PUSH5 0x249464736F PUSH13 0x634300081A0033000000000000 "
		},
		"gasEstimates": {
			"creation": {
				"codeDepositCost": "389200",
				"executionCost": "422",
				"totalCost": "389622"
			},
			"external": {
				"flashLoan(address,uint256,bytes)": "infinite"
			}
		},
		"methodIdentifiers": {
			"flashLoan(address,uint256,bytes)": "e0232b42"
		}
	},
	"abi": [
		{
			"anonymous": false,
			"inputs": [
				{
					"indexed": false,
					"internalType": "address",
					"name": "borrower",
					"type": "address"
				},
				{
					"indexed": false,
					"internalType": "uint256",
					"name": "amount",
					"type": "uint256"
				},
				{
					"indexed": false,
					"internalType": "address",
					"name": "token",
					"type": "address"
				}
			],
			"name": "LoanTaken",
			"type": "event"
		},
		{
			"inputs": [
				{
					"internalType": "address",
					"name": "token",
					"type": "address"
				},
				{
					"internalType": "uint256",
					"name": "amount",
					"type": "uint256"
				},
				{
					"internalType": "bytes",
					"name": "data",
					"type": "bytes"
				}
			],
			"name": "flashLoan",
			"outputs": [],
			"stateMutability": "nonpayable",
			"type": "function"
		}
	]
}