{
	"data": {
		"bytecode": {
			"linkReferences": {},
			"object": "6080604052600a600555348015610014575f80fd5b50604051611ec8380380611ec8833981810160405281019061003691906104b8565b815183511461007a576040517f08c379a00000000000000000000000000000000000000000000000000000000081526004016100719061059a565b60405180910390fd5b8060035f6101000a81548173ffffffffffffffffffffffffffffffffffffffff021916908373ffffffffffffffffffffffffffffffffffffffff16021790555082600490805190602001906100d0929190610168565b505f5b835181101561015f578281815181106100ef576100ee6105b8565b5b602002602001015160025f86848151811061010d5761010c6105b8565b5b602002602001015173ffffffffffffffffffffffffffffffffffffffff1673ffffffffffffffffffffffffffffffffffffffff1681526020019081526020015f208190555080806001019150506100d3565b505050506105e5565b828054828255905f5260205f209081019282156101de579160200282015b828111156101dd578251825f6101000a81548173ffffffffffffffffffffffffffffffffffffffff021916908373ffffffffffffffffffffffffffffffffffffffff16021790555091602001919060010190610186565b5b5090506101eb91906101ef565b5090565b5b80821115610206575f815f9055506001016101f0565b5090565b5f604051905090565b5f80fd5b5f80fd5b5f80fd5b5f601f19601f8301169050919050565b7f4e487b71000000000000000000000000000000000000000000000000000000005f52604160045260245ffd5b6102658261021f565b810181811067ffffffffffffffff821117156102845761028361022f565b5b80604052505050565b5f61029661020a565b90506102a2828261025c565b919050565b5f67ffffffffffffffff8211156102c1576102c061022f565b5b602082029050602081019050919050565b5f80fd5b5f73ffffffffffffffffffffffffffffffffffffffff82169050919050565b5f6102ff826102d6565b9050919050565b61030f816102f5565b8114610319575f80fd5b50565b5f8151905061032a81610306565b92915050565b5f61034261033d846102a7565b61028d565b90508083825260208201905060208402830185811115610365576103646102d2565b5b835b8181101561038e578061037a888261031c565b845260208401935050602081019050610367565b5050509392505050565b5f82601f8301126103ac576103ab61021b565b5b81516103bc848260208601610330565b91505092915050565b5f67ffffffffffffffff8211156103df576103de61022f565b5b602082029050602081019050919050565b5f819050919050565b610402816103f0565b811461040c575f80fd5b50565b5f8151905061041d816103f9565b92915050565b5f610435610430846103c5565b61028d565b90508083825260208201905060208402830185811115610458576104576102d2565b5b835b81811015610481578061046d888261040f565b84526020840193505060208101905061045a565b5050509392505050565b5f82601f83011261049f5761049e61021b565b5b81516104af848260208601610423565b91505092915050565b5f805f606084860312156104cf576104ce610213565b5b5f84015167ffffffffffffffff8111156104ec576104eb610217565b5b6104f886828701610398565b935050602084015167ffffffffffffffff81111561051957610518610217565b5b6105258682870161048b565b92505060406105368682870161031c565b9150509250925092565b5f82825260208201905092915050565b7f546f6b656e20616e6420776569676874206d69736d61746368000000000000005f82015250565b5f610584601983610540565b915061058f82610550565b602082019050919050565b5f6020820190508181035f8301526105b181610578565b9050919050565b7f4e487b71000000000000000000000000000000000000000000000000000000005f52603260045260245ffd5b6118d6806105f25f395ff3fe608060405234801561000f575f80fd5b50600436106100b2575f3560e01c80636805d6ad1161006f5780636805d6ad1461017457806376319190146101a457806398118cb4146101c0578063a201ccf6146101de578063ab2f3ad4146101fa578063c62556261461022a576100b2565b806321faf184146100b65780633053f0b2146100d2578063357bf15c146101025780634d8e3d3b1461011e578063566887001461013a5780635aa6e67514610156575b5f80fd5b6100d060048036038101906100cb91906112b7565b61025a565b005b6100ec60048036038101906100e791906112f5565b6103b0565b6040516100f9919061132f565b60405180910390f35b61011c60048036038101906101179190611348565b6103c5565b005b610138600480360381019061013391906112b7565b6104a2565b005b610154600480360381019061014f91906112b7565b610620565b005b61015e610848565b60405161016b9190611382565b60405180910390f35b61018e6004803603810190610189919061139b565b61086d565b60405161019b919061132f565b60405180910390f35b6101be60048036038101906101b991906112f5565b6108f0565b005b6101c8610b84565b6040516101d5919061132f565b60405180910390f35b6101f860048036038101906101f391906112b7565b610b8a565b005b610214600480360381019061020f91906112f5565b610def565b604051610221919061132f565b60405180910390f35b610244600480360381019061023f9190611348565b610e04565b6040516102519190611382565b60405180910390f35b60035f9054906101000a900473ffffffffffffffffffffffffffffffffffffffff1673ffffffffffffffffffffffffffffffffffffffff163373ffffffffffffffffffffffffffffffffffffffff16146102e9576040517f08c379a00000000000000000000000000000000000000000000000000000000081526004016102e090611433565b60405180910390fd5b6102f282610e3f565b610331576040517f08c379a00000000000000000000000000000000000000000000000000000000081526004016103289061149b565b60405180910390fd5b8060025f8473ffffffffffffffffffffffffffffffffffffffff1673ffffffffffffffffffffffffffffffffffffffff1681526020019081526020015f20819055507fc9bf4277eb054fe4fa82ff2e3b468a6300f4bc73a13794b02287f6d8282c998c82826040516103a49291906114b9565b60405180910390a15050565b6001602052805f5260405f205f915090505481565b60035f9054906101000a900473ffffffffffffffffffffffffffffffffffffffff1673ffffffffffffffffffffffffffffffffffffffff163373ffffffffffffffffffffffffffffffffffffffff1614610454576040517f08c379a000000000000000000000000000000000000000000000000000000000815260040161044b90611433565b60405180910390fd5b6064811115610498576040517f08c379a000000000000000000000000000000000000000000000000000000000815260040161048f9061152a565b60405180910390fd5b8060058190555050565b60035f9054906101000a900473ffffffffffffffffffffffffffffffffffffffff1673ffffffffffffffffffffffffffffffffffffffff163373ffffffffffffffffffffffffffffffffffffffff1614610531576040517f08c379a000000000000000000000000000000000000000000000000000000000815260040161052890611433565b60405180910390fd5b61053a82610e3f565b1561057a576040517f08c379a000000000000000000000000000000000000000000000000000000000815260040161057190611592565b60405180910390fd5b600482908060018154018082558091505060019003905f5260205f20015f9091909190916101000a81548173ffffffffffffffffffffffffffffffffffffffff021916908373ffffffffffffffffffffffffffffffffffffffff1602179055508060025f8473ffffffffffffffffffffffffffffffffffffffff1673ffffffffffffffffffffffffffffffffffffffff1681526020019081526020015f20819055505050565b61062982610e3f565b610668576040517f08c379a000000000000000000000000000000000000000000000000000000000815260040161065f9061149b565b60405180910390fd5b5f6127106005548361067a91906115dd565b610684919061164b565b90505f8183610693919061167b565b90506106c23330838773ffffffffffffffffffffffffffffffffffffffff16610ee1909392919063ffffffff16565b6107103360035f9054906101000a900473ffffffffffffffffffffffffffffffffffffffff16848773ffffffffffffffffffffffffffffffffffffffff16610ee1909392919063ffffffff16565b805f803373ffffffffffffffffffffffffffffffffffffffff1673ffffffffffffffffffffffffffffffffffffffff1681526020019081526020015f205f015f8673ffffffffffffffffffffffffffffffffffffffff1673ffffffffffffffffffffffffffffffffffffffff1681526020019081526020015f205f82825461079891906116ae565b925050819055508060015f8673ffffffffffffffffffffffffffffffffffffffff1673ffffffffffffffffffffffffffffffffffffffff1681526020019081526020015f205f8282546107eb91906116ae565b925050819055503373ffffffffffffffffffffffffffffffffffffffff167f9d278c56ba6dc86a12eefe6b43112bd6e06648eb4ec0b950ee2d783d40e2acb4858360405161083a9291906114b9565b60405180910390a250505050565b60035f9054906101000a900473ffffffffffffffffffffffffffffffffffffffff1681565b5f805f8473ffffffffffffffffffffffffffffffffffffffff1673ffffffffffffffffffffffffffffffffffffffff1681526020019081526020015f205f015f8373ffffffffffffffffffffffffffffffffffffffff1673ffffffffffffffffffffffffffffffffffffffff1681526020019081526020015f2054905092915050565b60035f9054906101000a900473ffffffffffffffffffffffffffffffffffffffff1673ffffffffffffffffffffffffffffffffffffffff163373ffffffffffffffffffffffffffffffffffffffff161461097f576040517f08c379a000000000000000000000000000000000000000000000000000000000815260040161097690611433565b60405180910390fd5b61098881610e3f565b6109c7576040517f08c379a00000000000000000000000000000000000000000000000000000000081526004016109be9061149b565b60405180910390fd5b5f5b600480549050811015610b40578173ffffffffffffffffffffffffffffffffffffffff1660048281548110610a0157610a006116e1565b5b905f5260205f20015f9054906101000a900473ffffffffffffffffffffffffffffffffffffffff1673ffffffffffffffffffffffffffffffffffffffff1603610b335760046001600480549050610a58919061167b565b81548110610a6957610a686116e1565b5b905f5260205f20015f9054906101000a900473ffffffffffffffffffffffffffffffffffffffff1660048281548110610aa557610aa46116e1565b5b905f5260205f20015f6101000a81548173ffffffffffffffffffffffffffffffffffffffff021916908373ffffffffffffffffffffffffffffffffffffffff1602179055506004805480610afc57610afb61170e565b5b600190038181905f5260205f20015f6101000a81549073ffffffffffffffffffffffffffffffffffffffff02191690559055610b40565b80806001019150506109c9565b5060025f8273ffffffffffffffffffffffffffffffffffffffff1673ffffffffffffffffffffffffffffffffffffffff1681526020019081526020015f205f905550565b60055481565b610b9382610e3f565b610bd2576040517f08c379a0000000000000000000000000000000000000000000000000000000008152600401610bc99061149b565b60405180910390fd5b805f803373ffffffffffffffffffffffffffffffffffffffff1673ffffffffffffffffffffffffffffffffffffffff1681526020019081526020015f205f015f8473ffffffffffffffffffffffffffffffffffffffff1673ffffffffffffffffffffffffffffffffffffffff1681526020019081526020015f20541015610c8e576040517f08c379a0000000000000000000000000000000000000000000000000000000008152600401610c8590611785565b60405180910390fd5b805f803373ffffffffffffffffffffffffffffffffffffffff1673ffffffffffffffffffffffffffffffffffffffff1681526020019081526020015f205f015f8473ffffffffffffffffffffffffffffffffffffffff1673ffffffffffffffffffffffffffffffffffffffff1681526020019081526020015f205f828254610d16919061167b565b925050819055508060015f8473ffffffffffffffffffffffffffffffffffffffff1673ffffffffffffffffffffffffffffffffffffffff1681526020019081526020015f205f828254610d69919061167b565b92505081905550610d9b33828473ffffffffffffffffffffffffffffffffffffffff16610f639092919063ffffffff16565b3373ffffffffffffffffffffffffffffffffffffffff167f983e86fda8e7b1e2eae380201830eaf1cac55772e8e39583da349865e81788638383604051610de39291906114b9565b60405180910390a25050565b6002602052805f5260405f205f915090505481565b60048181548110610e13575f80fd5b905f5260205f20015f915054906101000a900473ffffffffffffffffffffffffffffffffffffffff1681565b5f805f90505b600480549050811015610ed7578273ffffffffffffffffffffffffffffffffffffffff1660048281548110610e7d57610e7c6116e1565b5b905f5260205f20015f9054906101000a900473ffffffffffffffffffffffffffffffffffffffff1673ffffffffffffffffffffffffffffffffffffffff1603610eca576001915050610edc565b8080600101915050610e45565b505f90505b919050565b610f5d848573ffffffffffffffffffffffffffffffffffffffff166323b872dd868686604051602401610f16939291906117a3565b604051602081830303815290604052915060e01b6020820180517bffffffffffffffffffffffffffffffffffffffffffffffffffffffff8381831617835250505050610fe2565b50505050565b610fdd838473ffffffffffffffffffffffffffffffffffffffff1663a9059cbb8585604051602401610f969291906114b9565b604051602081830303815290604052915060e01b6020820180517bffffffffffffffffffffffffffffffffffffffffffffffffffffffff8381831617835250505050610fe2565b505050565b5f61100c828473ffffffffffffffffffffffffffffffffffffffff1661107790919063ffffffff16565b90505f81511415801561103057508080602001905181019061102e919061180d565b155b1561107257826040517f5274afe70000000000000000000000000000000000000000000000000000000081526004016110699190611382565b60405180910390fd5b505050565b606061108483835f61108c565b905092915050565b6060814710156110d357306040517fcd7860590000000000000000000000000000000000000000000000000000000081526004016110ca9190611382565b60405180910390fd5b5f808573ffffffffffffffffffffffffffffffffffffffff1684866040516110fb919061188a565b5f6040518083038185875af1925050503d805f8114611135576040519150601f19603f3d011682016040523d82523d5f602084013e61113a565b606091505b509150915061114a868383611155565b925050509392505050565b60608261116a57611165826111e2565b6111da565b5f825114801561119057505f8473ffffffffffffffffffffffffffffffffffffffff163b145b156111d257836040517f9996b3150000000000000000000000000000000000000000000000000000000081526004016111c99190611382565b60405180910390fd5b8190506111db565b5b9392505050565b5f815111156111f45780518082602001fd5b6040517f1425ea4200000000000000000000000000000000000000000000000000000000815260040160405180910390fd5b5f80fd5b5f73ffffffffffffffffffffffffffffffffffffffff82169050919050565b5f6112538261122a565b9050919050565b61126381611249565b811461126d575f80fd5b50565b5f8135905061127e8161125a565b92915050565b5f819050919050565b61129681611284565b81146112a0575f80fd5b50565b5f813590506112b18161128d565b92915050565b5f80604083850312156112cd576112cc611226565b5b5f6112da85828601611270565b92505060206112eb858286016112a3565b9150509250929050565b5f6020828403121561130a57611309611226565b5b5f61131784828501611270565b91505092915050565b61132981611284565b82525050565b5f6020820190506113425f830184611320565b92915050565b5f6020828403121561135d5761135c611226565b5b5f61136a848285016112a3565b91505092915050565b61137c81611249565b82525050565b5f6020820190506113955f830184611373565b92915050565b5f80604083850312156113b1576113b0611226565b5b5f6113be85828601611270565b92505060206113cf85828601611270565b9150509250929050565b5f82825260208201905092915050565b7f4e6f7420617574686f72697a65640000000000000000000000000000000000005f82015250565b5f61141d600e836113d9565b9150611428826113e9565b602082019050919050565b5f6020820190508181035f83015261144a81611411565b9050919050565b7f546f6b656e206e6f7420737570706f72746564000000000000000000000000005f82015250565b5f6114856013836113d9565b915061149082611451565b602082019050919050565b5f6020820190508181035f8301526114b281611479565b9050919050565b5f6040820190506114cc5f830185611373565b6114d96020830184611320565b9392505050565b7f46656520746f6f206869676800000000000000000000000000000000000000005f82015250565b5f611514600c836113d9565b915061151f826114e0565b602082019050919050565b5f6020820190508181035f83015261154181611508565b9050919050565b7f546f6b656e20616c726561647920737570706f727465640000000000000000005f82015250565b5f61157c6017836113d9565b915061158782611548565b602082019050919050565b5f6020820190508181035f8301526115a981611570565b9050919050565b7f4e487b71000000000000000000000000000000000000000000000000000000005f52601160045260245ffd5b5f6115e782611284565b91506115f283611284565b925082820261160081611284565b91508282048414831517611617576116166115b0565b5b5092915050565b7f4e487b71000000000000000000000000000000000000000000000000000000005f52601260045260245ffd5b5f61165582611284565b915061166083611284565b9250826116705761166f61161e565b5b828204905092915050565b5f61168582611284565b915061169083611284565b92508282039050818111156116a8576116a76115b0565b5b92915050565b5f6116b882611284565b91506116c383611284565b92508282019050808211156116db576116da6115b0565b5b92915050565b7f4e487b71000000000000000000000000000000000000000000000000000000005f52603260045260245ffd5b7f4e487b71000000000000000000000000000000000000000000000000000000005f52603160045260245ffd5b7f496e73756666696369656e742062616c616e63650000000000000000000000005f82015250565b5f61176f6014836113d9565b915061177a8261173b565b602082019050919050565b5f6020820190508181035f83015261179c81611763565b9050919050565b5f6060820190506117b65f830186611373565b6117c36020830185611373565b6117d06040830184611320565b949350505050565b5f8115159050919050565b6117ec816117d8565b81146117f6575f80fd5b50565b5f81519050611807816117e3565b92915050565b5f6020828403121561182257611821611226565b5b5f61182f848285016117f9565b91505092915050565b5f81519050919050565b5f81905092915050565b8281835e5f83830152505050565b5f61186482611838565b61186e8185611842565b935061187e81856020860161184c565b80840191505092915050565b5f611895828461185a565b91508190509291505056fea2646970667358221220ab03e5580427c0916df5aa02a59a6cba7baaa8c91c7b0bf9cf7c982104688e0f64736f6c634300081a0033",
			"opcodes": "PUSH1 0x80 PUSH1 0x40 MSTORE PUSH1 0xA PUSH1 0x5 SSTORE CALLVALUE DUP1 ISZERO PUSH2 0x14 JUMPI PUSH0 DUP1 REVERT JUMPDEST POP PUSH1 0x40 MLOAD PUSH2 0x1EC8 CODESIZE SUB DUP1 PUSH2 0x1EC8 DUP4 CODECOPY DUP2 DUP2 ADD PUSH1 0x40 MSTORE DUP2 ADD SWAP1 PUSH2 0x36 SWAP2 SWAP1 PUSH2 0x4B8 JUMP JUMPDEST DUP2 MLOAD DUP4 MLOAD EQ PUSH2 0x7A JUMPI PUSH1 0x40 MLOAD PUSH32 0x8C379A000000000000000000000000000000000000000000000000000000000 DUP2 MSTORE PUSH1 0x4 ADD PUSH2 0x71 SWAP1 PUSH2 0x59A JUMP JUMPDEST PUSH1 0x40 MLOAD DUP1 SWAP2 SUB SWAP1 REVERT JUMPDEST DUP1 PUSH1 0x3 PUSH0 PUSH2 0x100 EXP DUP2 SLOAD DUP2 PUSH20 0xFFFFFFFFFFFFFFFFFFFFFFFFFFFFFFFFFFFFFFFF MUL NOT AND SWAP1 DUP4 PUSH20 0xFFFFFFFFFFFFFFFFFFFFFFFFFFFFFFFFFFFFFFFF AND MUL OR SWAP1 SSTORE POP DUP3 PUSH1 0x4 SWAP1 DUP1 MLOAD SWAP1 PUSH1 0x20 ADD SWAP1 PUSH2 0xD0 SWAP3 SWAP2 SWAP1 PUSH2 0x168 JUMP JUMPDEST POP PUSH0 JUMPDEST DUP4 MLOAD DUP2 LT ISZERO PUSH2 0x15F JUMPI DUP3 DUP2 DUP2 MLOAD DUP2 LT PUSH2 0xEF JUMPI PUSH2 0xEE PUSH2 0x5B8 JUMP JUMPDEST JUMPDEST PUSH1 0x20 MUL PUSH1 0x20 ADD ADD MLOAD PUSH1 0x2 PUSH0 DUP7 DUP5 DUP2 MLOAD DUP2 LT PUSH2 0x10D JUMPI PUSH2 0x10C PUSH2 0x5B8 JUMP JUMPDEST JUMPDEST PUSH1 0x20 MUL PUSH1 0x20 ADD ADD MLOAD PUSH20 0xFFFFFFFFFFFFFFFFFFFFFFFFFFFFFFFFFFFFFFFF AND PUSH20 0xFFFFFFFFFFFFFFFFFFFFFFFFFFFFFFFFFFFFFFFF AND DUP2 MSTORE PUSH1 0x20 ADD SWAP1 DUP2 MSTORE PUSH1 0x20 ADD PUSH0 KECCAK256 DUP2 SWAP1 SSTORE POP DUP1 DUP1 PUSH1 0x1 ADD SWAP2 POP POP PUSH2 0xD3 JUMP JUMPDEST POP POP POP POP PUSH2 0x5E5 JUMP JUMPDEST DUP3 DUP1 SLOAD DUP3 DUP3 SSTORE SWAP1 PUSH0 MSTORE PUSH1 0x20 PUSH0 KECCAK256 SWAP1 DUP2 ADD SWAP3 DUP3 ISZERO PUSH2 0x1DE JUMPI SWAP2 PUSH1 0x20 MUL DUP3 ADD JUMPDEST DUP3 DUP2 GT ISZERO PUSH2 0x1DD JUMPI DUP3 MLOAD DUP3 PUSH0 PUSH2 0x100 EXP DUP2 SLOAD DUP2 PUSH20 0xFFFFFFFFFFFFFFFFFFFFFFFFFFFFFFFFFFFFFFFF MUL NOT AND SWAP1 DUP4 PUSH20 0xFFFFFFFFFFFFFFFFFFFFFFFFFFFFFFFFFFFFFFFF AND MUL OR SWAP1 SSTORE POP SWAP2 PUSH1 0x20 ADD SWAP2 SWAP1 PUSH1 0x1 ADD SWAP1 PUSH2 0x186 JUMP JUMPDEST JUMPDEST POP SWAP1 POP PUSH2 0x1EB SWAP2 SWAP1 PUSH2 0x1EF JUMP JUMPDEST POP SWAP1 JUMP JUMPDEST JUMPDEST DUP1 DUP3 GT ISZERO PUSH2 0x206 JUMPI PUSH0 DUP2 PUSH0 SWAP1 SSTORE POP PUSH1 0x1 ADD PUSH2 0x1F0 JUMP JUMPDEST POP SWAP1 JUMP JUMPDEST PUSH0 PUSH1 0x40 MLOAD SWAP1 POP SWAP1 JUMP JUMPDEST PUSH0 DUP1 REVERT JUMPDEST PUSH0 DUP1 REVERT JUMPDEST PUSH0 DUP1 REVERT JUMPDEST PUSH0 PUSH1 0x1F NOT PUSH1 0x1F DUP4 ADD AND SWAP1 POP SWAP2 SWAP1 POP JUMP JUMPDEST PUSH32 0x4E487B7100000000000000000000000000000000000000000000000000000000 PUSH0 MSTORE PUSH1 0x41 PUSH1 0x4 MSTORE PUSH1 0x24 PUSH0 REVERT JUMPDEST PUSH2 0x265 DUP3 PUSH2 0x21F JUMP JUMPDEST DUP2 ADD DUP2 DUP2 LT PUSH8 0xFFFFFFFFFFFFFFFF DUP3 GT OR ISZERO PUSH2 0x284 JUMPI PUSH2 0x283 PUSH2 0x22F JUMP JUMPDEST JUMPDEST DUP1 PUSH1 0x40 MSTORE POP POP POP JUMP JUMPDEST PUSH0 PUSH2 0x296 PUSH2 0x20A JUMP JUMPDEST SWAP1 POP PUSH2 0x2A2 DUP3 DUP3 PUSH2 0x25C JUMP JUMPDEST SWAP2 SWAP1 POP JUMP JUMPDEST PUSH0 PUSH8 0xFFFFFFFFFFFFFFFF DUP3 GT ISZERO PUSH2 0x2C1 JUMPI PUSH2 0x2C0 PUSH2 0x22F JUMP JUMPDEST JUMPDEST PUSH1 0x20 DUP3 MUL SWAP1 POP PUSH1 0x20 DUP2 ADD SWAP1 POP SWAP2 SWAP1 POP JUMP JUMPDEST PUSH0 DUP1 REVERT JUMPDEST PUSH0 PUSH20 0xFFFFFFFFFFFFFFFFFFFFFFFFFFFFFFFFFFFFFFFF DUP3 AND SWAP1 POP SWAP2 SWAP1 POP JUMP JUMPDEST PUSH0 PUSH2 0x2FF DUP3 PUSH2 0x2D6 JUMP JUMPDEST SWAP1 POP SWAP2 SWAP1 POP JUMP JUMPDEST PUSH2 0x30F DUP2 PUSH2 0x2F5 JUMP JUMPDEST DUP2 EQ PUSH2 0x319 JUMPI PUSH0 DUP1 REVERT JUMPDEST POP JUMP JUMPDEST PUSH0 DUP2 MLOAD SWAP1 POP PUSH2 0x32A DUP2 PUSH2 0x306 JUMP JUMPDEST SWAP3 SWAP2 POP POP JUMP JUMPDEST PUSH0 PUSH2 0x342 PUSH2 0x33D DUP5 PUSH2 0x2A7 JUMP JUMPDEST PUSH2 0x28D JUMP JUMPDEST SWAP1 POP DUP1 DUP4 DUP3 MSTORE PUSH1 0x20 DUP3 ADD SWAP1 POP PUSH1 0x20 DUP5 MUL DUP4 ADD DUP6 DUP2 GT ISZERO PUSH2 0x365 JUMPI PUSH2 0x364 PUSH2 0x2D2 JUMP JUMPDEST JUMPDEST DUP4 JUMPDEST DUP2 DUP2 LT ISZERO PUSH2 0x38E JUMPI DUP1 PUSH2 0x37A DUP9 DUP3 PUSH2 0x31C JUMP JUMPDEST DUP5 MSTORE PUSH1 0x20 DUP5 ADD SWAP4 POP POP PUSH1 0x20 DUP2 ADD SWAP1 POP PUSH2 0x367 JUMP JUMPDEST POP POP POP SWAP4 SWAP3 POP POP POP JUMP JUMPDEST PUSH0 DUP3 PUSH1 0x1F DUP4 ADD SLT PUSH2 0x3AC JUMPI PUSH2 0x3AB PUSH2 0x21B JUMP JUMPDEST JUMPDEST DUP2 MLOAD PUSH2 0x3BC DUP5 DUP3 PUSH1 0x20 DUP7 ADD PUSH2 0x330 JUMP JUMPDEST SWAP2 POP POP SWAP3 SWAP2 POP POP JUMP JUMPDEST PUSH0 PUSH8 0xFFFFFFFFFFFFFFFF DUP3 GT ISZERO PUSH2 0x3DF JUMPI PUSH2 0x3DE PUSH2 0x22F JUMP JUMPDEST JUMPDEST PUSH1 0x20 DUP3 MUL SWAP1 POP PUSH1 0x20 DUP2 ADD SWAP1 POP SWAP2 SWAP1 POP JUMP JUMPDEST PUSH0 DUP2 SWAP1 POP SWAP2 SWAP1 POP JUMP JUMPDEST PUSH2 0x402 DUP2 PUSH2 0x3F0 JUMP JUMPDEST DUP2 EQ PUSH2 0x40C JUMPI PUSH0 DUP1 REVERT JUMPDEST POP JUMP JUMPDEST PUSH0 DUP2 MLOAD SWAP1 POP PUSH2 0x41D DUP2 PUSH2 0x3F9 JUMP JUMPDEST SWAP3 SWAP2 POP POP JUMP JUMPDEST PUSH0 PUSH2 0x435 PUSH2 0x430 DUP5 PUSH2 0x3C5 JUMP JUMPDEST PUSH2 0x28D JUMP JUMPDEST SWAP1 POP DUP1 DUP4 DUP3 MSTORE PUSH1 0x20 DUP3 ADD SWAP1 POP PUSH1 0x20 DUP5 MUL DUP4 ADD DUP6 DUP2 GT ISZERO PUSH2 0x458 JUMPI PUSH2 0x457 PUSH2 0x2D2 JUMP JUMPDEST JUMPDEST DUP4 JUMPDEST DUP2 DUP2 LT ISZERO PUSH2 0x481 JUMPI DUP1 PUSH2 0x46D DUP9 DUP3 PUSH2 0x40F JUMP JUMPDEST DUP5 MSTORE PUSH1 0x20 DUP5 ADD SWAP4 POP POP PUSH1 0x20 DUP2 ADD SWAP1 POP PUSH2 0x45A JUMP JUMPDEST POP POP POP SWAP4 SWAP3 POP POP POP JUMP JUMPDEST PUSH0 DUP3 PUSH1 0x1F DUP4 ADD SLT PUSH2 0x49F JUMPI PUSH2 0x49E PUSH2 0x21B JUMP JUMPDEST JUMPDEST DUP2 MLOAD PUSH2 0x4AF DUP5 DUP3 PUSH1 0x20 DUP7 ADD PUSH2 0x423 JUMP JUMPDEST SWAP2 POP POP SWAP3 SWAP2 POP POP JUMP JUMPDEST PUSH0 DUP1 PUSH0 PUSH1 0x60 DUP5 DUP7 SUB SLT ISZERO PUSH2 0x4CF JUMPI PUSH2 0x4CE PUSH2 0x213 JUMP JUMPDEST JUMPDEST PUSH0 DUP5 ADD MLOAD PUSH8 0xFFFFFFFFFFFFFFFF DUP2 GT ISZERO PUSH2 0x4EC JUMPI PUSH2 0x4EB PUSH2 0x217 JUMP JUMPDEST JUMPDEST PUSH2 0x4F8 DUP7 DUP3 DUP8 ADD PUSH2 0x398 JUMP JUMPDEST SWAP4 POP POP PUSH1 0x20 DUP5 ADD MLOAD PUSH8 0xFFFFFFFFFFFFFFFF DUP2 GT ISZERO PUSH2 0x519 JUMPI PUSH2 0x518 PUSH2 0x217 JUMP JUMPDEST JUMPDEST PUSH2 0x525 DUP7 DUP3 DUP8 ADD PUSH2 0x48B JUMP JUMPDEST SWAP3 POP POP PUSH1 0x40 PUSH2 0x536 DUP7 DUP3 DUP8 ADD PUSH2 0x31C JUMP JUMPDEST SWAP2 POP POP SWAP3 POP SWAP3 POP SWAP3 JUMP JUMPDEST PUSH0 DUP3 DUP3 MSTORE PUSH1 0x20 DUP3 ADD SWAP1 POP SWAP3 SWAP2 POP POP JUMP JUMPDEST PUSH32 0x546F6B656E20616E6420776569676874206D69736D6174636800000000000000 PUSH0 DUP3 ADD MSTORE POP JUMP JUMPDEST PUSH0 PUSH2 0x584 PUSH1 0x19 DUP4 PUSH2 0x540 JUMP JUMPDEST SWAP2 POP PUSH2 0x58F DUP3 PUSH2 0x550 JUMP JUMPDEST PUSH1 0x20 DUP3 ADD SWAP1 POP SWAP2 SWAP1 POP JUMP JUMPDEST PUSH0 PUSH1 0x20 DUP3 ADD SWAP1 POP DUP2 DUP2 SUB PUSH0 DUP4 ADD MSTORE PUSH2 0x5B1 DUP2 PUSH2 0x578 JUMP JUMPDEST SWAP1 POP SWAP2 SWAP1 POP JUMP JUMPDEST PUSH32 0x4E487B7100000000000000000000000000000000000000000000000000000000 PUSH0 MSTORE PUSH1 0x32 PUSH1 0x4 MSTORE PUSH1 0x24 PUSH0 REVERT JUMPDEST PUSH2 0x18D6 DUP1 PUSH2 0x5F2 PUSH0 CODECOPY PUSH0 RETURN INVALID PUSH1 0x80 PUSH1 0x40 MSTORE CALLVALUE DUP1 ISZERO PUSH2 0xF JUMPI PUSH0 DUP1 REVERT JUMPDEST POP PUSH1 0x4 CALLDATASIZE LT PUSH2 0xB2 JUMPI PUSH0 CALLDATALOAD PUSH1 0xE0 SHR DUP1 PUSH4 0x6805D6AD GT PUSH2 0x6F JUMPI DUP1 PUSH4 0x6805D6AD EQ PUSH2 0x174 JUMPI DUP1 PUSH4 0x76319190 EQ PUSH2 0x1A4 JUMPI DUP1 PUSH4 0x98118CB4 EQ PUSH2 0x1C0 JUMPI DUP1 PUSH4 0xA201CCF6 EQ PUSH2 0x1DE JUMPI DUP1 PUSH4 0xAB2F3AD4 EQ PUSH2 0x1FA JUMPI DUP1 PUSH4 0xC6255626 EQ PUSH2 0x22A JUMPI PUSH2 0xB2 JUMP JUMPDEST DUP1 PUSH4 0x21FAF184 EQ PUSH2 0xB6 JUMPI DUP1 PUSH4 0x3053F0B2 EQ PUSH2 0xD2 JUMPI DUP1 PUSH4 0x357BF15C EQ PUSH2 0x102 JUMPI DUP1 PUSH4 0x4D8E3D3B EQ PUSH2 0x11E JUMPI DUP1 PUSH4 0x56688700 EQ PUSH2 0x13A JUMPI DUP1 PUSH4 0x5AA6E675 EQ PUSH2 0x156 JUMPI JUMPDEST PUSH0 DUP1 REVERT JUMPDEST PUSH2 0xD0 PUSH1 0x4 DUP1 CALLDATASIZE SUB DUP2 ADD SWAP1 PUSH2 0xCB SWAP2 SWAP1 PUSH2 0x12B7 JUMP JUMPDEST PUSH2 0x25A JUMP JUMPDEST STOP JUMPDEST PUSH2 0xEC PUSH1 0x4 DUP1 CALLDATASIZE SUB DUP2 ADD SWAP1 PUSH2 0xE7 SWAP2 SWAP1 PUSH2 0x12F5 JUMP JUMPDEST PUSH2 0x3B0 JUMP JUMPDEST PUSH1 0x40 MLOAD PUSH2 0xF9 SWAP2 SWAP1 PUSH2 0x132F JUMP JUMPDEST PUSH1 0x40 MLOAD DUP1 SWAP2 SUB SWAP1 RETURN JUMPDEST PUSH2 0x11C PUSH1 0x4 DUP1 CALLDATASIZE SUB DUP2 ADD SWAP1 PUSH2 0x117 SWAP2 SWAP1 PUSH2 0x1348 JUMP JUMPDEST PUSH2 0x3C5 JUMP JUMPDEST STOP JUMPDEST PUSH2 0x138 PUSH1 0x4 DUP1 CALLDATASIZE SUB DUP2 ADD SWAP1 PUSH2 0x133 SWAP2 SWAP1 PUSH2 0x12B7 JUMP JUMPDEST PUSH2 0x4A2 JUMP JUMPDEST STOP JUMPDEST PUSH2 0x154 PUSH1 0x4 DUP1 CALLDATASIZE SUB DUP2 ADD SWAP1 PUSH2 0x14F SWAP2 SWAP1 PUSH2 0x12B7 JUMP JUMPDEST PUSH2 0x620 JUMP JUMPDEST STOP JUMPDEST PUSH2 0x15E PUSH2 0x848 JUMP JUMPDEST PUSH1 0x40 MLOAD PUSH2 0x16B SWAP2 SWAP1 PUSH2 0x1382 JUMP JUMPDEST PUSH1 0x40 MLOAD DUP1 SWAP2 SUB SWAP1 RETURN JUMPDEST PUSH2 0x18E PUSH1 0x4 DUP1 CALLDATASIZE SUB DUP2 ADD SWAP1 PUSH2 0x189 SWAP2 SWAP1 PUSH2 0x139B JUMP JUMPDEST PUSH2 0x86D JUMP JUMPDEST PUSH1 0x40 MLOAD PUSH2 0x19B SWAP2 SWAP1 PUSH2 0x132F JUMP JUMPDEST PUSH1 0x40 MLOAD DUP1 SWAP2 SUB SWAP1 RETURN JUMPDEST PUSH2 0x1BE PUSH1 0x4 DUP1 CALLDATASIZE SUB DUP2 ADD SWAP1 PUSH2 0x1B9 SWAP2 SWAP1 PUSH2 0x12F5 JUMP JUMPDEST PUSH2 0x8F0 JUMP JUMPDEST STOP JUMPDEST PUSH2 0x1C8 PUSH2 0xB84 JUMP JUMPDEST PUSH1 0x40 MLOAD PUSH2 0x1D5 SWAP2 SWAP1 PUSH2 0x132F JUMP JUMPDEST PUSH1 0x40 MLOAD DUP1 SWAP2 SUB SWAP1 RETURN JUMPDEST PUSH2 0x1F8 PUSH1 0x4 DUP1 CALLDATASIZE SUB DUP2 ADD SWAP1 PUSH2 0x1F3 SWAP2 SWAP1 PUSH2 0x12B7 JUMP JUMPDEST PUSH2 0xB8A JUMP JUMPDEST STOP JUMPDEST PUSH2 0x214 PUSH1 0x4 DUP1 CALLDATASIZE SUB DUP2 ADD SWAP1 PUSH2 0x20F SWAP2 SWAP1 PUSH2 0x12F5 JUMP JUMPDEST PUSH2 0xDEF JUMP JUMPDEST PUSH1 0x40 MLOAD PUSH2 0x221 SWAP2 SWAP1 PUSH2 0x132F JUMP JUMPDEST PUSH1 0x40 MLOAD DUP1 SWAP2 SUB SWAP1 RETURN JUMPDEST PUSH2 0x244 PUSH1 0x4 DUP1 CALLDATASIZE SUB DUP2 ADD SWAP1 PUSH2 0x23F SWAP2 SWAP1 PUSH2 0x1348 JUMP JUMPDEST PUSH2 0xE04 JUMP JUMPDEST PUSH1 0x40 MLOAD PUSH2 0x251 SWAP2 SWAP1 PUSH2 0x1382 JUMP JUMPDEST PUSH1 0x40 MLOAD DUP1 SWAP2 SUB SWAP1 RETURN JUMPDEST PUSH1 0x3 PUSH0 SWAP1 SLOAD SWAP1 PUSH2 0x100 EXP SWAP1 DIV PUSH20 0xFFFFFFFFFFFFFFFFFFFFFFFFFFFFFFFFFFFFFFFF AND PUSH20 0xFFFFFFFFFFFFFFFFFFFFFFFFFFFFFFFFFFFFFFFF AND CALLER PUSH20 0xFFFFFFFFFFFFFFFFFFFFFFFFFFFFFFFFFFFFFFFF AND EQ PUSH2 0x2E9 JUMPI PUSH1 0x40 MLOAD PUSH32 0x8C379A000000000000000000000000000000000000000000000000000000000 DUP2 MSTORE PUSH1 0x4 ADD PUSH2 0x2E0 SWAP1 PUSH2 0x1433 JUMP JUMPDEST PUSH1 0x40 MLOAD DUP1 SWAP2 SUB SWAP1 REVERT JUMPDEST PUSH2 0x2F2 DUP3 PUSH2 0xE3F JUMP JUMPDEST PUSH2 0x331 JUMPI PUSH1 0x40 MLOAD PUSH32 0x8C379A000000000000000000000000000000000000000000000000000000000 DUP2 MSTORE PUSH1 0x4 ADD PUSH2 0x328 SWAP1 PUSH2 0x149B JUMP JUMPDEST PUSH1 0x40 MLOAD DUP1 SWAP2 SUB SWAP1 REVERT JUMPDEST DUP1 PUSH1 0x2 PUSH0 DUP5 PUSH20 0xFFFFFFFFFFFFFFFFFFFFFFFFFFFFFFFFFFFFFFFF AND PUSH20 0xFFFFFFFFFFFFFFFFFFFFFFFFFFFFFFFFFFFFFFFF AND DUP2 MSTORE PUSH1 0x20 ADD SWAP1 DUP2 MSTORE PUSH1 0x20 ADD PUSH0 KECCAK256 DUP2 SWAP1 SSTORE POP PUSH32 0xC9BF4277EB054FE4FA82FF2E3B468A6300F4BC73A13794B02287F6D8282C998C DUP3 DUP3 PUSH1 0x40 MLOAD PUSH2 0x3A4 SWAP3 SWAP2 SWAP1 PUSH2 0x14B9 JUMP JUMPDEST PUSH1 0x40 MLOAD DUP1 SWAP2 SUB SWAP1 LOG1 POP POP JUMP JUMPDEST PUSH1 0x1 PUSH1 0x20 MSTORE DUP1 PUSH0 MSTORE PUSH1 0x40 PUSH0 KECCAK256 PUSH0 SWAP2 POP SWAP1 POP SLOAD DUP2 JUMP JUMPDEST PUSH1 0x3 PUSH0 SWAP1 SLOAD SWAP1 PUSH2 0x100 EXP SWAP1 DIV PUSH20 0xFFFFFFFFFFFFFFFFFFFFFFFFFFFFFFFFFFFFFFFF AND PUSH20 0xFFFFFFFFFFFFFFFFFFFFFFFFFFFFFFFFFFFFFFFF AND CALLER PUSH20 0xFFFFFFFFFFFFFFFFFFFFFFFFFFFFFFFFFFFFFFFF AND EQ PUSH2 0x454 JUMPI PUSH1 0x40 MLOAD PUSH32 0x8C379A000000000000000000000000000000000000000000000000000000000 DUP2 MSTORE PUSH1 0x4 ADD PUSH2 0x44B SWAP1 PUSH2 0x1433 JUMP JUMPDEST PUSH1 0x40 MLOAD DUP1 SWAP2 SUB SWAP1 REVERT JUMPDEST PUSH1 0x64 DUP2 GT ISZERO PUSH2 0x498 JUMPI PUSH1 0x40 MLOAD PUSH32 0x8C379A000000000000000000000000000000000000000000000000000000000 DUP2 MSTORE PUSH1 0x4 ADD PUSH2 0x48F SWAP1 PUSH2 0x152A JUMP JUMPDEST PUSH1 0x40 MLOAD DUP1 SWAP2 SUB SWAP1 REVERT JUMPDEST DUP1 PUSH1 0x5 DUP2 SWAP1 SSTORE POP POP JUMP JUMPDEST PUSH1 0x3 PUSH0 SWAP1 SLOAD SWAP1 PUSH2 0x100 EXP SWAP1 DIV PUSH20 0xFFFFFFFFFFFFFFFFFFFFFFFFFFFFFFFFFFFFFFFF AND PUSH20 0xFFFFFFFFFFFFFFFFFFFFFFFFFFFFFFFFFFFFFFFF AND CALLER PUSH20 0xFFFFFFFFFFFFFFFFFFFFFFFFFFFFFFFFFFFFFFFF AND EQ PUSH2 0x531 JUMPI PUSH1 0x40 MLOAD PUSH32 0x8C379A000000000000000000000000000000000000000000000000000000000 DUP2 MSTORE PUSH1 0x4 ADD PUSH2 0x528 SWAP1 PUSH2 0x1433 JUMP JUMPDEST PUSH1 0x40 MLOAD DUP1 SWAP2 SUB SWAP1 REVERT JUMPDEST PUSH2 0x53A DUP3 PUSH2 0xE3F JUMP JUMPDEST ISZERO PUSH2 0x57A JUMPI PUSH1 0x40 MLOAD PUSH32 0x8C379A000000000000000000000000000000000000000000000000000000000 DUP2 MSTORE PUSH1 0x4 ADD PUSH2 0x571 SWAP1 PUSH2 0x1592 JUMP JUMPDEST PUSH1 0x40 MLOAD DUP1 SWAP2 SUB SWAP1 REVERT JUMPDEST PUSH1 0x4 DUP3 SWAP1 DUP1 PUSH1 0x1 DUP2 SLOAD ADD DUP1 DUP3 SSTORE DUP1 SWAP2 POP POP PUSH1 0x1 SWAP1 SUB SWAP1 PUSH0 MSTORE PUSH1 0x20 PUSH0 KECCAK256 ADD PUSH0 SWAP1 SWAP2 SWAP1 SWAP2 SWAP1 SWAP2 PUSH2 0x100 EXP DUP2 SLOAD DUP2 PUSH20 0xFFFFFFFFFFFFFFFFFFFFFFFFFFFFFFFFFFFFFFFF MUL NOT AND SWAP1 DUP4 PUSH20 0xFFFFFFFFFFFFFFFFFFFFFFFFFFFFFFFFFFFFFFFF AND MUL OR SWAP1 SSTORE POP DUP1 PUSH1 0x2 PUSH0 DUP5 PUSH20 0xFFFFFFFFFFFFFFFFFFFFFFFFFFFFFFFFFFFFFFFF AND PUSH20 0xFFFFFFFFFFFFFFFFFFFFFFFFFFFFFFFFFFFFFFFF AND DUP2 MSTORE PUSH1 0x20 ADD SWAP1 DUP2 MSTORE PUSH1 0x20 ADD PUSH0 KECCAK256 DUP2 SWAP1 SSTORE POP POP POP JUMP JUMPDEST PUSH2 0x629 DUP3 PUSH2 0xE3F JUMP JUMPDEST PUSH2 0x668 JUMPI PUSH1 0x40 MLOAD PUSH32 0x8C379A000000000000000000000000000000000000000000000000000000000 DUP2 MSTORE PUSH1 0x4 ADD PUSH2 0x65F SWAP1 PUSH2 0x149B JUMP JUMPDEST PUSH1 0x40 MLOAD DUP1 SWAP2 SUB SWAP1 REVERT JUMPDEST PUSH0 PUSH2 0x2710 PUSH1 0x5 SLOAD DUP4 PUSH2 0x67A SWAP2 SWAP1 PUSH2 0x15DD JUMP JUMPDEST PUSH2 0x684 SWAP2 SWAP1 PUSH2 0x164B JUMP JUMPDEST SWAP1 POP PUSH0 DUP2 DUP4 PUSH2 0x693 SWAP2 SWAP1 PUSH2 0x167B JUMP JUMPDEST SWAP1 POP PUSH2 0x6C2 CALLER ADDRESS DUP4 DUP8 PUSH20 0xFFFFFFFFFFFFFFFFFFFFFFFFFFFFFFFFFFFFFFFF AND PUSH2 0xEE1 SWAP1 SWAP4 SWAP3 SWAP2 SWAP1 PUSH4 0xFFFFFFFF AND JUMP JUMPDEST PUSH2 0x710 CALLER PUSH1 0x3 PUSH0 SWAP1 SLOAD SWAP1 PUSH2 0x100 EXP SWAP1 DIV PUSH20 0xFFFFFFFFFFFFFFFFFFFFFFFFFFFFFFFFFFFFFFFF AND DUP5 DUP8 PUSH20 0xFFFFFFFFFFFFFFFFFFFFFFFFFFFFFFFFFFFFFFFF AND PUSH2 0xEE1 SWAP1 SWAP4 SWAP3 SWAP2 SWAP1 PUSH4 0xFFFFFFFF AND JUMP JUMPDEST DUP1 PUSH0 DUP1 CALLER PUSH20 0xFFFFFFFFFFFFFFFFFFFFFFFFFFFFFFFFFFFFFFFF AND PUSH20 0xFFFFFFFFFFFFFFFFFFFFFFFFFFFFFFFFFFFFFFFF AND DUP2 MSTORE PUSH1 0x20 ADD SWAP1 DUP2 MSTORE PUSH1 0x20 ADD PUSH0 KECCAK256 PUSH0 ADD PUSH0 DUP7 PUSH20 0xFFFFFFFFFFFFFFFFFFFFFFFFFFFFFFFFFFFFFFFF AND PUSH20 0xFFFFFFFFFFFFFFFFFFFFFFFFFFFFFFFFFFFFFFFF AND DUP2 MSTORE PUSH1 0x20 ADD SWAP1 DUP2 MSTORE PUSH1 0x20 ADD PUSH0 KECCAK256 PUSH0 DUP3 DUP3 SLOAD PUSH2 0x798 SWAP2 SWAP1 PUSH2 0x16AE JUMP JUMPDEST SWAP3 POP POP DUP2 SWAP1 SSTORE POP DUP1 PUSH1 0x1 PUSH0 DUP7 PUSH20 0xFFFFFFFFFFFFFFFFFFFFFFFFFFFFFFFFFFFFFFFF AND PUSH20 0xFFFFFFFFFFFFFFFFFFFFFFFFFFFFFFFFFFFFFFFF AND DUP2 MSTORE PUSH1 0x20 ADD SWAP1 DUP2 MSTORE PUSH1 0x20 ADD PUSH0 KECCAK256 PUSH0 DUP3 DUP3 SLOAD PUSH2 0x7EB SWAP2 SWAP1 PUSH2 0x16AE JUMP JUMPDEST SWAP3 POP POP DUP2 SWAP1 SSTORE POP CALLER PUSH20 0xFFFFFFFFFFFFFFFFFFFFFFFFFFFFFFFFFFFFFFFF AND PUSH32 0x9D278C56BA6DC86A12EEFE6B43112BD6E06648EB4EC0B950EE2D783D40E2ACB4 DUP6 DUP4 PUSH1 0x40 MLOAD PUSH2 0x83A SWAP3 SWAP2 SWAP1 PUSH2 0x14B9 JUMP JUMPDEST PUSH1 0x40 MLOAD DUP1 SWAP2 SUB SWAP1 LOG2 POP POP POP POP JUMP JUMPDEST PUSH1 0x3 PUSH0 SWAP1 SLOAD SWAP1 PUSH2 0x100 EXP SWAP1 DIV PUSH20 0xFFFFFFFFFFFFFFFFFFFFFFFFFFFFFFFFFFFFFFFF AND DUP2 JUMP JUMPDEST PUSH0 DUP1 PUSH0 DUP5 PUSH20 0xFFFFFFFFFFFFFFFFFFFFFFFFFFFFFFFFFFFFFFFF AND PUSH20 0xFFFFFFFFFFFFFFFFFFFFFFFFFFFFFFFFFFFFFFFF AND DUP2 MSTORE PUSH1 0x20 ADD SWAP1 DUP2 MSTORE PUSH1 0x20 ADD PUSH0 KECCAK256 PUSH0 ADD PUSH0 DUP4 PUSH20 0xFFFFFFFFFFFFFFFFFFFFFFFFFFFFFFFFFFFFFFFF AND PUSH20 0xFFFFFFFFFFFFFFFFFFFFFFFFFFFFFFFFFFFFFFFF AND DUP2 MSTORE PUSH1 0x20 ADD SWAP1 DUP2 MSTORE PUSH1 0x20 ADD PUSH0 KECCAK256 SLOAD SWAP1 POP SWAP3 SWAP2 POP POP JUMP JUMPDEST PUSH1 0x3 PUSH0 SWAP1 SLOAD SWAP1 PUSH2 0x100 EXP SWAP1 DIV PUSH20 0xFFFFFFFFFFFFFFFFFFFFFFFFFFFFFFFFFFFFFFFF AND PUSH20 0xFFFFFFFFFFFFFFFFFFFFFFFFFFFFFFFFFFFFFFFF AND CALLER PUSH20 0xFFFFFFFFFFFFFFFFFFFFFFFFFFFFFFFFFFFFFFFF AND EQ PUSH2 0x97F JUMPI PUSH1 0x40 MLOAD PUSH32 0x8C379A000000000000000000000000000000000000000000000000000000000 DUP2 MSTORE PUSH1 0x4 ADD PUSH2 0x976 SWAP1 PUSH2 0x1433 JUMP JUMPDEST PUSH1 0x40 MLOAD DUP1 SWAP2 SUB SWAP1 REVERT JUMPDEST PUSH2 0x988 DUP2 PUSH2 0xE3F JUMP JUMPDEST PUSH2 0x9C7 JUMPI PUSH1 0x40 MLOAD PUSH32 0x8C379A000000000000000000000000000000000000000000000000000000000 DUP2 MSTORE PUSH1 0x4 ADD PUSH2 0x9BE SWAP1 PUSH2 0x149B JUMP JUMPDEST PUSH1 0x40 MLOAD DUP1 SWAP2 SUB SWAP1 REVERT JUMPDEST PUSH0 JUMPDEST PUSH1 0x4 DUP1 SLOAD SWAP1 POP DUP2 LT ISZERO PUSH2 0xB40 JUMPI DUP2 PUSH20 0xFFFFFFFFFFFFFFFFFFFFFFFFFFFFFFFFFFFFFFFF AND PUSH1 0x4 DUP3 DUP2 SLOAD DUP2 LT PUSH2 0xA01 JUMPI PUSH2 0xA00 PUSH2 0x16E1 JUMP JUMPDEST JUMPDEST SWAP1 PUSH0 MSTORE PUSH1 0x20 PUSH0 KECCAK256 ADD PUSH0 SWAP1 SLOAD SWAP1 PUSH2 0x100 EXP SWAP1 DIV PUSH20 0xFFFFFFFFFFFFFFFFFFFFFFFFFFFFFFFFFFFFFFFF AND PUSH20 0xFFFFFFFFFFFFFFFFFFFFFFFFFFFFFFFFFFFFFFFF AND SUB PUSH2 0xB33 JUMPI PUSH1 0x4 PUSH1 0x1 PUSH1 0x4 DUP1 SLOAD SWAP1 POP PUSH2 0xA58 SWAP2 SWAP1 PUSH2 0x167B JUMP JUMPDEST DUP2 SLOAD DUP2 LT PUSH2 0xA69 JUMPI PUSH2 0xA68 PUSH2 0x16E1 JUMP JUMPDEST JUMPDEST SWAP1 PUSH0 MSTORE PUSH1 0x20 PUSH0 KECCAK256 ADD PUSH0 SWAP1 SLOAD SWAP1 PUSH2 0x100 EXP SWAP1 DIV PUSH20 0xFFFFFFFFFFFFFFFFFFFFFFFFFFFFFFFFFFFFFFFF AND PUSH1 0x4 DUP3 DUP2 SLOAD DUP2 LT PUSH2 0xAA5 JUMPI PUSH2 0xAA4 PUSH2 0x16E1 JUMP JUMPDEST JUMPDEST SWAP1 PUSH0 MSTORE PUSH1 0x20 PUSH0 KECCAK256 ADD PUSH0 PUSH2 0x100 EXP DUP2 SLOAD DUP2 PUSH20 0xFFFFFFFFFFFFFFFFFFFFFFFFFFFFFFFFFFFFFFFF MUL NOT AND SWAP1 DUP4 PUSH20 0xFFFFFFFFFFFFFFFFFFFFFFFFFFFFFFFFFFFFFFFF AND MUL OR SWAP1 SSTORE POP PUSH1 0x4 DUP1 SLOAD DUP1 PUSH2 0xAFC JUMPI PUSH2 0xAFB PUSH2 0x170E JUMP JUMPDEST JUMPDEST PUSH1 0x1 SWAP1 SUB DUP2 DUP2 SWAP1 PUSH0 MSTORE PUSH1 0x20 PUSH0 KECCAK256 ADD PUSH0 PUSH2 0x100 EXP DUP2 SLOAD SWAP1 PUSH20 0xFFFFFFFFFFFFFFFFFFFFFFFFFFFFFFFFFFFFFFFF MUL NOT AND SWAP1 SSTORE SWAP1 SSTORE PUSH2 0xB40 JUMP JUMPDEST DUP1 DUP1 PUSH1 0x1 ADD SWAP2 POP POP PUSH2 0x9C9 JUMP JUMPDEST POP PUSH1 0x2 PUSH0 DUP3 PUSH20 0xFFFFFFFFFFFFFFFFFFFFFFFFFFFFFFFFFFFFFFFF AND PUSH20 0xFFFFFFFFFFFFFFFFFFFFFFFFFFFFFFFFFFFFFFFF AND DUP2 MSTORE PUSH1 0x20 ADD SWAP1 DUP2 MSTORE PUSH1 0x20 ADD PUSH0 KECCAK256 PUSH0 SWAP1 SSTORE POP JUMP JUMPDEST PUSH1 0x5 SLOAD DUP2 JUMP JUMPDEST PUSH2 0xB93 DUP3 PUSH2 0xE3F JUMP JUMPDEST PUSH2 0xBD2 JUMPI PUSH1 0x40 MLOAD PUSH32 0x8C379A000000000000000000000000000000000000000000000000000000000 DUP2 MSTORE PUSH1 0x4 ADD PUSH2 0xBC9 SWAP1 PUSH2 0x149B JUMP JUMPDEST PUSH1 0x40 MLOAD DUP1 SWAP2 SUB SWAP1 REVERT JUMPDEST DUP1 PUSH0 DUP1 CALLER PUSH20 0xFFFFFFFFFFFFFFFFFFFFFFFFFFFFFFFFFFFFFFFF AND PUSH20 0xFFFFFFFFFFFFFFFFFFFFFFFFFFFFFFFFFFFFFFFF AND DUP2 MSTORE PUSH1 0x20 ADD SWAP1 DUP2 MSTORE PUSH1 0x20 ADD PUSH0 KECCAK256 PUSH0 ADD PUSH0 DUP5 PUSH20 0xFFFFFFFFFFFFFFFFFFFFFFFFFFFFFFFFFFFFFFFF AND PUSH20 0xFFFFFFFFFFFFFFFFFFFFFFFFFFFFFFFFFFFFFFFF AND DUP2 MSTORE PUSH1 0x20 ADD SWAP1 DUP2 MSTORE PUSH1 0x20 ADD PUSH0 KECCAK256 SLOAD LT ISZERO PUSH2 0xC8E JUMPI PUSH1 0x40 MLOAD PUSH32 0x8C379A000000000000000000000000000000000000000000000000000000000 DUP2 MSTORE PUSH1 0x4 ADD PUSH2 0xC85 SWAP1 PUSH2 0x1785 JUMP JUMPDEST PUSH1 0x40 MLOAD DUP1 SWAP2 SUB SWAP1 REVERT JUMPDEST DUP1 PUSH0 DUP1 CALLER PUSH20 0xFFFFFFFFFFFFFFFFFFFFFFFFFFFFFFFFFFFFFFFF AND PUSH20 0xFFFFFFFFFFFFFFFFFFFFFFFFFFFFFFFFFFFFFFFF AND DUP2 MSTORE PUSH1 0x20 ADD SWAP1 DUP2 MSTORE PUSH1 0x20 ADD PUSH0 KECCAK256 PUSH0 ADD PUSH0 DUP5 PUSH20 0xFFFFFFFFFFFFFFFFFFFFFFFFFFFFFFFFFFFFFFFF AND PUSH20 0xFFFFFFFFFFFFFFFFFFFFFFFFFFFFFFFFFFFFFFFF AND DUP2 MSTORE PUSH1 0x20 ADD SWAP1 DUP2 MSTORE PUSH1 0x20 ADD PUSH0 KECCAK256 PUSH0 DUP3 DUP3 SLOAD PUSH2 0xD16 SWAP2 SWAP1 PUSH2 0x167B JUMP JUMPDEST SWAP3 POP POP DUP2 SWAP1 SSTORE POP DUP1 PUSH1 0x1 PUSH0 DUP5 PUSH20 0xFFFFFFFFFFFFFFFFFFFFFFFFFFFFFFFFFFFFFFFF AND PUSH20 0xFFFFFFFFFFFFFFFFFFFFFFFFFFFFFFFFFFFFFFFF AND DUP2 MSTORE PUSH1 0x20 ADD SWAP1 DUP2 MSTORE PUSH1 0x20 ADD PUSH0 KECCAK256 PUSH0 DUP3 DUP3 SLOAD PUSH2 0xD69 SWAP2 SWAP1 PUSH2 0x167B JUMP JUMPDEST SWAP3 POP POP DUP2 SWAP1 SSTORE POP PUSH2 0xD9B CALLER DUP3 DUP5 PUSH20 0xFFFFFFFFFFFFFFFFFFFFFFFFFFFFFFFFFFFFFFFF AND PUSH2 0xF63 SWAP1 SWAP3 SWAP2 SWAP1 PUSH4 0xFFFFFFFF AND JUMP JUMPDEST CALLER PUSH20 0xFFFFFFFFFFFFFFFFFFFFFFFFFFFFFFFFFFFFFFFF AND PUSH32 0x983E86FDA8E7B1E2EAE380201830EAF1CAC55772E8E39583DA349865E8178863 DUP4 DUP4 PUSH1 0x40 MLOAD PUSH2 0xDE3 SWAP3 SWAP2 SWAP1 PUSH2 0x14B9 JUMP JUMPDEST PUSH1 0x40 MLOAD DUP1 SWAP2 SUB SWAP1 LOG2 POP POP JUMP JUMPDEST PUSH1 0x2 PUSH1 0x20 MSTORE DUP1 PUSH0 MSTORE PUSH1 0x40 PUSH0 KECCAK256 PUSH0 SWAP2 POP SWAP1 POP SLOAD DUP2 JUMP JUMPDEST PUSH1 0x4 DUP2 DUP2 SLOAD DUP2 LT PUSH2 0xE13 JUMPI PUSH0 DUP1 REVERT JUMPDEST SWAP1 PUSH0 MSTORE PUSH1 0x20 PUSH0 KECCAK256 ADD PUSH0 SWAP2 POP SLOAD SWAP1 PUSH2 0x100 EXP SWAP1 DIV PUSH20 0xFFFFFFFFFFFFFFFFFFFFFFFFFFFFFFFFFFFFFFFF AND DUP2 JUMP JUMPDEST PUSH0 DUP1 PUSH0 SWAP1 POP JUMPDEST PUSH1 0x4 DUP1 SLOAD SWAP1 POP DUP2 LT ISZERO PUSH2 0xED7 JUMPI DUP3 PUSH20 0xFFFFFFFFFFFFFFFFFFFFFFFFFFFFFFFFFFFFFFFF AND PUSH1 0x4 DUP3 DUP2 SLOAD DUP2 LT PUSH2 0xE7D JUMPI PUSH2 0xE7C PUSH2 0x16E1 JUMP JUMPDEST JUMPDEST SWAP1 PUSH0 MSTORE PUSH1 0x20 PUSH0 KECCAK256 ADD PUSH0 SWAP1 SLOAD SWAP1 PUSH2 0x100 EXP SWAP1 DIV PUSH20 0xFFFFFFFFFFFFFFFFFFFFFFFFFFFFFFFFFFFFFFFF AND PUSH20 0xFFFFFFFFFFFFFFFFFFFFFFFFFFFFFFFFFFFFFFFF AND SUB PUSH2 0xECA JUMPI PUSH1 0x1 SWAP2 POP POP PUSH2 0xEDC JUMP JUMPDEST DUP1 DUP1 PUSH1 0x1 ADD SWAP2 POP POP PUSH2 0xE45 JUMP JUMPDEST POP PUSH0 SWAP1 POP JUMPDEST SWAP2 SWAP1 POP JUMP JUMPDEST PUSH2 0xF5D DUP5 DUP6 PUSH20 0xFFFFFFFFFFFFFFFFFFFFFFFFFFFFFFFFFFFFFFFF AND PUSH4 0x23B872DD DUP7 DUP7 DUP7 PUSH1 0x40 MLOAD PUSH1 0x24 ADD PUSH2 0xF16 SWAP4 SWAP3 SWAP2 SWAP1 PUSH2 0x17A3 JUMP JUMPDEST PUSH1 0x40 MLOAD PUSH1 0x20 DUP2 DUP4 SUB SUB DUP2 MSTORE SWAP1 PUSH1 0x40 MSTORE SWAP2 POP PUSH1 0xE0 SHL PUSH1 0x20 DUP3 ADD DUP1 MLOAD PUSH28 0xFFFFFFFFFFFFFFFFFFFFFFFFFFFFFFFFFFFFFFFFFFFFFFFFFFFFFFFF DUP4 DUP2 DUP4 AND OR DUP4 MSTORE POP POP POP POP PUSH2 0xFE2 JUMP JUMPDEST POP POP POP POP JUMP JUMPDEST PUSH2 0xFDD DUP4 DUP5 PUSH20 0xFFFFFFFFFFFFFFFFFFFFFFFFFFFFFFFFFFFFFFFF AND PUSH4 0xA9059CBB DUP6 DUP6 PUSH1 0x40 MLOAD PUSH1 0x24 ADD PUSH2 0xF96 SWAP3 SWAP2 SWAP1 PUSH2 0x14B9 JUMP JUMPDEST PUSH1 0x40 MLOAD PUSH1 0x20 DUP2 DUP4 SUB SUB DUP2 MSTORE SWAP1 PUSH1 0x40 MSTORE SWAP2 POP PUSH1 0xE0 SHL PUSH1 0x20 DUP3 ADD DUP1 MLOAD PUSH28 0xFFFFFFFFFFFFFFFFFFFFFFFFFFFFFFFFFFFFFFFFFFFFFFFFFFFFFFFF DUP4 DUP2 DUP4 AND OR DUP4 MSTORE POP POP POP POP PUSH2 0xFE2 JUMP JUMPDEST POP POP POP JUMP JUMPDEST PUSH0 PUSH2 0x100C DUP3 DUP5 PUSH20 0xFFFFFFFFFFFFFFFFFFFFFFFFFFFFFFFFFFFFFFFF AND PUSH2 0x1077 SWAP1 SWAP2 SWAP1 PUSH4 0xFFFFFFFF AND JUMP JUMPDEST SWAP1 POP PUSH0 DUP2 MLOAD EQ ISZERO DUP1 ISZERO PUSH2 0x1030 JUMPI POP DUP1 DUP1 PUSH1 0x20 ADD SWAP1 MLOAD DUP2 ADD SWAP1 PUSH2 0x102E SWAP2 SWAP1 PUSH2 0x180D JUMP JUMPDEST ISZERO JUMPDEST ISZERO PUSH2 0x1072 JUMPI DUP3 PUSH1 0x40 MLOAD PUSH32 0x5274AFE700000000000000000000000000000000000000000000000000000000 DUP2 MSTORE PUSH1 0x4 ADD PUSH2 0x1069 SWAP2 SWAP1 PUSH2 0x1382 JUMP JUMPDEST PUSH1 0x40 MLOAD DUP1 SWAP2 SUB SWAP1 REVERT JUMPDEST POP POP POP JUMP JUMPDEST PUSH1 0x60 PUSH2 0x1084 DUP4 DUP4 PUSH0 PUSH2 0x108C JUMP JUMPDEST SWAP1 POP SWAP3 SWAP2 POP POP JUMP JUMPDEST PUSH1 0x60 DUP2 SELFBALANCE LT ISZERO PUSH2 0x10D3 JUMPI ADDRESS PUSH1 0x40 MLOAD PUSH32 0xCD78605900000000000000000000000000000000000000000000000000000000 DUP2 MSTORE PUSH1 0x4 ADD PUSH2 0x10CA SWAP2 SWAP1 PUSH2 0x1382 JUMP JUMPDEST PUSH1 0x40 MLOAD DUP1 SWAP2 SUB SWAP1 REVERT JUMPDEST PUSH0 DUP1 DUP6 PUSH20 0xFFFFFFFFFFFFFFFFFFFFFFFFFFFFFFFFFFFFFFFF AND DUP5 DUP7 PUSH1 0x40 MLOAD PUSH2 0x10FB SWAP2 SWAP1 PUSH2 0x188A JUMP JUMPDEST PUSH0 PUSH1 0x40 MLOAD DUP1 DUP4 SUB DUP2 DUP6 DUP8 GAS CALL SWAP3 POP POP POP RETURNDATASIZE DUP1 PUSH0 DUP2 EQ PUSH2 0x1135 JUMPI PUSH1 0x40 MLOAD SWAP2 POP PUSH1 0x1F NOT PUSH1 0x3F RETURNDATASIZE ADD AND DUP3 ADD PUSH1 0x40 MSTORE RETURNDATASIZE DUP3 MSTORE RETURNDATASIZE PUSH0 PUSH1 0x20 DUP5 ADD RETURNDATACOPY PUSH2 0x113A JUMP JUMPDEST PUSH1 0x60 SWAP2 POP JUMPDEST POP SWAP2 POP SWAP2 POP PUSH2 0x114A DUP7 DUP4 DUP4 PUSH2 0x1155 JUMP JUMPDEST SWAP3 POP POP POP SWAP4 SWAP3 POP POP POP JUMP JUMPDEST PUSH1 0x60 DUP3 PUSH2 0x116A JUMPI PUSH2 0x1165 DUP3 PUSH2 0x11E2 JUMP JUMPDEST PUSH2 0x11DA JUMP JUMPDEST PUSH0 DUP3 MLOAD EQ DUP1 ISZERO PUSH2 0x1190 JUMPI POP PUSH0 DUP5 PUSH20 0xFFFFFFFFFFFFFFFFFFFFFFFFFFFFFFFFFFFFFFFF AND EXTCODESIZE EQ JUMPDEST ISZERO PUSH2 0x11D2 JUMPI DUP4 PUSH1 0x40 MLOAD PUSH32 0x9996B31500000000000000000000000000000000000000000000000000000000 DUP2 MSTORE PUSH1 0x4 ADD PUSH2 0x11C9 SWAP2 SWAP1 PUSH2 0x1382 JUMP JUMPDEST PUSH1 0x40 MLOAD DUP1 SWAP2 SUB SWAP1 REVERT JUMPDEST DUP2 SWAP1 POP PUSH2 0x11DB JUMP JUMPDEST JUMPDEST SWAP4 SWAP3 POP POP POP JUMP JUMPDEST PUSH0 DUP2 MLOAD GT ISZERO PUSH2 0x11F4 JUMPI DUP1 MLOAD DUP1 DUP3 PUSH1 0x20 ADD REVERT JUMPDEST PUSH1 0x40 MLOAD PUSH32 0x1425EA4200000000000000000000000000000000000000000000000000000000 DUP2 MSTORE PUSH1 0x4 ADD PUSH1 0x40 MLOAD DUP1 SWAP2 SUB SWAP1 REVERT JUMPDEST PUSH0 DUP1 REVERT JUMPDEST PUSH0 PUSH20 0xFFFFFFFFFFFFFFFFFFFFFFFFFFFFFFFFFFFFFFFF DUP3 AND SWAP1 POP SWAP2 SWAP1 POP JUMP JUMPDEST PUSH0 PUSH2 0x1253 DUP3 PUSH2 0x122A JUMP JUMPDEST SWAP1 POP SWAP2 SWAP1 POP JUMP JUMPDEST PUSH2 0x1263 DUP2 PUSH2 0x1249 JUMP JUMPDEST DUP2 EQ PUSH2 0x126D JUMPI PUSH0 DUP1 REVERT JUMPDEST POP JUMP JUMPDEST PUSH0 DUP2 CALLDATALOAD SWAP1 POP PUSH2 0x127E DUP2 PUSH2 0x125A JUMP JUMPDEST SWAP3 SWAP2 POP POP JUMP JUMPDEST PUSH0 DUP2 SWAP1 POP SWAP2 SWAP1 POP JUMP JUMPDEST PUSH2 0x1296 DUP2 PUSH2 0x1284 JUMP JUMPDEST DUP2 EQ PUSH2 0x12A0 JUMPI PUSH0 DUP1 REVERT JUMPDEST POP JUMP JUMPDEST PUSH0 DUP2 CALLDATALOAD SWAP1 POP PUSH2 0x12B1 DUP2 PUSH2 0x128D JUMP JUMPDEST SWAP3 SWAP2 POP POP JUMP JUMPDEST PUSH0 DUP1 PUSH1 0x40 DUP4 DUP6 SUB SLT ISZERO PUSH2 0x12CD JUMPI PUSH2 0x12CC PUSH2 0x1226 JUMP JUMPDEST JUMPDEST PUSH0 PUSH2 0x12DA DUP6 DUP3 DUP7 ADD PUSH2 0x1270 JUMP JUMPDEST SWAP3 POP POP PUSH1 0x20 PUSH2 0x12EB DUP6 DUP3 DUP7 ADD PUSH2 0x12A3 JUMP JUMPDEST SWAP2 POP POP SWAP3 POP SWAP3 SWAP1 POP JUMP JUMPDEST PUSH0 PUSH1 0x20 DUP3 DUP5 SUB SLT ISZERO PUSH2 0x130A JUMPI PUSH2 0x1309 PUSH2 0x1226 JUMP JUMPDEST JUMPDEST PUSH0 PUSH2 0x1317 DUP5 DUP3 DUP6 ADD PUSH2 0x1270 JUMP JUMPDEST SWAP2 POP POP SWAP3 SWAP2 POP POP JUMP JUMPDEST PUSH2 0x1329 DUP2 PUSH2 0x1284 JUMP JUMPDEST DUP3 MSTORE POP POP JUMP JUMPDEST PUSH0 PUSH1 0x20 DUP3 ADD SWAP1 POP PUSH2 0x1342 PUSH0 DUP4 ADD DUP5 PUSH2 0x1320 JUMP JUMPDEST SWAP3 SWAP2 POP POP JUMP JUMPDEST PUSH0 PUSH1 0x20 DUP3 DUP5 SUB SLT ISZERO PUSH2 0x135D JUMPI PUSH2 0x135C PUSH2 0x1226 JUMP JUMPDEST JUMPDEST PUSH0 PUSH2 0x136A DUP5 DUP3 DUP6 ADD PUSH2 0x12A3 JUMP JUMPDEST SWAP2 POP POP SWAP3 SWAP2 POP POP JUMP JUMPDEST PUSH2 0x137C DUP2 PUSH2 0x1249 JUMP JUMPDEST DUP3 MSTORE POP POP JUMP JUMPDEST PUSH0 PUSH1 0x20 DUP3 ADD SWAP1 POP PUSH2 0x1395 PUSH0 DUP4 ADD DUP5 PUSH2 0x1373 JUMP JUMPDEST SWAP3 SWAP2 POP POP JUMP JUMPDEST PUSH0 DUP1 PUSH1 0x40 DUP4 DUP6 SUB SLT ISZERO PUSH2 0x13B1 JUMPI PUSH2 0x13B0 PUSH2 0x1226 JUMP JUMPDEST JUMPDEST PUSH0 PUSH2 0x13BE DUP6 DUP3 DUP7 ADD PUSH2 0x1270 JUMP JUMPDEST SWAP3 POP POP PUSH1 0x20 PUSH2 0x13CF DUP6 DUP3 DUP7 ADD PUSH2 0x1270 JUMP JUMPDEST SWAP2 POP POP SWAP3 POP SWAP3 SWAP1 POP JUMP JUMPDEST PUSH0 DUP3 DUP3 MSTORE PUSH1 0x20 DUP3 ADD SWAP1 POP SWAP3 SWAP2 POP POP JUMP JUMPDEST PUSH32 0x4E6F7420617574686F72697A6564000000000000000000000000000000000000 PUSH0 DUP3 ADD MSTORE POP JUMP JUMPDEST PUSH0 PUSH2 0x141D PUSH1 0xE DUP4 PUSH2 0x13D9 JUMP JUMPDEST SWAP2 POP PUSH2 0x1428 DUP3 PUSH2 0x13E9 JUMP JUMPDEST PUSH1 0x20 DUP3 ADD SWAP1 POP SWAP2 SWAP1 POP JUMP JUMPDEST PUSH0 PUSH1 0x20 DUP3 ADD SWAP1 POP DUP2 DUP2 SUB PUSH0 DUP4 ADD MSTORE PUSH2 0x144A DUP2 PUSH2 0x1411 JUMP JUMPDEST SWAP1 POP SWAP2 SWAP1 POP JUMP JUMPDEST PUSH32 0x546F6B656E206E6F7420737570706F7274656400000000000000000000000000 PUSH0 DUP3 ADD MSTORE POP JUMP JUMPDEST PUSH0 PUSH2 0x1485 PUSH1 0x13 DUP4 PUSH2 0x13D9 JUMP JUMPDEST SWAP2 POP PUSH2 0x1490 DUP3 PUSH2 0x1451 JUMP JUMPDEST PUSH1 0x20 DUP3 ADD SWAP1 POP SWAP2 SWAP1 POP JUMP JUMPDEST PUSH0 PUSH1 0x20 DUP3 ADD SWAP1 POP DUP2 DUP2 SUB PUSH0 DUP4 ADD MSTORE PUSH2 0x14B2 DUP2 PUSH2 0x1479 JUMP JUMPDEST SWAP1 POP SWAP2 SWAP1 POP JUMP JUMPDEST PUSH0 PUSH1 0x40 DUP3 ADD SWAP1 POP PUSH2 0x14CC PUSH0 DUP4 ADD DUP6 PUSH2 0x1373 JUMP JUMPDEST PUSH2 0x14D9 PUSH1 0x20 DUP4 ADD DUP5 PUSH2 0x1320 JUMP JUMPDEST SWAP4 SWAP3 POP POP POP JUMP JUMPDEST PUSH32 0x46656520746F6F20686967680000000000000000000000000000000000000000 PUSH0 DUP3 ADD MSTORE POP JUMP JUMPDEST PUSH0 PUSH2 0x1514 PUSH1 0xC DUP4 PUSH2 0x13D9 JUMP JUMPDEST SWAP2 POP PUSH2 0x151F DUP3 PUSH2 0x14E0 JUMP JUMPDEST PUSH1 0x20 DUP3 ADD SWAP1 POP SWAP2 SWAP1 POP JUMP JUMPDEST PUSH0 PUSH1 0x20 DUP3 ADD SWAP1 POP DUP2 DUP2 SUB PUSH0 DUP4 ADD MSTORE PUSH2 0x1541 DUP2 PUSH2 0x1508 JUMP JUMPDEST SWAP1 POP SWAP2 SWAP1 POP JUMP JUMPDEST PUSH32 0x546F6B656E20616C726561647920737570706F72746564000000000000000000 PUSH0 DUP3 ADD MSTORE POP JUMP JUMPDEST PUSH0 PUSH2 0x157C PUSH1 0x17 DUP4 PUSH2 0x13D9 JUMP JUMPDEST SWAP2 POP PUSH2 0x1587 DUP3 PUSH2 0x1548 JUMP JUMPDEST PUSH1 0x20 DUP3 ADD SWAP1 POP SWAP2 SWAP1 POP JUMP JUMPDEST PUSH0 PUSH1 0x20 DUP3 ADD SWAP1 POP DUP2 DUP2 SUB PUSH0 DUP4 ADD MSTORE PUSH2 0x15A9 DUP2 PUSH2 0x1570 JUMP JUMPDEST SWAP1 POP SWAP2 SWAP1 POP JUMP JUMPDEST PUSH32 0x4E487B7100000000000000000000000000000000000000000000000000000000 PUSH0 MSTORE PUSH1 0x11 PUSH1 0x4 MSTORE PUSH1 0x24 PUSH0 REVERT JUMPDEST PUSH0 PUSH2 0x15E7 DUP3 PUSH2 0x1284 JUMP JUMPDEST SWAP2 POP PUSH2 0x15F2 DUP4 PUSH2 0x1284 JUMP JUMPDEST SWAP3 POP DUP3 DUP3 MUL PUSH2 0x1600 DUP2 PUSH2 0x1284 JUMP JUMPDEST SWAP2 POP DUP3 DUP3 DIV DUP5 EQ DUP4 ISZERO OR PUSH2 0x1617 JUMPI PUSH2 0x1616 PUSH2 0x15B0 JUMP JUMPDEST JUMPDEST POP SWAP3 SWAP2 POP POP JUMP JUMPDEST PUSH32 0x4E487B7100000000000000000000000000000000000000000000000000000000 PUSH0 MSTORE PUSH1 0x12 PUSH1 0x4 MSTORE PUSH1 0x24 PUSH0 REVERT JUMPDEST PUSH0 PUSH2 0x1655 DUP3 PUSH2 0x1284 JUMP JUMPDEST SWAP2 POP PUSH2 0x1660 DUP4 PUSH2 0x1284 JUMP JUMPDEST SWAP3 POP DUP3 PUSH2 0x1670 JUMPI PUSH2 0x166F PUSH2 0x161E JUMP JUMPDEST JUMPDEST DUP3 DUP3 DIV SWAP1 POP SWAP3 SWAP2 POP POP JUMP JUMPDEST PUSH0 PUSH2 0x1685 DUP3 PUSH2 0x1284 JUMP JUMPDEST SWAP2 POP PUSH2 0x1690 DUP4 PUSH2 0x1284 JUMP JUMPDEST SWAP3 POP DUP3 DUP3 SUB SWAP1 POP DUP2 DUP2 GT ISZERO PUSH2 0x16A8 JUMPI PUSH2 0x16A7 PUSH2 0x15B0 JUMP JUMPDEST JUMPDEST SWAP3 SWAP2 POP POP JUMP JUMPDEST PUSH0 PUSH2 0x16B8 DUP3 PUSH2 0x1284 JUMP JUMPDEST SWAP2 POP PUSH2 0x16C3 DUP4 PUSH2 0x1284 JUMP JUMPDEST SWAP3 POP DUP3 DUP3 ADD SWAP1 POP DUP1 DUP3 GT ISZERO PUSH2 0x16DB JUMPI PUSH2 0x16DA PUSH2 0x15B0 JUMP JUMPDEST JUMPDEST SWAP3 SWAP2 POP POP JUMP JUMPDEST PUSH32 0x4E487B7100000000000000000000000000000000000000000000000000000000 PUSH0 MSTORE PUSH1 0x32 PUSH1 0x4 MSTORE PUSH1 0x24 PUSH0 REVERT JUMPDEST PUSH32 0x4E487B7100000000000000000000000000000000000000000000000000000000 PUSH0 MSTORE PUSH1 0x31 PUSH1 0x4 MSTORE PUSH1 0x24 PUSH0 REVERT JUMPDEST PUSH32 0x496E73756666696369656E742062616C616E6365000000000000000000000000 PUSH0 DUP3 ADD MSTORE POP JUMP JUMPDEST PUSH0 PUSH2 0x176F PUSH1 0x14 DUP4 PUSH2 0x13D9 JUMP JUMPDEST SWAP2 POP PUSH2 0x177A DUP3 PUSH2 0x173B JUMP JUMPDEST PUSH1 0x20 DUP3 ADD SWAP1 POP SWAP2 SWAP1 POP JUMP JUMPDEST PUSH0 PUSH1 0x20 DUP3 ADD SWAP1 POP DUP2 DUP2 SUB PUSH0 DUP4 ADD MSTORE PUSH2 0x179C DUP2 PUSH2 0x1763 JUMP JUMPDEST SWAP1 POP SWAP2 SWAP1 POP JUMP JUMPDEST PUSH0 PUSH1 0x60 DUP3 ADD SWAP1 POP PUSH2 0x17B6 PUSH0 DUP4 ADD DUP7 PUSH2 0x1373 JUMP JUMPDEST PUSH2 0x17C3 PUSH1 0x20 DUP4 ADD DUP6 PUSH2 0x1373 JUMP JUMPDEST PUSH2 0x17D0 PUSH1 0x40 DUP4 ADD DUP5 PUSH2 0x1320 JUMP JUMPDEST SWAP5 SWAP4 POP POP POP POP JUMP JUMPDEST PUSH0 DUP2 ISZERO ISZERO SWAP1 POP SWAP2 SWAP1 POP JUMP JUMPDEST PUSH2 0x17EC DUP2 PUSH2 0x17D8 JUMP JUMPDEST DUP2 EQ PUSH2 0x17F6 JUMPI PUSH0 DUP1 REVERT JUMPDEST POP JUMP JUMPDEST PUSH0 DUP2 MLOAD SWAP1 POP PUSH2 0x1807 DUP2 PUSH2 0x17E3 JUMP JUMPDEST SWAP3 SWAP2 POP POP JUMP JUMPDEST PUSH0 PUSH1 0x20 DUP3 DUP5 SUB SLT ISZERO PUSH2 0x1822 JUMPI PUSH2 0x1821 PUSH2 0x1226 JUMP JUMPDEST JUMPDEST PUSH0 PUSH2 0x182F DUP5 DUP3 DUP6 ADD PUSH2 0x17F9 JUMP JUMPDEST SWAP2 POP POP SWAP3 SWAP2 POP POP JUMP JUMPDEST PUSH0 DUP2 MLOAD SWAP1 POP SWAP2 SWAP1 POP JUMP JUMPDEST PUSH0 DUP2 SWAP1 POP SWAP3 SWAP2 POP POP JUMP JUMPDEST DUP3 DUP2 DUP4 MCOPY PUSH0 DUP4 DUP4 ADD MSTORE POP POP POP JUMP JUMPDEST PUSH0 PUSH2 0x1864 DUP3 PUSH2 0x1838 JUMP JUMPDEST PUSH2 0x186E DUP2 DUP6 PUSH2 0x1842 JUMP JUMPDEST SWAP4 POP PUSH2 0x187E DUP2 DUP6 PUSH1 0x20 DUP7 ADD PUSH2 0x184C JUMP JUMPDEST DUP1 DUP5 ADD SWAP2 POP POP SWAP3 SWAP2 POP POP JUMP JUMPDEST PUSH0 PUSH2 0x1895 DUP3 DUP5 PUSH2 0x185A JUMP JUMPDEST SWAP2 POP DUP2 SWAP1 POP SWAP3 SWAP2 POP POP JUMP INVALID LOG2 PUSH5 0x6970667358 0x22 SLT KECCAK256 0xAB SUB 0xE5 PC DIV 0x27 0xC0 SWAP2 PUSH14 0xF5AA02A59A6CBA7BAAA8C91C7B0B 0xF9 0xCF PUSH29 0x982104688E0F64736F6C634300081A0033000000000000000000000000 "
		},
		"gasEstimates": {
			"creation": {
				"codeDepositCost": "1271600",
				"executionCost": "infinite",
				"totalCost": "infinite"
			},
			"external": {
				"addLiquidity(address,uint256)": "infinite",
				"addSupportedToken(address,uint256)": "infinite",
				"getUserBalance(address,address)": "infinite",
				"governance()": "2619",
				"liquidityFee()": "2469",
				"removeLiquidity(address,uint256)": "infinite",
				"removeSupportedToken(address)": "infinite",
				"setLiquidityFee(uint256)": "24755",
				"supportedTokens(uint256)": "5054",
				"tokenWeights(address)": "2890",
				"totalPoolLiquidity(address)": "2825",
				"updateTokenWeight(address,uint256)": "infinite"
			},
			"internal": {
				"isSupportedToken(address)": "infinite"
			}
		},
		"methodIdentifiers": {
			"addLiquidity(address,uint256)": "56688700",
			"addSupportedToken(address,uint256)": "4d8e3d3b",
			"getUserBalance(address,address)": "6805d6ad",
			"governance()": "5aa6e675",
			"liquidityFee()": "98118cb4",
			"removeLiquidity(address,uint256)": "a201ccf6",
			"removeSupportedToken(address)": "76319190",
			"setLiquidityFee(uint256)": "357bf15c",
			"supportedTokens(uint256)": "c6255626",
			"tokenWeights(address)": "ab2f3ad4",
			"totalPoolLiquidity(address)": "3053f0b2",
			"updateTokenWeight(address,uint256)": "21faf184"
		}
	},
	"abi": [
		{
			"inputs": [
				{
					"internalType": "address[]",
					"name": "_tokens",
					"type": "address[]"
				},
				{
					"internalType": "uint256[]",
					"name": "_weights",
					"type": "uint256[]"
				},
				{
					"internalType": "address",
					"name": "_governance",
					"type": "address"
				}
			],
			"stateMutability": "nonpayable",
			"type": "constructor"
		},
		{
			"inputs": [
				{
					"internalType": "address",
					"name": "target",
					"type": "address"
				}
			],
			"name": "AddressEmptyCode",
			"type": "error"
		},
		{
			"inputs": [
				{
					"internalType": "address",
					"name": "account",
					"type": "address"
				}
			],
			"name": "AddressInsufficientBalance",
			"type": "error"
		},
		{
			"inputs": [],
			"name": "FailedInnerCall",
			"type": "error"
		},
		{
			"inputs": [
				{
					"internalType": "address",
					"name": "token",
					"type": "address"
				}
			],
			"name": "SafeERC20FailedOperation",
			"type": "error"
		},
		{
			"anonymous": false,
			"inputs": [
				{
					"indexed": true,
					"internalType": "address",
					"name": "provider",
					"type": "address"
				},
				{
					"indexed": false,
					"internalType": "address",
					"name": "token",
					"type": "address"
				},
				{
					"indexed": false,
					"internalType": "uint256",
					"name": "amount",
					"type": "uint256"
				}
			],
			"name": "LiquidityAdded",
			"type": "event"
		},
		{
			"anonymous": false,
			"inputs": [
				{
					"indexed": true,
					"internalType": "address",
					"name": "provider",
					"type": "address"
				},
				{
					"indexed": false,
					"internalType": "address",
					"name": "token",
					"type": "address"
				},
				{
					"indexed": false,
					"internalType": "uint256",
					"name": "amount",
					"type": "uint256"
				}
			],
			"name": "LiquidityRemoved",
			"type": "event"
		},
		{
			"anonymous": false,
			"inputs": [
				{
					"indexed": false,
					"internalType": "address",
					"name": "token",
					"type": "address"
				},
				{
					"indexed": false,
					"internalType": "uint256",
					"name": "newWeight",
					"type": "uint256"
				}
			],
			"name": "TokenWeightUpdated",
			"type": "event"
		},
		{
			"inputs": [
				{
					"internalType": "address",
					"name": "token",
					"type": "address"
				},
				{
					"internalType": "uint256",
					"name": "amount",
					"type": "uint256"
				}
			],
			"name": "addLiquidity",
			"outputs": [],
			"stateMutability": "nonpayable",
			"type": "function"
		},
		{
			"inputs": [
				{
					"internalType": "address",
					"name": "token",
					"type": "address"
				},
				{
					"internalType": "uint256",
					"name": "weight",
					"type": "uint256"
				}
			],
			"name": "addSupportedToken",
			"outputs": [],
			"stateMutability": "nonpayable",
			"type": "function"
		},
		{
			"inputs": [
				{
					"internalType": "address",
					"name": "user",
					"type": "address"
				},
				{
					"internalType": "address",
					"name": "token",
					"type": "address"
				}
			],
			"name": "getUserBalance",
			"outputs": [
				{
					"internalType": "uint256",
					"name": "",
					"type": "uint256"
				}
			],
			"stateMutability": "view",
			"type": "function"
		},
		{
			"inputs": [],
			"name": "governance",
			"outputs": [
				{
					"internalType": "address",
					"name": "",
					"type": "address"
				}
			],
			"stateMutability": "view",
			"type": "function"
		},
		{
			"inputs": [],
			"name": "liquidityFee",
			"outputs": [
				{
					"internalType": "uint256",
					"name": "",
					"type": "uint256"
				}
			],
			"stateMutability": "view",
			"type": "function"
		},
		{
			"inputs": [
				{
					"internalType": "address",
					"name": "token",
					"type": "address"
				},
				{
					"internalType": "uint256",
					"name": "amount",
					"type": "uint256"
				}
			],
			"name": "removeLiquidity",
			"outputs": [],
			"stateMutability": "nonpayable",
			"type": "function"
		},
		{
			"inputs": [
				{
					"internalType": "address",
					"name": "token",
					"type": "address"
				}
			],
			"name": "removeSupportedToken",
			"outputs": [],
			"stateMutability": "nonpayable",
			"type": "function"
		},
		{
			"inputs": [
				{
					"internalType": "uint256",
					"name": "_liquidityFee",
					"type": "uint256"
				}
			],
			"name": "setLiquidityFee",
			"outputs": [],
			"stateMutability": "nonpayable",
			"type": "function"
		},
		{
			"inputs": [
				{
					"internalType": "uint256",
					"name": "",
					"type": "uint256"
				}
			],
			"name": "supportedTokens",
			"outputs": [
				{
					"internalType": "address",
					"name": "",
					"type": "address"
				}
			],
			"stateMutability": "view",
			"type": "function"
		},
		{
			"inputs": [
				{
					"internalType": "address",
					"name": "",
					"type": "address"
				}
			],
			"name": "tokenWeights",
			"outputs": [
				{
					"internalType": "uint256",
					"name": "",
					"type": "uint256"
				}
			],
			"stateMutability": "view",
			"type": "function"
		},
		{
			"inputs": [
				{
					"internalType": "address",
					"name": "",
					"type": "address"
				}
			],
			"name": "totalPoolLiquidity",
			"outputs": [
				{
					"internalType": "uint256",
					"name": "",
					"type": "uint256"
				}
			],
			"stateMutability": "view",
			"type": "function"
		},
		{
			"inputs": [
				{
					"internalType": "address",
					"name": "token",
					"type": "address"
				},
				{
					"internalType": "uint256",
					"name": "newWeight",
					"type": "uint256"
				}
			],
			"name": "updateTokenWeight",
			"outputs": [],
			"stateMutability": "nonpayable",
			"type": "function"
		}
	]
}