{
	"data": {
		"bytecode": {
			"linkReferences": {},
			"object": "60db61004c600b8282823980515f1a6073146040577f4e487b71000000000000000000000000000000000000000000000000000000005f525f60045260245ffd5b305f52607381538281f3fe73000000000000000000000000000000000000000030146080604052600436106032575f3560e01c806391cb4669146036575b5f80fd5b603c6050565b60405160479190608e565b60405180910390f35b5f81565b5f819050919050565b5f819050919050565b5f607a60766072846054565b605d565b6054565b9050919050565b6088816066565b82525050565b5f602082019050609f5f8301846081565b9291505056fea2646970667358221220ca9630982d3ad02a149300288526795890da3a2ab54dde6176528c51f09a8c2464736f6c634300081a0033",
			"opcodes": "PUSH1 0xDB PUSH2 0x4C PUSH1 0xB DUP3 DUP3 DUP3 CODECOPY DUP1 MLOAD PUSH0 BYTE PUSH1 0x73 EQ PUSH1 0x40 JUMPI PUSH32 0x4E487B7100000000000000000000000000000000000000000000000000000000 PUSH0 MSTORE PUSH0 PUSH1 0x4 MSTORE PUSH1 0x24 PUSH0 REVERT JUMPDEST ADDRESS PUSH0 MSTORE PUSH1 0x73 DUP2 MSTORE8 DUP3 DUP2 RETURN INVALID PUSH20 0x0 ADDRESS EQ PUSH1 0x80 PUSH1 0x40 MSTORE PUSH1 0x4 CALLDATASIZE LT PUSH1 0x32 JUMPI PUSH0 CALLDATALOAD PUSH1 0xE0 SHR DUP1 PUSH4 0x91CB4669 EQ PUSH1 0x36 JUMPI JUMPDEST PUSH0 DUP1 REVERT JUMPDEST PUSH1 0x3C PUSH1 0x50 JUMP JUMPDEST PUSH1 0x40 MLOAD PUSH1 0x47 SWAP2 SWAP1 PUSH1 0x8E JUMP JUMPDEST PUSH1 0x40 MLOAD DUP1 SWAP2 SUB SWAP1 RETURN JUMPDEST PUSH0 DUP2 JUMP JUMPDEST PUSH0 DUP2 SWAP1 POP SWAP2 SWAP1 POP JUMP JUMPDEST PUSH0 DUP2 SWAP1 POP SWAP2 SWAP1 POP JUMP JUMPDEST PUSH0 PUSH1 0x7A PUSH1 0x76 PUSH1 0x72 DUP5 PUSH1 0x54 JUMP JUMPDEST PUSH1 0x5D JUMP JUMPDEST PUSH1 0x54 JUMP JUMPDEST SWAP1 POP SWAP2 SWAP1 POP JUMP JUMPDEST PUSH1 0x88 DUP2 PUSH1 0x66 JUMP JUMPDEST DUP3 MSTORE POP POP JUMP JUMPDEST PUSH0 PUSH1 0x20 DUP3 ADD SWAP1 POP PUSH1 0x9F PUSH0 DUP4 ADD DUP5 PUSH1 0x81 JUMP JUMPDEST SWAP3 SWAP2 POP POP JUMP INVALID LOG2 PUSH5 0x6970667358 0x22 SLT KECCAK256 0xCA SWAP7 ADDRESS SWAP9 0x2D GASPRICE 0xD0 0x2A EQ SWAP4 STOP 0x28 DUP6 0x26 PUSH26 0x5890DA3A2AB54DDE6176528C51F09A8C2464736F6C634300081A STOP CALLER "
		},
		"gasEstimates": {
			"creation": {
				"codeDepositCost": "43800",
				"executionCost": "119",
				"totalCost": "43919"
			},
			"external": {
				"ZERO_DELTA()": "infinite"
			},
			"internal": {
				"getSpecifiedDelta(BeforeSwapDelta)": "infinite",
				"getUnspecifiedDelta(BeforeSwapDelta)": "infinite"
			}
		},
		"methodIdentifiers": {
			"ZERO_DELTA()": "91cb4669"
		}
	},
	"abi": [
		{
			"inputs": [],
			"name": "ZERO_DELTA",
			"outputs": [
				{
					"internalType": "BeforeSwapDelta",
					"name": "",
					"type": "int256"
				}
			],
			"stateMutability": "view",
			"type": "function"
		}
	]
}